{
  "contractName": "Activation",
  "abi": [
    {
      "constant": true,
      "inputs": [],
      "name": "projectLeaderTracker",
      "outputs": [
        {
          "name": "",
          "type": "address"
        }
      ],
      "payable": false,
      "stateMutability": "view",
      "type": "function"
    },
    {
      "constant": false,
      "inputs": [
        {
          "name": "recipient",
          "type": "address"
        }
      ],
      "name": "transferProjectFactoryKey",
      "outputs": [],
      "payable": false,
      "stateMutability": "nonpayable",
      "type": "function"
    },
    {
      "constant": false,
      "inputs": [],
      "name": "renounceOwnership",
      "outputs": [],
      "payable": false,
      "stateMutability": "nonpayable",
      "type": "function"
    },
    {
      "constant": true,
      "inputs": [],
      "name": "owner",
      "outputs": [
        {
          "name": "",
          "type": "address"
        }
      ],
      "payable": false,
      "stateMutability": "view",
      "type": "function"
    },
    {
      "constant": true,
      "inputs": [],
      "name": "projectFactory",
      "outputs": [
        {
          "name": "",
          "type": "address"
        }
      ],
      "payable": false,
      "stateMutability": "view",
      "type": "function"
    },
    {
      "constant": true,
      "inputs": [],
      "name": "crowdsale",
      "outputs": [
        {
          "name": "",
          "type": "address"
        }
      ],
      "payable": false,
      "stateMutability": "view",
      "type": "function"
    },
    {
      "constant": true,
      "inputs": [],
      "name": "inactiveToken",
      "outputs": [
        {
          "name": "",
          "type": "address"
        }
      ],
      "payable": false,
      "stateMutability": "view",
      "type": "function"
    },
    {
      "constant": true,
      "inputs": [],
      "name": "_owner",
      "outputs": [
        {
          "name": "",
          "type": "address"
        }
      ],
      "payable": false,
      "stateMutability": "view",
      "type": "function"
    },
    {
      "constant": false,
      "inputs": [
        {
          "name": "_newOwner",
          "type": "address"
        }
      ],
      "name": "transferOwnership",
      "outputs": [],
      "payable": false,
      "stateMutability": "nonpayable",
      "type": "function"
    },
    {
      "inputs": [
        {
          "name": "_inactiveToken",
          "type": "address"
        },
        {
          "name": "_projectLeaderTracker",
          "type": "address"
        }
      ],
      "payable": false,
      "stateMutability": "nonpayable",
      "type": "constructor"
    },
    {
      "anonymous": false,
      "inputs": [
        {
          "indexed": false,
          "name": "addr",
          "type": "address"
        },
        {
          "indexed": false,
          "name": "capitalRequired",
          "type": "uint256"
        },
        {
          "indexed": false,
          "name": "time",
          "type": "uint256"
        }
      ],
      "name": "ProjectActivation",
      "type": "event"
    },
    {
      "anonymous": false,
      "inputs": [
        {
          "indexed": false,
          "name": "recipient",
          "type": "address"
        }
      ],
      "name": "ProjectFactoryTransferred",
      "type": "event"
    },
    {
      "anonymous": false,
      "inputs": [
        {
          "indexed": true,
          "name": "previousOwner",
          "type": "address"
        }
      ],
      "name": "OwnershipRenounced",
      "type": "event"
    },
    {
      "anonymous": false,
      "inputs": [
        {
          "indexed": true,
          "name": "previousOwner",
          "type": "address"
        },
        {
          "indexed": true,
          "name": "newOwner",
          "type": "address"
        }
      ],
      "name": "OwnershipTransferred",
      "type": "event"
    },
    {
      "constant": false,
      "inputs": [
        {
          "name": "_crowdsale",
          "type": "address"
        }
      ],
      "name": "setCrowdsale",
      "outputs": [],
      "payable": false,
      "stateMutability": "nonpayable",
      "type": "function"
    },
    {
      "constant": false,
      "inputs": [],
      "name": "tryActivateProject",
      "outputs": [],
      "payable": false,
      "stateMutability": "nonpayable",
      "type": "function"
    },
    {
      "constant": false,
      "inputs": [
        {
          "name": "projectAddress",
          "type": "address"
        },
        {
          "name": "capitalRequired",
          "type": "uint256"
        }
      ],
      "name": "activateProject",
      "outputs": [],
      "payable": false,
      "stateMutability": "nonpayable",
      "type": "function"
    }
  ],
  "bytecode": "0x608060405234801561001057600080fd5b506040516040806113e78339810180604052810190808051906020019092919080519060200190929190505050336000806101000a81548173ffffffffffffffffffffffffffffffffffffffff021916908373ffffffffffffffffffffffffffffffffffffffff16021790555033600260006101000a81548173ffffffffffffffffffffffffffffffffffffffff021916908373ffffffffffffffffffffffffffffffffffffffff1602179055507f9ac4999de6ca856e4619ce9f48d109e992281866886cd2ca7ca92c8f45f3e5c4600260009054906101000a900473ffffffffffffffffffffffffffffffffffffffff16604051808273ffffffffffffffffffffffffffffffffffffffff1673ffffffffffffffffffffffffffffffffffffffff16815260200191505060405180910390a181600360006101000a81548173ffffffffffffffffffffffffffffffffffffffff021916908373ffffffffffffffffffffffffffffffffffffffff16021790555080600460006101000a81548173ffffffffffffffffffffffffffffffffffffffff021916908373ffffffffffffffffffffffffffffffffffffffff1602179055505050611211806101d66000396000f3006080604052600436106100ba576000357c0100000000000000000000000000000000000000000000000000000000900463ffffffff16806307b898aa146100bf57806324745258146100d6578063483a20b21461012d5780635228313014610170578063715018a6146101b35780637e0513c5146101ca5780638da5cb5b1461021757806397f519741461026e5780639c1e03a0146102c5578063a431614a1461031c578063b2bdfa7b14610373578063f2fde38b146103ca575b600080fd5b3480156100cb57600080fd5b506100d461040d565b005b3480156100e257600080fd5b506100eb61070f565b604051808273ffffffffffffffffffffffffffffffffffffffff1673ffffffffffffffffffffffffffffffffffffffff16815260200191505060405180910390f35b34801561013957600080fd5b5061016e600480360381019080803573ffffffffffffffffffffffffffffffffffffffff169060200190929190505050610735565b005b34801561017c57600080fd5b506101b1600480360381019080803573ffffffffffffffffffffffffffffffffffffffff1690602001909291905050506107d4565b005b3480156101bf57600080fd5b506101c8610935565b005b3480156101d657600080fd5b50610215600480360381019080803573ffffffffffffffffffffffffffffffffffffffff16906020019092919080359060200190929190505050610a37565b005b34801561022357600080fd5b5061022c610aa1565b604051808273ffffffffffffffffffffffffffffffffffffffff1673ffffffffffffffffffffffffffffffffffffffff16815260200191505060405180910390f35b34801561027a57600080fd5b50610283610ac6565b604051808273ffffffffffffffffffffffffffffffffffffffff1673ffffffffffffffffffffffffffffffffffffffff16815260200191505060405180910390f35b3480156102d157600080fd5b506102da610af0565b604051808273ffffffffffffffffffffffffffffffffffffffff1673ffffffffffffffffffffffffffffffffffffffff16815260200191505060405180910390f35b34801561032857600080fd5b50610331610b16565b604051808273ffffffffffffffffffffffffffffffffffffffff1673ffffffffffffffffffffffffffffffffffffffff16815260200191505060405180910390f35b34801561037f57600080fd5b50610388610b3c565b604051808273ffffffffffffffffffffffffffffffffffffffff1673ffffffffffffffffffffffffffffffffffffffff16815260200191505060405180910390f35b3480156103d657600080fd5b5061040b600480360381019080803573ffffffffffffffffffffffffffffffffffffffff169060200190929190505050610b65565b005b600080600080600460009054906101000a900473ffffffffffffffffffffffffffffffffffffffff1673ffffffffffffffffffffffffffffffffffffffff1663af29f2f46040518163ffffffff167c01000000000000000000000000000000000000000000000000000000000281526004016040805180830381600087803b15801561049857600080fd5b505af11580156104ac573d6000803e3d6000fd5b505050506040513d60408110156104c257600080fd5b810190808051906020019092919080519060200190929190505050935093508391508173ffffffffffffffffffffffffffffffffffffffff1663ec61b0866040518163ffffffff167c0100000000000000000000000000000000000000000000000000000000028152600401602060405180830381600087803b15801561054857600080fd5b505af115801561055c573d6000803e3d6000fd5b505050506040513d602081101561057257600080fd5b810190808051906020019092919050505090508280156106525750600560009054906101000a900473ffffffffffffffffffffffffffffffffffffffff1673ffffffffffffffffffffffffffffffffffffffff1663e31bc6146040518163ffffffff167c0100000000000000000000000000000000000000000000000000000000028152600401602060405180830381600087803b15801561061357600080fd5b505af1158015610627573d6000803e3d6000fd5b505050506040513d602081101561063d57600080fd5b81019080805190602001909291905050508111155b80156106f957508173ffffffffffffffffffffffffffffffffffffffff1663fcfff16f6040518163ffffffff167c0100000000000000000000000000000000000000000000000000000000028152600401602060405180830381600087803b1580156106bd57600080fd5b505af11580156106d1573d6000803e3d6000fd5b505050506040513d60208110156106e757600080fd5b81019080805190602001909291905050505b15610709576107088482610bd4565b5b50505050565b600460009054906101000a900473ffffffffffffffffffffffffffffffffffffffff1681565b6000809054906101000a900473ffffffffffffffffffffffffffffffffffffffff1673ffffffffffffffffffffffffffffffffffffffff163373ffffffffffffffffffffffffffffffffffffffff1614151561079057600080fd5b80600560006101000a81548173ffffffffffffffffffffffffffffffffffffffff021916908373ffffffffffffffffffffffffffffffffffffffff16021790555050565b600260009054906101000a900473ffffffffffffffffffffffffffffffffffffffff1673ffffffffffffffffffffffffffffffffffffffff163373ffffffffffffffffffffffffffffffffffffffff1614151561083057600080fd5b600073ffffffffffffffffffffffffffffffffffffffff168173ffffffffffffffffffffffffffffffffffffffff161415151561086c57600080fd5b80600260006101000a81548173ffffffffffffffffffffffffffffffffffffffff021916908373ffffffffffffffffffffffffffffffffffffffff1602179055507f9ac4999de6ca856e4619ce9f48d109e992281866886cd2ca7ca92c8f45f3e5c4600260009054906101000a900473ffffffffffffffffffffffffffffffffffffffff16604051808273ffffffffffffffffffffffffffffffffffffffff1673ffffffffffffffffffffffffffffffffffffffff16815260200191505060405180910390a150565b6000809054906101000a900473ffffffffffffffffffffffffffffffffffffffff1673ffffffffffffffffffffffffffffffffffffffff163373ffffffffffffffffffffffffffffffffffffffff1614151561099057600080fd5b6000809054906101000a900473ffffffffffffffffffffffffffffffffffffffff1673ffffffffffffffffffffffffffffffffffffffff167ff8df31144d9c2f0f6b59d69b8b98abd5459d07f2742c4df920b25aae33c6482060405160405180910390a260008060006101000a81548173ffffffffffffffffffffffffffffffffffffffff021916908373ffffffffffffffffffffffffffffffffffffffff160217905550565b600260009054906101000a900473ffffffffffffffffffffffffffffffffffffffff1673ffffffffffffffffffffffffffffffffffffffff163373ffffffffffffffffffffffffffffffffffffffff16141515610a9357600080fd5b610a9d8282610bd4565b5050565b6000809054906101000a900473ffffffffffffffffffffffffffffffffffffffff1681565b6000600260009054906101000a900473ffffffffffffffffffffffffffffffffffffffff16905090565b600560009054906101000a900473ffffffffffffffffffffffffffffffffffffffff1681565b600360009054906101000a900473ffffffffffffffffffffffffffffffffffffffff1681565b60008060009054906101000a900473ffffffffffffffffffffffffffffffffffffffff16905090565b6000809054906101000a900473ffffffffffffffffffffffffffffffffffffffff1673ffffffffffffffffffffffffffffffffffffffff163373ffffffffffffffffffffffffffffffffffffffff16141515610bc057600080fd5b6005600181905550610bd1816110cf565b50565b6000808391508173ffffffffffffffffffffffffffffffffffffffff16630f15f4c06040518163ffffffff167c0100000000000000000000000000000000000000000000000000000000028152600401602060405180830381600087803b158015610c3e57600080fd5b505af1158015610c52573d6000803e3d6000fd5b505050506040513d6020811015610c6857600080fd5b81019080805190602001909291905050509050600460009054906101000a900473ffffffffffffffffffffffffffffffffffffffff1673ffffffffffffffffffffffffffffffffffffffff1663e53b61c96040518163ffffffff167c0100000000000000000000000000000000000000000000000000000000028152600401600060405180830381600087803b158015610d0157600080fd5b505af1158015610d15573d6000803e3d6000fd5b50505050600360009054906101000a900473ffffffffffffffffffffffffffffffffffffffff1673ffffffffffffffffffffffffffffffffffffffff166375a91587610ea58473ffffffffffffffffffffffffffffffffffffffff16624dcde56040518163ffffffff167c0100000000000000000000000000000000000000000000000000000000028152600401602060405180830381600087803b158015610dbd57600080fd5b505af1158015610dd1573d6000803e3d6000fd5b505050506040513d6020811015610de757600080fd5b81019080805190602001909291905050508573ffffffffffffffffffffffffffffffffffffffff16636417d7b06040518163ffffffff167c0100000000000000000000000000000000000000000000000000000000028152600401602060405180830381600087803b158015610e5c57600080fd5b505af1158015610e70573d6000803e3d6000fd5b505050506040513d6020811015610e8657600080fd5b81019080805190602001909291905050506111c990919063ffffffff16565b6040518263ffffffff167c010000000000000000000000000000000000000000000000000000000002815260040180828152602001915050600060405180830381600087803b158015610ef757600080fd5b505af1158015610f0b573d6000803e3d6000fd5b50505050600560009054906101000a900473ffffffffffffffffffffffffffffffffffffffff1673ffffffffffffffffffffffffffffffffffffffff16634023c33c846040518263ffffffff167c010000000000000000000000000000000000000000000000000000000002815260040180828152602001915050600060405180830381600087803b158015610fa057600080fd5b505af1158015610fb4573d6000803e3d6000fd5b505050507f4a7532659dc13de2e8aa3255bf27f501a5842b14816f7d97c378e50fef955b07848373ffffffffffffffffffffffffffffffffffffffff1663ec61b0866040518163ffffffff167c0100000000000000000000000000000000000000000000000000000000028152600401602060405180830381600087803b15801561103e57600080fd5b505af1158015611052573d6000803e3d6000fd5b505050506040513d602081101561106857600080fd5b810190808051906020019092919050505083604051808473ffffffffffffffffffffffffffffffffffffffff1673ffffffffffffffffffffffffffffffffffffffff168152602001838152602001828152602001935050505060405180910390a150505050565b600073ffffffffffffffffffffffffffffffffffffffff168173ffffffffffffffffffffffffffffffffffffffff161415151561110b57600080fd5b8073ffffffffffffffffffffffffffffffffffffffff166000809054906101000a900473ffffffffffffffffffffffffffffffffffffffff1673ffffffffffffffffffffffffffffffffffffffff167f8be0079c531659141344cd1fd0a4f28419497f9722a3daafe3b4186f6b6457e060405160405180910390a3806000806101000a81548173ffffffffffffffffffffffffffffffffffffffff021916908373ffffffffffffffffffffffffffffffffffffffff16021790555050565b600081830190508281101515156111dc57fe5b809050929150505600a165627a7a72305820caa3a8252f75175d154bf738a9c5f52f63a687d19e81c209796e5c1d5677bc070029",
  "source": "pragma solidity >=0.4.22 <0.6.0;\r\n\r\nimport '../utility/SafeMath.sol';\r\nimport '../utility/Ownable.sol';\r\nimport '../utility/VotingLocked.sol';\r\nimport '../utility/ProjectFactoryLocked.sol';\r\nimport '../project/Project.sol';\r\nimport '../token/InactiveToken.sol';\r\nimport '../projectLeader/ProjectLeaderTracker.sol';\r\nimport './GNITokenCrowdsale.sol';\r\nimport '../Amendment.sol';\r\n\r\n//owner will be Voting\r\n//secondary will be project factory\r\n\r\ncontract Activation is Ownable, ProjectFactoryLocked {\r\n  using SafeMath for uint256;\r\n  InactiveToken public inactiveToken;\r\n  ProjectLeaderTracker public projectLeaderTracker;\r\n  GNITokenCrowdsale public crowdsale;\r\n\r\n  constructor\r\n      (\r\n        InactiveToken _inactiveToken,\r\n        ProjectLeaderTracker _projectLeaderTracker\r\n      )\r\n      public {\r\n        inactiveToken = InactiveToken(_inactiveToken);\r\n        projectLeaderTracker = ProjectLeaderTracker(_projectLeaderTracker);\r\n      }\r\n\r\n  event ProjectActivation (\r\n    address addr,\r\n    uint256 capitalRequired,\r\n    uint256 time\r\n  );\r\n\r\n  function setCrowdsale (GNITokenCrowdsale _crowdsale) public onlyOwner {\r\n    crowdsale = _crowdsale;\r\n  }\r\n\r\n   function tryActivateProject () external {\r\n     (\r\n       address  tentativeLeaderAddr,\r\n       bool tentativeLeaderConfirmed\r\n     ) = projectLeaderTracker.tentativeLeader();\r\n\r\n     Project project = Project(tentativeLeaderAddr);\r\n     uint256 capitalRequired = project.capitalRequired();\r\n     if (\r\n       tentativeLeaderConfirmed &&\r\n       capitalRequired <= crowdsale.weiRaised_() &&\r\n       project.open()\r\n       ) {\r\n         _activateProject(tentativeLeaderAddr, capitalRequired);\r\n       }\r\n    }\r\n\r\n    function activateProject (address projectAddress, uint256 capitalRequired) external onlyProjectFactory {\r\n      _activateProject (projectAddress, capitalRequired);\r\n    }\r\n\r\n    function _activateProject (address projectAddress, uint256 capitalRequired) internal {\r\n      Project project = Project(projectAddress);\r\n      uint256 time = project.activate();\r\n      projectLeaderTracker.handleProjectActivation();\r\n      InactiveToken(inactiveToken).increasePendingActivations(project.developerTokens().add(project.investorTokens()));\r\n      GNITokenCrowdsale(crowdsale).transferCapitalToDeveloper(capitalRequired);\r\n      emit ProjectActivation(projectAddress, project.capitalRequired(), time);\r\n    }\r\n\r\n}\r\n",
  "sourcePath": "D:\\tetris\\SUWiserLLC_serge\\contracts\\crowdsale\\Activation.sol",
  "compiler": {
    "name": "solc",
    "version": "0.4.24+commit.e67f0147.Emscripten.clang"
  },
  "schemaVersion": "2.0.1",
  "updatedAt": "2022-02-22T18:54:59.139Z"
}