{
  "contractName": "CooperativeBaseStub",
  "abi": [
    {
      "constant": true,
      "inputs": [
        {
          "name": "",
          "type": "uint256"
        }
      ],
      "name": "replacable",
      "outputs": [
        {
          "name": "",
          "type": "bool"
        }
      ],
      "payable": false,
      "stateMutability": "view",
      "type": "function"
    },
    {
      "constant": false,
      "inputs": [
        {
          "name": "methodName",
          "type": "string"
        }
      ],
      "name": "addMethod",
      "outputs": [],
      "payable": false,
      "stateMutability": "nonpayable",
      "type": "function"
    },
    {
      "constant": true,
      "inputs": [
        {
          "name": "methodName",
          "type": "string"
        }
      ],
      "name": "callHistory",
      "outputs": [
        {
          "name": "",
          "type": "uint256"
        },
        {
          "name": "",
          "type": "uint256"
        },
        {
          "name": "",
          "type": "uint256"
        },
        {
          "name": "",
          "type": "string"
        },
        {
          "name": "",
          "type": "string"
        },
        {
          "name": "",
          "type": "string"
        },
        {
          "name": "",
          "type": "address"
        },
        {
          "name": "",
          "type": "address"
        },
        {
          "name": "",
          "type": "address"
        },
        {
          "name": "",
          "type": "bool"
        },
        {
          "name": "",
          "type": "bool"
        }
      ],
      "payable": false,
      "stateMutability": "view",
      "type": "function"
    },
    {
      "constant": false,
      "inputs": [
        {
          "name": "amendmentId",
          "type": "uint256"
        }
      ],
      "name": "_amendmentById",
      "outputs": [
        {
          "name": "",
          "type": "address"
        }
      ],
      "payable": false,
      "stateMutability": "nonpayable",
      "type": "function"
    },
    {
      "constant": true,
      "inputs": [],
      "name": "migrationsComplete",
      "outputs": [
        {
          "name": "",
          "type": "bool"
        }
      ],
      "payable": false,
      "stateMutability": "view",
      "type": "function"
    },
    {
      "constant": true,
      "inputs": [],
      "name": "owner",
      "outputs": [
        {
          "name": "",
          "type": "address"
        }
      ],
      "payable": false,
      "stateMutability": "view",
      "type": "function"
    },
    {
      "constant": true,
      "inputs": [
        {
          "name": "",
          "type": "uint256"
        }
      ],
      "name": "amendmentById",
      "outputs": [
        {
          "name": "",
          "type": "address"
        }
      ],
      "payable": false,
      "stateMutability": "view",
      "type": "function"
    },
    {
      "constant": true,
      "inputs": [
        {
          "name": "amendmentId",
          "type": "uint256"
        }
      ],
      "name": "canModify",
      "outputs": [
        {
          "name": "",
          "type": "bool"
        }
      ],
      "payable": false,
      "stateMutability": "view",
      "type": "function"
    },
    {
      "constant": true,
      "inputs": [],
      "name": "_owner",
      "outputs": [
        {
          "name": "",
          "type": "address"
        }
      ],
      "payable": false,
      "stateMutability": "view",
      "type": "function"
    },
    {
      "constant": true,
      "inputs": [],
      "name": "developer",
      "outputs": [
        {
          "name": "",
          "type": "address"
        }
      ],
      "payable": false,
      "stateMutability": "view",
      "type": "function"
    },
    {
      "constant": true,
      "inputs": [],
      "name": "totalAmendmentCount",
      "outputs": [
        {
          "name": "",
          "type": "uint256"
        }
      ],
      "payable": false,
      "stateMutability": "view",
      "type": "function"
    },
    {
      "constant": false,
      "inputs": [
        {
          "name": "_newOwner",
          "type": "address"
        }
      ],
      "name": "transferOwnership",
      "outputs": [],
      "payable": false,
      "stateMutability": "nonpayable",
      "type": "function"
    },
    {
      "constant": false,
      "inputs": [
        {
          "name": "methodName",
          "type": "string"
        }
      ],
      "name": "resetMethod",
      "outputs": [],
      "payable": false,
      "stateMutability": "nonpayable",
      "type": "function"
    },
    {
      "inputs": [
        {
          "name": "_developer",
          "type": "address"
        }
      ],
      "payable": false,
      "stateMutability": "nonpayable",
      "type": "constructor"
    },
    {
      "anonymous": false,
      "inputs": [
        {
          "indexed": true,
          "name": "previousOwner",
          "type": "address"
        }
      ],
      "name": "OwnershipRenounced",
      "type": "event"
    },
    {
      "anonymous": false,
      "inputs": [
        {
          "indexed": true,
          "name": "previousOwner",
          "type": "address"
        },
        {
          "indexed": true,
          "name": "newOwner",
          "type": "address"
        }
      ],
      "name": "OwnershipTransferred",
      "type": "event"
    },
    {
      "constant": false,
      "inputs": [
        {
          "name": "amendmnet",
          "type": "address"
        },
        {
          "name": "replacable",
          "type": "bool"
        }
      ],
      "name": "migrateAmendment",
      "outputs": [],
      "payable": false,
      "stateMutability": "nonpayable",
      "type": "function"
    },
    {
      "constant": false,
      "inputs": [],
      "name": "completeMigrations",
      "outputs": [],
      "payable": false,
      "stateMutability": "nonpayable",
      "type": "function"
    },
    {
      "constant": false,
      "inputs": [],
      "name": "renounceOwnership",
      "outputs": [],
      "payable": false,
      "stateMutability": "nonpayable",
      "type": "function"
    }
  ],
  "bytecode": "0x608060405234801561001057600080fd5b506040516020806117008339810180604052810190808051906020019092919050505080336000806101000a81548173ffffffffffffffffffffffffffffffffffffffff021916908373ffffffffffffffffffffffffffffffffffffffff16021790555080600260006101000a81548173ffffffffffffffffffffffffffffffffffffffff021916908373ffffffffffffffffffffffffffffffffffffffff160217905550505061163a806100c66000396000f3006080604052600436106100e6576000357c0100000000000000000000000000000000000000000000000000000000900463ffffffff1680634d8513dd146100eb57806351542e3a14610130578063547d8020146101995780636d2a337d14610417578063711b2c9414610484578063715018a6146104b35780638b1d6f4f146104ca5780638da5cb5b146104e157806391402ecf14610538578063a5e7e675146105a5578063b2bdfa7b146105ea578063ca4b208b14610641578063d6ce5a0614610698578063ee5bc5cd146106e7578063f2fde38b14610712578063f427b13514610755575b600080fd5b3480156100f757600080fd5b50610116600480360381019080803590602001909291905050506107be565b604051808215151515815260200191505060405180910390f35b34801561013c57600080fd5b50610197600480360381019080803590602001908201803590602001908080601f01602080910402602001604051908101604052809392919081815260200183838082843782019150505050505091929192905050506107de565b005b3480156101a557600080fd5b50610200600480360381019080803590602001908201803590602001908080601f01602080910402602001604051908101604052809392919081815260200183838082843782019150505050505091929192905050506109e6565b604051808c81526020018b81526020018a81526020018060200180602001806020018973ffffffffffffffffffffffffffffffffffffffff1673ffffffffffffffffffffffffffffffffffffffff1681526020018873ffffffffffffffffffffffffffffffffffffffff1673ffffffffffffffffffffffffffffffffffffffff1681526020018773ffffffffffffffffffffffffffffffffffffffff1673ffffffffffffffffffffffffffffffffffffffff168152602001861515151581526020018515151515815260200184810384528c818151815260200191508051906020019080838360005b838110156103045780820151818401526020810190506102e9565b50505050905090810190601f1680156103315780820380516001836020036101000a031916815260200191505b5084810383528b818151815260200191508051906020019080838360005b8381101561036a57808201518184015260208101905061034f565b50505050905090810190601f1680156103975780820380516001836020036101000a031916815260200191505b5084810382528a818151815260200191508051906020019080838360005b838110156103d05780820151818401526020810190506103b5565b50505050905090810190601f1680156103fd5780820380516001836020036101000a031916815260200191505b509e50505050505050505050505050505060405180910390f35b34801561042357600080fd5b5061044260048036038101908080359060200190929190505050610e1f565b604051808273ffffffffffffffffffffffffffffffffffffffff1673ffffffffffffffffffffffffffffffffffffffff16815260200191505060405180910390f35b34801561049057600080fd5b50610499610e5c565b604051808215151515815260200191505060405180910390f35b3480156104bf57600080fd5b506104c8610e6f565b005b3480156104d657600080fd5b506104df610ed1565b005b3480156104ed57600080fd5b506104f6610f33565b604051808273ffffffffffffffffffffffffffffffffffffffff1673ffffffffffffffffffffffffffffffffffffffff16815260200191505060405180910390f35b34801561054457600080fd5b5061056360048036038101908080359060200190929190505050610f58565b604051808273ffffffffffffffffffffffffffffffffffffffff1673ffffffffffffffffffffffffffffffffffffffff16815260200191505060405180910390f35b3480156105b157600080fd5b506105d060048036038101908080359060200190929190505050610f8b565b604051808215151515815260200191505060405180910390f35b3480156105f657600080fd5b506105ff610fb5565b604051808273ffffffffffffffffffffffffffffffffffffffff1673ffffffffffffffffffffffffffffffffffffffff16815260200191505060405180910390f35b34801561064d57600080fd5b50610656610fde565b604051808273ffffffffffffffffffffffffffffffffffffffff1673ffffffffffffffffffffffffffffffffffffffff16815260200191505060405180910390f35b3480156106a457600080fd5b506106e5600480360381019080803573ffffffffffffffffffffffffffffffffffffffff169060200190929190803515159060200190929190505050611004565b005b3480156106f357600080fd5b506106fc6110c7565b6040518082815260200191505060405180910390f35b34801561071e57600080fd5b50610753600480360381019080803573ffffffffffffffffffffffffffffffffffffffff1690602001909291905050506110cd565b005b34801561076157600080fd5b506107bc600480360381019080803590602001908201803590602001908080601f016020809104026020016040519081016040528093929190818152602001838380828437820191505050505050919291929050505061113c565b005b60056020528060005260406000206000915054906101000a900460ff1681565b6107e6611448565b806006836040518082805190602001908083835b60208310151561081f57805182526020820191506020810190506020830392506107fa565b6001836020036101000a0380198251168184511680821785525050505050509050019150509081526020016040518091039020600082015181600001556020820151816001015560408201518160020155606082015181600301908051906020019061088c9291906114e9565b5060808201518160040190805190602001906108a99291906114e9565b5060a08201518160050190805190602001906108c69291906114e9565b5060c08201518160060160006101000a81548173ffffffffffffffffffffffffffffffffffffffff021916908373ffffffffffffffffffffffffffffffffffffffff16021790555060e08201518160070160006101000a81548173ffffffffffffffffffffffffffffffffffffffff021916908373ffffffffffffffffffffffffffffffffffffffff1602179055506101008201518160080160006101000a81548173ffffffffffffffffffffffffffffffffffffffff021916908373ffffffffffffffffffffffffffffffffffffffff1602179055506101208201518160080160146101000a81548160ff0219169083151502179055506101408201518160080160156101000a81548160ff0219169083151502179055509050505050565b600080600060608060606000806000806000610a00611448565b60068d6040518082805190602001908083835b602083101515610a385780518252602082019150602081019050602083039250610a13565b6001836020036101000a03801982511681845116808217855250505050505090500191505090815260200160405180910390206101606040519081016040529081600082015481526020016001820154815260200160028201548152602001600382018054600181600116156101000203166002900480601f016020809104026020016040519081016040528092919081815260200182805460018160011615610100020316600290048015610b2f5780601f10610b0457610100808354040283529160200191610b2f565b820191906000526020600020905b815481529060010190602001808311610b1257829003601f168201915b50505050508152602001600482018054600181600116156101000203166002900480601f016020809104026020016040519081016040528092919081815260200182805460018160011615610100020316600290048015610bd15780601f10610ba657610100808354040283529160200191610bd1565b820191906000526020600020905b815481529060010190602001808311610bb457829003601f168201915b50505050508152602001600582018054600181600116156101000203166002900480601f016020809104026020016040519081016040528092919081815260200182805460018160011615610100020316600290048015610c735780601f10610c4857610100808354040283529160200191610c73565b820191906000526020600020905b815481529060010190602001808311610c5657829003601f168201915b505050505081526020016006820160009054906101000a900473ffffffffffffffffffffffffffffffffffffffff1673ffffffffffffffffffffffffffffffffffffffff1673ffffffffffffffffffffffffffffffffffffffff1681526020016007820160009054906101000a900473ffffffffffffffffffffffffffffffffffffffff1673ffffffffffffffffffffffffffffffffffffffff1673ffffffffffffffffffffffffffffffffffffffff1681526020016008820160009054906101000a900473ffffffffffffffffffffffffffffffffffffffff1673ffffffffffffffffffffffffffffffffffffffff1673ffffffffffffffffffffffffffffffffffffffff1681526020016008820160149054906101000a900460ff161515151581526020016008820160159054906101000a900460ff1615151515815250509050806000015181602001518260400151836060015184608001518560a001518660c001518760e001518861010001518961012001518a61014001518797508696508595509b509b509b509b509b509b509b509b509b509b509b505091939597999b90929496989a50565b60006004600083815260200190815260200160002060009054906101000a900473ffffffffffffffffffffffffffffffffffffffff169050919050565b600260149054906101000a900460ff1681565b6000600660405180807f72656e6f756e63654f776e65727368697000000000000000000000000000000081525060110190509081526020016040518091039020905060018160080160146101000a81548160ff02191690831515021790555050565b6000600660405180807f636f6d706c6574654d6967726174696f6e73000000000000000000000000000081525060120190509081526020016040518091039020905060018160080160146101000a81548160ff02191690831515021790555050565b6000809054906101000a900473ffffffffffffffffffffffffffffffffffffffff1681565b60046020528060005260406000206000915054906101000a900473ffffffffffffffffffffffffffffffffffffffff1681565b60006005600083815260200190815260200160002060009054906101000a900460ff169050919050565b60008060009054906101000a900473ffffffffffffffffffffffffffffffffffffffff16905090565b600260009054906101000a900473ffffffffffffffffffffffffffffffffffffffff1681565b6000600660405180807f6d696772617465416d656e646d656e7400000000000000000000000000000000815250601001905090815260200160405180910390209050828160060160006101000a81548173ffffffffffffffffffffffffffffffffffffffff021916908373ffffffffffffffffffffffffffffffffffffffff160217905550818160080160156101000a81548160ff02191690831515021790555060018160080160146101000a81548160ff021916908315150217905550505050565b60035481565b6000809054906101000a900473ffffffffffffffffffffffffffffffffffffffff1673ffffffffffffffffffffffffffffffffffffffff163373ffffffffffffffffffffffffffffffffffffffff1614151561112857600080fd5b60056001819055506111398161134e565b50565b60006006826040518082805190602001908083835b6020831015156111765780518252602082019150602081019050602083039250611151565b6001836020036101000a0380198251168184511680821785525050505050509050019150509081526020016040518091039020905060008160000181905550600081600101819055506000816002018190555060206040519081016040528060008152508160030190805190602001906111f1929190611569565b50602060405190810160405280600081525081600401908051906020019061121a929190611569565b506020604051908101604052806000815250816005019080519060200190611243929190611569565b5060008160060160006101000a81548173ffffffffffffffffffffffffffffffffffffffff021916908373ffffffffffffffffffffffffffffffffffffffff16021790555060008160070160006101000a81548173ffffffffffffffffffffffffffffffffffffffff021916908373ffffffffffffffffffffffffffffffffffffffff16021790555060008160080160006101000a81548173ffffffffffffffffffffffffffffffffffffffff021916908373ffffffffffffffffffffffffffffffffffffffff16021790555060008160080160146101000a81548160ff02191690831515021790555060008160080160156101000a81548160ff0219169083151502179055505050565b600073ffffffffffffffffffffffffffffffffffffffff168173ffffffffffffffffffffffffffffffffffffffff161415151561138a57600080fd5b8073ffffffffffffffffffffffffffffffffffffffff166000809054906101000a900473ffffffffffffffffffffffffffffffffffffffff1673ffffffffffffffffffffffffffffffffffffffff167f8be0079c531659141344cd1fd0a4f28419497f9722a3daafe3b4186f6b6457e060405160405180910390a3806000806101000a81548173ffffffffffffffffffffffffffffffffffffffff021916908373ffffffffffffffffffffffffffffffffffffffff16021790555050565b61016060405190810160405280600081526020016000815260200160008152602001606081526020016060815260200160608152602001600073ffffffffffffffffffffffffffffffffffffffff168152602001600073ffffffffffffffffffffffffffffffffffffffff168152602001600073ffffffffffffffffffffffffffffffffffffffff1681526020016000151581526020016000151581525090565b828054600181600116156101000203166002900490600052602060002090601f016020900481019282601f1061152a57805160ff1916838001178555611558565b82800160010185558215611558579182015b8281111561155757825182559160200191906001019061153c565b5b50905061156591906115e9565b5090565b828054600181600116156101000203166002900490600052602060002090601f016020900481019282601f106115aa57805160ff19168380011785556115d8565b828001600101855582156115d8579182015b828111156115d75782518255916020019190600101906115bc565b5b5090506115e591906115e9565b5090565b61160b91905b808211156116075760008160009055506001016115ef565b5090565b905600a165627a7a72305820d80d26956edd177dce6a215b93a62acf3ed74d12b269c965f269cc087cbbe8310029",
  "source": "pragma solidity >=0.4.22 <0.6.0;\nimport './Cooperative.sol';\nimport './ContractStub.sol';\n\ncontract CooperativeBaseStub is Cooperative, ContractStub {\n  constructor (address _developer) public\n  Cooperative(_developer) {}\n\n  function migrateAmendment (Amendment amendmnet, bool replacable) external {\n    CallData storage methodState = method['migrateAmendment'];\n    methodState.firstAddress = address(amendmnet);\n    methodState.firstBool = replacable;\n    methodState.called = true;\n  }\n\n  function completeMigrations () external {\n    CallData storage methodState = method['completeMigrations'];\n    methodState.called = true;\n  }\n\n  function renounceOwnership () public {\n    CallData storage methodState = method['renounceOwnership'];\n    methodState.called = true;\n  }\n}\n",
  "sourcePath": "D:\\Projects\\SUWiserLLC\\serge\\contracts\\CooperativeBaseStub.sol",
  "compiler": {
    "name": "solc",
    "version": "0.4.24+commit.e67f0147.Emscripten.clang"
  },
  "schemaVersion": "2.0.1",
  "updatedAt": "2022-02-19T15:47:01.541Z"
}