{
  "contractName": "CooperativeMock",
  "abi": [
    {
      "constant": false,
      "inputs": [],
      "name": "initNewProposals",
      "outputs": [],
      "payable": false,
      "stateMutability": "nonpayable",
      "type": "function"
    },
    {
      "constant": false,
      "inputs": [],
      "name": "initElection",
      "outputs": [],
      "payable": false,
      "stateMutability": "nonpayable",
      "type": "function"
    },
    {
      "constant": false,
      "inputs": [
        {
          "name": "amendmentId",
          "type": "uint256"
        }
      ],
      "name": "migrateAmendmentToNewCooperative",
      "outputs": [],
      "payable": false,
      "stateMutability": "nonpayable",
      "type": "function"
    },
    {
      "constant": true,
      "inputs": [],
      "name": "totalAmendmentsMigrated",
      "outputs": [
        {
          "name": "",
          "type": "uint256"
        }
      ],
      "payable": false,
      "stateMutability": "view",
      "type": "function"
    },
    {
      "constant": true,
      "inputs": [
        {
          "name": "",
          "type": "uint256"
        }
      ],
      "name": "replacable",
      "outputs": [
        {
          "name": "",
          "type": "bool"
        }
      ],
      "payable": false,
      "stateMutability": "view",
      "type": "function"
    },
    {
      "constant": true,
      "inputs": [],
      "name": "amendmentPoll",
      "outputs": [
        {
          "name": "",
          "type": "address"
        }
      ],
      "payable": false,
      "stateMutability": "view",
      "type": "function"
    },
    {
      "constant": false,
      "inputs": [
        {
          "name": "amendmentId",
          "type": "uint256"
        },
        {
          "name": "coAmendmentToUpdateId",
          "type": "uint256"
        },
        {
          "name": "newReferenceAmendment",
          "type": "address"
        },
        {
          "name": "finalModification",
          "type": "bool"
        }
      ],
      "name": "adoptAmendmentModification",
      "outputs": [],
      "payable": false,
      "stateMutability": "nonpayable",
      "type": "function"
    },
    {
      "constant": false,
      "inputs": [
        {
          "name": "_newCooperative",
          "type": "address"
        }
      ],
      "name": "adoptNewCooperative",
      "outputs": [],
      "payable": false,
      "stateMutability": "nonpayable",
      "type": "function"
    },
    {
      "constant": false,
      "inputs": [
        {
          "name": "amendmentId",
          "type": "uint256"
        }
      ],
      "name": "_amendmentById",
      "outputs": [
        {
          "name": "",
          "type": "address"
        }
      ],
      "payable": false,
      "stateMutability": "nonpayable",
      "type": "function"
    },
    {
      "constant": true,
      "inputs": [],
      "name": "migrationsComplete",
      "outputs": [
        {
          "name": "",
          "type": "bool"
        }
      ],
      "payable": false,
      "stateMutability": "view",
      "type": "function"
    },
    {
      "constant": false,
      "inputs": [],
      "name": "renounceOwnership",
      "outputs": [],
      "payable": false,
      "stateMutability": "nonpayable",
      "type": "function"
    },
    {
      "constant": true,
      "inputs": [],
      "name": "canInitElection",
      "outputs": [
        {
          "name": "",
          "type": "bool"
        }
      ],
      "payable": false,
      "stateMutability": "view",
      "type": "function"
    },
    {
      "constant": false,
      "inputs": [],
      "name": "completeMigrations",
      "outputs": [],
      "payable": false,
      "stateMutability": "nonpayable",
      "type": "function"
    },
    {
      "constant": true,
      "inputs": [],
      "name": "owner",
      "outputs": [
        {
          "name": "",
          "type": "address"
        }
      ],
      "payable": false,
      "stateMutability": "view",
      "type": "function"
    },
    {
      "constant": true,
      "inputs": [
        {
          "name": "",
          "type": "uint256"
        }
      ],
      "name": "amendmentById",
      "outputs": [
        {
          "name": "",
          "type": "address"
        }
      ],
      "payable": false,
      "stateMutability": "view",
      "type": "function"
    },
    {
      "constant": true,
      "inputs": [],
      "name": "totalCompleteAdoptions",
      "outputs": [
        {
          "name": "",
          "type": "uint256"
        }
      ],
      "payable": false,
      "stateMutability": "view",
      "type": "function"
    },
    {
      "constant": true,
      "inputs": [],
      "name": "currentProposals",
      "outputs": [
        {
          "name": "",
          "type": "address"
        }
      ],
      "payable": false,
      "stateMutability": "view",
      "type": "function"
    },
    {
      "constant": true,
      "inputs": [
        {
          "name": "amendmentId",
          "type": "uint256"
        }
      ],
      "name": "canModify",
      "outputs": [
        {
          "name": "",
          "type": "bool"
        }
      ],
      "payable": false,
      "stateMutability": "view",
      "type": "function"
    },
    {
      "constant": false,
      "inputs": [
        {
          "name": "amendmentId",
          "type": "uint256"
        }
      ],
      "name": "adoptAmendmentRemoval",
      "outputs": [],
      "payable": false,
      "stateMutability": "nonpayable",
      "type": "function"
    },
    {
      "constant": true,
      "inputs": [],
      "name": "_owner",
      "outputs": [
        {
          "name": "",
          "type": "address"
        }
      ],
      "payable": false,
      "stateMutability": "view",
      "type": "function"
    },
    {
      "constant": true,
      "inputs": [],
      "name": "developer",
      "outputs": [
        {
          "name": "",
          "type": "address"
        }
      ],
      "payable": false,
      "stateMutability": "view",
      "type": "function"
    },
    {
      "constant": true,
      "inputs": [],
      "name": "newCooperative",
      "outputs": [
        {
          "name": "",
          "type": "address"
        }
      ],
      "payable": false,
      "stateMutability": "view",
      "type": "function"
    },
    {
      "constant": false,
      "inputs": [
        {
          "name": "amendment",
          "type": "address"
        },
        {
          "name": "_replacable",
          "type": "bool"
        }
      ],
      "name": "migrateAmendment",
      "outputs": [],
      "payable": false,
      "stateMutability": "nonpayable",
      "type": "function"
    },
    {
      "constant": false,
      "inputs": [
        {
          "name": "newAmendment",
          "type": "address"
        }
      ],
      "name": "adoptNewAmendment",
      "outputs": [],
      "payable": false,
      "stateMutability": "nonpayable",
      "type": "function"
    },
    {
      "constant": true,
      "inputs": [],
      "name": "totalAmendmentCount",
      "outputs": [
        {
          "name": "",
          "type": "uint256"
        }
      ],
      "payable": false,
      "stateMutability": "view",
      "type": "function"
    },
    {
      "constant": false,
      "inputs": [
        {
          "name": "_newOwner",
          "type": "address"
        }
      ],
      "name": "transferOwnership",
      "outputs": [],
      "payable": false,
      "stateMutability": "nonpayable",
      "type": "function"
    },
    {
      "inputs": [
        {
          "name": "_developer",
          "type": "address"
        },
        {
          "name": "_amendmentPoll",
          "type": "address"
        }
      ],
      "payable": false,
      "stateMutability": "nonpayable",
      "type": "constructor"
    },
    {
      "anonymous": false,
      "inputs": [
        {
          "indexed": true,
          "name": "previousOwner",
          "type": "address"
        }
      ],
      "name": "OwnershipRenounced",
      "type": "event"
    },
    {
      "anonymous": false,
      "inputs": [
        {
          "indexed": true,
          "name": "previousOwner",
          "type": "address"
        },
        {
          "indexed": true,
          "name": "newOwner",
          "type": "address"
        }
      ],
      "name": "OwnershipTransferred",
      "type": "event"
    },
    {
      "constant": false,
      "inputs": [
        {
          "name": "_proposals",
          "type": "address"
        }
      ],
      "name": "setStubProposals",
      "outputs": [],
      "payable": false,
      "stateMutability": "nonpayable",
      "type": "function"
    },
    {
      "constant": false,
      "inputs": [
        {
          "name": "n",
          "type": "uint256"
        }
      ],
      "name": "setTotalCompleteAdoptions",
      "outputs": [],
      "payable": false,
      "stateMutability": "nonpayable",
      "type": "function"
    },
    {
      "constant": false,
      "inputs": [],
      "name": "getCurrentProposals",
      "outputs": [
        {
          "name": "",
          "type": "address"
        }
      ],
      "payable": false,
      "stateMutability": "nonpayable",
      "type": "function"
    },
    {
      "constant": false,
      "inputs": [
        {
          "name": "_proposals",
          "type": "address"
        }
      ],
      "name": "setCurrentProposals",
      "outputs": [],
      "payable": false,
      "stateMutability": "nonpayable",
      "type": "function"
    },
    {
      "constant": false,
      "inputs": [
        {
          "name": "b",
          "type": "bool"
        }
      ],
      "name": "setCanInitElection",
      "outputs": [],
      "payable": false,
      "stateMutability": "nonpayable",
      "type": "function"
    },
    {
      "constant": false,
      "inputs": [
        {
          "name": "c",
          "type": "address"
        }
      ],
      "name": "setNewCooperative",
      "outputs": [],
      "payable": false,
      "stateMutability": "nonpayable",
      "type": "function"
    },
    {
      "constant": false,
      "inputs": [],
      "name": "clearNewCooperative",
      "outputs": [],
      "payable": false,
      "stateMutability": "nonpayable",
      "type": "function"
    },
    {
      "constant": false,
      "inputs": [
        {
          "name": "n",
          "type": "uint256"
        }
      ],
      "name": "setTotalAmendmentCount",
      "outputs": [],
      "payable": false,
      "stateMutability": "nonpayable",
      "type": "function"
    },
    {
      "constant": false,
      "inputs": [
        {
          "name": "n",
          "type": "uint256"
        },
        {
          "name": "a",
          "type": "address"
        }
      ],
      "name": "addAmendment",
      "outputs": [],
      "payable": false,
      "stateMutability": "nonpayable",
      "type": "function"
    },
    {
      "constant": false,
      "inputs": [
        {
          "name": "n",
          "type": "uint256"
        },
        {
          "name": "b",
          "type": "bool"
        }
      ],
      "name": "setMigrationStatus",
      "outputs": [],
      "payable": false,
      "stateMutability": "nonpayable",
      "type": "function"
    },
    {
      "constant": false,
      "inputs": [
        {
          "name": "n",
          "type": "uint256"
        }
      ],
      "name": "getMigrationStatus",
      "outputs": [
        {
          "name": "",
          "type": "bool"
        }
      ],
      "payable": false,
      "stateMutability": "nonpayable",
      "type": "function"
    },
    {
      "constant": false,
      "inputs": [
        {
          "name": "n",
          "type": "uint256"
        },
        {
          "name": "b",
          "type": "bool"
        }
      ],
      "name": "setReplacableStatus",
      "outputs": [],
      "payable": false,
      "stateMutability": "nonpayable",
      "type": "function"
    },
    {
      "constant": false,
      "inputs": [
        {
          "name": "n",
          "type": "uint256"
        }
      ],
      "name": "setTotalAmendmentsMigrated",
      "outputs": [],
      "payable": false,
      "stateMutability": "nonpayable",
      "type": "function"
    }
  ],
  "bytecode": "0x608060405234801561001057600080fd5b506040516040806159558339810180604052810190808051906020019092919080519060200190929190505050818181336000806101000a81548173ffffffffffffffffffffffffffffffffffffffff021916908373ffffffffffffffffffffffffffffffffffffffff16021790555080600260006101000a81548173ffffffffffffffffffffffffffffffffffffffff021916908373ffffffffffffffffffffffffffffffffffffffff1602179055505081600260006101000a81548173ffffffffffffffffffffffffffffffffffffffff021916908373ffffffffffffffffffffffffffffffffffffffff16021790555080600660006101000a81548173ffffffffffffffffffffffffffffffffffffffff021916908373ffffffffffffffffffffffffffffffffffffffff160217905550505050506157fe806101576000396000f3006080604052600436106101e2576000357c0100000000000000000000000000000000000000000000000000000000900463ffffffff168062676491146101e75780630b02e5661461022a57806313b7423c14610241578063319c4652146102585780633677332f1461029b5780634529bf50146102c8578063488815d1146103015780634d8513dd1461032c5780634ddeafb714610371578063546b6953146103c8578063605ede7b1461042b578063690b26f4146104585780636d2a337d1461049b578063711b2c9414610508578063715018a61461053757806376c427a21461054e5780638105f3b61461059b57806387ec91d3146105f25780638b1d6f4f146106215780638da5cb5b1461063857806391402ecf1461068f57806399701e5a146106fc5780639dd8e76f14610727578063a5e7e6751461077e578063a86dde3b146107c3578063a8777542146107fc578063aa48da0b14610829578063b2bdfa7b1461086c578063bb947749146108c3578063ca4b208b146108f0578063cb0fc30a14610947578063d589f6841461099e578063d6ce5a06146109e3578063e16ebd8f14610a32578063eafad19114610a5f578063ec4522d614610a8e578063eca9e60e14610ad1578063ee5bc5cd14610ae8578063f2fde38b14610b13575b600080fd5b3480156101f357600080fd5b50610228600480360381019080803573ffffffffffffffffffffffffffffffffffffffff169060200190929190505050610b56565b005b34801561023657600080fd5b5061023f610b9a565b005b34801561024d57600080fd5b50610256610e6a565b005b34801561026457600080fd5b50610299600480360381019080803573ffffffffffffffffffffffffffffffffffffffff16906020019092919050505061103a565b005b3480156102a757600080fd5b506102c66004803603810190808035906020019092919050505061107e565b005b3480156102d457600080fd5b506102ff60048036038101908080359060200190929190803515159060200190929190505050611526565b005b34801561030d57600080fd5b50610316611555565b6040518082815260200191505060405180910390f35b34801561033857600080fd5b506103576004803603810190808035906020019092919050505061155b565b604051808215151515815260200191505060405180910390f35b34801561037d57600080fd5b5061038661157b565b604051808273ffffffffffffffffffffffffffffffffffffffff1673ffffffffffffffffffffffffffffffffffffffff16815260200191505060405180910390f35b3480156103d457600080fd5b506104296004803603810190808035906020019092919080359060200190929190803573ffffffffffffffffffffffffffffffffffffffff1690602001909291908035151590602001909291905050506115a1565b005b34801561043757600080fd5b506104566004803603810190808035906020019092919050505061194f565b005b34801561046457600080fd5b50610499600480360381019080803573ffffffffffffffffffffffffffffffffffffffff169060200190929190505050611959565b005b3480156104a757600080fd5b506104c660048036038101908080359060200190929190505050611c0a565b604051808273ffffffffffffffffffffffffffffffffffffffff1673ffffffffffffffffffffffffffffffffffffffff16815260200191505060405180910390f35b34801561051457600080fd5b5061051d611c47565b604051808215151515815260200191505060405180910390f35b34801561054357600080fd5b5061054c611c5a565b005b34801561055a57600080fd5b5061059960048036038101908080359060200190929190803573ffffffffffffffffffffffffffffffffffffffff169060200190929190505050611d5c565b005b3480156105a757600080fd5b506105b0611db2565b604051808273ffffffffffffffffffffffffffffffffffffffff1673ffffffffffffffffffffffffffffffffffffffff16815260200191505060405180910390f35b3480156105fe57600080fd5b50610607611ddc565b604051808215151515815260200191505060405180910390f35b34801561062d57600080fd5b50610636611def565b005b34801561064457600080fd5b5061064d611e67565b604051808273ffffffffffffffffffffffffffffffffffffffff1673ffffffffffffffffffffffffffffffffffffffff16815260200191505060405180910390f35b34801561069b57600080fd5b506106ba60048036038101908080359060200190929190505050611e8c565b604051808273ffffffffffffffffffffffffffffffffffffffff1673ffffffffffffffffffffffffffffffffffffffff16815260200191505060405180910390f35b34801561070857600080fd5b50610711611ebf565b6040518082815260200191505060405180910390f35b34801561073357600080fd5b5061073c611ec5565b604051808273ffffffffffffffffffffffffffffffffffffffff1673ffffffffffffffffffffffffffffffffffffffff16815260200191505060405180910390f35b34801561078a57600080fd5b506107a960048036038101908080359060200190929190505050611eeb565b604051808215151515815260200191505060405180910390f35b3480156107cf57600080fd5b506107fa60048036038101908080359060200190929190803515159060200190929190505050611f15565b005b34801561080857600080fd5b5061082760048036038101908080359060200190929190505050611f44565b005b34801561083557600080fd5b5061086a600480360381019080803573ffffffffffffffffffffffffffffffffffffffff1690602001909291905050506122aa565b005b34801561087857600080fd5b506108816122ee565b604051808273ffffffffffffffffffffffffffffffffffffffff1673ffffffffffffffffffffffffffffffffffffffff16815260200191505060405180910390f35b3480156108cf57600080fd5b506108ee60048036038101908080359060200190929190505050612317565b005b3480156108fc57600080fd5b50610905612321565b604051808273ffffffffffffffffffffffffffffffffffffffff1673ffffffffffffffffffffffffffffffffffffffff16815260200191505060405180910390f35b34801561095357600080fd5b5061095c612347565b604051808273ffffffffffffffffffffffffffffffffffffffff1673ffffffffffffffffffffffffffffffffffffffff16815260200191505060405180910390f35b3480156109aa57600080fd5b506109c96004803603810190808035906020019092919050505061236d565b604051808215151515815260200191505060405180910390f35b3480156109ef57600080fd5b50610a30600480360381019080803573ffffffffffffffffffffffffffffffffffffffff169060200190929190803515159060200190929190505050612397565b005b348015610a3e57600080fd5b50610a5d6004803603810190808035906020019092919050505061249f565b005b348015610a6b57600080fd5b50610a8c6004803603810190808035151590602001909291905050506124a9565b005b348015610a9a57600080fd5b50610acf600480360381019080803573ffffffffffffffffffffffffffffffffffffffff1690602001909291905050506124c6565b005b348015610add57600080fd5b50610ae66127e7565b005b348015610af457600080fd5b50610afd61282b565b6040518082815260200191505060405180910390f35b348015610b1f57600080fd5b50610b54600480360381019080803573ffffffffffffffffffffffffffffffffffffffff169060200190929190505050612831565b005b80600760006101000a81548173ffffffffffffffffffffffffffffffffffffffff021916908373ffffffffffffffffffffffffffffffffffffffff16021790555050565b6000600260009054906101000a900473ffffffffffffffffffffffffffffffffffffffff1673ffffffffffffffffffffffffffffffffffffffff163373ffffffffffffffffffffffffffffffffffffffff16141515610bf857600080fd5b600073ffffffffffffffffffffffffffffffffffffffff16600960009054906101000a900473ffffffffffffffffffffffffffffffffffffffff1673ffffffffffffffffffffffffffffffffffffffff16148015610d225750610c596128a0565b80610d215750600660009054906101000a900473ffffffffffffffffffffffffffffffffffffffff1673ffffffffffffffffffffffffffffffffffffffff1663cb84b7d06040518163ffffffff167c0100000000000000000000000000000000000000000000000000000000028152600401602060405180830381600087803b158015610ce557600080fd5b505af1158015610cf9573d6000803e3d6000fd5b505050506040513d6020811015610d0f57600080fd5b81019080805190602001909291905050505b5b1515610d2d57600080fd5b600260009054906101000a900473ffffffffffffffffffffffffffffffffffffffff16600660009054906101000a900473ffffffffffffffffffffffffffffffffffffffff16610d7b612c4c565b808373ffffffffffffffffffffffffffffffffffffffff1673ffffffffffffffffffffffffffffffffffffffff1681526020018273ffffffffffffffffffffffffffffffffffffffff1673ffffffffffffffffffffffffffffffffffffffff16815260200192505050604051809103906000f080158015610e00573d6000803e3d6000fd5b50905080600760006101000a81548173ffffffffffffffffffffffffffffffffffffffff021916908373ffffffffffffffffffffffffffffffffffffffff16021790555060006008819055506001600760146101000a81548160ff02191690831515021790555050565b600260009054906101000a900473ffffffffffffffffffffffffffffffffffffffff1673ffffffffffffffffffffffffffffffffffffffff163373ffffffffffffffffffffffffffffffffffffffff16141515610ec657600080fd5b600760149054906101000a900460ff161515610ee157600080fd5b600760009054906101000a900473ffffffffffffffffffffffffffffffffffffffff1673ffffffffffffffffffffffffffffffffffffffff1663ee5ddc7d6040518163ffffffff167c0100000000000000000000000000000000000000000000000000000000028152600401600060405180830381600087803b158015610f6757600080fd5b505af1158015610f7b573d6000803e3d6000fd5b50505050600660009054906101000a900473ffffffffffffffffffffffffffffffffffffffff1673ffffffffffffffffffffffffffffffffffffffff1663401760586040518163ffffffff167c0100000000000000000000000000000000000000000000000000000000028152600401600060405180830381600087803b15801561100557600080fd5b505af1158015611019573d6000803e3d6000fd5b505050506000600760146101000a81548160ff021916908315150217905550565b80600960006101000a81548173ffffffffffffffffffffffffffffffffffffffff021916908373ffffffffffffffffffffffffffffffffffffffff16021790555050565b600080600073ffffffffffffffffffffffffffffffffffffffff16600960009054906101000a900473ffffffffffffffffffffffffffffffffffffffff1673ffffffffffffffffffffffffffffffffffffffff16141515156110df57600080fd5b600b600084815260200190815260200160002060009054906101000a900460ff1615151561110c57600080fd5b6111146128a0565b151561111f57600080fd5b6004600084815260200190815260200160002060009054906101000a900473ffffffffffffffffffffffffffffffffffffffff169150600960009054906101000a900473ffffffffffffffffffffffffffffffffffffffff1690508173ffffffffffffffffffffffffffffffffffffffff1663a3b67c946040518163ffffffff167c0100000000000000000000000000000000000000000000000000000000028152600401602060405180830381600087803b1580156111de57600080fd5b505af11580156111f2573d6000803e3d6000fd5b505050506040513d602081101561120857600080fd5b810190808051906020019092919050505015156113d4578073ffffffffffffffffffffffffffffffffffffffff1663d6ce5a06836005600087815260200190815260200160002060009054906101000a900460ff166040518363ffffffff167c0100000000000000000000000000000000000000000000000000000000028152600401808373ffffffffffffffffffffffffffffffffffffffff1673ffffffffffffffffffffffffffffffffffffffff1681526020018215151515815260200192505050600060405180830381600087803b1580156112e657600080fd5b505af11580156112fa573d6000803e3d6000fd5b505050508173ffffffffffffffffffffffffffffffffffffffff1663f2fde38b600960009054906101000a900473ffffffffffffffffffffffffffffffffffffffff166040518263ffffffff167c0100000000000000000000000000000000000000000000000000000000028152600401808273ffffffffffffffffffffffffffffffffffffffff1673ffffffffffffffffffffffffffffffffffffffff168152602001915050600060405180830381600087803b1580156113bb57600080fd5b505af11580156113cf573d6000803e3d6000fd5b505050505b6001600b600085815260200190815260200160002060006101000a81548160ff0219169083151502179055506114166001600a54612b1090919063ffffffff16565b600a81905550600354600a541415611521578073ffffffffffffffffffffffffffffffffffffffff16638b1d6f4f6040518163ffffffff167c0100000000000000000000000000000000000000000000000000000000028152600401600060405180830381600087803b15801561148c57600080fd5b505af11580156114a0573d6000803e3d6000fd5b505050508073ffffffffffffffffffffffffffffffffffffffff1663715018a66040518163ffffffff167c0100000000000000000000000000000000000000000000000000000000028152600401600060405180830381600087803b15801561150857600080fd5b505af115801561151c573d6000803e3d6000fd5b505050505b505050565b806005600084815260200190815260200160002060006101000a81548160ff0219169083151502179055505050565b600a5481565b60056020528060005260406000206000915054906101000a900460ff1681565b600660009054906101000a900473ffffffffffffffffffffffffffffffffffffffff1681565b6000600660009054906101000a900473ffffffffffffffffffffffffffffffffffffffff1673ffffffffffffffffffffffffffffffffffffffff16636c2626a56040518163ffffffff167c0100000000000000000000000000000000000000000000000000000000028152600401602060405180830381600087803b15801561162957600080fd5b505af115801561163d573d6000803e3d6000fd5b505050506040513d602081101561165357600080fd5b8101908080519060200190929190505050151561166f57600080fd5b600760009054906101000a900473ffffffffffffffffffffffffffffffffffffffff1673ffffffffffffffffffffffffffffffffffffffff1663356ee53c336040518263ffffffff167c0100000000000000000000000000000000000000000000000000000000028152600401808273ffffffffffffffffffffffffffffffffffffffff1673ffffffffffffffffffffffffffffffffffffffff168152602001915050602060405180830381600087803b15801561172c57600080fd5b505af1158015611740573d6000803e3d6000fd5b505050506040513d602081101561175657600080fd5b8101908080519060200190929190505050151561177257600080fd5b6004600086815260200190815260200160002060009054906101000a900473ffffffffffffffffffffffffffffffffffffffff1690508073ffffffffffffffffffffffffffffffffffffffff1663e704157485856040518363ffffffff167c0100000000000000000000000000000000000000000000000000000000028152600401808381526020018273ffffffffffffffffffffffffffffffffffffffff1673ffffffffffffffffffffffffffffffffffffffff16815260200192505050600060405180830381600087803b15801561184b57600080fd5b505af115801561185f573d6000803e3d6000fd5b50505050811561193f57600760009054906101000a900473ffffffffffffffffffffffffffffffffffffffff1673ffffffffffffffffffffffffffffffffffffffff1663859e9dce336040518263ffffffff167c0100000000000000000000000000000000000000000000000000000000028152600401808273ffffffffffffffffffffffffffffffffffffffff1673ffffffffffffffffffffffffffffffffffffffff168152602001915050600060405180830381600087803b15801561192657600080fd5b505af115801561193a573d6000803e3d6000fd5b505050505b61194882612b2c565b5050505050565b8060038190555050565b600660009054906101000a900473ffffffffffffffffffffffffffffffffffffffff1673ffffffffffffffffffffffffffffffffffffffff16636c2626a56040518163ffffffff167c0100000000000000000000000000000000000000000000000000000000028152600401602060405180830381600087803b1580156119df57600080fd5b505af11580156119f3573d6000803e3d6000fd5b505050506040513d6020811015611a0957600080fd5b81019080805190602001909291905050501515611a2557600080fd5b600760009054906101000a900473ffffffffffffffffffffffffffffffffffffffff1673ffffffffffffffffffffffffffffffffffffffff166315e452af826040518263ffffffff167c0100000000000000000000000000000000000000000000000000000000028152600401808273ffffffffffffffffffffffffffffffffffffffff1673ffffffffffffffffffffffffffffffffffffffff168152602001915050602060405180830381600087803b158015611ae257600080fd5b505af1158015611af6573d6000803e3d6000fd5b505050506040513d6020811015611b0c57600080fd5b81019080805190602001909291905050501515611b2857600080fd5b80600960006101000a81548173ffffffffffffffffffffffffffffffffffffffff021916908373ffffffffffffffffffffffffffffffffffffffff160217905550600760009054906101000a900473ffffffffffffffffffffffffffffffffffffffff1673ffffffffffffffffffffffffffffffffffffffff1663de1bf09b6040518163ffffffff167c0100000000000000000000000000000000000000000000000000000000028152600401600060405180830381600087803b158015611bef57600080fd5b505af1158015611c03573d6000803e3d6000fd5b5050505050565b60006004600083815260200190815260200160002060009054906101000a900473ffffffffffffffffffffffffffffffffffffffff169050919050565b600260149054906101000a900460ff1681565b6000809054906101000a900473ffffffffffffffffffffffffffffffffffffffff1673ffffffffffffffffffffffffffffffffffffffff163373ffffffffffffffffffffffffffffffffffffffff16141515611cb557600080fd5b6000809054906101000a900473ffffffffffffffffffffffffffffffffffffffff1673ffffffffffffffffffffffffffffffffffffffff167ff8df31144d9c2f0f6b59d69b8b98abd5459d07f2742c4df920b25aae33c6482060405160405180910390a260008060006101000a81548173ffffffffffffffffffffffffffffffffffffffff021916908373ffffffffffffffffffffffffffffffffffffffff160217905550565b806004600084815260200190815260200160002060006101000a81548173ffffffffffffffffffffffffffffffffffffffff021916908373ffffffffffffffffffffffffffffffffffffffff1602179055505050565b6000600760009054906101000a900473ffffffffffffffffffffffffffffffffffffffff16905090565b600760149054906101000a900460ff1681565b6000809054906101000a900473ffffffffffffffffffffffffffffffffffffffff1673ffffffffffffffffffffffffffffffffffffffff163373ffffffffffffffffffffffffffffffffffffffff16141515611e4a57600080fd5b6001600260146101000a81548160ff021916908315150217905550565b6000809054906101000a900473ffffffffffffffffffffffffffffffffffffffff1681565b60046020528060005260406000206000915054906101000a900473ffffffffffffffffffffffffffffffffffffffff1681565b60085481565b600760009054906101000a900473ffffffffffffffffffffffffffffffffffffffff1681565b60006005600083815260200190815260200160002060009054906101000a900460ff169050919050565b80600b600084815260200190815260200160002060006101000a81548160ff0219169083151502179055505050565b6000600660009054906101000a900473ffffffffffffffffffffffffffffffffffffffff1673ffffffffffffffffffffffffffffffffffffffff16636c2626a56040518163ffffffff167c0100000000000000000000000000000000000000000000000000000000028152600401602060405180830381600087803b158015611fcc57600080fd5b505af1158015611fe0573d6000803e3d6000fd5b505050506040513d6020811015611ff657600080fd5b8101908080519060200190929190505050151561201257600080fd5b600760009054906101000a900473ffffffffffffffffffffffffffffffffffffffff1673ffffffffffffffffffffffffffffffffffffffff1663351b8ede336040518263ffffffff167c0100000000000000000000000000000000000000000000000000000000028152600401808273ffffffffffffffffffffffffffffffffffffffff1673ffffffffffffffffffffffffffffffffffffffff168152602001915050602060405180830381600087803b1580156120cf57600080fd5b505af11580156120e3573d6000803e3d6000fd5b505050506040513d60208110156120f957600080fd5b8101908080519060200190929190505050151561211557600080fd5b6004600083815260200190815260200160002060009054906101000a900473ffffffffffffffffffffffffffffffffffffffff1690508073ffffffffffffffffffffffffffffffffffffffff1663287599e36040518163ffffffff167c0100000000000000000000000000000000000000000000000000000000028152600401600060405180830381600087803b1580156121af57600080fd5b505af11580156121c3573d6000803e3d6000fd5b50505050600760009054906101000a900473ffffffffffffffffffffffffffffffffffffffff1673ffffffffffffffffffffffffffffffffffffffff166390e18336336040518263ffffffff167c0100000000000000000000000000000000000000000000000000000000028152600401808273ffffffffffffffffffffffffffffffffffffffff1673ffffffffffffffffffffffffffffffffffffffff168152602001915050600060405180830381600087803b15801561228457600080fd5b505af1158015612298573d6000803e3d6000fd5b505050506122a66001612b2c565b5050565b80600760006101000a81548173ffffffffffffffffffffffffffffffffffffffff021916908373ffffffffffffffffffffffffffffffffffffffff16021790555050565b60008060009054906101000a900473ffffffffffffffffffffffffffffffffffffffff16905090565b80600a8190555050565b600260009054906101000a900473ffffffffffffffffffffffffffffffffffffffff1681565b600960009054906101000a900473ffffffffffffffffffffffffffffffffffffffff1681565b6000600b600083815260200190815260200160002060009054906101000a900460ff169050919050565b6000809054906101000a900473ffffffffffffffffffffffffffffffffffffffff1673ffffffffffffffffffffffffffffffffffffffff163373ffffffffffffffffffffffffffffffffffffffff161415156123f257600080fd5b600260149054906101000a900460ff1615151561240e57600080fd5b6001600354016003819055508160046000600354815260200190815260200160002060006101000a81548173ffffffffffffffffffffffffffffffffffffffff021916908373ffffffffffffffffffffffffffffffffffffffff1602179055508060056000600354815260200190815260200160002060006101000a81548160ff0219169083151502179055505050565b8060088190555050565b80600760146101000a81548160ff02191690831515021790555050565b600660009054906101000a900473ffffffffffffffffffffffffffffffffffffffff1673ffffffffffffffffffffffffffffffffffffffff16636c2626a56040518163ffffffff167c0100000000000000000000000000000000000000000000000000000000028152600401602060405180830381600087803b15801561254c57600080fd5b505af1158015612560573d6000803e3d6000fd5b505050506040513d602081101561257657600080fd5b8101908080519060200190929190505050151561259257600080fd5b600760009054906101000a900473ffffffffffffffffffffffffffffffffffffffff1673ffffffffffffffffffffffffffffffffffffffff1663216d4bcb826040518263ffffffff167c0100000000000000000000000000000000000000000000000000000000028152600401808273ffffffffffffffffffffffffffffffffffffffff1673ffffffffffffffffffffffffffffffffffffffff168152602001915050602060405180830381600087803b15801561264f57600080fd5b505af1158015612663573d6000803e3d6000fd5b505050506040513d602081101561267957600080fd5b8101908080519060200190929190505050151561269557600080fd5b6126ab6001600354612b1090919063ffffffff16565b6003819055508060046000600354815260200190815260200160002060006101000a81548173ffffffffffffffffffffffffffffffffffffffff021916908373ffffffffffffffffffffffffffffffffffffffff160217905550600760009054906101000a900473ffffffffffffffffffffffffffffffffffffffff1673ffffffffffffffffffffffffffffffffffffffff1663259a1e7d336040518263ffffffff167c0100000000000000000000000000000000000000000000000000000000028152600401808273ffffffffffffffffffffffffffffffffffffffff1673ffffffffffffffffffffffffffffffffffffffff168152602001915050600060405180830381600087803b1580156127c257600080fd5b505af11580156127d6573d6000803e3d6000fd5b505050506127e46001612b2c565b50565b6000600960006101000a81548173ffffffffffffffffffffffffffffffffffffffff021916908373ffffffffffffffffffffffffffffffffffffffff160217905550565b60035481565b6000809054906101000a900473ffffffffffffffffffffffffffffffffffffffff1673ffffffffffffffffffffffffffffffffffffffff163373ffffffffffffffffffffffffffffffffffffffff1614151561288c57600080fd5b600560018190555061289d81612b52565b50565b6000612b07600760009054906101000a900473ffffffffffffffffffffffffffffffffffffffff1673ffffffffffffffffffffffffffffffffffffffff16639796a7e36040518163ffffffff167c0100000000000000000000000000000000000000000000000000000000028152600401602060405180830381600087803b15801561292b57600080fd5b505af115801561293f573d6000803e3d6000fd5b505050506040513d602081101561295557600080fd5b8101908080519060200190929190505050612af9600760009054906101000a900473ffffffffffffffffffffffffffffffffffffffff1673ffffffffffffffffffffffffffffffffffffffff166326acc0656040518163ffffffff167c0100000000000000000000000000000000000000000000000000000000028152600401602060405180830381600087803b1580156129ef57600080fd5b505af1158015612a03573d6000803e3d6000fd5b505050506040513d6020811015612a1957600080fd5b8101908080519060200190929190505050600760009054906101000a900473ffffffffffffffffffffffffffffffffffffffff1673ffffffffffffffffffffffffffffffffffffffff1663801c08766040518163ffffffff167c0100000000000000000000000000000000000000000000000000000000028152600401602060405180830381600087803b158015612ab057600080fd5b505af1158015612ac4573d6000803e3d6000fd5b505050506040513d6020811015612ada57600080fd5b8101908080519060200190929190505050612b1090919063ffffffff16565b612b1090919063ffffffff16565b60085414905090565b60008183019050828110151515612b2357fe5b80905092915050565b8015612b4f57612b486001600854612b1090919063ffffffff16565b6008819055505b50565b600073ffffffffffffffffffffffffffffffffffffffff168173ffffffffffffffffffffffffffffffffffffffff1614151515612b8e57600080fd5b8073ffffffffffffffffffffffffffffffffffffffff166000809054906101000a900473ffffffffffffffffffffffffffffffffffffffff1673ffffffffffffffffffffffffffffffffffffffff167f8be0079c531659141344cd1fd0a4f28419497f9722a3daafe3b4186f6b6457e060405160405180910390a3806000806101000a81548173ffffffffffffffffffffffffffffffffffffffff021916908373ffffffffffffffffffffffffffffffffffffffff16021790555050565b604051612b7680612c5d833901905600608060405234801561001057600080fd5b50604051604080612b768339810180604052810190808051906020019092919080519060200190929190505050336000806101000a81548173ffffffffffffffffffffffffffffffffffffffff021916908373ffffffffffffffffffffffffffffffffffffffff16021790555081600260006101000a81548173ffffffffffffffffffffffffffffffffffffffff021916908373ffffffffffffffffffffffffffffffffffffffff16021790555080600360006101000a81548173ffffffffffffffffffffffffffffffffffffffff021916908373ffffffffffffffffffffffffffffffffffffffff1602179055505050612a66806101106000396000f30060806040526004361061013e576000357c0100000000000000000000000000000000000000000000000000000000900463ffffffff16806315e452af14610143578063216d4bcb1461019e578063259a1e7d146101f957806326acc0651461023c578063326cef6414610267578063351b8ede14610294578063356ee53c146102ef578063360520aa1461034a5780634ddeafb714610377578063715018a6146103ce5780637a7bae04146103e5578063801c087614610414578063859e9dce1461043f5780638da5cb5b1461048257806390e18336146104d95780639796a7e31461051c578063b2bdfa7b14610547578063ca4b208b1461059e578063cb0fc30a146105f5578063de1bf09b1461064c578063e491553514610663578063ee5ddc7d146106a6578063f2fde38b146106bd578063faf24ad614610700575b600080fd5b34801561014f57600080fd5b50610184600480360381019080803573ffffffffffffffffffffffffffffffffffffffff169060200190929190505050610743565b604051808215151515815260200191505060405180910390f35b3480156101aa57600080fd5b506101df600480360381019080803573ffffffffffffffffffffffffffffffffffffffff16906020019092919050505061079d565b604051808215151515815260200191505060405180910390f35b34801561020557600080fd5b5061023a600480360381019080803573ffffffffffffffffffffffffffffffffffffffff1690602001909291905050506107f3565b005b34801561024857600080fd5b506102516108a9565b6040518082815260200191505060405180910390f35b34801561027357600080fd5b50610292600480360381019080803590602001909291905050506108af565b005b3480156102a057600080fd5b506102d5600480360381019080803573ffffffffffffffffffffffffffffffffffffffff169060200190929190505050610b75565b604051808215151515815260200191505060405180910390f35b3480156102fb57600080fd5b50610330600480360381019080803573ffffffffffffffffffffffffffffffffffffffff169060200190929190505050610bcb565b604051808215151515815260200191505060405180910390f35b34801561035657600080fd5b5061037560048036038101908080359060200190929190505050610c21565b005b34801561038357600080fd5b5061038c610f11565b604051808273ffffffffffffffffffffffffffffffffffffffff1673ffffffffffffffffffffffffffffffffffffffff16815260200191505060405180910390f35b3480156103da57600080fd5b506103e3610f37565b005b3480156103f157600080fd5b506103fa611039565b604051808215151515815260200191505060405180910390f35b34801561042057600080fd5b5061042961104c565b6040518082815260200191505060405180910390f35b34801561044b57600080fd5b50610480600480360381019080803573ffffffffffffffffffffffffffffffffffffffff169060200190929190505050611052565b005b34801561048e57600080fd5b50610497611108565b604051808273ffffffffffffffffffffffffffffffffffffffff1673ffffffffffffffffffffffffffffffffffffffff16815260200191505060405180910390f35b3480156104e557600080fd5b5061051a600480360381019080803573ffffffffffffffffffffffffffffffffffffffff16906020019092919050505061112d565b005b34801561052857600080fd5b506105316111e3565b6040518082815260200191505060405180910390f35b34801561055357600080fd5b5061055c6111e9565b604051808273ffffffffffffffffffffffffffffffffffffffff1673ffffffffffffffffffffffffffffffffffffffff16815260200191505060405180910390f35b3480156105aa57600080fd5b506105b3611212565b604051808273ffffffffffffffffffffffffffffffffffffffff1673ffffffffffffffffffffffffffffffffffffffff16815260200191505060405180910390f35b34801561060157600080fd5b5061060a611238565b604051808273ffffffffffffffffffffffffffffffffffffffff1673ffffffffffffffffffffffffffffffffffffffff16815260200191505060405180910390f35b34801561065857600080fd5b5061066161125e565b005b34801561066f57600080fd5b506106a4600480360381019080803573ffffffffffffffffffffffffffffffffffffffff1690602001909291905050506112fd565b005b3480156106b257600080fd5b506106bb611416565b005b3480156106c957600080fd5b506106fe600480360381019080803573ffffffffffffffffffffffffffffffffffffffff16906020019092919050505061148e565b005b34801561070c57600080fd5b50610741600480360381019080803573ffffffffffffffffffffffffffffffffffffffff1690602001909291905050506114fd565b005b60008173ffffffffffffffffffffffffffffffffffffffff16600d60009054906101000a900473ffffffffffffffffffffffffffffffffffffffff1673ffffffffffffffffffffffffffffffffffffffff16149050919050565b6000600660008373ffffffffffffffffffffffffffffffffffffffff1673ffffffffffffffffffffffffffffffffffffffff16815260200190815260200160002060009054906101000a900460ff169050919050565b6000809054906101000a900473ffffffffffffffffffffffffffffffffffffffff1673ffffffffffffffffffffffffffffffffffffffff163373ffffffffffffffffffffffffffffffffffffffff1614151561084e57600080fd5b6000600660008373ffffffffffffffffffffffffffffffffffffffff1673ffffffffffffffffffffffffffffffffffffffff16815260200190815260200160002060006101000a81548160ff02191690831515021790555050565b60075481565b600080600260009054906101000a900473ffffffffffffffffffffffffffffffffffffffff1673ffffffffffffffffffffffffffffffffffffffff163373ffffffffffffffffffffffffffffffffffffffff1614151561090e57600080fd5b600360149054906101000a900460ff1615151561092a57600080fd5b82600360009054906101000a900473ffffffffffffffffffffffffffffffffffffffff16600260009054906101000a900473ffffffffffffffffffffffffffffffffffffffff1661097961171d565b808481526020018373ffffffffffffffffffffffffffffffffffffffff1673ffffffffffffffffffffffffffffffffffffffff1681526020018273ffffffffffffffffffffffffffffffffffffffff1673ffffffffffffffffffffffffffffffffffffffff1681526020019350505050604051809103906000f080158015610a05573d6000803e3d6000fd5b5091508190508073ffffffffffffffffffffffffffffffffffffffff1663f2fde38b610a2f6111e9565b6040518263ffffffff167c0100000000000000000000000000000000000000000000000000000000028152600401808273ffffffffffffffffffffffffffffffffffffffff1673ffffffffffffffffffffffffffffffffffffffff168152602001915050600060405180830381600087803b158015610aad57600080fd5b505af1158015610ac1573d6000803e3d6000fd5b505050506001600754016007819055508060086000600754815260200190815260200160002060006101000a81548173ffffffffffffffffffffffffffffffffffffffff021916908373ffffffffffffffffffffffffffffffffffffffff160217905550600960008373ffffffffffffffffffffffffffffffffffffffff1673ffffffffffffffffffffffffffffffffffffffff16815260200190815260200160002060009054906101000a905050505050565b6000600c60008373ffffffffffffffffffffffffffffffffffffffff1673ffffffffffffffffffffffffffffffffffffffff16815260200190815260200160002060009054906101000a900460ff169050919050565b6000600960008373ffffffffffffffffffffffffffffffffffffffff1673ffffffffffffffffffffffffffffffffffffffff16815260200190815260200160002060009054906101000a900460ff169050919050565b600080600260009054906101000a900473ffffffffffffffffffffffffffffffffffffffff1673ffffffffffffffffffffffffffffffffffffffff163373ffffffffffffffffffffffffffffffffffffffff16141515610c8057600080fd5b6000809054906101000a900473ffffffffffffffffffffffffffffffffffffffff1673ffffffffffffffffffffffffffffffffffffffff1663a5e7e675846040518263ffffffff167c010000000000000000000000000000000000000000000000000000000002815260040180828152602001915050602060405180830381600087803b158015610d1057600080fd5b505af1158015610d24573d6000803e3d6000fd5b505050506040513d6020811015610d3a57600080fd5b81019080805190602001909291905050501515610d5657600080fd5b600360149054906101000a900460ff16151515610d7257600080fd5b82610d7b61172d565b80828152602001915050604051809103906000f080158015610da1573d6000803e3d6000fd5b5091508190508073ffffffffffffffffffffffffffffffffffffffff1663f2fde38b610dcb6111e9565b6040518263ffffffff167c0100000000000000000000000000000000000000000000000000000000028152600401808273ffffffffffffffffffffffffffffffffffffffff1673ffffffffffffffffffffffffffffffffffffffff168152602001915050600060405180830381600087803b158015610e4957600080fd5b505af1158015610e5d573d6000803e3d6000fd5b505050506001600a5401600a8190555080600b6000600a54815260200190815260200160002060006101000a81548173ffffffffffffffffffffffffffffffffffffffff021916908373ffffffffffffffffffffffffffffffffffffffff160217905550600c60008373ffffffffffffffffffffffffffffffffffffffff1673ffffffffffffffffffffffffffffffffffffffff16815260200190815260200160002060009054906101000a905050505050565b600360009054906101000a900473ffffffffffffffffffffffffffffffffffffffff1681565b6000809054906101000a900473ffffffffffffffffffffffffffffffffffffffff1673ffffffffffffffffffffffffffffffffffffffff163373ffffffffffffffffffffffffffffffffffffffff16141515610f9257600080fd5b6000809054906101000a900473ffffffffffffffffffffffffffffffffffffffff1673ffffffffffffffffffffffffffffffffffffffff167ff8df31144d9c2f0f6b59d69b8b98abd5459d07f2742c4df920b25aae33c6482060405160405180910390a260008060006101000a81548173ffffffffffffffffffffffffffffffffffffffff021916908373ffffffffffffffffffffffffffffffffffffffff160217905550565b600360149054906101000a900460ff1681565b60045481565b6000809054906101000a900473ffffffffffffffffffffffffffffffffffffffff1673ffffffffffffffffffffffffffffffffffffffff163373ffffffffffffffffffffffffffffffffffffffff161415156110ad57600080fd5b6000600960008373ffffffffffffffffffffffffffffffffffffffff1673ffffffffffffffffffffffffffffffffffffffff16815260200190815260200160002060006101000a81548160ff02191690831515021790555050565b6000809054906101000a900473ffffffffffffffffffffffffffffffffffffffff1681565b6000809054906101000a900473ffffffffffffffffffffffffffffffffffffffff1673ffffffffffffffffffffffffffffffffffffffff163373ffffffffffffffffffffffffffffffffffffffff1614151561118857600080fd5b6000600c60008373ffffffffffffffffffffffffffffffffffffffff1673ffffffffffffffffffffffffffffffffffffffff16815260200190815260200160002060006101000a81548160ff02191690831515021790555050565b600a5481565b60008060009054906101000a900473ffffffffffffffffffffffffffffffffffffffff16905090565b600260009054906101000a900473ffffffffffffffffffffffffffffffffffffffff1681565b600d60009054906101000a900473ffffffffffffffffffffffffffffffffffffffff1681565b6000809054906101000a900473ffffffffffffffffffffffffffffffffffffffff1673ffffffffffffffffffffffffffffffffffffffff163373ffffffffffffffffffffffffffffffffffffffff161415156112b957600080fd5b6000600d60006101000a81548173ffffffffffffffffffffffffffffffffffffffff021916908373ffffffffffffffffffffffffffffffffffffffff160217905550565b600260009054906101000a900473ffffffffffffffffffffffffffffffffffffffff1673ffffffffffffffffffffffffffffffffffffffff163373ffffffffffffffffffffffffffffffffffffffff1614151561135957600080fd5b600073ffffffffffffffffffffffffffffffffffffffff16600d60009054906101000a900473ffffffffffffffffffffffffffffffffffffffff1673ffffffffffffffffffffffffffffffffffffffff161415156113b657600080fd5b600360149054906101000a900460ff161515156113d257600080fd5b80600d60006101000a81548173ffffffffffffffffffffffffffffffffffffffff021916908373ffffffffffffffffffffffffffffffffffffffff16021790555050565b6000809054906101000a900473ffffffffffffffffffffffffffffffffffffffff1673ffffffffffffffffffffffffffffffffffffffff163373ffffffffffffffffffffffffffffffffffffffff1614151561147157600080fd5b6001600360146101000a81548160ff021916908315150217905550565b6000809054906101000a900473ffffffffffffffffffffffffffffffffffffffff1673ffffffffffffffffffffffffffffffffffffffff163373ffffffffffffffffffffffffffffffffffffffff161415156114e957600080fd5b60056001819055506114fa81611623565b50565b600260009054906101000a900473ffffffffffffffffffffffffffffffffffffffff1673ffffffffffffffffffffffffffffffffffffffff163373ffffffffffffffffffffffffffffffffffffffff1614151561155957600080fd5b600360149054906101000a900460ff1615151561157557600080fd5b6001600454016004819055508060056000600454815260200190815260200160002060006101000a81548173ffffffffffffffffffffffffffffffffffffffff021916908373ffffffffffffffffffffffffffffffffffffffff160217905550600660008273ffffffffffffffffffffffffffffffffffffffff1673ffffffffffffffffffffffffffffffffffffffff16815260200190815260200160002060009054906101000a90505050565b600073ffffffffffffffffffffffffffffffffffffffff168173ffffffffffffffffffffffffffffffffffffffff161415151561165f57600080fd5b8073ffffffffffffffffffffffffffffffffffffffff166000809054906101000a900473ffffffffffffffffffffffffffffffffffffffff1673ffffffffffffffffffffffffffffffffffffffff167f8be0079c531659141344cd1fd0a4f28419497f9722a3daafe3b4186f6b6457e060405160405180910390a3806000806101000a81548173ffffffffffffffffffffffffffffffffffffffff021916908373ffffffffffffffffffffffffffffffffffffffff16021790555050565b604051610d518061173e83390190565b6040516105ac8061248f833901905600608060405234801561001057600080fd5b50604051606080610d51833981018060405281019080805190602001909291908051906020019092919080519060200190929190505050336000806101000a81548173ffffffffffffffffffffffffffffffffffffffff021916908373ffffffffffffffffffffffffffffffffffffffff1602179055508260028190555081600360006101000a81548173ffffffffffffffffffffffffffffffffffffffff021916908373ffffffffffffffffffffffffffffffffffffffff16021790555080600460006101000a81548173ffffffffffffffffffffffffffffffffffffffff021916908373ffffffffffffffffffffffffffffffffffffffff160217905550505050610c2f806101226000396000f3006080604052600436106100af576000357c0100000000000000000000000000000000000000000000000000000000900463ffffffff1680630cdfe338146100b457806338994969146100e15780634ddeafb71461012e57806354bca3b214610185578063679ba61c14610208578063715018a61461023357806382234add1461024a5780638da5cb5b146102755780638dcba032146102cc578063b2bdfa7b146102f7578063f2fde38b1461034e575b600080fd5b3480156100c057600080fd5b506100df60048036038101908080359060200190929190505050610391565b005b3480156100ed57600080fd5b5061012c60048036038101908080359060200190929190803573ffffffffffffffffffffffffffffffffffffffff169060200190929190505050610547565b005b34801561013a57600080fd5b50610143610856565b604051808273ffffffffffffffffffffffffffffffffffffffff1673ffffffffffffffffffffffffffffffffffffffff16815260200191505060405180910390f35b34801561019157600080fd5b506101b06004803603810190808035906020019092919050505061087c565b604051808473ffffffffffffffffffffffffffffffffffffffff1673ffffffffffffffffffffffffffffffffffffffff1681526020018315151515815260200182151515158152602001935050505060405180910390f35b34801561021457600080fd5b5061021d6108e0565b6040518082815260200191505060405180910390f35b34801561023f57600080fd5b506102486108e6565b005b34801561025657600080fd5b5061025f6109e8565b6040518082815260200191505060405180910390f35b34801561028157600080fd5b5061028a6109ee565b604051808273ffffffffffffffffffffffffffffffffffffffff1673ffffffffffffffffffffffffffffffffffffffff16815260200191505060405180910390f35b3480156102d857600080fd5b506102e1610a13565b6040518082815260200191505060405180910390f35b34801561030357600080fd5b5061030c610a19565b604051808273ffffffffffffffffffffffffffffffffffffffff1673ffffffffffffffffffffffffffffffffffffffff16815260200191505060405180910390f35b34801561035a57600080fd5b5061038f600480360381019080803573ffffffffffffffffffffffffffffffffffffffff169060200190929190505050610a42565b005b6000806007600084815260200190815260200160002060000160159054906101000a900460ff1615156103c357600080fd5b60006007600085815260200190815260200160002060000160156101000a81548160ff0219169083151502179055506104086001600654610ab190919063ffffffff16565b6006819055506007600084815260200190815260200160002060000160009054906101000a900473ffffffffffffffffffffffffffffffffffffffff1691506005546006541490506000809054906101000a900473ffffffffffffffffffffffffffffffffffffffff1673ffffffffffffffffffffffffffffffffffffffff1663546b69536002548585856040518563ffffffff167c0100000000000000000000000000000000000000000000000000000000028152600401808581526020018481526020018373ffffffffffffffffffffffffffffffffffffffff1673ffffffffffffffffffffffffffffffffffffffff16815260200182151515158152602001945050505050600060405180830381600087803b15801561052a57600080fd5b505af115801561053e573d6000803e3d6000fd5b50505050505050565b61054f610bc7565b600460009054906101000a900473ffffffffffffffffffffffffffffffffffffffff1673ffffffffffffffffffffffffffffffffffffffff163373ffffffffffffffffffffffffffffffffffffffff161415156105ab57600080fd5b6000809054906101000a900473ffffffffffffffffffffffffffffffffffffffff1673ffffffffffffffffffffffffffffffffffffffff1663a5e7e675846040518263ffffffff167c010000000000000000000000000000000000000000000000000000000002815260040180828152602001915050602060405180830381600087803b15801561063b57600080fd5b505af115801561064f573d6000803e3d6000fd5b505050506040513d602081101561066557600080fd5b8101908080519060200190929190505050151561068157600080fd5b600360009054906101000a900473ffffffffffffffffffffffffffffffffffffffff1673ffffffffffffffffffffffffffffffffffffffff1663fcfff16f6040518163ffffffff167c0100000000000000000000000000000000000000000000000000000000028152600401602060405180830381600087803b15801561070757600080fd5b505af115801561071b573d6000803e3d6000fd5b505050506040513d602081101561073157600080fd5b810190808051906020019092919050505015151561074e57600080fd5b6107646001600554610ab190919063ffffffff16565b60058190555081816000019073ffffffffffffffffffffffffffffffffffffffff16908173ffffffffffffffffffffffffffffffffffffffff16815250506001816040019015159081151581525050806007600085815260200190815260200160002060008201518160000160006101000a81548173ffffffffffffffffffffffffffffffffffffffff021916908373ffffffffffffffffffffffffffffffffffffffff16021790555060208201518160000160146101000a81548160ff02191690831515021790555060408201518160000160156101000a81548160ff021916908315150217905550905050505050565b600360009054906101000a900473ffffffffffffffffffffffffffffffffffffffff1681565b60076020528060005260406000206000915090508060000160009054906101000a900473ffffffffffffffffffffffffffffffffffffffff16908060000160149054906101000a900460ff16908060000160159054906101000a900460ff16905083565b60025481565b6000809054906101000a900473ffffffffffffffffffffffffffffffffffffffff1673ffffffffffffffffffffffffffffffffffffffff163373ffffffffffffffffffffffffffffffffffffffff1614151561094157600080fd5b6000809054906101000a900473ffffffffffffffffffffffffffffffffffffffff1673ffffffffffffffffffffffffffffffffffffffff167ff8df31144d9c2f0f6b59d69b8b98abd5459d07f2742c4df920b25aae33c6482060405160405180910390a260008060006101000a81548173ffffffffffffffffffffffffffffffffffffffff021916908373ffffffffffffffffffffffffffffffffffffffff160217905550565b60065481565b6000809054906101000a900473ffffffffffffffffffffffffffffffffffffffff1681565b60055481565b60008060009054906101000a900473ffffffffffffffffffffffffffffffffffffffff16905090565b6000809054906101000a900473ffffffffffffffffffffffffffffffffffffffff1673ffffffffffffffffffffffffffffffffffffffff163373ffffffffffffffffffffffffffffffffffffffff16141515610a9d57600080fd5b6005600181905550610aae81610acd565b50565b60008183019050828110151515610ac457fe5b80905092915050565b600073ffffffffffffffffffffffffffffffffffffffff168173ffffffffffffffffffffffffffffffffffffffff1614151515610b0957600080fd5b8073ffffffffffffffffffffffffffffffffffffffff166000809054906101000a900473ffffffffffffffffffffffffffffffffffffffff1673ffffffffffffffffffffffffffffffffffffffff167f8be0079c531659141344cd1fd0a4f28419497f9722a3daafe3b4186f6b6457e060405160405180910390a3806000806101000a81548173ffffffffffffffffffffffffffffffffffffffff021916908373ffffffffffffffffffffffffffffffffffffffff16021790555050565b606060405190810160405280600073ffffffffffffffffffffffffffffffffffffffff16815260200160001515815260200160001515815250905600a165627a7a7230582087bd852ba10366f3190290d90c2b2fe576d0f295c1aec304dc25315fe47c1d5e0029608060405234801561001057600080fd5b506040516020806105ac83398101806040528101908080519060200190929190505050336000806101000a81548173ffffffffffffffffffffffffffffffffffffffff021916908373ffffffffffffffffffffffffffffffffffffffff16021790555080600281905550506105228061008a6000396000f30060806040526004361061006d576000357c0100000000000000000000000000000000000000000000000000000000900463ffffffff168063715018a6146100725780638da5cb5b14610089578063b2bdfa7b146100e0578063c303e4b214610137578063f2fde38b1461014e575b600080fd5b34801561007e57600080fd5b50610087610191565b005b34801561009557600080fd5b5061009e610293565b604051808273ffffffffffffffffffffffffffffffffffffffff1673ffffffffffffffffffffffffffffffffffffffff16815260200191505060405180910390f35b3480156100ec57600080fd5b506100f56102b8565b604051808273ffffffffffffffffffffffffffffffffffffffff1673ffffffffffffffffffffffffffffffffffffffff16815260200191505060405180910390f35b34801561014357600080fd5b5061014c6102e1565b005b34801561015a57600080fd5b5061018f600480360381019080803573ffffffffffffffffffffffffffffffffffffffff16906020019092919050505061038d565b005b6000809054906101000a900473ffffffffffffffffffffffffffffffffffffffff1673ffffffffffffffffffffffffffffffffffffffff163373ffffffffffffffffffffffffffffffffffffffff161415156101ec57600080fd5b6000809054906101000a900473ffffffffffffffffffffffffffffffffffffffff1673ffffffffffffffffffffffffffffffffffffffff167ff8df31144d9c2f0f6b59d69b8b98abd5459d07f2742c4df920b25aae33c6482060405160405180910390a260008060006101000a81548173ffffffffffffffffffffffffffffffffffffffff021916908373ffffffffffffffffffffffffffffffffffffffff160217905550565b6000809054906101000a900473ffffffffffffffffffffffffffffffffffffffff1681565b60008060009054906101000a900473ffffffffffffffffffffffffffffffffffffffff16905090565b6000809054906101000a900473ffffffffffffffffffffffffffffffffffffffff1673ffffffffffffffffffffffffffffffffffffffff1663a87775426002546040518263ffffffff167c010000000000000000000000000000000000000000000000000000000002815260040180828152602001915050600060405180830381600087803b15801561037357600080fd5b505af1158015610387573d6000803e3d6000fd5b50505050565b6000809054906101000a900473ffffffffffffffffffffffffffffffffffffffff1673ffffffffffffffffffffffffffffffffffffffff163373ffffffffffffffffffffffffffffffffffffffff161415156103e857600080fd5b60056001819055506103f9816103fc565b50565b600073ffffffffffffffffffffffffffffffffffffffff168173ffffffffffffffffffffffffffffffffffffffff161415151561043857600080fd5b8073ffffffffffffffffffffffffffffffffffffffff166000809054906101000a900473ffffffffffffffffffffffffffffffffffffffff1673ffffffffffffffffffffffffffffffffffffffff167f8be0079c531659141344cd1fd0a4f28419497f9722a3daafe3b4186f6b6457e060405160405180910390a3806000806101000a81548173ffffffffffffffffffffffffffffffffffffffff021916908373ffffffffffffffffffffffffffffffffffffffff160217905550505600a165627a7a723058206edfb11819d438bf56f47e8f0b4dc6adc1f8084c7aa8f41f03cba8d4a8ae70e90029a165627a7a723058207e02c48cdcc1ab39a4101195027b01534b24eab56f1bbeb0f6bbab390f04e5170029a165627a7a72305820d94f8e78f538abfee6176fb5d868a0c199f018af0449b6d3257ca289032ed7af0029",
  "source": "pragma solidity >=0.4.22 <0.6.0;\r\nimport './Amendment.sol';\r\nimport './AmendmentModificationProposal.sol';\r\nimport './utility/SafeMath.sol';\r\nimport './Cooperative0.sol';\r\n\r\ncontract CooperativeMock is Cooperative0 {\r\n  constructor(address _developer, AmendmentPoll _amendmentPoll) public\r\n  Cooperative0(_developer, _amendmentPoll) {}\r\n\r\n  function setStubProposals (Proposals _proposals) external {\r\n    currentProposals = _proposals;\r\n  }\r\n\r\n  function setTotalCompleteAdoptions (uint256 n) public {\r\n    totalCompleteAdoptions = n;\r\n  }\r\n\r\n  function getCurrentProposals () public returns (address) {\r\n    return address(currentProposals);\r\n  }\r\n\r\n  function setCurrentProposals (Proposals _proposals) public {\r\n    currentProposals = Proposals(_proposals);\r\n  }\r\n\r\n  function setCanInitElection (bool b) public {\r\n    canInitElection = b;\r\n  }\r\n\r\n  function setNewCooperative (address c) public {\r\n    newCooperative = c;\r\n  }\r\n\r\n  function clearNewCooperative () public {\r\n    newCooperative = address(0);\r\n  }\r\n\r\n  function setTotalAmendmentCount (uint256 n) public {\r\n    totalAmendmentCount = n;\r\n  }\r\n\r\n  function addAmendment (uint256 n, address a) public {\r\n    amendmentById[n] = Amendment(a);\r\n  }\r\n\r\n  function setMigrationStatus (uint256 n, bool b) public {\r\n    migrated[n] = b;\r\n  }\r\n\r\n  function getMigrationStatus (uint256 n) public returns (bool) {\r\n    return migrated[n];\r\n  }\r\n\r\n  function setReplacableStatus (uint256 n, bool b) public {\r\n    replacable[n] = b;\r\n  }\r\n\r\n  function setTotalAmendmentsMigrated (uint256 n) public {\r\n    totalAmendmentsMigrated = n;\r\n  }\r\n }\r\n",
  "sourcePath": "D:\\tetris\\SUWiserLLC_genie-truffle\\contracts\\CooperativeMock.sol",
  "compiler": {
    "name": "solc",
    "version": "0.4.24+commit.e67f0147.Emscripten.clang"
  },
  "schemaVersion": "2.0.1",
  "updatedAt": "2022-03-02T15:08:16.369Z"
}