{
  "contractName": "Crowdsale",
  "abi": [
    {
      "constant": true,
      "inputs": [],
      "name": "developer",
      "outputs": [
        {
          "name": "",
          "type": "address"
        }
      ],
      "payable": false,
      "stateMutability": "view",
      "type": "function"
    },
    {
      "constant": true,
      "inputs": [],
      "name": "token",
      "outputs": [
        {
          "name": "",
          "type": "address"
        }
      ],
      "payable": false,
      "stateMutability": "view",
      "type": "function"
    },
    {
      "inputs": [
        {
          "name": "_rate",
          "type": "uint256"
        },
        {
          "name": "_developer",
          "type": "address"
        },
        {
          "name": "_token",
          "type": "address"
        }
      ],
      "payable": false,
      "stateMutability": "nonpayable",
      "type": "constructor"
    },
    {
      "payable": true,
      "stateMutability": "payable",
      "type": "fallback"
    },
    {
      "anonymous": false,
      "inputs": [
        {
          "indexed": true,
          "name": "purchaser",
          "type": "address"
        },
        {
          "indexed": true,
          "name": "beneficiary",
          "type": "address"
        },
        {
          "indexed": false,
          "name": "value",
          "type": "uint256"
        },
        {
          "indexed": false,
          "name": "amount",
          "type": "uint256"
        },
        {
          "indexed": false,
          "name": "time",
          "type": "uint256"
        }
      ],
      "name": "TokenPurchase",
      "type": "event"
    },
    {
      "constant": false,
      "inputs": [
        {
          "name": "_beneficiary",
          "type": "address"
        }
      ],
      "name": "buyTokensFor",
      "outputs": [
        {
          "name": "",
          "type": "uint256"
        }
      ],
      "payable": true,
      "stateMutability": "payable",
      "type": "function"
    },
    {
      "constant": true,
      "inputs": [],
      "name": "weiRaised_",
      "outputs": [
        {
          "name": "",
          "type": "uint256"
        }
      ],
      "payable": false,
      "stateMutability": "view",
      "type": "function"
    }
  ],
  "bytecode": "0x608060405234801561001057600080fd5b5060405160608061058c83398101806040528101908080519060200190929190805190602001909291908051906020019092919050505060008311151561005657600080fd5b600073ffffffffffffffffffffffffffffffffffffffff168273ffffffffffffffffffffffffffffffffffffffff161415151561009257600080fd5b8260028190555081600160006101000a81548173ffffffffffffffffffffffffffffffffffffffff021916908373ffffffffffffffffffffffffffffffffffffffff160217905550806000806101000a81548173ffffffffffffffffffffffffffffffffffffffff021916908373ffffffffffffffffffffffffffffffffffffffff1602179055505050506104608061012c6000396000f300608060405260043610610062576000357c0100000000000000000000000000000000000000000000000000000000900463ffffffff1680636be4cf1f14610064578063ca4b208b146100ae578063e31bc61414610105578063fc0c546a14610130575b005b610098600480360381019080803573ffffffffffffffffffffffffffffffffffffffff169060200190929190505050610187565b6040518082815260200191505060405180910390f35b3480156100ba57600080fd5b506100c361038b565b604051808273ffffffffffffffffffffffffffffffffffffffff1673ffffffffffffffffffffffffffffffffffffffff16815260200191505060405180910390f35b34801561011157600080fd5b5061011a6103b1565b6040518082815260200191505060405180910390f35b34801561013c57600080fd5b506101456103bb565b604051808273ffffffffffffffffffffffffffffffffffffffff1673ffffffffffffffffffffffffffffffffffffffff16815260200191505060405180910390f35b6000806000349150600073ffffffffffffffffffffffffffffffffffffffff168473ffffffffffffffffffffffffffffffffffffffff16141515156101cb57600080fd5b600082141515156101db57600080fd5b6101f0600254836103e090919063ffffffff16565b90506102078260035461041890919063ffffffff16565b6003819055506000809054906101000a900473ffffffffffffffffffffffffffffffffffffffff1673ffffffffffffffffffffffffffffffffffffffff1663a9059cbb85836040518363ffffffff167c0100000000000000000000000000000000000000000000000000000000028152600401808373ffffffffffffffffffffffffffffffffffffffff1673ffffffffffffffffffffffffffffffffffffffff16815260200182815260200192505050602060405180830381600087803b1580156102d157600080fd5b505af11580156102e5573d6000803e3d6000fd5b505050506040513d60208110156102fb57600080fd5b8101908080519060200190929190505050508373ffffffffffffffffffffffffffffffffffffffff163373ffffffffffffffffffffffffffffffffffffffff167efe0e12b43090c1fc19a34aefa5cc138a4eeafc60ab800f855c730b3fb9480e84844260405180848152602001838152602001828152602001935050505060405180910390a38092505050919050565b600160009054906101000a900473ffffffffffffffffffffffffffffffffffffffff1681565b6000600354905090565b6000809054906101000a900473ffffffffffffffffffffffffffffffffffffffff1681565b6000808314156103f35760009050610412565b818302905081838281151561040457fe5b0414151561040e57fe5b8090505b92915050565b6000818301905082811015151561042b57fe5b809050929150505600a165627a7a7230582033baf52ba34b19310ff8103e5afbb96edafa4072640d0323da02455e0df23b630029",
  "source": "pragma solidity >=0.4.22 <0.6.0;\r\nimport \"../token/InactiveToken.sol\";\r\nimport '../utility/SafeMath.sol';\r\n\r\ncontract Crowdsale {\r\n  using SafeMath for uint256;\r\n  InactiveToken public token;\r\n  address  public developer;\r\n  uint256 internal rate;\r\n  uint256 internal weiRaised;\r\n\r\n  event TokenPurchase(\r\n    address indexed purchaser,\r\n    address indexed beneficiary,\r\n    uint256 value,\r\n    uint256 amount,\r\n    uint256 time\r\n  );\r\n\r\n  constructor(uint256 _rate, address  _developer, InactiveToken _token) public {\r\n    require(_rate > 0);\r\n    require(_developer != address(0));\r\n\r\n    rate = _rate;\r\n    developer = _developer;\r\n    token = _token;\r\n  }\r\n\r\n  function () public payable {\r\n  }\r\n\r\n  function buyTokensFor(address  _beneficiary) public payable returns (uint256) {\r\n    uint256 weiAmount = msg.value;\r\n    require(_beneficiary != address(0));\r\n    require(weiAmount != 0);\r\n\r\n    uint256 tokens = weiAmount.mul(rate);\r\n\r\n    weiRaised = weiRaised.add(weiAmount);\r\n\r\n    InactiveToken(token).transfer(_beneficiary, tokens);\r\n\r\n    emit TokenPurchase(\r\n      msg.sender,\r\n      _beneficiary,\r\n      weiAmount,\r\n      tokens,\r\n      now\r\n    );\r\n\r\n    return tokens;\r\n  }\r\n\r\n  function weiRaised_() public view returns(uint256) {\r\n    return weiRaised;\r\n  }\r\n}\r\n",
  "sourcePath": "D:\\tetris\\SUWiserLLC_serge\\contracts\\crowdsale\\Crowdsale.sol",
  "compiler": {
    "name": "solc",
    "version": "0.4.24+commit.e67f0147.Emscripten.clang"
  },
  "schemaVersion": "2.0.1",
  "updatedAt": "2022-02-22T18:24:46.990Z"
}