{
  "contractName": "DividendsStub",
  "abi": [
    {
      "constant": true,
      "inputs": [],
      "name": "totalDividendPoints",
      "outputs": [
        {
          "name": "",
          "type": "uint256"
        }
      ],
      "payable": false,
      "stateMutability": "view",
      "type": "function"
    },
    {
      "constant": false,
      "inputs": [
        {
          "name": "methodName",
          "type": "string"
        }
      ],
      "name": "addMethod",
      "outputs": [],
      "payable": false,
      "stateMutability": "nonpayable",
      "type": "function"
    },
    {
      "constant": true,
      "inputs": [
        {
          "name": "methodName",
          "type": "string"
        }
      ],
      "name": "callHistory",
      "outputs": [
        {
          "name": "",
          "type": "uint256"
        },
        {
          "name": "",
          "type": "uint256"
        },
        {
          "name": "",
          "type": "uint256"
        },
        {
          "name": "",
          "type": "string"
        },
        {
          "name": "",
          "type": "string"
        },
        {
          "name": "",
          "type": "string"
        },
        {
          "name": "",
          "type": "address"
        },
        {
          "name": "",
          "type": "address"
        },
        {
          "name": "",
          "type": "address"
        },
        {
          "name": "",
          "type": "bool"
        },
        {
          "name": "",
          "type": "bool"
        }
      ],
      "payable": false,
      "stateMutability": "view",
      "type": "function"
    },
    {
      "constant": true,
      "inputs": [
        {
          "name": "",
          "type": "address"
        }
      ],
      "name": "lastDividendPoints",
      "outputs": [
        {
          "name": "",
          "type": "uint256"
        }
      ],
      "payable": false,
      "stateMutability": "view",
      "type": "function"
    },
    {
      "constant": true,
      "inputs": [
        {
          "name": "account",
          "type": "address"
        }
      ],
      "name": "dividendOwedTo",
      "outputs": [
        {
          "name": "",
          "type": "uint256"
        }
      ],
      "payable": false,
      "stateMutability": "view",
      "type": "function"
    },
    {
      "constant": false,
      "inputs": [
        {
          "name": "methodName",
          "type": "string"
        }
      ],
      "name": "resetMethod",
      "outputs": [],
      "payable": false,
      "stateMutability": "nonpayable",
      "type": "function"
    },
    {
      "inputs": [
        {
          "name": "token_",
          "type": "address"
        }
      ],
      "payable": false,
      "stateMutability": "nonpayable",
      "type": "constructor"
    },
    {
      "anonymous": false,
      "inputs": [
        {
          "indexed": false,
          "name": "weiAmount",
          "type": "uint256"
        },
        {
          "indexed": false,
          "name": "time",
          "type": "uint256"
        }
      ],
      "name": "ReceiveDividends",
      "type": "event"
    },
    {
      "anonymous": false,
      "inputs": [
        {
          "indexed": false,
          "name": "account",
          "type": "address"
        },
        {
          "indexed": false,
          "name": "amount",
          "type": "uint256"
        }
      ],
      "name": "DividendCollection",
      "type": "event"
    },
    {
      "constant": false,
      "inputs": [
        {
          "name": "account",
          "type": "address"
        }
      ],
      "name": "distributeDividend",
      "outputs": [
        {
          "name": "",
          "type": "bool"
        }
      ],
      "payable": false,
      "stateMutability": "nonpayable",
      "type": "function"
    },
    {
      "constant": false,
      "inputs": [],
      "name": "receiveDividends",
      "outputs": [],
      "payable": true,
      "stateMutability": "payable",
      "type": "function"
    }
  ],
  "bytecode": "0x60806040526c7e37be2022c0914b268000000060035534801561002157600080fd5b506040516020806113a28339810180604052810190808051906020019092919050505080806000806101000a81548173ffffffffffffffffffffffffffffffffffffffff021916908373ffffffffffffffffffffffffffffffffffffffff160217905550505061130c806100966000396000f30060806040526004361061008e576000357c0100000000000000000000000000000000000000000000000000000000900463ffffffff1680632113342d1461009357806351542e3a146100be5780635319504a14610127578063547d80201461018257806379fc468714610400578063806985f71461040a578063b107a27c14610461578063f427b135146104b8575b600080fd5b34801561009f57600080fd5b506100a8610521565b6040518082815260200191505060405180910390f35b3480156100ca57600080fd5b50610125600480360381019080803590602001908201803590602001908080601f0160208091040260200160405190810160405280939291908181526020018383808284378201915050505050509192919290505050610527565b005b34801561013357600080fd5b50610168600480360381019080803573ffffffffffffffffffffffffffffffffffffffff16906020019092919050505061072f565b604051808215151515815260200191505060405180910390f35b34801561018e57600080fd5b506101e9600480360381019080803590602001908201803590602001908080601f0160208091040260200160405190810160405280939291908181526020018383808284378201915050505050509192919290505050610861565b604051808c81526020018b81526020018a81526020018060200180602001806020018973ffffffffffffffffffffffffffffffffffffffff1673ffffffffffffffffffffffffffffffffffffffff1681526020018873ffffffffffffffffffffffffffffffffffffffff1673ffffffffffffffffffffffffffffffffffffffff1681526020018773ffffffffffffffffffffffffffffffffffffffff1673ffffffffffffffffffffffffffffffffffffffff168152602001861515151581526020018515151515815260200184810384528c818151815260200191508051906020019080838360005b838110156102ed5780820151818401526020810190506102d2565b50505050905090810190601f16801561031a5780820380516001836020036101000a031916815260200191505b5084810383528b818151815260200191508051906020019080838360005b83811015610353578082015181840152602081019050610338565b50505050905090810190601f1680156103805780820380516001836020036101000a031916815260200191505b5084810382528a818151815260200191508051906020019080838360005b838110156103b957808201518184015260208101905061039e565b50505050905090810190601f1680156103e65780820380516001836020036101000a031916815260200191505b509e50505050505050505050505050505060405180910390f35b610408610c9a565b005b34801561041657600080fd5b5061044b600480360381019080803573ffffffffffffffffffffffffffffffffffffffff169060200190929190505050610d05565b6040518082815260200191505060405180910390f35b34801561046d57600080fd5b506104a2600480360381019080803573ffffffffffffffffffffffffffffffffffffffff169060200190929190505050610d1d565b6040518082815260200191505060405180910390f35b3480156104c457600080fd5b5061051f600480360381019080803590602001908201803590602001908080601f0160208091040260200160405190810160405280939291908181526020018383808284378201915050505050509192919290505050610ea1565b005b60025481565b61052f61111a565b806004836040518082805190602001908083835b6020831015156105685780518252602082019150602081019050602083039250610543565b6001836020036101000a038019825116818451168082178552505050505050905001915050908152602001604051809103902060008201518160000155602082015181600101556040820151816002015560608201518160030190805190602001906105d59291906111bb565b5060808201518160040190805190602001906105f29291906111bb565b5060a082015181600501908051906020019061060f9291906111bb565b5060c08201518160060160006101000a81548173ffffffffffffffffffffffffffffffffffffffff021916908373ffffffffffffffffffffffffffffffffffffffff16021790555060e08201518160070160006101000a81548173ffffffffffffffffffffffffffffffffffffffff021916908373ffffffffffffffffffffffffffffffffffffffff1602179055506101008201518160080160006101000a81548173ffffffffffffffffffffffffffffffffffffffff021916908373ffffffffffffffffffffffffffffffffffffffff1602179055506101208201518160080160146101000a81548160ff0219169083151502179055506101408201518160080160156101000a81548160ff0219169083151502179055509050505050565b600080600460405180807f646973747269627574654469766964656e640000000000000000000000000000815250601201905090815260200160405180910390209050600073ffffffffffffffffffffffffffffffffffffffff168160060160009054906101000a900473ffffffffffffffffffffffffffffffffffffffff1673ffffffffffffffffffffffffffffffffffffffff16141561081357828160060160006101000a81548173ffffffffffffffffffffffffffffffffffffffff021916908373ffffffffffffffffffffffffffffffffffffffff160217905550610857565b828160070160006101000a81548173ffffffffffffffffffffffffffffffffffffffff021916908373ffffffffffffffffffffffffffffffffffffffff1602179055505b6001915050919050565b60008060006060806060600080600080600061087b61111a565b60048d6040518082805190602001908083835b6020831015156108b3578051825260208201915060208101905060208303925061088e565b6001836020036101000a03801982511681845116808217855250505050505090500191505090815260200160405180910390206101606040519081016040529081600082015481526020016001820154815260200160028201548152602001600382018054600181600116156101000203166002900480601f0160208091040260200160405190810160405280929190818152602001828054600181600116156101000203166002900480156109aa5780601f1061097f576101008083540402835291602001916109aa565b820191906000526020600020905b81548152906001019060200180831161098d57829003601f168201915b50505050508152602001600482018054600181600116156101000203166002900480601f016020809104026020016040519081016040528092919081815260200182805460018160011615610100020316600290048015610a4c5780601f10610a2157610100808354040283529160200191610a4c565b820191906000526020600020905b815481529060010190602001808311610a2f57829003601f168201915b50505050508152602001600582018054600181600116156101000203166002900480601f016020809104026020016040519081016040528092919081815260200182805460018160011615610100020316600290048015610aee5780601f10610ac357610100808354040283529160200191610aee565b820191906000526020600020905b815481529060010190602001808311610ad157829003601f168201915b505050505081526020016006820160009054906101000a900473ffffffffffffffffffffffffffffffffffffffff1673ffffffffffffffffffffffffffffffffffffffff1673ffffffffffffffffffffffffffffffffffffffff1681526020016007820160009054906101000a900473ffffffffffffffffffffffffffffffffffffffff1673ffffffffffffffffffffffffffffffffffffffff1673ffffffffffffffffffffffffffffffffffffffff1681526020016008820160009054906101000a900473ffffffffffffffffffffffffffffffffffffffff1673ffffffffffffffffffffffffffffffffffffffff1673ffffffffffffffffffffffffffffffffffffffff1681526020016008820160149054906101000a900460ff161515151581526020016008820160159054906101000a900460ff1615151515815250509050806000015181602001518260400151836060015184608001518560a001518660c001518760e001518861010001518961012001518a61014001518797508696508595509b509b509b509b509b509b509b509b509b509b509b505091939597999b90929496989a50565b6000600460405180807f726563656976654469766964656e64730000000000000000000000000000000081525060100190509081526020016040518091039020905060018160080160146101000a81548160ff02191690831515021790555034816000018190555050565b60016020528060005260406000206000915090505481565b6000806000610d76600160008673ffffffffffffffffffffffffffffffffffffffff1673ffffffffffffffffffffffffffffffffffffffff168152602001908152602001600020546002546110b390919063ffffffff16565b91506000809054906101000a900473ffffffffffffffffffffffffffffffffffffffff1673ffffffffffffffffffffffffffffffffffffffff166370a08231856040518263ffffffff167c0100000000000000000000000000000000000000000000000000000000028152600401808273ffffffffffffffffffffffffffffffffffffffff1673ffffffffffffffffffffffffffffffffffffffff168152602001915050602060405180830381600087803b158015610e3457600080fd5b505af1158015610e48573d6000803e3d6000fd5b505050506040513d6020811015610e5e57600080fd5b81019080805190602001909291905050509050610e98600354610e8a84846110cc90919063ffffffff16565b61110490919063ffffffff16565b92505050919050565b60006004826040518082805190602001908083835b602083101515610edb5780518252602082019150602081019050602083039250610eb6565b6001836020036101000a038019825116818451168082178552505050505050905001915050908152602001604051809103902090506000816000018190555060008160010181905550600081600201819055506020604051908101604052806000815250816003019080519060200190610f5692919061123b565b506020604051908101604052806000815250816004019080519060200190610f7f92919061123b565b506020604051908101604052806000815250816005019080519060200190610fa892919061123b565b5060008160060160006101000a81548173ffffffffffffffffffffffffffffffffffffffff021916908373ffffffffffffffffffffffffffffffffffffffff16021790555060008160070160006101000a81548173ffffffffffffffffffffffffffffffffffffffff021916908373ffffffffffffffffffffffffffffffffffffffff16021790555060008160080160006101000a81548173ffffffffffffffffffffffffffffffffffffffff021916908373ffffffffffffffffffffffffffffffffffffffff16021790555060008160080160146101000a81548160ff02191690831515021790555060008160080160156101000a81548160ff0219169083151502179055505050565b60008282111515156110c157fe5b818303905092915050565b6000808314156110df57600090506110fe565b81830290508183828115156110f057fe5b041415156110fa57fe5b8090505b92915050565b6000818381151561111157fe5b04905092915050565b61016060405190810160405280600081526020016000815260200160008152602001606081526020016060815260200160608152602001600073ffffffffffffffffffffffffffffffffffffffff168152602001600073ffffffffffffffffffffffffffffffffffffffff168152602001600073ffffffffffffffffffffffffffffffffffffffff1681526020016000151581526020016000151581525090565b828054600181600116156101000203166002900490600052602060002090601f016020900481019282601f106111fc57805160ff191683800117855561122a565b8280016001018555821561122a579182015b8281111561122957825182559160200191906001019061120e565b5b50905061123791906112bb565b5090565b828054600181600116156101000203166002900490600052602060002090601f016020900481019282601f1061127c57805160ff19168380011785556112aa565b828001600101855582156112aa579182015b828111156112a957825182559160200191906001019061128e565b5b5090506112b791906112bb565b5090565b6112dd91905b808211156112d95760008160009055506001016112c1565b5090565b905600a165627a7a72305820aac5f69ccf69b71f4d592c3a70689b8933e2951445e6d4b2b61227cb3277e29d0029",
  "source": "pragma solidity >=0.4.22 <0.6.0;\nimport '../utility/SafeMath.sol';\nimport '../token/ActiveToken.sol';\nimport '../crowdsale/GNITokenCrowdsale.sol';\nimport '../ContractStub.sol';\n\ncontract DividendsStub is Dividends, ContractStub {\n  using SafeMath for uint256;\n\n  constructor (ActiveToken token_) public\n  Dividends(token_) {}\n\n  function distributeDividend(address account) external returns (bool) {\n    CallData storage methodState = method['distributeDividend'];\n    if (methodState.firstAddress == address(0)) {\n      methodState.firstAddress = account;\n    } else {\n      methodState.secondAddress = account;\n    }\n    return true;\n  }\n\n  function receiveDividends () external payable {\n    CallData storage methodState = method['receiveDividends'];\n    methodState.called = true;\n    methodState.firstUint = msg.value;\n  }\n}\n",
  "sourcePath": "D:\\Projects\\SUWiserLLC\\serge\\contracts\\dividends\\DividendsStub.sol",
  "compiler": {
    "name": "solc",
    "version": "0.4.24+commit.e67f0147.Emscripten.clang"
  },
  "schemaVersion": "2.0.1",
  "updatedAt": "2022-02-19T15:47:01.583Z"
}