{
  "contractName": "DividendsMock",
  "abi": [
    {
      "constant": true,
      "inputs": [],
      "name": "totalDividendPoints",
      "outputs": [
        {
          "name": "",
          "type": "uint256"
        }
      ],
      "payable": false,
      "stateMutability": "view",
      "type": "function"
    },
    {
      "constant": false,
      "inputs": [
        {
          "name": "account",
          "type": "address"
        }
      ],
      "name": "distributeDividend",
      "outputs": [
        {
          "name": "",
          "type": "bool"
        }
      ],
      "payable": false,
      "stateMutability": "nonpayable",
      "type": "function"
    },
    {
      "constant": false,
      "inputs": [],
      "name": "receiveDividends",
      "outputs": [],
      "payable": true,
      "stateMutability": "payable",
      "type": "function"
    },
    {
      "constant": true,
      "inputs": [
        {
          "name": "",
          "type": "address"
        }
      ],
      "name": "lastDividendPoints",
      "outputs": [
        {
          "name": "",
          "type": "uint256"
        }
      ],
      "payable": false,
      "stateMutability": "view",
      "type": "function"
    },
    {
      "constant": true,
      "inputs": [
        {
          "name": "account",
          "type": "address"
        }
      ],
      "name": "dividendOwedTo",
      "outputs": [
        {
          "name": "",
          "type": "uint256"
        }
      ],
      "payable": false,
      "stateMutability": "view",
      "type": "function"
    },
    {
      "inputs": [
        {
          "name": "token_",
          "type": "address"
        }
      ],
      "payable": false,
      "stateMutability": "nonpayable",
      "type": "constructor"
    },
    {
      "anonymous": false,
      "inputs": [
        {
          "indexed": false,
          "name": "weiAmount",
          "type": "uint256"
        },
        {
          "indexed": false,
          "name": "time",
          "type": "uint256"
        }
      ],
      "name": "ReceiveDividends",
      "type": "event"
    },
    {
      "anonymous": false,
      "inputs": [
        {
          "indexed": false,
          "name": "account",
          "type": "address"
        },
        {
          "indexed": false,
          "name": "amount",
          "type": "uint256"
        }
      ],
      "name": "DividendCollection",
      "type": "event"
    },
    {
      "constant": true,
      "inputs": [
        {
          "name": "account",
          "type": "address"
        }
      ],
      "name": "lastDividendPointsOf",
      "outputs": [
        {
          "name": "",
          "type": "uint256"
        }
      ],
      "payable": false,
      "stateMutability": "view",
      "type": "function"
    },
    {
      "constant": false,
      "inputs": [
        {
          "name": "eth",
          "type": "uint256"
        },
        {
          "name": "tokens",
          "type": "uint256"
        }
      ],
      "name": "addMockTotalDividendPonts",
      "outputs": [],
      "payable": false,
      "stateMutability": "nonpayable",
      "type": "function"
    },
    {
      "constant": false,
      "inputs": [
        {
          "name": "eth",
          "type": "uint256"
        },
        {
          "name": "tokens",
          "type": "uint256"
        },
        {
          "name": "account",
          "type": "address"
        }
      ],
      "name": "setMockLastDividendPoints",
      "outputs": [],
      "payable": false,
      "stateMutability": "nonpayable",
      "type": "function"
    }
  ],
  "bytecode": "0x60806040526c7e37be2022c0914b268000000060035534801561002157600080fd5b5060405160208061091c8339810180604052810190808051906020019092919050505080806000806101000a81548173ffffffffffffffffffffffffffffffffffffffff021916908373ffffffffffffffffffffffffffffffffffffffff1602179055505050610886806100966000396000f30060806040526004361061008e576000357c0100000000000000000000000000000000000000000000000000000000900463ffffffff1680632113342d14610093578063504af55f146100be5780635319504a146100f557806379fc468714610150578063806985f71461015a578063ab4b5a42146101b1578063b107a27c14610208578063cf631d901461025f575b600080fd5b34801561009f57600080fd5b506100a86102b6565b6040518082815260200191505060405180910390f35b3480156100ca57600080fd5b506100f360048036038101908080359060200190929190803590602001909291905050506102bc565b005b34801561010157600080fd5b50610136600480360381019080803573ffffffffffffffffffffffffffffffffffffffff169060200190929190505050610307565b604051808215151515815260200191505060405180910390f35b610158610417565b005b34801561016657600080fd5b5061019b600480360381019080803573ffffffffffffffffffffffffffffffffffffffff169060200190929190505050610569565b6040518082815260200191505060405180910390f35b3480156101bd57600080fd5b506102066004803603810190808035906020019092919080359060200190929190803573ffffffffffffffffffffffffffffffffffffffff169060200190929190505050610581565b005b34801561021457600080fd5b50610249600480360381019080803573ffffffffffffffffffffffffffffffffffffffff16906020019092919050505061060a565b6040518082815260200191505060405180910390f35b34801561026b57600080fd5b506102a0600480360381019080803573ffffffffffffffffffffffffffffffffffffffff16906020019092919050505061078e565b6040518082815260200191505060405180910390f35b60025481565b6102fd816102ef6003546102e1670de0b6b3a7640000876107d790919063ffffffff16565b6107d790919063ffffffff16565b61080f90919063ffffffff16565b6002819055505050565b6000806103138361060a565b90508273ffffffffffffffffffffffffffffffffffffffff166108fc829081150290604051600060405180830381858888f1935050505015801561035b573d6000803e3d6000fd5b50600254600160008573ffffffffffffffffffffffffffffffffffffffff1673ffffffffffffffffffffffffffffffffffffffff168152602001908152602001600020819055507f58d6fdd6f2dd88138e5e461d72c14a618736a6f130c107a3930af0f38a98b5198382604051808373ffffffffffffffffffffffffffffffffffffffff1673ffffffffffffffffffffffffffffffffffffffff1681526020018281526020019250505060405180910390a16001915050919050565b60008060008060009054906101000a900473ffffffffffffffffffffffffffffffffffffffff1673ffffffffffffffffffffffffffffffffffffffff166318160ddd6040518163ffffffff167c0100000000000000000000000000000000000000000000000000000000028152600401602060405180830381600087803b1580156104a157600080fd5b505af11580156104b5573d6000803e3d6000fd5b505050506040513d60208110156104cb57600080fd5b81019080805190602001909291905050509250349150610508836104fa600354856107d790919063ffffffff16565b61080f90919063ffffffff16565b905061051f8160025461082590919063ffffffff16565b6002819055507ff6af96c0ef275a672b4b7e8b6762100ecac14dfa48e5e99bf6df111c641037f43442604051808381526020018281526020019250505060405180910390a1505050565b60016020528060005260406000206000915090505481565b6105c2826105b46003546105a6670de0b6b3a7640000886107d790919063ffffffff16565b6107d790919063ffffffff16565b61080f90919063ffffffff16565b600160008373ffffffffffffffffffffffffffffffffffffffff1673ffffffffffffffffffffffffffffffffffffffff16815260200190815260200160002081905550505050565b6000806000610663600160008673ffffffffffffffffffffffffffffffffffffffff1673ffffffffffffffffffffffffffffffffffffffff1681526020019081526020016000205460025461084190919063ffffffff16565b91506000809054906101000a900473ffffffffffffffffffffffffffffffffffffffff1673ffffffffffffffffffffffffffffffffffffffff166370a08231856040518263ffffffff167c0100000000000000000000000000000000000000000000000000000000028152600401808273ffffffffffffffffffffffffffffffffffffffff1673ffffffffffffffffffffffffffffffffffffffff168152602001915050602060405180830381600087803b15801561072157600080fd5b505af1158015610735573d6000803e3d6000fd5b505050506040513d602081101561074b57600080fd5b8101908080519060200190929190505050905061078560035461077784846107d790919063ffffffff16565b61080f90919063ffffffff16565b92505050919050565b6000600160008373ffffffffffffffffffffffffffffffffffffffff1673ffffffffffffffffffffffffffffffffffffffff168152602001908152602001600020549050919050565b6000808314156107ea5760009050610809565b81830290508183828115156107fb57fe5b0414151561080557fe5b8090505b92915050565b6000818381151561081c57fe5b04905092915050565b6000818301905082811015151561083857fe5b80905092915050565b600082821115151561084f57fe5b8183039050929150505600a165627a7a7230582087df8f72997c909612b6b7269654b312a4584692e52e6fb239a5c83446345e930029",
  "source": "pragma solidity >=0.4.22 <0.6.0;\r\nimport './Dividends.sol';\r\nimport '../token/ActiveToken.sol';\r\n\r\ncontract DividendsMock is Dividends {\r\n\r\n  constructor (ActiveToken token_)\r\n  public\r\n  Dividends(token_) {}\r\n\r\n\r\n  function lastDividendPointsOf(address account) public view returns(uint256) {\r\n    return lastDividendPoints[account];\r\n  }\r\n\r\n  function addMockTotalDividendPonts(uint256 eth, uint256 tokens) public {\r\n    totalDividendPoints = eth.mul(1e18).mul(pointMultiplier).div(tokens);\r\n  }\r\n\r\n  function setMockLastDividendPoints (uint256 eth, uint256 tokens, address account) public {\r\n    lastDividendPoints[account] = eth.mul(1e18).mul(pointMultiplier).div(tokens);\r\n  }\r\n}\r\n",
  "sourcePath": "D:\\tetris\\SUWiserLLC_genie-truffle\\contracts\\dividends\\DividendsMock.sol",
  "compiler": {
    "name": "solc",
    "version": "0.4.24+commit.e67f0147.Emscripten.clang"
  },
  "schemaVersion": "2.0.1",
  "updatedAt": "2022-03-02T15:08:16.410Z"
}