{
  "contractName": "GNITokenCrowdsaleMock",
  "abi": [
    {
      "constant": false,
      "inputs": [
        {
          "name": "_days",
          "type": "uint256"
        }
      ],
      "name": "extendDoomsDay",
      "outputs": [],
      "payable": false,
      "stateMutability": "nonpayable",
      "type": "function"
    },
    {
      "constant": true,
      "inputs": [],
      "name": "hasClosed",
      "outputs": [
        {
          "name": "",
          "type": "bool"
        }
      ],
      "payable": false,
      "stateMutability": "view",
      "type": "function"
    },
    {
      "constant": true,
      "inputs": [],
      "name": "canReOpen",
      "outputs": [
        {
          "name": "",
          "type": "bool"
        }
      ],
      "payable": false,
      "stateMutability": "view",
      "type": "function"
    },
    {
      "constant": false,
      "inputs": [],
      "name": "closeFunctionality",
      "outputs": [],
      "payable": false,
      "stateMutability": "nonpayable",
      "type": "function"
    },
    {
      "constant": false,
      "inputs": [
        {
          "name": "coAmendment",
          "type": "address"
        }
      ],
      "name": "addCoAmendment",
      "outputs": [],
      "payable": false,
      "stateMutability": "nonpayable",
      "type": "function"
    },
    {
      "constant": false,
      "inputs": [
        {
          "name": "capitalRequired",
          "type": "uint256"
        }
      ],
      "name": "transferCapitalToDeveloper",
      "outputs": [],
      "payable": false,
      "stateMutability": "nonpayable",
      "type": "function"
    },
    {
      "constant": false,
      "inputs": [],
      "name": "reimburseFunds",
      "outputs": [],
      "payable": false,
      "stateMutability": "nonpayable",
      "type": "function"
    },
    {
      "constant": false,
      "inputs": [
        {
          "name": "methodName",
          "type": "string"
        }
      ],
      "name": "addMethod",
      "outputs": [],
      "payable": false,
      "stateMutability": "nonpayable",
      "type": "function"
    },
    {
      "constant": false,
      "inputs": [
        {
          "name": "recipient",
          "type": "address"
        }
      ],
      "name": "transferProjectFactoryKey",
      "outputs": [],
      "payable": false,
      "stateMutability": "nonpayable",
      "type": "function"
    },
    {
      "constant": true,
      "inputs": [
        {
          "name": "methodName",
          "type": "string"
        }
      ],
      "name": "callHistory",
      "outputs": [
        {
          "name": "",
          "type": "uint256"
        },
        {
          "name": "",
          "type": "uint256"
        },
        {
          "name": "",
          "type": "uint256"
        },
        {
          "name": "",
          "type": "string"
        },
        {
          "name": "",
          "type": "string"
        },
        {
          "name": "",
          "type": "string"
        },
        {
          "name": "",
          "type": "address"
        },
        {
          "name": "",
          "type": "address"
        },
        {
          "name": "",
          "type": "address"
        },
        {
          "name": "",
          "type": "bool"
        },
        {
          "name": "",
          "type": "bool"
        }
      ],
      "payable": false,
      "stateMutability": "view",
      "type": "function"
    },
    {
      "constant": false,
      "inputs": [
        {
          "name": "_beneficiary",
          "type": "address"
        }
      ],
      "name": "buyTokensFor",
      "outputs": [
        {
          "name": "",
          "type": "uint256"
        }
      ],
      "payable": true,
      "stateMutability": "payable",
      "type": "function"
    },
    {
      "constant": true,
      "inputs": [
        {
          "name": "",
          "type": "uint256"
        }
      ],
      "name": "_amendmentById",
      "outputs": [
        {
          "name": "",
          "type": "address"
        }
      ],
      "payable": false,
      "stateMutability": "view",
      "type": "function"
    },
    {
      "constant": false,
      "inputs": [],
      "name": "renounceOwnership",
      "outputs": [],
      "payable": false,
      "stateMutability": "nonpayable",
      "type": "function"
    },
    {
      "constant": false,
      "inputs": [
        {
          "name": "valuation",
          "type": "uint256"
        },
        {
          "name": "capitalRequired",
          "type": "uint256"
        }
      ],
      "name": "mintNewProjectTokensAndExtendDoomsDay",
      "outputs": [
        {
          "name": "",
          "type": "uint256"
        },
        {
          "name": "",
          "type": "uint256"
        }
      ],
      "payable": false,
      "stateMutability": "nonpayable",
      "type": "function"
    },
    {
      "constant": false,
      "inputs": [],
      "name": "stopAddingCoAmendments",
      "outputs": [],
      "payable": false,
      "stateMutability": "nonpayable",
      "type": "function"
    },
    {
      "constant": true,
      "inputs": [],
      "name": "owner",
      "outputs": [
        {
          "name": "",
          "type": "address"
        }
      ],
      "payable": false,
      "stateMutability": "view",
      "type": "function"
    },
    {
      "constant": true,
      "inputs": [
        {
          "name": "amendmentId",
          "type": "uint256"
        }
      ],
      "name": "amendmentById",
      "outputs": [
        {
          "name": "",
          "type": "address"
        }
      ],
      "payable": false,
      "stateMutability": "view",
      "type": "function"
    },
    {
      "constant": true,
      "inputs": [],
      "name": "projectFactory",
      "outputs": [
        {
          "name": "",
          "type": "address"
        }
      ],
      "payable": false,
      "stateMutability": "view",
      "type": "function"
    },
    {
      "constant": false,
      "inputs": [
        {
          "name": "_days",
          "type": "uint256"
        }
      ],
      "name": "reduceDoomsDay",
      "outputs": [],
      "payable": false,
      "stateMutability": "nonpayable",
      "type": "function"
    },
    {
      "constant": true,
      "inputs": [],
      "name": "depricated",
      "outputs": [
        {
          "name": "",
          "type": "bool"
        }
      ],
      "payable": false,
      "stateMutability": "view",
      "type": "function"
    },
    {
      "constant": true,
      "inputs": [],
      "name": "finishedAddingCoAmendments",
      "outputs": [
        {
          "name": "",
          "type": "bool"
        }
      ],
      "payable": false,
      "stateMutability": "view",
      "type": "function"
    },
    {
      "constant": true,
      "inputs": [],
      "name": "_owner",
      "outputs": [
        {
          "name": "",
          "type": "address"
        }
      ],
      "payable": false,
      "stateMutability": "view",
      "type": "function"
    },
    {
      "constant": true,
      "inputs": [],
      "name": "openingTime",
      "outputs": [
        {
          "name": "",
          "type": "uint256"
        }
      ],
      "payable": false,
      "stateMutability": "view",
      "type": "function"
    },
    {
      "constant": false,
      "inputs": [],
      "name": "allowReOpening",
      "outputs": [],
      "payable": false,
      "stateMutability": "nonpayable",
      "type": "function"
    },
    {
      "constant": true,
      "inputs": [],
      "name": "reimbursements",
      "outputs": [
        {
          "name": "",
          "type": "address"
        }
      ],
      "payable": false,
      "stateMutability": "view",
      "type": "function"
    },
    {
      "constant": true,
      "inputs": [],
      "name": "doomsDay",
      "outputs": [
        {
          "name": "",
          "type": "uint256"
        }
      ],
      "payable": false,
      "stateMutability": "view",
      "type": "function"
    },
    {
      "constant": true,
      "inputs": [],
      "name": "totalCoAmendments",
      "outputs": [
        {
          "name": "",
          "type": "uint256"
        }
      ],
      "payable": false,
      "stateMutability": "view",
      "type": "function"
    },
    {
      "constant": true,
      "inputs": [],
      "name": "developer",
      "outputs": [
        {
          "name": "",
          "type": "address"
        }
      ],
      "payable": false,
      "stateMutability": "view",
      "type": "function"
    },
    {
      "constant": false,
      "inputs": [],
      "name": "buyTokens",
      "outputs": [],
      "payable": true,
      "stateMutability": "payable",
      "type": "function"
    },
    {
      "constant": true,
      "inputs": [],
      "name": "weiRaised_",
      "outputs": [
        {
          "name": "",
          "type": "uint256"
        }
      ],
      "payable": false,
      "stateMutability": "view",
      "type": "function"
    },
    {
      "constant": false,
      "inputs": [
        {
          "name": "coAmendmentToUpdateId",
          "type": "uint256"
        },
        {
          "name": "newReferenceAmendment",
          "type": "address"
        }
      ],
      "name": "modifyAmendment",
      "outputs": [],
      "payable": false,
      "stateMutability": "nonpayable",
      "type": "function"
    },
    {
      "constant": false,
      "inputs": [
        {
          "name": "_newOwner",
          "type": "address"
        }
      ],
      "name": "transferOwnership",
      "outputs": [],
      "payable": false,
      "stateMutability": "nonpayable",
      "type": "function"
    },
    {
      "constant": false,
      "inputs": [
        {
          "name": "methodName",
          "type": "string"
        }
      ],
      "name": "resetMethod",
      "outputs": [],
      "payable": false,
      "stateMutability": "nonpayable",
      "type": "function"
    },
    {
      "constant": true,
      "inputs": [],
      "name": "replacable",
      "outputs": [
        {
          "name": "",
          "type": "bool"
        }
      ],
      "payable": false,
      "stateMutability": "view",
      "type": "function"
    },
    {
      "constant": true,
      "inputs": [],
      "name": "token",
      "outputs": [
        {
          "name": "",
          "type": "address"
        }
      ],
      "payable": false,
      "stateMutability": "view",
      "type": "function"
    },
    {
      "inputs": [
        {
          "name": "_openingTime",
          "type": "uint256"
        },
        {
          "name": "_doomsDay",
          "type": "uint256"
        },
        {
          "name": "_rate",
          "type": "uint256"
        },
        {
          "name": "_developer",
          "type": "address"
        },
        {
          "name": "_inactiveToken",
          "type": "address"
        },
        {
          "name": "_reimbursements",
          "type": "address"
        }
      ],
      "payable": false,
      "stateMutability": "nonpayable",
      "type": "constructor"
    },
    {
      "payable": true,
      "stateMutability": "payable",
      "type": "fallback"
    },
    {
      "anonymous": false,
      "inputs": [
        {
          "indexed": true,
          "name": "previousOwner",
          "type": "address"
        }
      ],
      "name": "OwnershipRenounced",
      "type": "event"
    },
    {
      "anonymous": false,
      "inputs": [
        {
          "indexed": true,
          "name": "previousOwner",
          "type": "address"
        },
        {
          "indexed": true,
          "name": "newOwner",
          "type": "address"
        }
      ],
      "name": "OwnershipTransferred",
      "type": "event"
    },
    {
      "anonymous": false,
      "inputs": [
        {
          "indexed": false,
          "name": "recipient",
          "type": "address"
        }
      ],
      "name": "ProjectFactoryTransferred",
      "type": "event"
    },
    {
      "anonymous": false,
      "inputs": [
        {
          "indexed": true,
          "name": "purchaser",
          "type": "address"
        },
        {
          "indexed": true,
          "name": "beneficiary",
          "type": "address"
        },
        {
          "indexed": false,
          "name": "value",
          "type": "uint256"
        },
        {
          "indexed": false,
          "name": "amount",
          "type": "uint256"
        },
        {
          "indexed": false,
          "name": "time",
          "type": "uint256"
        }
      ],
      "name": "TokenPurchase",
      "type": "event"
    },
    {
      "constant": false,
      "inputs": [],
      "name": "receiveMockWei",
      "outputs": [],
      "payable": true,
      "stateMutability": "payable",
      "type": "function"
    },
    {
      "constant": false,
      "inputs": [
        {
          "name": "mockRaised_",
          "type": "uint256"
        }
      ],
      "name": "setMockWeiRaised",
      "outputs": [],
      "payable": false,
      "stateMutability": "nonpayable",
      "type": "function"
    },
    {
      "constant": true,
      "inputs": [],
      "name": "mockDoomsDay",
      "outputs": [
        {
          "name": "",
          "type": "uint256"
        }
      ],
      "payable": false,
      "stateMutability": "view",
      "type": "function"
    },
    {
      "constant": false,
      "inputs": [
        {
          "name": "_openingTime",
          "type": "uint256"
        }
      ],
      "name": "setMockOpening",
      "outputs": [],
      "payable": false,
      "stateMutability": "nonpayable",
      "type": "function"
    },
    {
      "constant": false,
      "inputs": [
        {
          "name": "_doomsDay",
          "type": "uint256"
        }
      ],
      "name": "setMockDoomsDay",
      "outputs": [],
      "payable": false,
      "stateMutability": "nonpayable",
      "type": "function"
    },
    {
      "constant": false,
      "inputs": [
        {
          "name": "status",
          "type": "bool"
        }
      ],
      "name": "setMockReOpening",
      "outputs": [],
      "payable": false,
      "stateMutability": "nonpayable",
      "type": "function"
    }
  ],
  "bytecode": "0x60806040523480156200001157600080fd5b5060405160c08062002e6c83398101806040528101908080519060200190929190805190602001909291908051906020019092919080519060200190929190805190602001909291908051906020019092919050505085858585858560008686838787876000831115156200008557600080fd5b600073ffffffffffffffffffffffffffffffffffffffff168273ffffffffffffffffffffffffffffffffffffffff1614151515620000c257600080fd5b8260028190555081600160006101000a81548173ffffffffffffffffffffffffffffffffffffffff021916908373ffffffffffffffffffffffffffffffffffffffff160217905550806000806101000a81548173ffffffffffffffffffffffffffffffffffffffff021916908373ffffffffffffffffffffffffffffffffffffffff1602179055505050504283101515156200015d57600080fd5b8282101515156200016d57600080fd5b826004819055508160058190555080600660016101000a81548173ffffffffffffffffffffffffffffffffffffffff021916908373ffffffffffffffffffffffffffffffffffffffff16021790555050505033600760006101000a81548173ffffffffffffffffffffffffffffffffffffffff021916908373ffffffffffffffffffffffffffffffffffffffff1602179055507f9ac4999de6ca856e4619ce9f48d109e992281866886cd2ca7ca92c8f45f3e5c4600760009054906101000a900473ffffffffffffffffffffffffffffffffffffffff16604051808273ffffffffffffffffffffffffffffffffffffffff1673ffffffffffffffffffffffffffffffffffffffff16815260200191505060405180910390a133600860006101000a81548173ffffffffffffffffffffffffffffffffffffffff021916908373ffffffffffffffffffffffffffffffffffffffff16021790555080600c60016101000a81548160ff02191690831515021790555050505050505050505050505050612b6f80620002fd6000396000f3006080604052600436106101f9576000357c0100000000000000000000000000000000000000000000000000000000900463ffffffff1680630f1c1fe1146101fb5780631515bc2b1461022857806320eeb32014610257578063287599e3146102865780633567e3b81461029d5780633f0a4ccc146102c85780634023c33c1461030b57806350b7342f1461033857806351542e3a1461034f57806352283130146103b8578063547d8020146103fb5780635e2cc394146106795780636be4cf1f146106a65780636d2a337d146106f0578063715018a61461075d578063738f5c001461077457806384245501146107a157806385b1678b146107ab5780638770c7f1146107fd5780638da5cb5b1461081457806391402ecf1461086b57806397f51974146108d85780639ff8068a1461092f578063a20de3151461095c578063a3b67c9414610989578063abcde548146109b8578063b2bdfa7b146109e7578063b7a8807c14610a3e578063bb9c049014610a69578063bfa4893f14610a80578063c19b7bc014610ad7578063c3a502b014610b02578063c96a689514610b2d578063ca4b208b14610b5c578063d0febe4c14610bb3578063e31bc61414610bbd578063e704157414610be8578063f2fde38b14610c35578063f427b13514610c78578063fb69d7ab14610ce1578063fc0c546a14610d10575b005b34801561020757600080fd5b5061022660048036038101908080359060200190929190505050610d67565b005b34801561023457600080fd5b5061023d610de1565b604051808215151515815260200191505060405180910390f35b34801561026357600080fd5b5061026c610ded565b604051808215151515815260200191505060405180910390f35b34801561029257600080fd5b5061029b610e00565b005b3480156102a957600080fd5b506102b2610e94565b6040518082815260200191505060405180910390f35b3480156102d457600080fd5b50610309600480360381019080803573ffffffffffffffffffffffffffffffffffffffff169060200190929190505050610e9e565b005b34801561031757600080fd5b5061033660048036038101908080359060200190929190505050610f79565b005b34801561034457600080fd5b5061034d61107f565b005b34801561035b57600080fd5b506103b6600480360381019080803590602001908201803590602001908080601f016020809104026020016040519081016040528093929190818152602001838380828437820191505050505050919291929050505061128a565b005b3480156103c457600080fd5b506103f9600480360381019080803573ffffffffffffffffffffffffffffffffffffffff169060200190929190505050611492565b005b34801561040757600080fd5b50610462600480360381019080803590602001908201803590602001908080601f01602080910402602001604051908101604052809392919081815260200183838082843782019150505050505091929192905050506115f3565b604051808c81526020018b81526020018a81526020018060200180602001806020018973ffffffffffffffffffffffffffffffffffffffff1673ffffffffffffffffffffffffffffffffffffffff1681526020018873ffffffffffffffffffffffffffffffffffffffff1673ffffffffffffffffffffffffffffffffffffffff1681526020018773ffffffffffffffffffffffffffffffffffffffff1673ffffffffffffffffffffffffffffffffffffffff168152602001861515151581526020018515151515815260200184810384528c818151815260200191508051906020019080838360005b8381101561056657808201518184015260208101905061054b565b50505050905090810190601f1680156105935780820380516001836020036101000a031916815260200191505b5084810383528b818151815260200191508051906020019080838360005b838110156105cc5780820151818401526020810190506105b1565b50505050905090810190601f1680156105f95780820380516001836020036101000a031916815260200191505b5084810382528a818151815260200191508051906020019080838360005b83811015610632578082015181840152602081019050610617565b50505050905090810190601f16801561065f5780820380516001836020036101000a031916815260200191505b509e50505050505050505050505050505060405180910390f35b34801561068557600080fd5b506106a460048036038101908080359060200190929190505050611a2c565b005b6106da600480360381019080803573ffffffffffffffffffffffffffffffffffffffff169060200190929190505050611a36565b6040518082815260200191505060405180910390f35b3480156106fc57600080fd5b5061071b60048036038101908080359060200190929190505050611c3a565b604051808273ffffffffffffffffffffffffffffffffffffffff1673ffffffffffffffffffffffffffffffffffffffff16815260200191505060405180910390f35b34801561076957600080fd5b50610772611c6d565b005b34801561078057600080fd5b5061079f60048036038101908080359060200190929190505050611d72565b005b6107a9611d7c565b005b3480156107b757600080fd5b506107e06004803603810190808035906020019092919080359060200190929190505050611d7e565b604051808381526020018281526020019250505060405180910390f35b34801561080957600080fd5b50610812611fe1565b005b34801561082057600080fd5b5061082961205a565b604051808273ffffffffffffffffffffffffffffffffffffffff1673ffffffffffffffffffffffffffffffffffffffff16815260200191505060405180910390f35b34801561087757600080fd5b5061089660048036038101908080359060200190929190505050612080565b604051808273ffffffffffffffffffffffffffffffffffffffff1673ffffffffffffffffffffffffffffffffffffffff16815260200191505060405180910390f35b3480156108e457600080fd5b506108ed6120bd565b604051808273ffffffffffffffffffffffffffffffffffffffff1673ffffffffffffffffffffffffffffffffffffffff16815260200191505060405180910390f35b34801561093b57600080fd5b5061095a600480360381019080803590602001909291905050506120e7565b005b34801561096857600080fd5b5061098760048036038101908080359060200190929190505050612150565b005b34801561099557600080fd5b5061099e61215a565b604051808215151515815260200191505060405180910390f35b3480156109c457600080fd5b506109cd612171565b604051808215151515815260200191505060405180910390f35b3480156109f357600080fd5b506109fc612184565b604051808273ffffffffffffffffffffffffffffffffffffffff1673ffffffffffffffffffffffffffffffffffffffff16815260200191505060405180910390f35b348015610a4a57600080fd5b50610a536121ae565b6040518082815260200191505060405180910390f35b348015610a7557600080fd5b50610a7e6121b4565b005b348015610a8c57600080fd5b50610a9561223d565b604051808273ffffffffffffffffffffffffffffffffffffffff1673ffffffffffffffffffffffffffffffffffffffff16815260200191505060405180910390f35b348015610ae357600080fd5b50610aec612263565b6040518082815260200191505060405180910390f35b348015610b0e57600080fd5b50610b17612269565b6040518082815260200191505060405180910390f35b348015610b3957600080fd5b50610b5a60048036038101908080351515906020019092919050505061226f565b005b348015610b6857600080fd5b50610b7161228c565b604051808273ffffffffffffffffffffffffffffffffffffffff1673ffffffffffffffffffffffffffffffffffffffff16815260200191505060405180910390f35b610bbb6122b2565b005b348015610bc957600080fd5b50610bd26123bb565b6040518082815260200191505060405180910390f35b348015610bf457600080fd5b50610c3360048036038101908080359060200190929190803573ffffffffffffffffffffffffffffffffffffffff1690602001909291905050506123c5565b005b348015610c4157600080fd5b50610c76600480360381019080803573ffffffffffffffffffffffffffffffffffffffff169060200190929190505050612477565b005b348015610c8457600080fd5b50610cdf600480360381019080803590602001908201803590602001908080601f01602080910402602001604051908101604052809392919081815260200183838082843782019150505050505091929192905050506124e7565b005b348015610ced57600080fd5b50610cf66126f9565b604051808215151515815260200191505060405180910390f35b348015610d1c57600080fd5b50610d2561270c565b604051808273ffffffffffffffffffffffffffffffffffffffff1673ffffffffffffffffffffffffffffffffffffffff16815260200191505060405180910390f35b600b60006004815260200190815260200160002060009054906101000a900473ffffffffffffffffffffffffffffffffffffffff1673ffffffffffffffffffffffffffffffffffffffff163373ffffffffffffffffffffffffffffffffffffffff16141515610dd557600080fd5b610dde81612731565b50565b60006005544211905090565b600660009054906101000a900460ff1681565b600860009054906101000a900473ffffffffffffffffffffffffffffffffffffffff1673ffffffffffffffffffffffffffffffffffffffff163373ffffffffffffffffffffffffffffffffffffffff16141515610e5c57600080fd5b600c60019054906101000a900460ff161515610e7757600080fd5b6001600c60006101000a81548160ff021916908315150217905550565b6000600554905090565b600860009054906101000a900473ffffffffffffffffffffffffffffffffffffffff1673ffffffffffffffffffffffffffffffffffffffff163373ffffffffffffffffffffffffffffffffffffffff16141515610efa57600080fd5b600c60029054906101000a900460ff16151515610f1657600080fd5b6001600a5401600a8190555080600b6000600a54815260200190815260200160002060006101000a81548173ffffffffffffffffffffffffffffffffffffffff021916908373ffffffffffffffffffffffffffffffffffffffff16021790555050565b600b60006003815260200190815260200160002060009054906101000a900473ffffffffffffffffffffffffffffffffffffffff1673ffffffffffffffffffffffffffffffffffffffff163373ffffffffffffffffffffffffffffffffffffffff16141515610fe757600080fd5b8060035410151515610ff857600080fd5b600160009054906101000a900473ffffffffffffffffffffffffffffffffffffffff1673ffffffffffffffffffffffffffffffffffffffff166108fc829081150290604051600060405180830381858888f19350505050158015611060573d6000803e3d6000fd5b50611076816003546127c490919063ffffffff16565b60038190555050565b611087610de1565b151561109257600080fd5b600660019054906101000a900473ffffffffffffffffffffffffffffffffffffffff1673ffffffffffffffffffffffffffffffffffffffff166349dd12dd6003546040518263ffffffff167c01000000000000000000000000000000000000000000000000000000000281526004016000604051808303818588803b15801561111a57600080fd5b505af115801561112e573d6000803e3d6000fd5b505050505060006003819055506000809054906101000a900473ffffffffffffffffffffffffffffffffffffffff1673ffffffffffffffffffffffffffffffffffffffff1663ca8164df6040518163ffffffff167c0100000000000000000000000000000000000000000000000000000000028152600401600060405180830381600087803b1580156111c057600080fd5b505af11580156111d4573d6000803e3d6000fd5b50505050600b60006002815260200190815260200160002060009054906101000a900473ffffffffffffffffffffffffffffffffffffffff1673ffffffffffffffffffffffffffffffffffffffff1663d826f88f6040518163ffffffff167c0100000000000000000000000000000000000000000000000000000000028152600401600060405180830381600087803b15801561127057600080fd5b505af1158015611284573d6000803e3d6000fd5b50505050565b61129261297d565b80600d836040518082805190602001908083835b6020831015156112cb57805182526020820191506020810190506020830392506112a6565b6001836020036101000a03801982511681845116808217855250505050505090500191505090815260200160405180910390206000820151816000015560208201518160010155604082015181600201556060820151816003019080519060200190611338929190612a1e565b506080820151816004019080519060200190611355929190612a1e565b5060a0820151816005019080519060200190611372929190612a1e565b5060c08201518160060160006101000a81548173ffffffffffffffffffffffffffffffffffffffff021916908373ffffffffffffffffffffffffffffffffffffffff16021790555060e08201518160070160006101000a81548173ffffffffffffffffffffffffffffffffffffffff021916908373ffffffffffffffffffffffffffffffffffffffff1602179055506101008201518160080160006101000a81548173ffffffffffffffffffffffffffffffffffffffff021916908373ffffffffffffffffffffffffffffffffffffffff1602179055506101208201518160080160146101000a81548160ff0219169083151502179055506101408201518160080160156101000a81548160ff0219169083151502179055509050505050565b600760009054906101000a900473ffffffffffffffffffffffffffffffffffffffff1673ffffffffffffffffffffffffffffffffffffffff163373ffffffffffffffffffffffffffffffffffffffff161415156114ee57600080fd5b600073ffffffffffffffffffffffffffffffffffffffff168173ffffffffffffffffffffffffffffffffffffffff161415151561152a57600080fd5b80600760006101000a81548173ffffffffffffffffffffffffffffffffffffffff021916908373ffffffffffffffffffffffffffffffffffffffff1602179055507f9ac4999de6ca856e4619ce9f48d109e992281866886cd2ca7ca92c8f45f3e5c4600760009054906101000a900473ffffffffffffffffffffffffffffffffffffffff16604051808273ffffffffffffffffffffffffffffffffffffffff1673ffffffffffffffffffffffffffffffffffffffff16815260200191505060405180910390a150565b60008060006060806060600080600080600061160d61297d565b600d8d6040518082805190602001908083835b6020831015156116455780518252602082019150602081019050602083039250611620565b6001836020036101000a03801982511681845116808217855250505050505090500191505090815260200160405180910390206101606040519081016040529081600082015481526020016001820154815260200160028201548152602001600382018054600181600116156101000203166002900480601f01602080910402602001604051908101604052809291908181526020018280546001816001161561010002031660029004801561173c5780601f106117115761010080835404028352916020019161173c565b820191906000526020600020905b81548152906001019060200180831161171f57829003601f168201915b50505050508152602001600482018054600181600116156101000203166002900480601f0160208091040260200160405190810160405280929190818152602001828054600181600116156101000203166002900480156117de5780601f106117b3576101008083540402835291602001916117de565b820191906000526020600020905b8154815290600101906020018083116117c157829003601f168201915b50505050508152602001600582018054600181600116156101000203166002900480601f0160208091040260200160405190810160405280929190818152602001828054600181600116156101000203166002900480156118805780601f1061185557610100808354040283529160200191611880565b820191906000526020600020905b81548152906001019060200180831161186357829003601f168201915b505050505081526020016006820160009054906101000a900473ffffffffffffffffffffffffffffffffffffffff1673ffffffffffffffffffffffffffffffffffffffff1673ffffffffffffffffffffffffffffffffffffffff1681526020016007820160009054906101000a900473ffffffffffffffffffffffffffffffffffffffff1673ffffffffffffffffffffffffffffffffffffffff1673ffffffffffffffffffffffffffffffffffffffff1681526020016008820160009054906101000a900473ffffffffffffffffffffffffffffffffffffffff1673ffffffffffffffffffffffffffffffffffffffff1673ffffffffffffffffffffffffffffffffffffffff1681526020016008820160149054906101000a900460ff161515151581526020016008820160159054906101000a900460ff1615151515815250509050806000015181602001518260400151836060015184608001518560a001518660c001518760e001518861010001518961012001518a61014001518797508696508595509b509b509b509b509b509b509b509b509b509b509b505091939597999b90929496989a50565b8060048190555050565b6000806000349150600073ffffffffffffffffffffffffffffffffffffffff168473ffffffffffffffffffffffffffffffffffffffff1614151515611a7a57600080fd5b60008214151515611a8a57600080fd5b611a9f600254836127dd90919063ffffffff16565b9050611ab68260035461281590919063ffffffff16565b6003819055506000809054906101000a900473ffffffffffffffffffffffffffffffffffffffff1673ffffffffffffffffffffffffffffffffffffffff1663a9059cbb85836040518363ffffffff167c0100000000000000000000000000000000000000000000000000000000028152600401808373ffffffffffffffffffffffffffffffffffffffff1673ffffffffffffffffffffffffffffffffffffffff16815260200182815260200192505050602060405180830381600087803b158015611b8057600080fd5b505af1158015611b94573d6000803e3d6000fd5b505050506040513d6020811015611baa57600080fd5b8101908080519060200190929190505050508373ffffffffffffffffffffffffffffffffffffffff163373ffffffffffffffffffffffffffffffffffffffff167efe0e12b43090c1fc19a34aefa5cc138a4eeafc60ab800f855c730b3fb9480e84844260405180848152602001838152602001828152602001935050505060405180910390a38092505050919050565b600b6020528060005260406000206000915054906101000a900473ffffffffffffffffffffffffffffffffffffffff1681565b600860009054906101000a900473ffffffffffffffffffffffffffffffffffffffff1673ffffffffffffffffffffffffffffffffffffffff163373ffffffffffffffffffffffffffffffffffffffff16141515611cc957600080fd5b600860009054906101000a900473ffffffffffffffffffffffffffffffffffffffff1673ffffffffffffffffffffffffffffffffffffffff167ff8df31144d9c2f0f6b59d69b8b98abd5459d07f2742c4df920b25aae33c6482060405160405180910390a26000600860006101000a81548173ffffffffffffffffffffffffffffffffffffffff021916908373ffffffffffffffffffffffffffffffffffffffff160217905550565b8060058190555050565b565b600080600080600760009054906101000a900473ffffffffffffffffffffffffffffffffffffffff1673ffffffffffffffffffffffffffffffffffffffff163373ffffffffffffffffffffffffffffffffffffffff16141515611de057600080fd5b611dea8686612831565b915091506000809054906101000a900473ffffffffffffffffffffffffffffffffffffffff1673ffffffffffffffffffffffffffffffffffffffff166340c10f19600160009054906101000a900473ffffffffffffffffffffffffffffffffffffffff16846040518363ffffffff167c0100000000000000000000000000000000000000000000000000000000028152600401808373ffffffffffffffffffffffffffffffffffffffff1673ffffffffffffffffffffffffffffffffffffffff16815260200182815260200192505050600060405180830381600087803b158015611ed457600080fd5b505af1158015611ee8573d6000803e3d6000fd5b505050506000809054906101000a900473ffffffffffffffffffffffffffffffffffffffff1673ffffffffffffffffffffffffffffffffffffffff166340c10f1930836040518363ffffffff167c0100000000000000000000000000000000000000000000000000000000028152600401808373ffffffffffffffffffffffffffffffffffffffff1673ffffffffffffffffffffffffffffffffffffffff16815260200182815260200192505050600060405180830381600087803b158015611fb057600080fd5b505af1158015611fc4573d6000803e3d6000fd5b50505050611fd2605a612731565b81819350935050509250929050565b600860009054906101000a900473ffffffffffffffffffffffffffffffffffffffff1673ffffffffffffffffffffffffffffffffffffffff163373ffffffffffffffffffffffffffffffffffffffff1614151561203d57600080fd5b6001600c60026101000a81548160ff021916908315150217905550565b600860009054906101000a900473ffffffffffffffffffffffffffffffffffffffff1681565b6000600b600083815260200190815260200160002060009054906101000a900473ffffffffffffffffffffffffffffffffffffffff169050919050565b6000600760009054906101000a900473ffffffffffffffffffffffffffffffffffffffff16905090565b60045442101580156120fb57506005544211155b806121125750600660009054906101000a900460ff165b151561211d57600080fd5b612147612136621a5e00836127dd90919063ffffffff16565b6005546127c490919063ffffffff16565b60058190555050565b8060038190555050565b6000600c60009054906101000a900460ff16905090565b600c60029054906101000a900460ff1681565b6000600860009054906101000a900473ffffffffffffffffffffffffffffffffffffffff16905090565b60045481565b600660019054906101000a900473ffffffffffffffffffffffffffffffffffffffff1673ffffffffffffffffffffffffffffffffffffffff163373ffffffffffffffffffffffffffffffffffffffff161480156122155750612214610de1565b5b151561222057600080fd5b6001600660006101000a81548160ff021916908315150217905550565b600660019054906101000a900473ffffffffffffffffffffffffffffffffffffffff1681565b60055481565b600a5481565b80600660006101000a81548160ff02191690831515021790555050565b600160009054906101000a900473ffffffffffffffffffffffffffffffffffffffff1681565b60006122bd33611a36565b90506122c9605a612731565b600b60006001815260200190815260200160002060009054906101000a900473ffffffffffffffffffffffffffffffffffffffff1673ffffffffffffffffffffffffffffffffffffffff1663ad5f7efe33346040518363ffffffff167c0100000000000000000000000000000000000000000000000000000000028152600401808373ffffffffffffffffffffffffffffffffffffffff1673ffffffffffffffffffffffffffffffffffffffff16815260200182815260200192505050600060405180830381600087803b1580156123a057600080fd5b505af11580156123b4573d6000803e3d6000fd5b5050505050565b6000600354905090565b600860009054906101000a900473ffffffffffffffffffffffffffffffffffffffff1673ffffffffffffffffffffffffffffffffffffffff163373ffffffffffffffffffffffffffffffffffffffff1614151561242157600080fd5b80600b600084815260200190815260200160002060006101000a81548173ffffffffffffffffffffffffffffffffffffffff021916908373ffffffffffffffffffffffffffffffffffffffff1602179055505050565b600860009054906101000a900473ffffffffffffffffffffffffffffffffffffffff1673ffffffffffffffffffffffffffffffffffffffff163373ffffffffffffffffffffffffffffffffffffffff161415156124d357600080fd5b60056009819055506124e481612881565b50565b6000600d826040518082805190602001908083835b60208310151561252157805182526020820191506020810190506020830392506124fc565b6001836020036101000a03801982511681845116808217855250505050505090500191505090815260200160405180910390209050600081600001819055506000816001018190555060008160020181905550602060405190810160405280600081525081600301908051906020019061259c929190612a9e565b5060206040519081016040528060008152508160040190805190602001906125c5929190612a9e565b5060206040519081016040528060008152508160050190805190602001906125ee929190612a9e565b5060008160060160006101000a81548173ffffffffffffffffffffffffffffffffffffffff021916908373ffffffffffffffffffffffffffffffffffffffff16021790555060008160070160006101000a81548173ffffffffffffffffffffffffffffffffffffffff021916908373ffffffffffffffffffffffffffffffffffffffff16021790555060008160080160006101000a81548173ffffffffffffffffffffffffffffffffffffffff021916908373ffffffffffffffffffffffffffffffffffffffff16021790555060008160080160146101000a81548160ff02191690831515021790555060008160080160156101000a81548160ff0219169083151502179055505050565b600c60019054906101000a900460ff1681565b6000809054906101000a900473ffffffffffffffffffffffffffffffffffffffff1681565b6000600454421015801561274757506005544211155b8061275e5750600660009054906101000a900460ff165b151561276957600080fd5b612791612782621a5e00846127dd90919063ffffffff16565b4261281590919063ffffffff16565b90506005548111156127c057806005819055506000600660006101000a81548160ff0219169083151502179055505b5050565b60008282111515156127d257fe5b818303905092915050565b6000808314156127f0576000905061280f565b818302905081838281151561280157fe5b0414151561280b57fe5b8090505b92915050565b6000818301905082811015151561282857fe5b80905092915050565b600080600061284984866127c490919063ffffffff16565b9050612860600254826127dd90919063ffffffff16565b612875600254866127dd90919063ffffffff16565b92509250509250929050565b600073ffffffffffffffffffffffffffffffffffffffff168173ffffffffffffffffffffffffffffffffffffffff16141515156128bd57600080fd5b8073ffffffffffffffffffffffffffffffffffffffff16600860009054906101000a900473ffffffffffffffffffffffffffffffffffffffff1673ffffffffffffffffffffffffffffffffffffffff167f8be0079c531659141344cd1fd0a4f28419497f9722a3daafe3b4186f6b6457e060405160405180910390a380600860006101000a81548173ffffffffffffffffffffffffffffffffffffffff021916908373ffffffffffffffffffffffffffffffffffffffff16021790555050565b61016060405190810160405280600081526020016000815260200160008152602001606081526020016060815260200160608152602001600073ffffffffffffffffffffffffffffffffffffffff168152602001600073ffffffffffffffffffffffffffffffffffffffff168152602001600073ffffffffffffffffffffffffffffffffffffffff1681526020016000151581526020016000151581525090565b828054600181600116156101000203166002900490600052602060002090601f016020900481019282601f10612a5f57805160ff1916838001178555612a8d565b82800160010185558215612a8d579182015b82811115612a8c578251825591602001919060010190612a71565b5b509050612a9a9190612b1e565b5090565b828054600181600116156101000203166002900490600052602060002090601f016020900481019282601f10612adf57805160ff1916838001178555612b0d565b82800160010185558215612b0d579182015b82811115612b0c578251825591602001919060010190612af1565b5b509050612b1a9190612b1e565b5090565b612b4091905b80821115612b3c576000816000905550600101612b24565b5090565b905600a165627a7a723058202a7ad1ee362d034dbaf22452a8156bb425ea7ada2f72cfdd756fe4fc201fadee0029",
  "source": "pragma solidity >=0.4.22 <0.6.0;\n\nimport './crowdsale/GNITokenCrowdsale.sol';\nimport './token/TokenStub.sol';\nimport './ContractStub.sol';\nimport './projectLeader/ProjectLeaderTracker.sol';\nimport './voting/Voting.sol';\nimport './crowdsale/Activation.sol';\n\n\ncontract GNITokenCrowdsaleMock is GNITokenCrowdsale, ContractStub {\nconstructor\n  (\n    uint256 _openingTime,\n    uint256 _doomsDay,\n    uint256 _rate,\n    address  _developer,\n    InactiveToken _inactiveToken,\n    address  _reimbursements\n  )\n  public\n  GNITokenCrowdsale(\n    _openingTime,\n    _doomsDay,\n    _rate,\n    _developer,\n    _inactiveToken,\n    _reimbursements\n  ) {}\n\n  function receiveMockWei () external payable {\n\n  }\n\n\n  function setMockWeiRaised (uint256 mockRaised_) public {\n    weiRaised = mockRaised_;\n  }\n\n  function mockDoomsDay () public view returns (uint256) {\n    return doomsDay;\n  }\n\n  function setMockOpening (uint256 _openingTime) public {\n    openingTime = _openingTime;\n  }\n\n  function setMockDoomsDay (uint256 _doomsDay) public {\n    doomsDay = _doomsDay;\n  }\n\n\n  /* function removeVotesFromProject_ (address account, address fromProjectAddr, uint256 votes) internal {\n    CallData storage methodState = method['removeVotesFromProject_'];\n    methodState.firstAddress = account;\n    methodState.secondAddress = fromProjectAddr;\n    methodState.firstUint = votes;\n  }\n\n  function authenticateVoter(bytes _signedMessage, address voter, bytes32 unsignedMessage) internal {\n    CallData storage methodState = method['authenticateVoter'];\n    //the below throws an out of gas error?\n    methodState.firstBytes = _signedMessage;\n    methodState.firstBytes32 = unsignedMessage;\n    methodState.firstAddress = voter;\n  }\n\n  function activateProject () internal {\n    CallData storage methodState = method['activateProject'];\n    methodState.called = true;\n  } */\n\n  /* function setMockVoteHash (address projectAddr, bytes32 mockHash) {\n    voteHash[projectAddr] = mockHash;\n  }\n\n  function setMockRemoveHash (address projectAddr, bytes32 mockHash) {\n    removeVoteHash[projectAddr] = mockHash;\n  }\n\n  function viewMockVoteHash (address projectAddress) public view returns (bytes32) {\n    return voteHash[projectAddress];\n  }\n\n  function viewMockRemoveVoteHash (address projectAddress) public view returns (bytes32) {\n    return removeVoteHash[projectAddress];\n  }\n\n  function mockProjectById (uint256 id) public view returns (address) {\n    return projectAddress[id];\n  } */\n\n  function setMockReOpening (bool status) public {\n    canReOpen = status;\n  }\n}\n",
  "sourcePath": "D:\\Projects\\SUWiserLLC\\serge\\contracts\\GNITokenCrowdsaleMock.sol",
  "compiler": {
    "name": "solc",
    "version": "0.4.24+commit.e67f0147.Emscripten.clang"
  },
  "schemaVersion": "2.0.1",
  "updatedAt": "2022-02-19T17:45:19.896Z"
}