{
  "contractName": "InactiveTokenStub",
  "abi": [
    {
      "constant": false,
      "inputs": [
        {
          "name": "spender",
          "type": "address"
        },
        {
          "name": "value",
          "type": "uint256"
        }
      ],
      "name": "approve",
      "outputs": [
        {
          "name": "",
          "type": "bool"
        }
      ],
      "payable": false,
      "stateMutability": "nonpayable",
      "type": "function"
    },
    {
      "constant": false,
      "inputs": [
        {
          "name": "account",
          "type": "address"
        }
      ],
      "name": "activatePending",
      "outputs": [
        {
          "name": "",
          "type": "bool"
        }
      ],
      "payable": false,
      "stateMutability": "nonpayable",
      "type": "function"
    },
    {
      "constant": true,
      "inputs": [
        {
          "name": "account",
          "type": "address"
        }
      ],
      "name": "pendingActivations",
      "outputs": [
        {
          "name": "",
          "type": "uint256"
        }
      ],
      "payable": false,
      "stateMutability": "view",
      "type": "function"
    },
    {
      "constant": true,
      "inputs": [],
      "name": "totalSupply",
      "outputs": [
        {
          "name": "",
          "type": "uint256"
        }
      ],
      "payable": false,
      "stateMutability": "view",
      "type": "function"
    },
    {
      "constant": false,
      "inputs": [
        {
          "name": "from",
          "type": "address"
        },
        {
          "name": "to",
          "type": "address"
        },
        {
          "name": "value",
          "type": "uint256"
        }
      ],
      "name": "transferFrom",
      "outputs": [
        {
          "name": "",
          "type": "bool"
        }
      ],
      "payable": false,
      "stateMutability": "nonpayable",
      "type": "function"
    },
    {
      "constant": true,
      "inputs": [],
      "name": "activation",
      "outputs": [
        {
          "name": "",
          "type": "address"
        }
      ],
      "payable": false,
      "stateMutability": "view",
      "type": "function"
    },
    {
      "constant": false,
      "inputs": [
        {
          "name": "spender",
          "type": "address"
        },
        {
          "name": "addedValue",
          "type": "uint256"
        }
      ],
      "name": "increaseAllowance",
      "outputs": [
        {
          "name": "",
          "type": "bool"
        }
      ],
      "payable": false,
      "stateMutability": "nonpayable",
      "type": "function"
    },
    {
      "constant": true,
      "inputs": [],
      "name": "totalActivationPoints",
      "outputs": [
        {
          "name": "",
          "type": "uint256"
        }
      ],
      "payable": false,
      "stateMutability": "view",
      "type": "function"
    },
    {
      "constant": false,
      "inputs": [
        {
          "name": "methodName",
          "type": "string"
        }
      ],
      "name": "addMethod",
      "outputs": [],
      "payable": false,
      "stateMutability": "nonpayable",
      "type": "function"
    },
    {
      "constant": true,
      "inputs": [],
      "name": "totalPendingActivations",
      "outputs": [
        {
          "name": "",
          "type": "uint256"
        }
      ],
      "payable": false,
      "stateMutability": "view",
      "type": "function"
    },
    {
      "constant": true,
      "inputs": [
        {
          "name": "methodName",
          "type": "string"
        }
      ],
      "name": "callHistory",
      "outputs": [
        {
          "name": "",
          "type": "uint256"
        },
        {
          "name": "",
          "type": "uint256"
        },
        {
          "name": "",
          "type": "uint256"
        },
        {
          "name": "",
          "type": "string"
        },
        {
          "name": "",
          "type": "string"
        },
        {
          "name": "",
          "type": "string"
        },
        {
          "name": "",
          "type": "address"
        },
        {
          "name": "",
          "type": "address"
        },
        {
          "name": "",
          "type": "address"
        },
        {
          "name": "",
          "type": "bool"
        },
        {
          "name": "",
          "type": "bool"
        }
      ],
      "payable": false,
      "stateMutability": "view",
      "type": "function"
    },
    {
      "constant": true,
      "inputs": [],
      "name": "mockAccountUpdated",
      "outputs": [
        {
          "name": "",
          "type": "bool"
        }
      ],
      "payable": false,
      "stateMutability": "view",
      "type": "function"
    },
    {
      "constant": true,
      "inputs": [
        {
          "name": "_who",
          "type": "address"
        }
      ],
      "name": "balanceOf",
      "outputs": [
        {
          "name": "",
          "type": "uint256"
        }
      ],
      "payable": false,
      "stateMutability": "view",
      "type": "function"
    },
    {
      "constant": true,
      "inputs": [],
      "name": "activeToken",
      "outputs": [
        {
          "name": "",
          "type": "address"
        }
      ],
      "payable": false,
      "stateMutability": "view",
      "type": "function"
    },
    {
      "constant": true,
      "inputs": [],
      "name": "crowdsale",
      "outputs": [
        {
          "name": "",
          "type": "address"
        }
      ],
      "payable": false,
      "stateMutability": "view",
      "type": "function"
    },
    {
      "constant": false,
      "inputs": [
        {
          "name": "spender",
          "type": "address"
        },
        {
          "name": "subtractedValue",
          "type": "uint256"
        }
      ],
      "name": "decreaseAllowance",
      "outputs": [
        {
          "name": "",
          "type": "bool"
        }
      ],
      "payable": false,
      "stateMutability": "nonpayable",
      "type": "function"
    },
    {
      "constant": true,
      "inputs": [],
      "name": "votingToken",
      "outputs": [
        {
          "name": "",
          "type": "address"
        }
      ],
      "payable": false,
      "stateMutability": "view",
      "type": "function"
    },
    {
      "constant": false,
      "inputs": [
        {
          "name": "recipient",
          "type": "address"
        }
      ],
      "name": "transferCrowdsaleKey",
      "outputs": [],
      "payable": false,
      "stateMutability": "nonpayable",
      "type": "function"
    },
    {
      "constant": true,
      "inputs": [
        {
          "name": "owner",
          "type": "address"
        },
        {
          "name": "spender",
          "type": "address"
        }
      ],
      "name": "allowance",
      "outputs": [
        {
          "name": "",
          "type": "uint256"
        }
      ],
      "payable": false,
      "stateMutability": "view",
      "type": "function"
    },
    {
      "constant": false,
      "inputs": [
        {
          "name": "recipient",
          "type": "address"
        }
      ],
      "name": "transferActivationKey",
      "outputs": [],
      "payable": false,
      "stateMutability": "nonpayable",
      "type": "function"
    },
    {
      "constant": false,
      "inputs": [
        {
          "name": "methodName",
          "type": "string"
        }
      ],
      "name": "resetMethod",
      "outputs": [],
      "payable": false,
      "stateMutability": "nonpayable",
      "type": "function"
    },
    {
      "inputs": [
        {
          "name": "_votingToken",
          "type": "address"
        },
        {
          "name": "_activeToken",
          "type": "address"
        }
      ],
      "payable": false,
      "stateMutability": "nonpayable",
      "type": "constructor"
    },
    {
      "anonymous": false,
      "inputs": [
        {
          "indexed": false,
          "name": "account",
          "type": "address"
        },
        {
          "indexed": false,
          "name": "amount",
          "type": "uint256"
        }
      ],
      "name": "TokenActivation",
      "type": "event"
    },
    {
      "anonymous": false,
      "inputs": [
        {
          "indexed": true,
          "name": "from",
          "type": "address"
        },
        {
          "indexed": true,
          "name": "to",
          "type": "address"
        },
        {
          "indexed": false,
          "name": "value",
          "type": "uint256"
        }
      ],
      "name": "Transfer",
      "type": "event"
    },
    {
      "anonymous": false,
      "inputs": [
        {
          "indexed": true,
          "name": "owner",
          "type": "address"
        },
        {
          "indexed": true,
          "name": "spender",
          "type": "address"
        },
        {
          "indexed": false,
          "name": "value",
          "type": "uint256"
        }
      ],
      "name": "Approval",
      "type": "event"
    },
    {
      "anonymous": false,
      "inputs": [
        {
          "indexed": false,
          "name": "recipient",
          "type": "address"
        }
      ],
      "name": "ActivationTransferred",
      "type": "event"
    },
    {
      "anonymous": false,
      "inputs": [
        {
          "indexed": false,
          "name": "recipient",
          "type": "address"
        }
      ],
      "name": "CrowdsaleTransferred",
      "type": "event"
    },
    {
      "constant": false,
      "inputs": [
        {
          "name": "n",
          "type": "uint256"
        }
      ],
      "name": "increasePendingActivations",
      "outputs": [],
      "payable": false,
      "stateMutability": "nonpayable",
      "type": "function"
    },
    {
      "constant": false,
      "inputs": [
        {
          "name": "a",
          "type": "address"
        },
        {
          "name": "n",
          "type": "uint256"
        }
      ],
      "name": "transfer",
      "outputs": [
        {
          "name": "",
          "type": "bool"
        }
      ],
      "payable": false,
      "stateMutability": "nonpayable",
      "type": "function"
    },
    {
      "constant": false,
      "inputs": [],
      "name": "resetInactiveTokenCycle",
      "outputs": [],
      "payable": false,
      "stateMutability": "nonpayable",
      "type": "function"
    },
    {
      "constant": false,
      "inputs": [
        {
          "name": "a",
          "type": "address"
        },
        {
          "name": "n",
          "type": "uint256"
        }
      ],
      "name": "mint",
      "outputs": [],
      "payable": false,
      "stateMutability": "nonpayable",
      "type": "function"
    },
    {
      "constant": false,
      "inputs": [
        {
          "name": "a",
          "type": "address"
        },
        {
          "name": "n",
          "type": "uint256"
        }
      ],
      "name": "initMockBalance",
      "outputs": [],
      "payable": false,
      "stateMutability": "nonpayable",
      "type": "function"
    },
    {
      "constant": false,
      "inputs": [
        {
          "name": "b",
          "type": "bool"
        }
      ],
      "name": "setAccountUpdated",
      "outputs": [],
      "payable": false,
      "stateMutability": "nonpayable",
      "type": "function"
    },
    {
      "constant": true,
      "inputs": [
        {
          "name": "a",
          "type": "address"
        }
      ],
      "name": "accountCycleUpdated",
      "outputs": [
        {
          "name": "",
          "type": "bool"
        }
      ],
      "payable": false,
      "stateMutability": "view",
      "type": "function"
    },
    {
      "constant": false,
      "inputs": [
        {
          "name": "account",
          "type": "address"
        }
      ],
      "name": "updateAccountCycle",
      "outputs": [],
      "payable": false,
      "stateMutability": "nonpayable",
      "type": "function"
    }
  ],
  "bytecode": "0x60806040526c7e37be2022c0914b2680000000600c5534801561002157600080fd5b50604051604080612ed783398101806040528101908080519060200190929190805190602001909291905050508181336000806101000a81548173ffffffffffffffffffffffffffffffffffffffff021916908373ffffffffffffffffffffffffffffffffffffffff1602179055507fc14b2e8c3b0fecd3b6226c637c343009dca5171a0a6874475330c5c204a29c6c6000809054906101000a900473ffffffffffffffffffffffffffffffffffffffff16604051808273ffffffffffffffffffffffffffffffffffffffff1673ffffffffffffffffffffffffffffffffffffffff16815260200191505060405180910390a133600160006101000a81548173ffffffffffffffffffffffffffffffffffffffff021916908373ffffffffffffffffffffffffffffffffffffffff1602179055507fcdb1fdb4703f653ea6f6ba7e018bf8508c4e61cac3bb0187c419e5dd863bec50600160009054906101000a900473ffffffffffffffffffffffffffffffffffffffff16604051808273ffffffffffffffffffffffffffffffffffffffff1673ffffffffffffffffffffffffffffffffffffffff16815260200191505060405180910390a181600260006101000a81548173ffffffffffffffffffffffffffffffffffffffff021916908373ffffffffffffffffffffffffffffffffffffffff16021790555080600360006101000a81548173ffffffffffffffffffffffffffffffffffffffff021916908373ffffffffffffffffffffffffffffffffffffffff16021790555050505050612c688061026f6000396000f300608060405260043610610175576000357c0100000000000000000000000000000000000000000000000000000000900463ffffffff168063095ea7b31461017a5780630d8654e8146101df578063170ca9f31461023a57806318160ddd1461029157806323b872dd146102bc5780633629c8de14610341578063395093511461039857806340c10f19146103fd578063472377dd1461044a57806351542e3a14610475578063519d1b45146104de578063547d8020146105095780635f5da6b214610787578063613e9ca4146107b657806363f0166b1461081157806370a082311461084057806375a91587146108975780638796d43d146108c45780639c1e03a01461091b578063a42671bc14610972578063a457c2d7146109b5578063a9059cbb14610a1a578063ad9e045014610a7f578063b034012314610acc578063be0d245914610b23578063ca8164df14610b66578063dd62ed3e14610b7d578063e331691514610bf4578063f427b13514610c37575b600080fd5b34801561018657600080fd5b506101c5600480360381019080803573ffffffffffffffffffffffffffffffffffffffff16906020019092919080359060200190929190505050610ca0565b604051808215151515815260200191505060405180910390f35b3480156101eb57600080fd5b50610220600480360381019080803573ffffffffffffffffffffffffffffffffffffffff169060200190929190505050610cb7565b604051808215151515815260200191505060405180910390f35b34801561024657600080fd5b5061027b600480360381019080803573ffffffffffffffffffffffffffffffffffffffff169060200190929190505050610de2565b6040518082815260200191505060405180910390f35b34801561029d57600080fd5b506102a6610ef1565b6040518082815260200191505060405180910390f35b3480156102c857600080fd5b50610327600480360381019080803573ffffffffffffffffffffffffffffffffffffffff169060200190929190803573ffffffffffffffffffffffffffffffffffffffff16906020019092919080359060200190929190505050610efb565b604051808215151515815260200191505060405180910390f35b34801561034d57600080fd5b50610356610fac565b604051808273ffffffffffffffffffffffffffffffffffffffff1673ffffffffffffffffffffffffffffffffffffffff16815260200191505060405180910390f35b3480156103a457600080fd5b506103e3600480360381019080803573ffffffffffffffffffffffffffffffffffffffff16906020019092919080359060200190929190505050610fd6565b604051808215151515815260200191505060405180910390f35b34801561040957600080fd5b50610448600480360381019080803573ffffffffffffffffffffffffffffffffffffffff1690602001909291908035906020019092919050505061107b565b005b34801561045657600080fd5b5061045f6111cc565b6040518082815260200191505060405180910390f35b34801561048157600080fd5b506104dc600480360381019080803590602001908201803590602001908080601f01602080910402602001604051908101604052809392919081815260200183838082843782019150505050505091929192905050506111d2565b005b3480156104ea57600080fd5b506104f36113da565b6040518082815260200191505060405180910390f35b34801561051557600080fd5b50610570600480360381019080803590602001908201803590602001908080601f01602080910402602001604051908101604052809392919081815260200183838082843782019150505050505091929192905050506113e0565b604051808c81526020018b81526020018a81526020018060200180602001806020018973ffffffffffffffffffffffffffffffffffffffff1673ffffffffffffffffffffffffffffffffffffffff1681526020018873ffffffffffffffffffffffffffffffffffffffff1673ffffffffffffffffffffffffffffffffffffffff1681526020018773ffffffffffffffffffffffffffffffffffffffff1673ffffffffffffffffffffffffffffffffffffffff168152602001861515151581526020018515151515815260200184810384528c818151815260200191508051906020019080838360005b83811015610674578082015181840152602081019050610659565b50505050905090810190601f1680156106a15780820380516001836020036101000a031916815260200191505b5084810383528b818151815260200191508051906020019080838360005b838110156106da5780820151818401526020810190506106bf565b50505050905090810190601f1680156107075780820380516001836020036101000a031916815260200191505b5084810382528a818151815260200191508051906020019080838360005b83811015610740578082015181840152602081019050610725565b50505050905090810190601f16801561076d5780820380516001836020036101000a031916815260200191505b509e50505050505050505050505050505060405180910390f35b34801561079357600080fd5b506107b4600480360381019080803515159060200190929190505050611819565b005b3480156107c257600080fd5b506107f7600480360381019080803573ffffffffffffffffffffffffffffffffffffffff169060200190929190505050611836565b604051808215151515815260200191505060405180910390f35b34801561081d57600080fd5b5061082661184f565b604051808215151515815260200191505060405180910390f35b34801561084c57600080fd5b50610881600480360381019080803573ffffffffffffffffffffffffffffffffffffffff169060200190929190505050611862565b6040518082815260200191505060405180910390f35b3480156108a357600080fd5b506108c2600480360381019080803590602001909291905050506118c3565b005b3480156108d057600080fd5b506108d9611912565b604051808273ffffffffffffffffffffffffffffffffffffffff1673ffffffffffffffffffffffffffffffffffffffff16815260200191505060405180910390f35b34801561092757600080fd5b50610930611938565b604051808273ffffffffffffffffffffffffffffffffffffffff1673ffffffffffffffffffffffffffffffffffffffff16815260200191505060405180910390f35b34801561097e57600080fd5b506109b3600480360381019080803573ffffffffffffffffffffffffffffffffffffffff169060200190929190505050611961565b005b3480156109c157600080fd5b50610a00600480360381019080803573ffffffffffffffffffffffffffffffffffffffff16906020019092919080359060200190929190505050611a07565b604051808215151515815260200191505060405180910390f35b348015610a2657600080fd5b50610a65600480360381019080803573ffffffffffffffffffffffffffffffffffffffff16906020019092919080359060200190929190505050611aac565b604051808215151515815260200191505060405180910390f35b348015610a8b57600080fd5b50610aca600480360381019080803573ffffffffffffffffffffffffffffffffffffffff16906020019092919080359060200190929190505050611b46565b005b348015610ad857600080fd5b50610ae1611ba9565b604051808273ffffffffffffffffffffffffffffffffffffffff1673ffffffffffffffffffffffffffffffffffffffff16815260200191505060405180910390f35b348015610b2f57600080fd5b50610b64600480360381019080803573ffffffffffffffffffffffffffffffffffffffff169060200190929190505050611bcf565b005b348015610b7257600080fd5b50610b7b611d2d565b005b348015610b8957600080fd5b50610bde600480360381019080803573ffffffffffffffffffffffffffffffffffffffff169060200190929190803573ffffffffffffffffffffffffffffffffffffffff169060200190929190505050611d8f565b6040518082815260200191505060405180910390f35b348015610c0057600080fd5b50610c35600480360381019080803573ffffffffffffffffffffffffffffffffffffffff169060200190929190505050611e16565b005b348015610c4357600080fd5b50610c9e600480360381019080803590602001908201803590602001908080601f0160208091040260200160405190810160405280939291908181526020018383808284378201915050505050509192919290505050611f77565b005b6000610cad338484612189565b6001905092915050565b600080610cc2611938565b73ffffffffffffffffffffffffffffffffffffffff168373ffffffffffffffffffffffffffffffffffffffff16141515610dd857610cff83610de2565b9050610d0b83826122ec565b600a54600960008573ffffffffffffffffffffffffffffffffffffffff1673ffffffffffffffffffffffffffffffffffffffff16815260200190815260200160002081905550610d6681600b546123d790919063ffffffff16565b600b819055507fd06d335e644deb87c5c5796e34de76f40c88a2acdd911387b45214c3c1ac89248382604051808373ffffffffffffffffffffffffffffffffffffffff1673ffffffffffffffffffffffffffffffffffffffff1681526020018281526020019250505060405180910390a15b6001915050919050565b6000806000610def611938565b73ffffffffffffffffffffffffffffffffffffffff168473ffffffffffffffffffffffffffffffffffffffff1614151515610e2957600080fd5b610e7d600960008673ffffffffffffffffffffffffffffffffffffffff1673ffffffffffffffffffffffffffffffffffffffff16815260200190815260200160002054600a546123d790919063ffffffff16565b9150600460008573ffffffffffffffffffffffffffffffffffffffff1673ffffffffffffffffffffffffffffffffffffffff168152602001908152602001600020549050610ee8600c54610eda84846123f090919063ffffffff16565b61242890919063ffffffff16565b92505050919050565b6000600654905090565b6000610f0884848461243e565b610fa18433610f9c85600560008a73ffffffffffffffffffffffffffffffffffffffff1673ffffffffffffffffffffffffffffffffffffffff16815260200190815260200160002060003373ffffffffffffffffffffffffffffffffffffffff1673ffffffffffffffffffffffffffffffffffffffff168152602001908152602001600020546123d790919063ffffffff16565b612189565b600190509392505050565b6000600160009054906101000a900473ffffffffffffffffffffffffffffffffffffffff16905090565b6000611071338461106c85600560003373ffffffffffffffffffffffffffffffffffffffff1673ffffffffffffffffffffffffffffffffffffffff16815260200190815260200160002060008973ffffffffffffffffffffffffffffffffffffffff1673ffffffffffffffffffffffffffffffffffffffff1681526020019081526020016000205461271e90919063ffffffff16565b612189565b6001905092915050565b6000600d60405180807f6d696e7400000000000000000000000000000000000000000000000000000000815250600401905090815260200160405180910390209050600073ffffffffffffffffffffffffffffffffffffffff168160060160009054906101000a900473ffffffffffffffffffffffffffffffffffffffff1673ffffffffffffffffffffffffffffffffffffffff16141561115e57828160060160006101000a81548173ffffffffffffffffffffffffffffffffffffffff021916908373ffffffffffffffffffffffffffffffffffffffff1602179055506111a2565b828160070160006101000a81548173ffffffffffffffffffffffffffffffffffffffff021916908373ffffffffffffffffffffffffffffffffffffffff1602179055505b6000816000015414156111bd578181600001819055506111c7565b8181600101819055505b505050565b600a5481565b6111da612a76565b80600d836040518082805190602001908083835b60208310151561121357805182526020820191506020810190506020830392506111ee565b6001836020036101000a03801982511681845116808217855250505050505090500191505090815260200160405180910390206000820151816000015560208201518160010155604082015181600201556060820151816003019080519060200190611280929190612b17565b50608082015181600401908051906020019061129d929190612b17565b5060a08201518160050190805190602001906112ba929190612b17565b5060c08201518160060160006101000a81548173ffffffffffffffffffffffffffffffffffffffff021916908373ffffffffffffffffffffffffffffffffffffffff16021790555060e08201518160070160006101000a81548173ffffffffffffffffffffffffffffffffffffffff021916908373ffffffffffffffffffffffffffffffffffffffff1602179055506101008201518160080160006101000a81548173ffffffffffffffffffffffffffffffffffffffff021916908373ffffffffffffffffffffffffffffffffffffffff1602179055506101208201518160080160146101000a81548160ff0219169083151502179055506101408201518160080160156101000a81548160ff0219169083151502179055509050505050565b600b5481565b6000806000606080606060008060008060006113fa612a76565b600d8d6040518082805190602001908083835b602083101515611432578051825260208201915060208101905060208303925061140d565b6001836020036101000a03801982511681845116808217855250505050505090500191505090815260200160405180910390206101606040519081016040529081600082015481526020016001820154815260200160028201548152602001600382018054600181600116156101000203166002900480601f0160208091040260200160405190810160405280929190818152602001828054600181600116156101000203166002900480156115295780601f106114fe57610100808354040283529160200191611529565b820191906000526020600020905b81548152906001019060200180831161150c57829003601f168201915b50505050508152602001600482018054600181600116156101000203166002900480601f0160208091040260200160405190810160405280929190818152602001828054600181600116156101000203166002900480156115cb5780601f106115a0576101008083540402835291602001916115cb565b820191906000526020600020905b8154815290600101906020018083116115ae57829003601f168201915b50505050508152602001600582018054600181600116156101000203166002900480601f01602080910402602001604051908101604052809291908181526020018280546001816001161561010002031660029004801561166d5780601f106116425761010080835404028352916020019161166d565b820191906000526020600020905b81548152906001019060200180831161165057829003601f168201915b505050505081526020016006820160009054906101000a900473ffffffffffffffffffffffffffffffffffffffff1673ffffffffffffffffffffffffffffffffffffffff1673ffffffffffffffffffffffffffffffffffffffff1681526020016007820160009054906101000a900473ffffffffffffffffffffffffffffffffffffffff1673ffffffffffffffffffffffffffffffffffffffff1673ffffffffffffffffffffffffffffffffffffffff1681526020016008820160009054906101000a900473ffffffffffffffffffffffffffffffffffffffff1673ffffffffffffffffffffffffffffffffffffffff1673ffffffffffffffffffffffffffffffffffffffff1681526020016008820160149054906101000a900460ff161515151581526020016008820160159054906101000a900460ff1615151515815250509050806000015181602001518260400151836060015184608001518560a001518660c001518760e001518861010001518961012001518a61014001518797508696508595509b509b509b509b509b509b509b509b509b509b509b505091939597999b90929496989a50565b80600e60006101000a81548160ff02191690831515021790555050565b6000600e60009054906101000a900460ff169050919050565b600e60009054906101000a900460ff1681565b600061186d82611836565b156118b957600460008373ffffffffffffffffffffffffffffffffffffffff1673ffffffffffffffffffffffffffffffffffffffff1681526020019081526020016000205490506118be565b600090505b919050565b6000600d60405180807f696e63726561736550656e64696e6741637469766174696f6e73000000000000815250601a019050908152602001604051809103902090508181600001819055505050565b600360009054906101000a900473ffffffffffffffffffffffffffffffffffffffff1681565b60008060009054906101000a900473ffffffffffffffffffffffffffffffffffffffff16905090565b6000600d60405180807f7570646174654163636f756e744379636c65000000000000000000000000000081525060120190509081526020016040518091039020905060018160080160146101000a81548160ff021916908315150217905550818160060160006101000a81548173ffffffffffffffffffffffffffffffffffffffff021916908373ffffffffffffffffffffffffffffffffffffffff1602179055505050565b6000611aa23384611a9d85600560003373ffffffffffffffffffffffffffffffffffffffff1673ffffffffffffffffffffffffffffffffffffffff16815260200190815260200160002060008973ffffffffffffffffffffffffffffffffffffffff1673ffffffffffffffffffffffffffffffffffffffff168152602001908152602001600020546123d790919063ffffffff16565b612189565b6001905092915050565b600080600d60405180807f7472616e73666572000000000000000000000000000000000000000000000000815250600801905090815260200160405180910390209050838160060160006101000a81548173ffffffffffffffffffffffffffffffffffffffff021916908373ffffffffffffffffffffffffffffffffffffffff160217905550828160000181905550600191505092915050565b80600460008473ffffffffffffffffffffffffffffffffffffffff1673ffffffffffffffffffffffffffffffffffffffff16815260200190815260200160002081905550611b9f8160065461271e90919063ffffffff16565b6006819055505050565b600260009054906101000a900473ffffffffffffffffffffffffffffffffffffffff1681565b6000809054906101000a900473ffffffffffffffffffffffffffffffffffffffff1673ffffffffffffffffffffffffffffffffffffffff163373ffffffffffffffffffffffffffffffffffffffff16141515611c2a57600080fd5b600073ffffffffffffffffffffffffffffffffffffffff168173ffffffffffffffffffffffffffffffffffffffff1614151515611c6657600080fd5b806000806101000a81548173ffffffffffffffffffffffffffffffffffffffff021916908373ffffffffffffffffffffffffffffffffffffffff1602179055507fc14b2e8c3b0fecd3b6226c637c343009dca5171a0a6874475330c5c204a29c6c6000809054906101000a900473ffffffffffffffffffffffffffffffffffffffff16604051808273ffffffffffffffffffffffffffffffffffffffff1673ffffffffffffffffffffffffffffffffffffffff16815260200191505060405180910390a150565b6000600d60405180807f7265736574496e616374697665546f6b656e4379636c6500000000000000000081525060170190509081526020016040518091039020905060018160080160146101000a81548160ff02191690831515021790555050565b6000600560008473ffffffffffffffffffffffffffffffffffffffff1673ffffffffffffffffffffffffffffffffffffffff16815260200190815260200160002060008373ffffffffffffffffffffffffffffffffffffffff1673ffffffffffffffffffffffffffffffffffffffff16815260200190815260200160002054905092915050565b600160009054906101000a900473ffffffffffffffffffffffffffffffffffffffff1673ffffffffffffffffffffffffffffffffffffffff163373ffffffffffffffffffffffffffffffffffffffff16141515611e7257600080fd5b600073ffffffffffffffffffffffffffffffffffffffff168173ffffffffffffffffffffffffffffffffffffffff1614151515611eae57600080fd5b80600160006101000a81548173ffffffffffffffffffffffffffffffffffffffff021916908373ffffffffffffffffffffffffffffffffffffffff1602179055507fcdb1fdb4703f653ea6f6ba7e018bf8508c4e61cac3bb0187c419e5dd863bec50600160009054906101000a900473ffffffffffffffffffffffffffffffffffffffff16604051808273ffffffffffffffffffffffffffffffffffffffff1673ffffffffffffffffffffffffffffffffffffffff16815260200191505060405180910390a150565b6000600d826040518082805190602001908083835b602083101515611fb15780518252602082019150602081019050602083039250611f8c565b6001836020036101000a03801982511681845116808217855250505050505090500191505090815260200160405180910390209050600081600001819055506000816001018190555060008160020181905550602060405190810160405280600081525081600301908051906020019061202c929190612b97565b506020604051908101604052806000815250816004019080519060200190612055929190612b97565b50602060405190810160405280600081525081600501908051906020019061207e929190612b97565b5060008160060160006101000a81548173ffffffffffffffffffffffffffffffffffffffff021916908373ffffffffffffffffffffffffffffffffffffffff16021790555060008160070160006101000a81548173ffffffffffffffffffffffffffffffffffffffff021916908373ffffffffffffffffffffffffffffffffffffffff16021790555060008160080160006101000a81548173ffffffffffffffffffffffffffffffffffffffff021916908373ffffffffffffffffffffffffffffffffffffffff16021790555060008160080160146101000a81548160ff02191690831515021790555060008160080160156101000a81548160ff0219169083151502179055505050565b600073ffffffffffffffffffffffffffffffffffffffff168273ffffffffffffffffffffffffffffffffffffffff16141515156121c557600080fd5b600073ffffffffffffffffffffffffffffffffffffffff168373ffffffffffffffffffffffffffffffffffffffff161415151561220157600080fd5b80600560008573ffffffffffffffffffffffffffffffffffffffff1673ffffffffffffffffffffffffffffffffffffffff16815260200190815260200160002060008473ffffffffffffffffffffffffffffffffffffffff1673ffffffffffffffffffffffffffffffffffffffff168152602001908152602001600020819055508173ffffffffffffffffffffffffffffffffffffffff168373ffffffffffffffffffffffffffffffffffffffff167f8c5be1e5ebec7d5bd14f71427d1e84f3dd0314c0f7b2291e5b200ac8c7c3b925836040518082815260200191505060405180910390a3505050565b600360009054906101000a900473ffffffffffffffffffffffffffffffffffffffff1673ffffffffffffffffffffffffffffffffffffffff166340c10f1983836040518363ffffffff167c0100000000000000000000000000000000000000000000000000000000028152600401808373ffffffffffffffffffffffffffffffffffffffff1673ffffffffffffffffffffffffffffffffffffffff16815260200182815260200192505050600060405180830381600087803b1580156123b157600080fd5b505af11580156123c5573d6000803e3d6000fd5b505050506123d3828261273a565b5050565b60008282111515156123e557fe5b818303905092915050565b6000808314156124035760009050612422565b818302905081838281151561241457fe5b0414151561241e57fe5b8090505b92915050565b6000818381151561243557fe5b04905092915050565b600073ffffffffffffffffffffffffffffffffffffffff168273ffffffffffffffffffffffffffffffffffffffff161415151561247a57600080fd5b80600260009054906101000a900473ffffffffffffffffffffffffffffffffffffffff1673ffffffffffffffffffffffffffffffffffffffff1663741b53cd856040518263ffffffff167c0100000000000000000000000000000000000000000000000000000000028152600401808273ffffffffffffffffffffffffffffffffffffffff1673ffffffffffffffffffffffffffffffffffffffff168152602001915050602060405180830381600087803b15801561253857600080fd5b505af115801561254c573d6000803e3d6000fd5b505050506040513d602081101561256257600080fd5b81019080805190602001909291905050501015151561258057600080fd5b61258a8383612890565b6125dc81600460008673ffffffffffffffffffffffffffffffffffffffff1673ffffffffffffffffffffffffffffffffffffffff168152602001908152602001600020546123d790919063ffffffff16565b600460008573ffffffffffffffffffffffffffffffffffffffff1673ffffffffffffffffffffffffffffffffffffffff1681526020019081526020016000208190555061267181600460008573ffffffffffffffffffffffffffffffffffffffff1673ffffffffffffffffffffffffffffffffffffffff1681526020019081526020016000205461271e90919063ffffffff16565b600460008473ffffffffffffffffffffffffffffffffffffffff1673ffffffffffffffffffffffffffffffffffffffff168152602001908152602001600020819055508173ffffffffffffffffffffffffffffffffffffffff168373ffffffffffffffffffffffffffffffffffffffff167fddf252ad1be2c89b69c2b068fc378daa952ba7f163c4a11628f55a4df523b3ef836040518082815260200191505060405180910390a3505050565b6000818301905082811015151561273157fe5b80905092915050565b600073ffffffffffffffffffffffffffffffffffffffff168273ffffffffffffffffffffffffffffffffffffffff161415151561277657600080fd5b61278b816006546123d790919063ffffffff16565b6006819055506127e381600460008573ffffffffffffffffffffffffffffffffffffffff1673ffffffffffffffffffffffffffffffffffffffff168152602001908152602001600020546123d790919063ffffffff16565b600460008473ffffffffffffffffffffffffffffffffffffffff1673ffffffffffffffffffffffffffffffffffffffff16815260200190815260200160002081905550600073ffffffffffffffffffffffffffffffffffffffff168273ffffffffffffffffffffffffffffffffffffffff167fddf252ad1be2c89b69c2b068fc378daa952ba7f163c4a11628f55a4df523b3ef836040518082815260200191505060405180910390a35050565b612899826128af565b6128a2816128af565b6128ab816128da565b5050565b6128b881611836565b15156128cc576128c781611961565b6128d7565b6128d581610cb7565b505b50565b600060086000600754815260200190815260200160002060040160008373ffffffffffffffffffffffffffffffffffffffff1673ffffffffffffffffffffffffffffffffffffffff168152602001908152602001600020541415612a735761296460016008600060075481526020019081526020016000206002015461271e90919063ffffffff16565b600860006007548152602001908152602001600020600201819055506008600060075481526020019081526020016000206002015460086000600754815260200190815260200160002060040160008373ffffffffffffffffffffffffffffffffffffffff1673ffffffffffffffffffffffffffffffffffffffff1681526020019081526020016000208190555080600860006007548152602001908152602001600020600301600060086000600754815260200190815260200160002060020154815260200190815260200160002060006101000a81548173ffffffffffffffffffffffffffffffffffffffff021916908373ffffffffffffffffffffffffffffffffffffffff1602179055505b50565b61016060405190810160405280600081526020016000815260200160008152602001606081526020016060815260200160608152602001600073ffffffffffffffffffffffffffffffffffffffff168152602001600073ffffffffffffffffffffffffffffffffffffffff168152602001600073ffffffffffffffffffffffffffffffffffffffff1681526020016000151581526020016000151581525090565b828054600181600116156101000203166002900490600052602060002090601f016020900481019282601f10612b5857805160ff1916838001178555612b86565b82800160010185558215612b86579182015b82811115612b85578251825591602001919060010190612b6a565b5b509050612b939190612c17565b5090565b828054600181600116156101000203166002900490600052602060002090601f016020900481019282601f10612bd857805160ff1916838001178555612c06565b82800160010185558215612c06579182015b82811115612c05578251825591602001919060010190612bea565b5b509050612c139190612c17565b5090565b612c3991905b80821115612c35576000816000905550600101612c1d565b5090565b905600a165627a7a72305820bf591fc6a313c7fca61dedc306a5bcf37dfe424e17d1feec1ee9337c2e1085320029",
  "source": "pragma solidity >=0.4.22 <0.6.0;\nimport './InactiveToken.sol';\nimport '../ContractStub.sol';\n\ncontract InactiveTokenStub is InactiveToken, ContractStub {\n  constructor (VotingToken _votingToken, ActiveToken _activeToken) public\n  InactiveToken(_votingToken, _activeToken) {}\n\n  function increasePendingActivations (uint256 n) external {\n    CallData storage methodState = method['increasePendingActivations'];\n    methodState.firstUint = n;\n  }\n\n  function transfer (address a, uint256 n) public returns (bool){\n    CallData storage methodState = method['transfer'];\n    methodState.firstAddress = a;\n    methodState.firstUint = n;\n    return true;\n  }\n\n  function resetInactiveTokenCycle () public {\n    CallData storage methodState = method['resetInactiveTokenCycle'];\n    methodState.called = true;\n  }\n\n  function mint (address a, uint256 n) external {\n    CallData storage methodState = method['mint'];\n    /* methodState.called = true; */\n\n    if (methodState.firstAddress == address(0)) {\n      methodState.firstAddress = a;\n    } else {\n      methodState.secondAddress = a;\n    }\n\n    if (methodState.firstUint == 0) {\n      methodState.firstUint = n;\n    } else {\n      methodState.secondUint = n;\n    }\n\n  }\n\n  function initMockBalance (address a, uint256 n) public {\n    _balances[a] = n;\n    _totalSupply = _totalSupply.add(n);\n  }\n\n  bool public mockAccountUpdated;\n\n  function setAccountUpdated (bool b) public {\n    mockAccountUpdated = b;\n  }\n\n  function accountCycleUpdated (address a) public view returns (bool) {\n    return mockAccountUpdated;\n  }\n\n  function updateAccountCycle (address account) public {\n    CallData storage methodState = method['updateAccountCycle'];\n    methodState.called = true;\n    methodState.firstAddress = account;\n  }\n}\n",
  "sourcePath": "D:\\Projects\\SUWiserLLC\\serge\\contracts\\token\\InactiveTokenStub.sol",
  "compiler": {
    "name": "solc",
    "version": "0.4.24+commit.e67f0147.Emscripten.clang"
  },
  "schemaVersion": "2.0.1",
  "updatedAt": "2022-02-19T15:47:01.621Z"
}