{
  "contractName": "InactiveTokenMock",
  "abi": [
    {
      "constant": false,
      "inputs": [
        {
          "name": "spender",
          "type": "address"
        },
        {
          "name": "value",
          "type": "uint256"
        }
      ],
      "name": "approve",
      "outputs": [
        {
          "name": "",
          "type": "bool"
        }
      ],
      "payable": false,
      "stateMutability": "nonpayable",
      "type": "function"
    },
    {
      "constant": true,
      "inputs": [
        {
          "name": "account",
          "type": "address"
        }
      ],
      "name": "pendingActivations",
      "outputs": [
        {
          "name": "",
          "type": "uint256"
        }
      ],
      "payable": false,
      "stateMutability": "view",
      "type": "function"
    },
    {
      "constant": true,
      "inputs": [],
      "name": "totalSupply",
      "outputs": [
        {
          "name": "",
          "type": "uint256"
        }
      ],
      "payable": false,
      "stateMutability": "view",
      "type": "function"
    },
    {
      "constant": false,
      "inputs": [
        {
          "name": "from",
          "type": "address"
        },
        {
          "name": "to",
          "type": "address"
        },
        {
          "name": "value",
          "type": "uint256"
        }
      ],
      "name": "transferFrom",
      "outputs": [
        {
          "name": "",
          "type": "bool"
        }
      ],
      "payable": false,
      "stateMutability": "nonpayable",
      "type": "function"
    },
    {
      "constant": true,
      "inputs": [],
      "name": "activation",
      "outputs": [
        {
          "name": "",
          "type": "address"
        }
      ],
      "payable": false,
      "stateMutability": "view",
      "type": "function"
    },
    {
      "constant": false,
      "inputs": [
        {
          "name": "spender",
          "type": "address"
        },
        {
          "name": "addedValue",
          "type": "uint256"
        }
      ],
      "name": "increaseAllowance",
      "outputs": [
        {
          "name": "",
          "type": "bool"
        }
      ],
      "payable": false,
      "stateMutability": "nonpayable",
      "type": "function"
    },
    {
      "constant": false,
      "inputs": [
        {
          "name": "account",
          "type": "address"
        },
        {
          "name": "value",
          "type": "uint256"
        }
      ],
      "name": "mint",
      "outputs": [],
      "payable": false,
      "stateMutability": "nonpayable",
      "type": "function"
    },
    {
      "constant": true,
      "inputs": [],
      "name": "totalActivationPoints",
      "outputs": [
        {
          "name": "",
          "type": "uint256"
        }
      ],
      "payable": false,
      "stateMutability": "view",
      "type": "function"
    },
    {
      "constant": false,
      "inputs": [
        {
          "name": "methodName",
          "type": "string"
        }
      ],
      "name": "addMethod",
      "outputs": [],
      "payable": false,
      "stateMutability": "nonpayable",
      "type": "function"
    },
    {
      "constant": true,
      "inputs": [],
      "name": "totalPendingActivations",
      "outputs": [
        {
          "name": "",
          "type": "uint256"
        }
      ],
      "payable": false,
      "stateMutability": "view",
      "type": "function"
    },
    {
      "constant": true,
      "inputs": [
        {
          "name": "methodName",
          "type": "string"
        }
      ],
      "name": "callHistory",
      "outputs": [
        {
          "name": "",
          "type": "uint256"
        },
        {
          "name": "",
          "type": "uint256"
        },
        {
          "name": "",
          "type": "uint256"
        },
        {
          "name": "",
          "type": "string"
        },
        {
          "name": "",
          "type": "string"
        },
        {
          "name": "",
          "type": "string"
        },
        {
          "name": "",
          "type": "address"
        },
        {
          "name": "",
          "type": "address"
        },
        {
          "name": "",
          "type": "address"
        },
        {
          "name": "",
          "type": "bool"
        },
        {
          "name": "",
          "type": "bool"
        }
      ],
      "payable": false,
      "stateMutability": "view",
      "type": "function"
    },
    {
      "constant": true,
      "inputs": [
        {
          "name": "account",
          "type": "address"
        }
      ],
      "name": "accountCycleUpdated",
      "outputs": [
        {
          "name": "",
          "type": "bool"
        }
      ],
      "payable": false,
      "stateMutability": "view",
      "type": "function"
    },
    {
      "constant": true,
      "inputs": [
        {
          "name": "_who",
          "type": "address"
        }
      ],
      "name": "balanceOf",
      "outputs": [
        {
          "name": "",
          "type": "uint256"
        }
      ],
      "payable": false,
      "stateMutability": "view",
      "type": "function"
    },
    {
      "constant": false,
      "inputs": [
        {
          "name": "amount",
          "type": "uint256"
        }
      ],
      "name": "increasePendingActivations",
      "outputs": [],
      "payable": false,
      "stateMutability": "nonpayable",
      "type": "function"
    },
    {
      "constant": true,
      "inputs": [],
      "name": "activeToken",
      "outputs": [
        {
          "name": "",
          "type": "address"
        }
      ],
      "payable": false,
      "stateMutability": "view",
      "type": "function"
    },
    {
      "constant": true,
      "inputs": [],
      "name": "crowdsale",
      "outputs": [
        {
          "name": "",
          "type": "address"
        }
      ],
      "payable": false,
      "stateMutability": "view",
      "type": "function"
    },
    {
      "constant": false,
      "inputs": [
        {
          "name": "spender",
          "type": "address"
        },
        {
          "name": "subtractedValue",
          "type": "uint256"
        }
      ],
      "name": "decreaseAllowance",
      "outputs": [
        {
          "name": "",
          "type": "bool"
        }
      ],
      "payable": false,
      "stateMutability": "nonpayable",
      "type": "function"
    },
    {
      "constant": false,
      "inputs": [
        {
          "name": "to",
          "type": "address"
        },
        {
          "name": "value",
          "type": "uint256"
        }
      ],
      "name": "transfer",
      "outputs": [
        {
          "name": "",
          "type": "bool"
        }
      ],
      "payable": false,
      "stateMutability": "nonpayable",
      "type": "function"
    },
    {
      "constant": true,
      "inputs": [],
      "name": "votingToken",
      "outputs": [
        {
          "name": "",
          "type": "address"
        }
      ],
      "payable": false,
      "stateMutability": "view",
      "type": "function"
    },
    {
      "constant": false,
      "inputs": [
        {
          "name": "recipient",
          "type": "address"
        }
      ],
      "name": "transferCrowdsaleKey",
      "outputs": [],
      "payable": false,
      "stateMutability": "nonpayable",
      "type": "function"
    },
    {
      "constant": false,
      "inputs": [],
      "name": "resetInactiveTokenCycle",
      "outputs": [],
      "payable": false,
      "stateMutability": "nonpayable",
      "type": "function"
    },
    {
      "constant": true,
      "inputs": [
        {
          "name": "owner",
          "type": "address"
        },
        {
          "name": "spender",
          "type": "address"
        }
      ],
      "name": "allowance",
      "outputs": [
        {
          "name": "",
          "type": "uint256"
        }
      ],
      "payable": false,
      "stateMutability": "view",
      "type": "function"
    },
    {
      "constant": false,
      "inputs": [
        {
          "name": "recipient",
          "type": "address"
        }
      ],
      "name": "transferActivationKey",
      "outputs": [],
      "payable": false,
      "stateMutability": "nonpayable",
      "type": "function"
    },
    {
      "constant": false,
      "inputs": [
        {
          "name": "methodName",
          "type": "string"
        }
      ],
      "name": "resetMethod",
      "outputs": [],
      "payable": false,
      "stateMutability": "nonpayable",
      "type": "function"
    },
    {
      "inputs": [
        {
          "name": "_votingToken",
          "type": "address"
        },
        {
          "name": "_activeToken",
          "type": "address"
        }
      ],
      "payable": false,
      "stateMutability": "nonpayable",
      "type": "constructor"
    },
    {
      "anonymous": false,
      "inputs": [
        {
          "indexed": false,
          "name": "account",
          "type": "address"
        },
        {
          "indexed": false,
          "name": "amount",
          "type": "uint256"
        }
      ],
      "name": "TokenActivation",
      "type": "event"
    },
    {
      "anonymous": false,
      "inputs": [
        {
          "indexed": true,
          "name": "from",
          "type": "address"
        },
        {
          "indexed": true,
          "name": "to",
          "type": "address"
        },
        {
          "indexed": false,
          "name": "value",
          "type": "uint256"
        },
        {
          "indexed": false,
          "name": "time",
          "type": "uint256"
        }
      ],
      "name": "Transfer",
      "type": "event"
    },
    {
      "anonymous": false,
      "inputs": [
        {
          "indexed": true,
          "name": "owner",
          "type": "address"
        },
        {
          "indexed": true,
          "name": "spender",
          "type": "address"
        },
        {
          "indexed": false,
          "name": "value",
          "type": "uint256"
        }
      ],
      "name": "Approval",
      "type": "event"
    },
    {
      "anonymous": false,
      "inputs": [
        {
          "indexed": false,
          "name": "recipient",
          "type": "address"
        }
      ],
      "name": "ActivationTransferred",
      "type": "event"
    },
    {
      "anonymous": false,
      "inputs": [
        {
          "indexed": false,
          "name": "recipient",
          "type": "address"
        }
      ],
      "name": "CrowdsaleTransferred",
      "type": "event"
    },
    {
      "constant": false,
      "inputs": [
        {
          "name": "a",
          "type": "address"
        }
      ],
      "name": "updateAccountCycle",
      "outputs": [],
      "payable": false,
      "stateMutability": "nonpayable",
      "type": "function"
    },
    {
      "constant": false,
      "inputs": [
        {
          "name": "a",
          "type": "address"
        }
      ],
      "name": "activatePending",
      "outputs": [
        {
          "name": "",
          "type": "bool"
        }
      ],
      "payable": false,
      "stateMutability": "nonpayable",
      "type": "function"
    },
    {
      "constant": false,
      "inputs": [
        {
          "name": "account",
          "type": "address"
        }
      ],
      "name": "_activatePending",
      "outputs": [
        {
          "name": "",
          "type": "bool"
        }
      ],
      "payable": false,
      "stateMutability": "nonpayable",
      "type": "function"
    },
    {
      "constant": false,
      "inputs": [
        {
          "name": "account",
          "type": "address"
        },
        {
          "name": "status",
          "type": "bool"
        }
      ],
      "name": "setMockCycleUpdateStatus",
      "outputs": [],
      "payable": false,
      "stateMutability": "nonpayable",
      "type": "function"
    },
    {
      "constant": false,
      "inputs": [
        {
          "name": "cycle",
          "type": "uint256"
        }
      ],
      "name": "setMockInactiveTokenCycle",
      "outputs": [],
      "payable": false,
      "stateMutability": "nonpayable",
      "type": "function"
    },
    {
      "constant": false,
      "inputs": [],
      "name": "resetSupply",
      "outputs": [],
      "payable": false,
      "stateMutability": "nonpayable",
      "type": "function"
    },
    {
      "constant": false,
      "inputs": [
        {
          "name": "addr",
          "type": "address"
        }
      ],
      "name": "clearMockBalance",
      "outputs": [],
      "payable": false,
      "stateMutability": "nonpayable",
      "type": "function"
    },
    {
      "constant": false,
      "inputs": [
        {
          "name": "a",
          "type": "address"
        },
        {
          "name": "n",
          "type": "uint256"
        }
      ],
      "name": "initMockBalance",
      "outputs": [],
      "payable": false,
      "stateMutability": "nonpayable",
      "type": "function"
    },
    {
      "constant": false,
      "inputs": [
        {
          "name": "newTokens",
          "type": "uint256"
        },
        {
          "name": "inactiveSupply",
          "type": "uint256"
        }
      ],
      "name": "setMockTotalActivationPonts",
      "outputs": [],
      "payable": false,
      "stateMutability": "nonpayable",
      "type": "function"
    },
    {
      "constant": false,
      "inputs": [
        {
          "name": "newTokens",
          "type": "uint256"
        },
        {
          "name": "inactiveSupply",
          "type": "uint256"
        },
        {
          "name": "account",
          "type": "address"
        }
      ],
      "name": "setMockLastActivationPoints",
      "outputs": [],
      "payable": false,
      "stateMutability": "nonpayable",
      "type": "function"
    },
    {
      "constant": false,
      "inputs": [
        {
          "name": "amount",
          "type": "uint256"
        }
      ],
      "name": "setMockTotalPendingActivations",
      "outputs": [],
      "payable": false,
      "stateMutability": "nonpayable",
      "type": "function"
    },
    {
      "constant": true,
      "inputs": [
        {
          "name": "account",
          "type": "address"
        }
      ],
      "name": "lastActivationPointsOf",
      "outputs": [
        {
          "name": "",
          "type": "uint256"
        }
      ],
      "payable": false,
      "stateMutability": "view",
      "type": "function"
    },
    {
      "constant": false,
      "inputs": [
        {
          "name": "account",
          "type": "address"
        },
        {
          "name": "amount",
          "type": "uint256"
        }
      ],
      "name": "activate_",
      "outputs": [],
      "payable": false,
      "stateMutability": "nonpayable",
      "type": "function"
    }
  ],
  "bytecode": "0x60806040526c7e37be2022c0914b2680000000600c5534801561002157600080fd5b5060405160408061381a83398101806040528101908080519060200190929190805190602001909291905050508181336000806101000a81548173ffffffffffffffffffffffffffffffffffffffff021916908373ffffffffffffffffffffffffffffffffffffffff1602179055507fc14b2e8c3b0fecd3b6226c637c343009dca5171a0a6874475330c5c204a29c6c6000809054906101000a900473ffffffffffffffffffffffffffffffffffffffff16604051808273ffffffffffffffffffffffffffffffffffffffff1673ffffffffffffffffffffffffffffffffffffffff16815260200191505060405180910390a133600160006101000a81548173ffffffffffffffffffffffffffffffffffffffff021916908373ffffffffffffffffffffffffffffffffffffffff1602179055507fcdb1fdb4703f653ea6f6ba7e018bf8508c4e61cac3bb0187c419e5dd863bec50600160009054906101000a900473ffffffffffffffffffffffffffffffffffffffff16604051808273ffffffffffffffffffffffffffffffffffffffff1673ffffffffffffffffffffffffffffffffffffffff16815260200191505060405180910390a181600260006101000a81548173ffffffffffffffffffffffffffffffffffffffff021916908373ffffffffffffffffffffffffffffffffffffffff16021790555080600360006101000a81548173ffffffffffffffffffffffffffffffffffffffff021916908373ffffffffffffffffffffffffffffffffffffffff160217905550505050506135ab8061026f6000396000f3006080604052600436106101cc576000357c0100000000000000000000000000000000000000000000000000000000900463ffffffff168062db01bc146101d1578063095ea7b3146102205780630d8654e814610285578063170ca9f3146102e057806318160ddd146103375780631cbef44e1461036257806322b6255f146103af57806323b872dd1461040657806335e485b91461048b5780633629c8de146104ce578063395093511461052557806340c10f191461058a578063472377dd146105d757806351542e3a14610602578063519d1b451461066b578063547d802014610696578063613e9ca41461091457806365a540971461096f57806370a08231146109a657806375a91587146109fd5780638796d43d14610a2a5780639c1e03a014610a81578063a42671bc14610ad8578063a457c2d714610b1b578063a636fb1714610b80578063a9059cbb14610bad578063ad9e045014610c12578063b034012314610c5f578063be0d245914610cb6578063c9f1958d14610cf9578063ca8164df14610d26578063d6c025bc14610d3d578063da285c6814610d94578063dd62ed3e14610def578063e331691514610e66578063e577308314610ea9578063f427b13514610ec0575b600080fd5b3480156101dd57600080fd5b5061021e600480360381019080803573ffffffffffffffffffffffffffffffffffffffff169060200190929190803515159060200190929190505050610f29565b005b34801561022c57600080fd5b5061026b600480360381019080803573ffffffffffffffffffffffffffffffffffffffff16906020019092919080359060200190929190505050610f9a565b604051808215151515815260200191505060405180910390f35b34801561029157600080fd5b506102c6600480360381019080803573ffffffffffffffffffffffffffffffffffffffff169060200190929190505050610fb1565b604051808215151515815260200191505060405180910390f35b3480156102ec57600080fd5b50610321600480360381019080803573ffffffffffffffffffffffffffffffffffffffff16906020019092919050505061105e565b6040518082815260200191505060405180910390f35b34801561034357600080fd5b5061034c61116d565b6040518082815260200191505060405180910390f35b34801561036e57600080fd5b506103ad600480360381019080803573ffffffffffffffffffffffffffffffffffffffff16906020019092919080359060200190929190505050611177565b005b3480156103bb57600080fd5b506103f0600480360381019080803573ffffffffffffffffffffffffffffffffffffffff169060200190929190505050611185565b6040518082815260200191505060405180910390f35b34801561041257600080fd5b50610471600480360381019080803573ffffffffffffffffffffffffffffffffffffffff169060200190929190803573ffffffffffffffffffffffffffffffffffffffff169060200190929190803590602001909291905050506111ce565b604051808215151515815260200191505060405180910390f35b34801561049757600080fd5b506104cc600480360381019080803573ffffffffffffffffffffffffffffffffffffffff16906020019092919050505061127f565b005b3480156104da57600080fd5b506104e36112c7565b604051808273ffffffffffffffffffffffffffffffffffffffff1673ffffffffffffffffffffffffffffffffffffffff16815260200191505060405180910390f35b34801561053157600080fd5b50610570600480360381019080803573ffffffffffffffffffffffffffffffffffffffff169060200190929190803590602001909291905050506112f1565b604051808215151515815260200191505060405180910390f35b34801561059657600080fd5b506105d5600480360381019080803573ffffffffffffffffffffffffffffffffffffffff16906020019092919080359060200190929190505050611396565b005b3480156105e357600080fd5b506105ec611411565b6040518082815260200191505060405180910390f35b34801561060e57600080fd5b50610669600480360381019080803590602001908201803590602001908080601f0160208091040260200160405190810160405280939291908181526020018383808284378201915050505050509192919290505050611417565b005b34801561067757600080fd5b5061068061161f565b6040518082815260200191505060405180910390f35b3480156106a257600080fd5b506106fd600480360381019080803590602001908201803590602001908080601f0160208091040260200160405190810160405280939291908181526020018383808284378201915050505050509192919290505050611625565b604051808c81526020018b81526020018a81526020018060200180602001806020018973ffffffffffffffffffffffffffffffffffffffff1673ffffffffffffffffffffffffffffffffffffffff1681526020018873ffffffffffffffffffffffffffffffffffffffff1673ffffffffffffffffffffffffffffffffffffffff1681526020018773ffffffffffffffffffffffffffffffffffffffff1673ffffffffffffffffffffffffffffffffffffffff168152602001861515151581526020018515151515815260200184810384528c818151815260200191508051906020019080838360005b838110156108015780820151818401526020810190506107e6565b50505050905090810190601f16801561082e5780820380516001836020036101000a031916815260200191505b5084810383528b818151815260200191508051906020019080838360005b8381101561086757808201518184015260208101905061084c565b50505050905090810190601f1680156108945780820380516001836020036101000a031916815260200191505b5084810382528a818151815260200191508051906020019080838360005b838110156108cd5780820151818401526020810190506108b2565b50505050905090810190601f1680156108fa5780820380516001836020036101000a031916815260200191505b509e50505050505050505050505050505060405180910390f35b34801561092057600080fd5b50610955600480360381019080803573ffffffffffffffffffffffffffffffffffffffff169060200190929190505050611a5e565b604051808215151515815260200191505060405180910390f35b34801561097b57600080fd5b506109a46004803603810190808035906020019092919080359060200190929190505050611ade565b005b3480156109b257600080fd5b506109e7600480360381019080803573ffffffffffffffffffffffffffffffffffffffff169060200190929190505050611b0f565b6040518082815260200191505060405180910390f35b348015610a0957600080fd5b50610a2860048036038101908080359060200190929190505050611b70565b005b348015610a3657600080fd5b50610a3f611cdf565b604051808273ffffffffffffffffffffffffffffffffffffffff1673ffffffffffffffffffffffffffffffffffffffff16815260200191505060405180910390f35b348015610a8d57600080fd5b50610a96611d05565b604051808273ffffffffffffffffffffffffffffffffffffffff1673ffffffffffffffffffffffffffffffffffffffff16815260200191505060405180910390f35b348015610ae457600080fd5b50610b19600480360381019080803573ffffffffffffffffffffffffffffffffffffffff169060200190929190505050611d2e565b005b348015610b2757600080fd5b50610b66600480360381019080803573ffffffffffffffffffffffffffffffffffffffff16906020019092919080359060200190929190505050611ddd565b604051808215151515815260200191505060405180910390f35b348015610b8c57600080fd5b50610bab60048036038101908080359060200190929190505050611e82565b005b348015610bb957600080fd5b50610bf8600480360381019080803573ffffffffffffffffffffffffffffffffffffffff16906020019092919080359060200190929190505050611e8c565b604051808215151515815260200191505060405180910390f35b348015610c1e57600080fd5b50610c5d600480360381019080803573ffffffffffffffffffffffffffffffffffffffff16906020019092919080359060200190929190505050611ea3565b005b348015610c6b57600080fd5b50610c74611f06565b604051808273ffffffffffffffffffffffffffffffffffffffff1673ffffffffffffffffffffffffffffffffffffffff16815260200191505060405180910390f35b348015610cc257600080fd5b50610cf7600480360381019080803573ffffffffffffffffffffffffffffffffffffffff169060200190929190505050611f2c565b005b348015610d0557600080fd5b50610d246004803603810190808035906020019092919050505061208a565b005b348015610d3257600080fd5b50610d3b612094565b005b348015610d4957600080fd5b50610d926004803603810190808035906020019092919080359060200190929190803573ffffffffffffffffffffffffffffffffffffffff169060200190929190505050612154565b005b348015610da057600080fd5b50610dd5600480360381019080803573ffffffffffffffffffffffffffffffffffffffff1690602001909291905050506121c3565b604051808215151515815260200191505060405180910390f35b348015610dfb57600080fd5b50610e50600480360381019080803573ffffffffffffffffffffffffffffffffffffffff169060200190929190803573ffffffffffffffffffffffffffffffffffffffff1690602001909291905050506121d5565b6040518082815260200191505060405180910390f35b348015610e7257600080fd5b50610ea7600480360381019080803573ffffffffffffffffffffffffffffffffffffffff16906020019092919050505061225c565b005b348015610eb557600080fd5b50610ebe6123bd565b005b348015610ecc57600080fd5b50610f27600480360381019080803590602001908201803590602001908080601f01602080910402602001604051908101604052809392919081815260200183838082843782019150505050505091929192905050506123c7565b005b8060086000600754815260200190815260200160002060010160008473ffffffffffffffffffffffffffffffffffffffff1673ffffffffffffffffffffffffffffffffffffffff16815260200190815260200160002060006101000a81548160ff0219169083151502179055505050565b6000610fa73384846125d9565b6001905092915050565b600080600d60405180807f616374697661746550656e64696e670000000000000000000000000000000000815250600f01905090815260200160405180910390209050828160060160006101000a81548173ffffffffffffffffffffffffffffffffffffffff021916908373ffffffffffffffffffffffffffffffffffffffff16021790555060018160080160146101000a81548160ff0219169083151502179055506001915050919050565b600080600061106b611d05565b73ffffffffffffffffffffffffffffffffffffffff168473ffffffffffffffffffffffffffffffffffffffff16141515156110a557600080fd5b6110f9600960008673ffffffffffffffffffffffffffffffffffffffff1673ffffffffffffffffffffffffffffffffffffffff16815260200190815260200160002054600a5461273c90919063ffffffff16565b9150600460008573ffffffffffffffffffffffffffffffffffffffff1673ffffffffffffffffffffffffffffffffffffffff168152602001908152602001600020549050611164600c54611156848461275590919063ffffffff16565b61278d90919063ffffffff16565b92505050919050565b6000600654905090565b61118182826127a3565b5050565b6000600960008373ffffffffffffffffffffffffffffffffffffffff1673ffffffffffffffffffffffffffffffffffffffff168152602001908152602001600020549050919050565b60006111db84848461288e565b611274843361126f85600560008a73ffffffffffffffffffffffffffffffffffffffff1673ffffffffffffffffffffffffffffffffffffffff16815260200190815260200160002060003373ffffffffffffffffffffffffffffffffffffffff1673ffffffffffffffffffffffffffffffffffffffff1681526020019081526020016000205461273c90919063ffffffff16565b6125d9565b600190509392505050565b6000600460008373ffffffffffffffffffffffffffffffffffffffff1673ffffffffffffffffffffffffffffffffffffffff1681526020019081526020016000208190555050565b6000600160009054906101000a900473ffffffffffffffffffffffffffffffffffffffff16905090565b600061138c338461138785600560003373ffffffffffffffffffffffffffffffffffffffff1673ffffffffffffffffffffffffffffffffffffffff16815260200190815260200160002060008973ffffffffffffffffffffffffffffffffffffffff1673ffffffffffffffffffffffffffffffffffffffff16815260200190815260200160002054612b7690919063ffffffff16565b6125d9565b6001905092915050565b6000809054906101000a900473ffffffffffffffffffffffffffffffffffffffff1673ffffffffffffffffffffffffffffffffffffffff163373ffffffffffffffffffffffffffffffffffffffff161415156113f157600080fd5b6113fa82612b92565b61140382612bbd565b61140d8282612d59565b5050565b600a5481565b61141f61339f565b80600d836040518082805190602001908083835b6020831015156114585780518252602082019150602081019050602083039250611433565b6001836020036101000a038019825116818451168082178552505050505050905001915050908152602001604051809103902060008201518160000155602082015181600101556040820151816002015560608201518160030190805190602001906114c5929190613440565b5060808201518160040190805190602001906114e2929190613440565b5060a08201518160050190805190602001906114ff929190613440565b5060c08201518160060160006101000a81548173ffffffffffffffffffffffffffffffffffffffff021916908373ffffffffffffffffffffffffffffffffffffffff16021790555060e08201518160070160006101000a81548173ffffffffffffffffffffffffffffffffffffffff021916908373ffffffffffffffffffffffffffffffffffffffff1602179055506101008201518160080160006101000a81548173ffffffffffffffffffffffffffffffffffffffff021916908373ffffffffffffffffffffffffffffffffffffffff1602179055506101208201518160080160146101000a81548160ff0219169083151502179055506101408201518160080160156101000a81548160ff0219169083151502179055509050505050565b600b5481565b60008060006060806060600080600080600061163f61339f565b600d8d6040518082805190602001908083835b6020831015156116775780518252602082019150602081019050602083039250611652565b6001836020036101000a03801982511681845116808217855250505050505090500191505090815260200160405180910390206101606040519081016040529081600082015481526020016001820154815260200160028201548152602001600382018054600181600116156101000203166002900480601f01602080910402602001604051908101604052809291908181526020018280546001816001161561010002031660029004801561176e5780601f106117435761010080835404028352916020019161176e565b820191906000526020600020905b81548152906001019060200180831161175157829003601f168201915b50505050508152602001600482018054600181600116156101000203166002900480601f0160208091040260200160405190810160405280929190818152602001828054600181600116156101000203166002900480156118105780601f106117e557610100808354040283529160200191611810565b820191906000526020600020905b8154815290600101906020018083116117f357829003601f168201915b50505050508152602001600582018054600181600116156101000203166002900480601f0160208091040260200160405190810160405280929190818152602001828054600181600116156101000203166002900480156118b25780601f10611887576101008083540402835291602001916118b2565b820191906000526020600020905b81548152906001019060200180831161189557829003601f168201915b505050505081526020016006820160009054906101000a900473ffffffffffffffffffffffffffffffffffffffff1673ffffffffffffffffffffffffffffffffffffffff1673ffffffffffffffffffffffffffffffffffffffff1681526020016007820160009054906101000a900473ffffffffffffffffffffffffffffffffffffffff1673ffffffffffffffffffffffffffffffffffffffff1673ffffffffffffffffffffffffffffffffffffffff1681526020016008820160009054906101000a900473ffffffffffffffffffffffffffffffffffffffff1673ffffffffffffffffffffffffffffffffffffffff1673ffffffffffffffffffffffffffffffffffffffff1681526020016008820160149054906101000a900460ff161515151581526020016008820160159054906101000a900460ff1615151515815250509050806000015181602001518260400151836060015184608001518560a001518660c001518760e001518861010001518961012001518a61014001518797508696508595509b509b509b509b509b509b509b509b509b509b509b505091939597999b90929496989a50565b60006001151560086000600754815260200190815260200160002060010160008473ffffffffffffffffffffffffffffffffffffffff1673ffffffffffffffffffffffffffffffffffffffff16815260200190815260200160002060009054906101000a900460ff1615151480611ad757506000600754145b9050919050565b611b0581611af7600c548561275590919063ffffffff16565b61278d90919063ffffffff16565b600a819055505050565b6000611b1a82611a5e565b15611b6657600460008373ffffffffffffffffffffffffffffffffffffffff1673ffffffffffffffffffffffffffffffffffffffff168152602001908152602001600020549050611b6b565b600090505b919050565b600080600160009054906101000a900473ffffffffffffffffffffffffffffffffffffffff1673ffffffffffffffffffffffffffffffffffffffff163373ffffffffffffffffffffffffffffffffffffffff16141515611bcf57600080fd5b60006007541480611c22575060086000611bf5600160075461273c90919063ffffffff16565b81526020019081526020016000206002015460086000600754815260200190815260200160002060000154145b1515611c2d57600080fd5b611c6a600b54611c5c611c46611c41611d05565b611b0f565b611c4e61116d565b61273c90919063ffffffff16565b61273c90919063ffffffff16565b9150818311151515611c7b57600080fd5b611ca282611c94600c548661275590919063ffffffff16565b61278d90919063ffffffff16565b9050611cb981600a54612b7690919063ffffffff16565b600a81905550611cd483600b54612b7690919063ffffffff16565b600b81905550505050565b600360009054906101000a900473ffffffffffffffffffffffffffffffffffffffff1681565b60008060009054906101000a900473ffffffffffffffffffffffffffffffffffffffff16905090565b6000600d60405180807f7570646174654163636f756e744379636c650000000000000000000000000000815250601201905090815260200160405180910390209050818160060160006101000a81548173ffffffffffffffffffffffffffffffffffffffff021916908373ffffffffffffffffffffffffffffffffffffffff16021790555060018160080160146101000a81548160ff021916908315150217905550611dd982612eb7565b5050565b6000611e783384611e7385600560003373ffffffffffffffffffffffffffffffffffffffff1673ffffffffffffffffffffffffffffffffffffffff16815260200190815260200160002060008973ffffffffffffffffffffffffffffffffffffffff1673ffffffffffffffffffffffffffffffffffffffff1681526020019081526020016000205461273c90919063ffffffff16565b6125d9565b6001905092915050565b80600b8190555050565b6000611e9933848461288e565b6001905092915050565b80600460008473ffffffffffffffffffffffffffffffffffffffff1673ffffffffffffffffffffffffffffffffffffffff16815260200190815260200160002081905550611efc81600654612b7690919063ffffffff16565b6006819055505050565b600260009054906101000a900473ffffffffffffffffffffffffffffffffffffffff1681565b6000809054906101000a900473ffffffffffffffffffffffffffffffffffffffff1673ffffffffffffffffffffffffffffffffffffffff163373ffffffffffffffffffffffffffffffffffffffff16141515611f8757600080fd5b600073ffffffffffffffffffffffffffffffffffffffff168173ffffffffffffffffffffffffffffffffffffffff1614151515611fc357600080fd5b806000806101000a81548173ffffffffffffffffffffffffffffffffffffffff021916908373ffffffffffffffffffffffffffffffffffffffff1602179055507fc14b2e8c3b0fecd3b6226c637c343009dca5171a0a6874475330c5c204a29c6c6000809054906101000a900473ffffffffffffffffffffffffffffffffffffffff16604051808273ffffffffffffffffffffffffffffffffffffffff1673ffffffffffffffffffffffffffffffffffffffff16815260200191505060405180910390a150565b8060078190555050565b61209c6134c0565b6000809054906101000a900473ffffffffffffffffffffffffffffffffffffffff1673ffffffffffffffffffffffffffffffffffffffff163373ffffffffffffffffffffffffffffffffffffffff161415156120f757600080fd5b60006006819055506121156001600754612b7690919063ffffffff16565b60078190555080600860006007548152602001908152602001600020600082015181600001556020820151816002015590505061215133611d2e565b50565b61217b8261216d600c548661275590919063ffffffff16565b61278d90919063ffffffff16565b600960008373ffffffffffffffffffffffffffffffffffffffff1673ffffffffffffffffffffffffffffffffffffffff16815260200190815260200160002081905550505050565b60006121ce82613047565b9050919050565b6000600560008473ffffffffffffffffffffffffffffffffffffffff1673ffffffffffffffffffffffffffffffffffffffff16815260200190815260200160002060008373ffffffffffffffffffffffffffffffffffffffff1673ffffffffffffffffffffffffffffffffffffffff16815260200190815260200160002054905092915050565b600160009054906101000a900473ffffffffffffffffffffffffffffffffffffffff1673ffffffffffffffffffffffffffffffffffffffff163373ffffffffffffffffffffffffffffffffffffffff161415156122b857600080fd5b600073ffffffffffffffffffffffffffffffffffffffff168173ffffffffffffffffffffffffffffffffffffffff16141515156122f457600080fd5b80600160006101000a81548173ffffffffffffffffffffffffffffffffffffffff021916908373ffffffffffffffffffffffffffffffffffffffff1602179055507fcdb1fdb4703f653ea6f6ba7e018bf8508c4e61cac3bb0187c419e5dd863bec50600160009054906101000a900473ffffffffffffffffffffffffffffffffffffffff16604051808273ffffffffffffffffffffffffffffffffffffffff1673ffffffffffffffffffffffffffffffffffffffff16815260200191505060405180910390a150565b6000600681905550565b6000600d826040518082805190602001908083835b60208310151561240157805182526020820191506020810190506020830392506123dc565b6001836020036101000a03801982511681845116808217855250505050505090500191505090815260200160405180910390209050600081600001819055506000816001018190555060008160020181905550602060405190810160405280600081525081600301908051906020019061247c9291906134da565b5060206040519081016040528060008152508160040190805190602001906124a59291906134da565b5060206040519081016040528060008152508160050190805190602001906124ce9291906134da565b5060008160060160006101000a81548173ffffffffffffffffffffffffffffffffffffffff021916908373ffffffffffffffffffffffffffffffffffffffff16021790555060008160070160006101000a81548173ffffffffffffffffffffffffffffffffffffffff021916908373ffffffffffffffffffffffffffffffffffffffff16021790555060008160080160006101000a81548173ffffffffffffffffffffffffffffffffffffffff021916908373ffffffffffffffffffffffffffffffffffffffff16021790555060008160080160146101000a81548160ff02191690831515021790555060008160080160156101000a81548160ff0219169083151502179055505050565b600073ffffffffffffffffffffffffffffffffffffffff168273ffffffffffffffffffffffffffffffffffffffff161415151561261557600080fd5b600073ffffffffffffffffffffffffffffffffffffffff168373ffffffffffffffffffffffffffffffffffffffff161415151561265157600080fd5b80600560008573ffffffffffffffffffffffffffffffffffffffff1673ffffffffffffffffffffffffffffffffffffffff16815260200190815260200160002060008473ffffffffffffffffffffffffffffffffffffffff1673ffffffffffffffffffffffffffffffffffffffff168152602001908152602001600020819055508173ffffffffffffffffffffffffffffffffffffffff168373ffffffffffffffffffffffffffffffffffffffff167f8c5be1e5ebec7d5bd14f71427d1e84f3dd0314c0f7b2291e5b200ac8c7c3b925836040518082815260200191505060405180910390a3505050565b600082821115151561274a57fe5b818303905092915050565b6000808314156127685760009050612787565b818302905081838281151561277957fe5b0414151561278357fe5b8090505b92915050565b6000818381151561279a57fe5b04905092915050565b600360009054906101000a900473ffffffffffffffffffffffffffffffffffffffff1673ffffffffffffffffffffffffffffffffffffffff166340c10f1983836040518363ffffffff167c0100000000000000000000000000000000000000000000000000000000028152600401808373ffffffffffffffffffffffffffffffffffffffff1673ffffffffffffffffffffffffffffffffffffffff16815260200182815260200192505050600060405180830381600087803b15801561286857600080fd5b505af115801561287c573d6000803e3d6000fd5b5050505061288a8282613172565b5050565b600073ffffffffffffffffffffffffffffffffffffffff168273ffffffffffffffffffffffffffffffffffffffff16141515156128ca57600080fd5b80600260009054906101000a900473ffffffffffffffffffffffffffffffffffffffff1673ffffffffffffffffffffffffffffffffffffffff1663741b53cd856040518263ffffffff167c0100000000000000000000000000000000000000000000000000000000028152600401808273ffffffffffffffffffffffffffffffffffffffff1673ffffffffffffffffffffffffffffffffffffffff168152602001915050602060405180830381600087803b15801561298857600080fd5b505af115801561299c573d6000803e3d6000fd5b505050506040513d60208110156129b257600080fd5b8101908080519060200190929190505050101515156129d057600080fd5b6129da83836132d0565b612a2c81600460008673ffffffffffffffffffffffffffffffffffffffff1673ffffffffffffffffffffffffffffffffffffffff1681526020019081526020016000205461273c90919063ffffffff16565b600460008573ffffffffffffffffffffffffffffffffffffffff1673ffffffffffffffffffffffffffffffffffffffff16815260200190815260200160002081905550612ac181600460008573ffffffffffffffffffffffffffffffffffffffff1673ffffffffffffffffffffffffffffffffffffffff16815260200190815260200160002054612b7690919063ffffffff16565b600460008473ffffffffffffffffffffffffffffffffffffffff1673ffffffffffffffffffffffffffffffffffffffff168152602001908152602001600020819055508173ffffffffffffffffffffffffffffffffffffffff168373ffffffffffffffffffffffffffffffffffffffff167f9ed053bb818ff08b8353cd46f78db1f0799f31c9e4458fdb425c10eccd2efc448342604051808381526020018281526020019250505060405180910390a3505050565b60008183019050828110151515612b8957fe5b80905092915050565b612b9b81611a5e565b1515612baf57612baa81611d2e565b612bba565b612bb881610fb1565b505b50565b600060086000600754815260200190815260200160002060040160008373ffffffffffffffffffffffffffffffffffffffff1673ffffffffffffffffffffffffffffffffffffffff168152602001908152602001600020541415612d5657612c47600160086000600754815260200190815260200160002060020154612b7690919063ffffffff16565b600860006007548152602001908152602001600020600201819055506008600060075481526020019081526020016000206002015460086000600754815260200190815260200160002060040160008373ffffffffffffffffffffffffffffffffffffffff1673ffffffffffffffffffffffffffffffffffffffff1681526020019081526020016000208190555080600860006007548152602001908152602001600020600301600060086000600754815260200190815260200160002060020154815260200190815260200160002060006101000a81548173ffffffffffffffffffffffffffffffffffffffff021916908373ffffffffffffffffffffffffffffffffffffffff1602179055505b50565b600073ffffffffffffffffffffffffffffffffffffffff168273ffffffffffffffffffffffffffffffffffffffff1614151515612d9557600080fd5b612daa81600654612b7690919063ffffffff16565b600681905550612e0281600460008573ffffffffffffffffffffffffffffffffffffffff1673ffffffffffffffffffffffffffffffffffffffff16815260200190815260200160002054612b7690919063ffffffff16565b600460008473ffffffffffffffffffffffffffffffffffffffff1673ffffffffffffffffffffffffffffffffffffffff168152602001908152602001600020819055508173ffffffffffffffffffffffffffffffffffffffff16600073ffffffffffffffffffffffffffffffffffffffff167f9ed053bb818ff08b8353cd46f78db1f0799f31c9e4458fdb425c10eccd2efc448342604051808381526020018281526020019250505060405180910390a35050565b612ec081611a5e565b151515612ecc57600080fd5b612ed581610fb1565b506000600460008373ffffffffffffffffffffffffffffffffffffffff1673ffffffffffffffffffffffffffffffffffffffff16815260200190815260200160002081905550600160086000600754815260200190815260200160002060010160008373ffffffffffffffffffffffffffffffffffffffff1673ffffffffffffffffffffffffffffffffffffffff16815260200190815260200160002060006101000a81548160ff021916908315150217905550600060086000612fa5600160075461273c90919063ffffffff16565b815260200190815260200160002060040160008373ffffffffffffffffffffffffffffffffffffffff1673ffffffffffffffffffffffffffffffffffffffff1681526020019081526020016000205414151561304457613027600160086000600754815260200190815260200160002060000154612b7690919063ffffffff16565b600860006007548152602001908152602001600020600001819055505b50565b600080613052611d05565b73ffffffffffffffffffffffffffffffffffffffff168373ffffffffffffffffffffffffffffffffffffffff161415156131685761308f8361105e565b905061309b83826132ef565b600a54600960008573ffffffffffffffffffffffffffffffffffffffff1673ffffffffffffffffffffffffffffffffffffffff168152602001908152602001600020819055506130f681600b5461273c90919063ffffffff16565b600b819055507fd06d335e644deb87c5c5796e34de76f40c88a2acdd911387b45214c3c1ac89248382604051808373ffffffffffffffffffffffffffffffffffffffff1673ffffffffffffffffffffffffffffffffffffffff1681526020018281526020019250505060405180910390a15b6001915050919050565b600073ffffffffffffffffffffffffffffffffffffffff168273ffffffffffffffffffffffffffffffffffffffff16141515156131ae57600080fd5b6131c38160065461273c90919063ffffffff16565b60068190555061321b81600460008573ffffffffffffffffffffffffffffffffffffffff1673ffffffffffffffffffffffffffffffffffffffff1681526020019081526020016000205461273c90919063ffffffff16565b600460008473ffffffffffffffffffffffffffffffffffffffff1673ffffffffffffffffffffffffffffffffffffffff16815260200190815260200160002081905550600073ffffffffffffffffffffffffffffffffffffffff168273ffffffffffffffffffffffffffffffffffffffff167f9ed053bb818ff08b8353cd46f78db1f0799f31c9e4458fdb425c10eccd2efc448342604051808381526020018281526020019250505060405180910390a35050565b6132d982612b92565b6132e281612b92565b6132eb81612bbd565b5050565b6000600d60405180807f616374697661746500000000000000000000000000000000000000000000000081525060080190509081526020016040518091039020905060018160080160146101000a81548160ff021916908315150217905550828160060160006101000a81548173ffffffffffffffffffffffffffffffffffffffff021916908373ffffffffffffffffffffffffffffffffffffffff160217905550818160000181905550505050565b61016060405190810160405280600081526020016000815260200160008152602001606081526020016060815260200160608152602001600073ffffffffffffffffffffffffffffffffffffffff168152602001600073ffffffffffffffffffffffffffffffffffffffff168152602001600073ffffffffffffffffffffffffffffffffffffffff1681526020016000151581526020016000151581525090565b828054600181600116156101000203166002900490600052602060002090601f016020900481019282601f1061348157805160ff19168380011785556134af565b828001600101855582156134af579182015b828111156134ae578251825591602001919060010190613493565b5b5090506134bc919061355a565b5090565b604080519081016040528060008152602001600081525090565b828054600181600116156101000203166002900490600052602060002090601f016020900481019282601f1061351b57805160ff1916838001178555613549565b82800160010185558215613549579182015b8281111561354857825182559160200191906001019061352d565b5b509050613556919061355a565b5090565b61357c91905b80821115613578576000816000905550600101613560565b5090565b905600a165627a7a72305820a402b995bd07cdb93d6ad04c38a96de1f1974bbc1054bf74b9b66014001712890029",
  "source": "pragma solidity >=0.4.22 <0.6.0;\r\nimport './InactiveToken.sol';\r\nimport '../ContractStub.sol';\r\n\r\ncontract InactiveTokenMock is InactiveToken, ContractStub {\r\n  constructor (VotingToken _votingToken, ActiveToken _activeToken) public\r\n  InactiveToken(_votingToken, _activeToken)\r\n  {}\r\n\r\n  function updateAccountCycle (address a) public {\r\n    CallData storage methodState = method['updateAccountCycle'];\r\n    methodState.firstAddress = a;\r\n    methodState.called = true;\r\n    super.updateAccountCycle(a);\r\n  }\r\n\r\n  function activatePending (address a) public returns (bool) {\r\n    CallData storage methodState = method['activatePending'];\r\n    methodState.firstAddress = a;\r\n    methodState.called = true;\r\n    return true;\r\n  }\r\n\r\n  function _activatePending (address account) public returns (bool) {\r\n    return super.activatePending(account);\r\n  }\r\n\r\n  function setMockCycleUpdateStatus (address account, bool status) public {\r\n    inactiveTokenCycle[currentInactiveTokenCycle].updated[account] = status;\r\n  }\r\n\r\n  function setMockInactiveTokenCycle (uint256 cycle) public {\r\n    currentInactiveTokenCycle = cycle;\r\n  }\r\n\r\n  function resetSupply () public {\r\n    _totalSupply = 0;\r\n  }\r\n\r\n  function clearMockBalance (address addr) public {\r\n    _balances[addr] = 0;\r\n  }\r\n\r\n  function initMockBalance (address a, uint256 n) public {\r\n    _balances[a] = n;\r\n    _totalSupply = _totalSupply.add(n);\r\n  }\r\n\r\n  function setMockTotalActivationPonts (uint256 newTokens, uint256 inactiveSupply) public {\r\n    totalActivationPoints = newTokens.mul(activationMultiplier).div(inactiveSupply);\r\n  }\r\n\r\n  function setMockLastActivationPoints (uint256 newTokens, uint256 inactiveSupply, address account) public {\r\n    lastActivationPoints[account] = newTokens.mul(activationMultiplier).div(inactiveSupply);\r\n  }\r\n\r\n  function setMockTotalPendingActivations (uint256 amount) public {\r\n    totalPendingActivations = amount;\r\n  }\r\n\r\n  function lastActivationPointsOf(address account) public view returns(uint256) {\r\n    return lastActivationPoints[account];\r\n  }\r\n\r\n  function activate_ (address  account, uint256 amount) public {\r\n    super.activate(account, amount);\r\n  }\r\n\r\n  function activate (address account, uint256 amount) internal {\r\n    /* super.activate(account, amount); */\r\n    CallData storage methodState = method['activate'];\r\n    methodState.called = true;\r\n    methodState.firstAddress = account;\r\n    methodState.firstUint = amount;\r\n  }\r\n}\r\n",
  "sourcePath": "D:\\tetris\\SUWiserLLC_genie-truffle\\contracts\\token\\InactiveTokenMock.sol",
  "compiler": {
    "name": "solc",
    "version": "0.4.24+commit.e67f0147.Emscripten.clang"
  },
  "schemaVersion": "2.0.1",
  "updatedAt": "2022-03-02T15:08:16.459Z"
}