{
  "contractName": "ProjectStub",
  "abi": [
    {
      "constant": true,
      "inputs": [],
      "name": "investorTokens",
      "outputs": [
        {
          "name": "",
          "type": "uint256"
        }
      ],
      "payable": false,
      "stateMutability": "view",
      "type": "function"
    },
    {
      "constant": true,
      "inputs": [],
      "name": "active",
      "outputs": [
        {
          "name": "",
          "type": "bool"
        }
      ],
      "payable": false,
      "stateMutability": "view",
      "type": "function"
    },
    {
      "constant": true,
      "inputs": [],
      "name": "totalVotes",
      "outputs": [
        {
          "name": "",
          "type": "uint256"
        }
      ],
      "payable": false,
      "stateMutability": "view",
      "type": "function"
    },
    {
      "constant": true,
      "inputs": [],
      "name": "projectInfo",
      "outputs": [
        {
          "name": "",
          "type": "string"
        }
      ],
      "payable": false,
      "stateMutability": "view",
      "type": "function"
    },
    {
      "constant": true,
      "inputs": [],
      "name": "valuation",
      "outputs": [
        {
          "name": "",
          "type": "uint256"
        }
      ],
      "payable": false,
      "stateMutability": "view",
      "type": "function"
    },
    {
      "constant": false,
      "inputs": [
        {
          "name": "manager",
          "type": "address"
        }
      ],
      "name": "addManager",
      "outputs": [],
      "payable": false,
      "stateMutability": "nonpayable",
      "type": "function"
    },
    {
      "constant": true,
      "inputs": [],
      "name": "getData",
      "outputs": [
        {
          "name": "",
          "type": "address"
        },
        {
          "name": "",
          "type": "string"
        },
        {
          "name": "",
          "type": "uint256"
        },
        {
          "name": "",
          "type": "uint256"
        },
        {
          "name": "",
          "type": "string"
        }
      ],
      "payable": false,
      "stateMutability": "view",
      "type": "function"
    },
    {
      "constant": true,
      "inputs": [],
      "name": "closingTime",
      "outputs": [
        {
          "name": "",
          "type": "uint256"
        }
      ],
      "payable": false,
      "stateMutability": "view",
      "type": "function"
    },
    {
      "constant": false,
      "inputs": [
        {
          "name": "methodName",
          "type": "string"
        }
      ],
      "name": "addMethod",
      "outputs": [],
      "payable": false,
      "stateMutability": "nonpayable",
      "type": "function"
    },
    {
      "constant": true,
      "inputs": [
        {
          "name": "methodName",
          "type": "string"
        }
      ],
      "name": "callHistory",
      "outputs": [
        {
          "name": "",
          "type": "uint256"
        },
        {
          "name": "",
          "type": "uint256"
        },
        {
          "name": "",
          "type": "uint256"
        },
        {
          "name": "",
          "type": "string"
        },
        {
          "name": "",
          "type": "string"
        },
        {
          "name": "",
          "type": "string"
        },
        {
          "name": "",
          "type": "address"
        },
        {
          "name": "",
          "type": "address"
        },
        {
          "name": "",
          "type": "address"
        },
        {
          "name": "",
          "type": "bool"
        },
        {
          "name": "",
          "type": "bool"
        }
      ],
      "payable": false,
      "stateMutability": "view",
      "type": "function"
    },
    {
      "constant": false,
      "inputs": [
        {
          "name": "wallet",
          "type": "address"
        }
      ],
      "name": "setDividendWallet",
      "outputs": [],
      "payable": false,
      "stateMutability": "nonpayable",
      "type": "function"
    },
    {
      "constant": true,
      "inputs": [],
      "name": "developerTokens",
      "outputs": [
        {
          "name": "",
          "type": "uint256"
        }
      ],
      "payable": false,
      "stateMutability": "view",
      "type": "function"
    },
    {
      "constant": false,
      "inputs": [],
      "name": "renounceOwnership",
      "outputs": [],
      "payable": false,
      "stateMutability": "nonpayable",
      "type": "function"
    },
    {
      "constant": true,
      "inputs": [
        {
          "name": "voter",
          "type": "address"
        }
      ],
      "name": "votesOf",
      "outputs": [
        {
          "name": "",
          "type": "uint256"
        }
      ],
      "payable": false,
      "stateMutability": "view",
      "type": "function"
    },
    {
      "constant": true,
      "inputs": [],
      "name": "owner",
      "outputs": [
        {
          "name": "",
          "type": "address"
        }
      ],
      "payable": false,
      "stateMutability": "view",
      "type": "function"
    },
    {
      "constant": true,
      "inputs": [],
      "name": "id",
      "outputs": [
        {
          "name": "",
          "type": "uint256"
        }
      ],
      "payable": false,
      "stateMutability": "view",
      "type": "function"
    },
    {
      "constant": true,
      "inputs": [],
      "name": "dividendWallet",
      "outputs": [
        {
          "name": "",
          "type": "address"
        }
      ],
      "payable": false,
      "stateMutability": "view",
      "type": "function"
    },
    {
      "constant": true,
      "inputs": [],
      "name": "_owner",
      "outputs": [
        {
          "name": "",
          "type": "address"
        }
      ],
      "payable": false,
      "stateMutability": "view",
      "type": "function"
    },
    {
      "constant": true,
      "inputs": [],
      "name": "openingTime",
      "outputs": [
        {
          "name": "",
          "type": "uint256"
        }
      ],
      "payable": false,
      "stateMutability": "view",
      "type": "function"
    },
    {
      "constant": true,
      "inputs": [],
      "name": "primary",
      "outputs": [
        {
          "name": "",
          "type": "address"
        }
      ],
      "payable": false,
      "stateMutability": "view",
      "type": "function"
    },
    {
      "constant": true,
      "inputs": [],
      "name": "developer",
      "outputs": [
        {
          "name": "",
          "type": "address"
        }
      ],
      "payable": false,
      "stateMutability": "view",
      "type": "function"
    },
    {
      "constant": false,
      "inputs": [
        {
          "name": "_id",
          "type": "uint256"
        }
      ],
      "name": "setId",
      "outputs": [],
      "payable": false,
      "stateMutability": "nonpayable",
      "type": "function"
    },
    {
      "constant": false,
      "inputs": [],
      "name": "deposit",
      "outputs": [],
      "payable": true,
      "stateMutability": "payable",
      "type": "function"
    },
    {
      "constant": true,
      "inputs": [],
      "name": "activationTime",
      "outputs": [
        {
          "name": "",
          "type": "uint256"
        }
      ],
      "payable": false,
      "stateMutability": "view",
      "type": "function"
    },
    {
      "constant": true,
      "inputs": [],
      "name": "cashFlow",
      "outputs": [
        {
          "name": "",
          "type": "string"
        }
      ],
      "payable": false,
      "stateMutability": "view",
      "type": "function"
    },
    {
      "constant": true,
      "inputs": [],
      "name": "capitalRequired",
      "outputs": [
        {
          "name": "",
          "type": "uint256"
        }
      ],
      "payable": false,
      "stateMutability": "view",
      "type": "function"
    },
    {
      "constant": false,
      "inputs": [
        {
          "name": "methodName",
          "type": "string"
        }
      ],
      "name": "resetMethod",
      "outputs": [],
      "payable": false,
      "stateMutability": "nonpayable",
      "type": "function"
    },
    {
      "inputs": [
        {
          "name": "_projectInfo",
          "type": "string"
        },
        {
          "name": "_developer",
          "type": "address"
        },
        {
          "name": "_valuation",
          "type": "uint256"
        },
        {
          "name": "_capitalRequired",
          "type": "uint256"
        },
        {
          "name": "_developerTokens",
          "type": "uint256"
        },
        {
          "name": "_investorTokens",
          "type": "uint256"
        },
        {
          "name": "_cashFlow",
          "type": "string"
        },
        {
          "name": "_mockVotes",
          "type": "uint256"
        },
        {
          "name": "_dividendWallet",
          "type": "address"
        }
      ],
      "payable": false,
      "stateMutability": "nonpayable",
      "type": "constructor"
    },
    {
      "payable": true,
      "stateMutability": "payable",
      "type": "fallback"
    },
    {
      "anonymous": false,
      "inputs": [
        {
          "indexed": false,
          "name": "weiAmount",
          "type": "uint256"
        },
        {
          "indexed": false,
          "name": "time",
          "type": "uint256"
        },
        {
          "indexed": false,
          "name": "projectId",
          "type": "uint256"
        }
      ],
      "name": "ReceiveCashFlow",
      "type": "event"
    },
    {
      "anonymous": false,
      "inputs": [
        {
          "indexed": false,
          "name": "recipient",
          "type": "address"
        }
      ],
      "name": "PrimaryTransferred",
      "type": "event"
    },
    {
      "anonymous": false,
      "inputs": [
        {
          "indexed": true,
          "name": "previousOwner",
          "type": "address"
        }
      ],
      "name": "OwnershipRenounced",
      "type": "event"
    },
    {
      "anonymous": false,
      "inputs": [
        {
          "indexed": true,
          "name": "previousOwner",
          "type": "address"
        },
        {
          "indexed": true,
          "name": "newOwner",
          "type": "address"
        }
      ],
      "name": "OwnershipTransferred",
      "type": "event"
    },
    {
      "constant": false,
      "inputs": [
        {
          "name": "mockVotes",
          "type": "uint256"
        }
      ],
      "name": "setMockVotes",
      "outputs": [],
      "payable": false,
      "stateMutability": "nonpayable",
      "type": "function"
    },
    {
      "constant": false,
      "inputs": [
        {
          "name": "time",
          "type": "uint256"
        }
      ],
      "name": "setStubClosingTime",
      "outputs": [],
      "payable": false,
      "stateMutability": "nonpayable",
      "type": "function"
    },
    {
      "constant": false,
      "inputs": [
        {
          "name": "voter",
          "type": "address"
        },
        {
          "name": "voteAmount",
          "type": "uint256"
        }
      ],
      "name": "vote",
      "outputs": [],
      "payable": false,
      "stateMutability": "nonpayable",
      "type": "function"
    },
    {
      "constant": false,
      "inputs": [
        {
          "name": "voter",
          "type": "address"
        },
        {
          "name": "voteAmount",
          "type": "uint256"
        }
      ],
      "name": "voteAgainst",
      "outputs": [],
      "payable": false,
      "stateMutability": "nonpayable",
      "type": "function"
    },
    {
      "constant": false,
      "inputs": [
        {
          "name": "voter",
          "type": "address"
        },
        {
          "name": "voteAmount",
          "type": "uint256"
        }
      ],
      "name": "removeVotes",
      "outputs": [],
      "payable": false,
      "stateMutability": "nonpayable",
      "type": "function"
    },
    {
      "constant": false,
      "inputs": [
        {
          "name": "status",
          "type": "bool"
        }
      ],
      "name": "setStubActiveStatus",
      "outputs": [],
      "payable": false,
      "stateMutability": "nonpayable",
      "type": "function"
    },
    {
      "constant": false,
      "inputs": [
        {
          "name": "status",
          "type": "bool"
        }
      ],
      "name": "setStubOpenStatus",
      "outputs": [],
      "payable": false,
      "stateMutability": "nonpayable",
      "type": "function"
    },
    {
      "constant": true,
      "inputs": [],
      "name": "open",
      "outputs": [
        {
          "name": "",
          "type": "bool"
        }
      ],
      "payable": false,
      "stateMutability": "view",
      "type": "function"
    },
    {
      "constant": false,
      "inputs": [
        {
          "name": "cap",
          "type": "uint256"
        }
      ],
      "name": "setStubCapRequired",
      "outputs": [],
      "payable": false,
      "stateMutability": "nonpayable",
      "type": "function"
    },
    {
      "constant": true,
      "inputs": [],
      "name": "capitalRequired_",
      "outputs": [
        {
          "name": "",
          "type": "uint256"
        }
      ],
      "payable": false,
      "stateMutability": "view",
      "type": "function"
    },
    {
      "constant": false,
      "inputs": [],
      "name": "activate",
      "outputs": [
        {
          "name": "",
          "type": "uint256"
        }
      ],
      "payable": false,
      "stateMutability": "nonpayable",
      "type": "function"
    },
    {
      "constant": false,
      "inputs": [
        {
          "name": "voter",
          "type": "address"
        },
        {
          "name": "amount",
          "type": "uint256"
        }
      ],
      "name": "setMockVotesOf",
      "outputs": [],
      "payable": false,
      "stateMutability": "nonpayable",
      "type": "function"
    },
    {
      "constant": false,
      "inputs": [
        {
          "name": "a",
          "type": "address"
        }
      ],
      "name": "transferOwnership",
      "outputs": [],
      "payable": false,
      "stateMutability": "nonpayable",
      "type": "function"
    },
    {
      "constant": false,
      "inputs": [
        {
          "name": "a",
          "type": "address"
        }
      ],
      "name": "transferPrimary",
      "outputs": [],
      "payable": false,
      "stateMutability": "nonpayable",
      "type": "function"
    }
  ],
  "bytecode": "0x608060405262989680601655629896806017553480156200001f57600080fd5b50604051620029b8380380620029b88339810180604052810190808051820192919060200180519060200190929190805190602001909291908051906020019092919080519060200190929190805190602001909291908051820192919060200180519060200190929190805190602001909291905050508888888888888887336000806101000a81548173ffffffffffffffffffffffffffffffffffffffff021916908373ffffffffffffffffffffffffffffffffffffffff16021790555033600260006101000a81548173ffffffffffffffffffffffffffffffffffffffff021916908373ffffffffffffffffffffffffffffffffffffffff1602179055507f4101e71e974f68df5e9730cc223280b41654676bbb052cdcc735c3337e64d2d9600260009054906101000a900473ffffffffffffffffffffffffffffffffffffffff16604051808273ffffffffffffffffffffffffffffffffffffffff1673ffffffffffffffffffffffffffffffffffffffff16815260200191505060405180910390a18760049080519060200190620001bd929190620002ca565b5086600560006101000a81548173ffffffffffffffffffffffffffffffffffffffff021916908373ffffffffffffffffffffffffffffffffffffffff1602179055508560098190555084600a8190555083600b8190555082600c8190555081600d908051906020019062000233929190620002ca565b506000600e819055506000600f60006101000a81548160ff0219169083151502179055504260078190555063013d2380420160088190555080600660006101000a81548173ffffffffffffffffffffffffffffffffffffffff021916908373ffffffffffffffffffffffffffffffffffffffff160217905550505050505050505081600e8190555050505050505050505062000379565b828054600181600116156101000203166002900490600052602060002090601f016020900481019282601f106200030d57805160ff19168380011785556200033e565b828001600101855582156200033e579182015b828111156200033d57825182559160200191906001019062000320565b5b5090506200034d919062000351565b5090565b6200037691905b808211156200037257600081600090555060010162000358565b5090565b90565b61262f80620003896000396000f3006080604052600436106101f8576000357c0100000000000000000000000000000000000000000000000000000000900463ffffffff1680624dcde5146101fa57806302fb0c5e1461022557806308555f05146102545780630d15fd77146102815780630f15f4c0146102ac578063185b6910146102d757806321a7cfe41461036757806321fa7025146103925780632348238c146103df5780632d06177a1461042257806330d958e0146104655780633bc5de30146104b25780634b6753bc146105ef57806351542e3a1461061a578063547d8020146106835780635b184f88146109015780635f74bbde146109445780636417d7b014610991578063715018a6146109bc578063736caeda146109d357806375610f8d14610a0257806379ec5d3a14610a315780638da5cb5b14610a88578063af640d0f14610adf578063b0e0116414610b0a578063b2bdfa7b14610b61578063b7a8807c14610bb8578063c6dbdf6114610be3578063ca4b208b14610c3a578063ce6a088014610c91578063d0e0ba9514610cde578063d0e30db014610d0b578063d4cf7db614610d15578063da4493f614610d40578063e23b5bec14610d6b578063e5279d8d14610dfb578063ea8fabfe14610e28578063ec61b08614610e55578063f2fde38b14610e80578063f427b13514610ec3578063fcfff16f14610f2c575b005b34801561020657600080fd5b5061020f610f5b565b6040518082815260200191505060405180910390f35b34801561023157600080fd5b5061023a610f61565b604051808215151515815260200191505060405180910390f35b34801561026057600080fd5b5061027f60048036038101908080359060200190929190505050610f74565b005b34801561028d57600080fd5b50610296610f7e565b6040518082815260200191505060405180910390f35b3480156102b857600080fd5b506102c1610f84565b6040518082815260200191505060405180910390f35b3480156102e357600080fd5b506102ec610feb565b6040518080602001828103825283818151815260200191508051906020019080838360005b8381101561032c578082015181840152602081019050610311565b50505050905090810190601f1680156103595780820380516001836020036101000a031916815260200191505b509250505060405180910390f35b34801561037357600080fd5b5061037c611089565b6040518082815260200191505060405180910390f35b34801561039e57600080fd5b506103dd600480360381019080803573ffffffffffffffffffffffffffffffffffffffff1690602001909291908035906020019092919050505061108f565b005b3480156103eb57600080fd5b50610420600480360381019080803573ffffffffffffffffffffffffffffffffffffffff169060200190929190505050611122565b005b34801561042e57600080fd5b50610463600480360381019080803573ffffffffffffffffffffffffffffffffffffffff1690602001909291905050506111c8565b005b34801561047157600080fd5b506104b0600480360381019080803573ffffffffffffffffffffffffffffffffffffffff169060200190929190803590602001909291905050506112da565b005b3480156104be57600080fd5b506104c7611322565b604051808673ffffffffffffffffffffffffffffffffffffffff1673ffffffffffffffffffffffffffffffffffffffff1681526020018060200185815260200184815260200180602001838103835287818151815260200191508051906020019080838360005b8381101561054957808201518184015260208101905061052e565b50505050905090810190601f1680156105765780820380516001836020036101000a031916815260200191505b50838103825284818151815260200191508051906020019080838360005b838110156105af578082015181840152602081019050610594565b50505050905090810190601f1680156105dc5780820380516001836020036101000a031916815260200191505b5097505050505050505060405180910390f35b3480156105fb57600080fd5b5061060461147f565b6040518082815260200191505060405180910390f35b34801561062657600080fd5b50610681600480360381019080803590602001908201803590602001908080601f0160208091040260200160405190810160405280939291908181526020018383808284378201915050505050509192919290505050611485565b005b34801561068f57600080fd5b506106ea600480360381019080803590602001908201803590602001908080601f016020809104026020016040519081016040528093929190818152602001838380828437820191505050505050919291929050505061168d565b604051808c81526020018b81526020018a81526020018060200180602001806020018973ffffffffffffffffffffffffffffffffffffffff1673ffffffffffffffffffffffffffffffffffffffff1681526020018873ffffffffffffffffffffffffffffffffffffffff1673ffffffffffffffffffffffffffffffffffffffff1681526020018773ffffffffffffffffffffffffffffffffffffffff1673ffffffffffffffffffffffffffffffffffffffff168152602001861515151581526020018515151515815260200184810384528c818151815260200191508051906020019080838360005b838110156107ee5780820151818401526020810190506107d3565b50505050905090810190601f16801561081b5780820380516001836020036101000a031916815260200191505b5084810383528b818151815260200191508051906020019080838360005b83811015610854578082015181840152602081019050610839565b50505050905090810190601f1680156108815780820380516001836020036101000a031916815260200191505b5084810382528a818151815260200191508051906020019080838360005b838110156108ba57808201518184015260208101905061089f565b50505050905090810190601f1680156108e75780820380516001836020036101000a031916815260200191505b509e50505050505050505050505050505060405180910390f35b34801561090d57600080fd5b50610942600480360381019080803573ffffffffffffffffffffffffffffffffffffffff169060200190929190505050611ac6565b005b34801561095057600080fd5b5061098f600480360381019080803573ffffffffffffffffffffffffffffffffffffffff16906020019092919080359060200190929190505050611bc1565b005b34801561099d57600080fd5b506109a6611c54565b6040518082815260200191505060405180910390f35b3480156109c857600080fd5b506109d1611c5a565b005b3480156109df57600080fd5b50610a00600480360381019080803515159060200190929190505050611d5c565b005b348015610a0e57600080fd5b50610a2f600480360381019080803515159060200190929190505050611d79565b005b348015610a3d57600080fd5b50610a72600480360381019080803573ffffffffffffffffffffffffffffffffffffffff169060200190929190505050611d96565b6040518082815260200191505060405180910390f35b348015610a9457600080fd5b50610a9d611ddf565b604051808273ffffffffffffffffffffffffffffffffffffffff1673ffffffffffffffffffffffffffffffffffffffff16815260200191505060405180910390f35b348015610aeb57600080fd5b50610af4611e04565b6040518082815260200191505060405180910390f35b348015610b1657600080fd5b50610b1f611e0a565b604051808273ffffffffffffffffffffffffffffffffffffffff1673ffffffffffffffffffffffffffffffffffffffff16815260200191505060405180910390f35b348015610b6d57600080fd5b50610b76611e30565b604051808273ffffffffffffffffffffffffffffffffffffffff1673ffffffffffffffffffffffffffffffffffffffff16815260200191505060405180910390f35b348015610bc457600080fd5b50610bcd611e59565b6040518082815260200191505060405180910390f35b348015610bef57600080fd5b50610bf8611e5f565b604051808273ffffffffffffffffffffffffffffffffffffffff1673ffffffffffffffffffffffffffffffffffffffff16815260200191505060405180910390f35b348015610c4657600080fd5b50610c4f611e89565b604051808273ffffffffffffffffffffffffffffffffffffffff1673ffffffffffffffffffffffffffffffffffffffff16815260200191505060405180910390f35b348015610c9d57600080fd5b50610cdc600480360381019080803573ffffffffffffffffffffffffffffffffffffffff16906020019092919080359060200190929190505050611eaf565b005b348015610cea57600080fd5b50610d0960048036038101908080359060200190929190505050611f42565b005b610d13611fa7565b005b348015610d2157600080fd5b50610d2a6120a6565b6040518082815260200191505060405180910390f35b348015610d4c57600080fd5b50610d556120b0565b6040518082815260200191505060405180910390f35b348015610d7757600080fd5b50610d806120b6565b6040518080602001828103825283818151815260200191508051906020019080838360005b83811015610dc0578082015181840152602081019050610da5565b50505050905090810190601f168015610ded5780820380516001836020036101000a031916815260200191505b509250505060405180910390f35b348015610e0757600080fd5b50610e2660048036038101908080359060200190929190505050612154565b005b348015610e3457600080fd5b50610e536004803603810190808035906020019092919050505061215e565b005b348015610e6157600080fd5b50610e6a612168565b6040518082815260200191505060405180910390f35b348015610e8c57600080fd5b50610ec1600480360381019080803573ffffffffffffffffffffffffffffffffffffffff16906020019092919050505061216e565b005b348015610ecf57600080fd5b50610f2a600480360381019080803590602001908201803590602001908080601f0160208091040260200160405190810160405280939291908181526020018383808284378201915050505050509192919290505050612214565b005b348015610f3857600080fd5b50610f41612426565b604051808215151515815260200191505060405180910390f35b60175481565b600f60009054906101000a900460ff1681565b80600e8190555050565b600e5481565b600080601360405180807f616374697661746500000000000000000000000000000000000000000000000081525060080190509081526020016040518091039020905060018160080160146101000a81548160ff0219169083151502179055504291505090565b60048054600181600116156101000203166002900480601f0160208091040260200160405190810160405280929190818152602001828054600181600116156101000203166002900480156110815780601f1061105657610100808354040283529160200191611081565b820191906000526020600020905b81548152906001019060200180831161106457829003601f168201915b505050505081565b60095481565b6000601360405180807f766f7465416761696e7374000000000000000000000000000000000000000000815250600b01905090815260200160405180910390209050828160060160006101000a81548173ffffffffffffffffffffffffffffffffffffffff021916908373ffffffffffffffffffffffffffffffffffffffff160217905550818160000181905550505050565b6000601360405180807f7472616e736665725072696d6172790000000000000000000000000000000000815250600f01905090815260200160405180910390209050818160060160006101000a81548173ffffffffffffffffffffffffffffffffffffffff021916908373ffffffffffffffffffffffffffffffffffffffff16021790555060018160080160146101000a81548160ff0219169083151502179055505050565b60011515601260003373ffffffffffffffffffffffffffffffffffffffff1673ffffffffffffffffffffffffffffffffffffffff16815260200190815260200160002060009054906101000a900460ff16151514806112745750600560009054906101000a900473ffffffffffffffffffffffffffffffffffffffff1673ffffffffffffffffffffffffffffffffffffffff163373ffffffffffffffffffffffffffffffffffffffff16145b151561127f57600080fd5b6001601260008373ffffffffffffffffffffffffffffffffffffffff1673ffffffffffffffffffffffffffffffffffffffff16815260200190815260200160002060006101000a81548160ff02191690831515021790555050565b80601160008473ffffffffffffffffffffffffffffffffffffffff1673ffffffffffffffffffffffffffffffffffffffff168152602001908152602001600020819055505050565b600060606000806060306004600a54600954600d838054600181600116156101000203166002900480601f0160208091040260200160405190810160405280929190818152602001828054600181600116156101000203166002900480156113cb5780601f106113a0576101008083540402835291602001916113cb565b820191906000526020600020905b8154815290600101906020018083116113ae57829003601f168201915b50505050509350808054600181600116156101000203166002900480601f0160208091040260200160405190810160405280929190818152602001828054600181600116156101000203166002900480156114675780601f1061143c57610100808354040283529160200191611467565b820191906000526020600020905b81548152906001019060200180831161144a57829003601f168201915b50505050509050945094509450945094509091929394565b60085481565b61148d61243d565b806013836040518082805190602001908083835b6020831015156114c657805182526020820191506020810190506020830392506114a1565b6001836020036101000a038019825116818451168082178552505050505050905001915050908152602001604051809103902060008201518160000155602082015181600101556040820151816002015560608201518160030190805190602001906115339291906124de565b5060808201518160040190805190602001906115509291906124de565b5060a082015181600501908051906020019061156d9291906124de565b5060c08201518160060160006101000a81548173ffffffffffffffffffffffffffffffffffffffff021916908373ffffffffffffffffffffffffffffffffffffffff16021790555060e08201518160070160006101000a81548173ffffffffffffffffffffffffffffffffffffffff021916908373ffffffffffffffffffffffffffffffffffffffff1602179055506101008201518160080160006101000a81548173ffffffffffffffffffffffffffffffffffffffff021916908373ffffffffffffffffffffffffffffffffffffffff1602179055506101208201518160080160146101000a81548160ff0219169083151502179055506101408201518160080160156101000a81548160ff0219169083151502179055509050505050565b6000806000606080606060008060008060006116a761243d565b60138d6040518082805190602001908083835b6020831015156116df57805182526020820191506020810190506020830392506116ba565b6001836020036101000a03801982511681845116808217855250505050505090500191505090815260200160405180910390206101606040519081016040529081600082015481526020016001820154815260200160028201548152602001600382018054600181600116156101000203166002900480601f0160208091040260200160405190810160405280929190818152602001828054600181600116156101000203166002900480156117d65780601f106117ab576101008083540402835291602001916117d6565b820191906000526020600020905b8154815290600101906020018083116117b957829003601f168201915b50505050508152602001600482018054600181600116156101000203166002900480601f0160208091040260200160405190810160405280929190818152602001828054600181600116156101000203166002900480156118785780601f1061184d57610100808354040283529160200191611878565b820191906000526020600020905b81548152906001019060200180831161185b57829003601f168201915b50505050508152602001600582018054600181600116156101000203166002900480601f01602080910402602001604051908101604052809291908181526020018280546001816001161561010002031660029004801561191a5780601f106118ef5761010080835404028352916020019161191a565b820191906000526020600020905b8154815290600101906020018083116118fd57829003601f168201915b505050505081526020016006820160009054906101000a900473ffffffffffffffffffffffffffffffffffffffff1673ffffffffffffffffffffffffffffffffffffffff1673ffffffffffffffffffffffffffffffffffffffff1681526020016007820160009054906101000a900473ffffffffffffffffffffffffffffffffffffffff1673ffffffffffffffffffffffffffffffffffffffff1673ffffffffffffffffffffffffffffffffffffffff1681526020016008820160009054906101000a900473ffffffffffffffffffffffffffffffffffffffff1673ffffffffffffffffffffffffffffffffffffffff1673ffffffffffffffffffffffffffffffffffffffff1681526020016008820160149054906101000a900460ff161515151581526020016008820160159054906101000a900460ff1615151515815250509050806000015181602001518260400151836060015184608001518560a001518660c001518760e001518861010001518961012001518a61014001518797508696508595509b509b509b509b509b509b509b509b509b509b509b505091939597999b90929496989a50565b60011515601260003373ffffffffffffffffffffffffffffffffffffffff1673ffffffffffffffffffffffffffffffffffffffff16815260200190815260200160002060009054906101000a900460ff1615151480611b725750600560009054906101000a900473ffffffffffffffffffffffffffffffffffffffff1673ffffffffffffffffffffffffffffffffffffffff163373ffffffffffffffffffffffffffffffffffffffff16145b1515611b7d57600080fd5b80600660006101000a81548173ffffffffffffffffffffffffffffffffffffffff021916908373ffffffffffffffffffffffffffffffffffffffff16021790555050565b6000601360405180807f766f746500000000000000000000000000000000000000000000000000000000815250600401905090815260200160405180910390209050828160060160006101000a81548173ffffffffffffffffffffffffffffffffffffffff021916908373ffffffffffffffffffffffffffffffffffffffff160217905550818160000181905550505050565b60165481565b6000809054906101000a900473ffffffffffffffffffffffffffffffffffffffff1673ffffffffffffffffffffffffffffffffffffffff163373ffffffffffffffffffffffffffffffffffffffff16141515611cb557600080fd5b6000809054906101000a900473ffffffffffffffffffffffffffffffffffffffff1673ffffffffffffffffffffffffffffffffffffffff167ff8df31144d9c2f0f6b59d69b8b98abd5459d07f2742c4df920b25aae33c6482060405160405180910390a260008060006101000a81548173ffffffffffffffffffffffffffffffffffffffff021916908373ffffffffffffffffffffffffffffffffffffffff160217905550565b80600f60006101000a81548160ff02191690831515021790555050565b80601460016101000a81548160ff02191690831515021790555050565b6000601160008373ffffffffffffffffffffffffffffffffffffffff1673ffffffffffffffffffffffffffffffffffffffff168152602001908152602001600020549050919050565b6000809054906101000a900473ffffffffffffffffffffffffffffffffffffffff1681565b60035481565b600660009054906101000a900473ffffffffffffffffffffffffffffffffffffffff1681565b60008060009054906101000a900473ffffffffffffffffffffffffffffffffffffffff16905090565b60075481565b6000600260009054906101000a900473ffffffffffffffffffffffffffffffffffffffff16905090565b600560009054906101000a900473ffffffffffffffffffffffffffffffffffffffff1681565b6000601360405180807f72656d6f7665566f746573000000000000000000000000000000000000000000815250600b01905090815260200160405180910390209050828160060160006101000a81548173ffffffffffffffffffffffffffffffffffffffff021916908373ffffffffffffffffffffffffffffffffffffffff160217905550818160000181905550505050565b6000809054906101000a900473ffffffffffffffffffffffffffffffffffffffff1673ffffffffffffffffffffffffffffffffffffffff163373ffffffffffffffffffffffffffffffffffffffff16141515611f9d57600080fd5b8060038190555050565b6000803414151515611fb857600080fd5b3490507f4ca4c4557746646003ffe00cc5d5e72187ecb79a775e987dee0daed551f31bc6344260035460405180848152602001838152602001828152602001935050505060405180910390a1600660009054906101000a900473ffffffffffffffffffffffffffffffffffffffff1673ffffffffffffffffffffffffffffffffffffffff166379fc4687826040518263ffffffff167c01000000000000000000000000000000000000000000000000000000000281526004016000604051808303818588803b15801561208a57600080fd5b505af115801561209e573d6000803e3d6000fd5b505050505050565b6000601554905090565b60105481565b600d8054600181600116156101000203166002900480601f01602080910402602001604051908101604052809291908181526020018280546001816001161561010002031660029004801561214c5780601f106121215761010080835404028352916020019161214c565b820191906000526020600020905b81548152906001019060200180831161212f57829003601f168201915b505050505081565b8060158190555050565b8060088190555050565b600a5481565b6000601360405180807f7472616e736665724f776e657273686970000000000000000000000000000000815250601101905090815260200160405180910390209050818160060160006101000a81548173ffffffffffffffffffffffffffffffffffffffff021916908373ffffffffffffffffffffffffffffffffffffffff16021790555060018160080160146101000a81548160ff0219169083151502179055505050565b60006013826040518082805190602001908083835b60208310151561224e5780518252602082019150602081019050602083039250612229565b6001836020036101000a0380198251168184511680821785525050505050509050019150509081526020016040518091039020905060008160000181905550600081600101819055506000816002018190555060206040519081016040528060008152508160030190805190602001906122c992919061255e565b5060206040519081016040528060008152508160040190805190602001906122f292919061255e565b50602060405190810160405280600081525081600501908051906020019061231b92919061255e565b5060008160060160006101000a81548173ffffffffffffffffffffffffffffffffffffffff021916908373ffffffffffffffffffffffffffffffffffffffff16021790555060008160070160006101000a81548173ffffffffffffffffffffffffffffffffffffffff021916908373ffffffffffffffffffffffffffffffffffffffff16021790555060008160080160006101000a81548173ffffffffffffffffffffffffffffffffffffffff021916908373ffffffffffffffffffffffffffffffffffffffff16021790555060008160080160146101000a81548160ff02191690831515021790555060008160080160156101000a81548160ff0219169083151502179055505050565b6000601460019054906101000a900460ff16905090565b61016060405190810160405280600081526020016000815260200160008152602001606081526020016060815260200160608152602001600073ffffffffffffffffffffffffffffffffffffffff168152602001600073ffffffffffffffffffffffffffffffffffffffff168152602001600073ffffffffffffffffffffffffffffffffffffffff1681526020016000151581526020016000151581525090565b828054600181600116156101000203166002900490600052602060002090601f016020900481019282601f1061251f57805160ff191683800117855561254d565b8280016001018555821561254d579182015b8281111561254c578251825591602001919060010190612531565b5b50905061255a91906125de565b5090565b828054600181600116156101000203166002900490600052602060002090601f016020900481019282601f1061259f57805160ff19168380011785556125cd565b828001600101855582156125cd579182015b828111156125cc5782518255916020019190600101906125b1565b5b5090506125da91906125de565b5090565b61260091905b808211156125fc5760008160009055506001016125e4565b5090565b905600a165627a7a723058209d3062835064cf98d251db2b903f10acf25060ae642bacd3963f65abfbc02c940029",
  "source": "pragma solidity >=0.4.22 <0.6.0;\r\nimport './Project.sol';\r\nimport '../ContractStub.sol';\r\n\r\ncontract ProjectStub is Project, ContractStub {\r\n  constructor (\r\n    string memory _projectInfo,\r\n    address _developer,\r\n    uint256 _valuation,\r\n    uint256 _capitalRequired,\r\n    uint256 _developerTokens,\r\n    uint256 _investorTokens,\r\n    string _cashFlow,\r\n    uint256 _mockVotes,\r\n    address _dividendWallet\r\n    )\r\n    public\r\n    Project(\r\n      _projectInfo,\r\n      _developer,\r\n      _valuation,\r\n      _capitalRequired,\r\n      _developerTokens,\r\n      _investorTokens,\r\n      _cashFlow,\r\n      _dividendWallet\r\n      )\r\n      {\r\n    totalVotes = _mockVotes;\r\n  }\r\n\r\n  function setMockVotes (uint256 mockVotes) public {\r\n    totalVotes = mockVotes;\r\n  }\r\n\r\n  function setStubClosingTime (uint256 time) public {\r\n    closingTime = time;\r\n  }\r\n\r\n  function vote (address voter, uint256 voteAmount) external {\r\n    CallData storage methodState = method['vote'];\r\n    methodState.firstAddress = voter;\r\n    methodState.firstUint = voteAmount;\r\n  }\r\n\r\n  function voteAgainst (address voter, uint256 voteAmount) external {\r\n    CallData storage methodState = method['voteAgainst'];\r\n    methodState.firstAddress = voter;\r\n    methodState.firstUint = voteAmount;\r\n  }\r\n\r\n  function removeVotes (address voter, uint256 voteAmount) external {\r\n    CallData storage methodState = method['removeVotes'];\r\n    methodState.firstAddress = voter;\r\n    methodState.firstUint = voteAmount;\r\n  }\r\n\r\n  /* function removeVotes (address voter, uint256 voteAmount) external {\r\n    CallData storage methodState = method['removeVotes'];\r\n    if (methodState.firstAddress == address(0)) {\r\n      methodState.firstAddress = voter;\r\n      methodState.firstUint = voteAmount;\r\n    } else if (methodState.secondAddress == address(0)) {\r\n      methodState.secondAddress = voter;\r\n      methodState.secondUint = voteAmount;\r\n    } else {\r\n      methodState.thirdAddress = voter;\r\n      methodState.thirdUint = voteAmount;\r\n    }\r\n  } */\r\n\r\n  bool stubActiveStatus;\r\n\r\n  function setStubActiveStatus (bool status) public {\r\n    active = status;\r\n  }\r\n\r\n  bool stubOpenStatus;\r\n\r\n  function setStubOpenStatus (bool status) public {\r\n    stubOpenStatus = status;\r\n  }\r\n\r\n  function open () public view returns (bool) {\r\n    return stubOpenStatus;\r\n  }\r\n\r\n  uint256 stubCapRequired;\r\n\r\n  function setStubCapRequired (uint256 cap) public {\r\n    stubCapRequired = cap;\r\n  }\r\n\r\n  function capitalRequired_ () public view returns (uint256) {\r\n    return stubCapRequired;\r\n  }\r\n  uint256 public developerTokens = 10000000;\r\n  uint256 public investorTokens = 10000000;\r\n  /* function developerTokens () public returns (uint256) {\r\n    return 10000000;\r\n  }\r\n\r\n  function investorTokens () public returns (uint256) {\r\n    return 10000000;\r\n  } */\r\n\r\n  function activate () external returns(uint256){\r\n    CallData storage methodState = method['activate'];\r\n    methodState.called = true;\r\n    return now;\r\n  }\r\n\r\n  function setMockVotesOf (address voter, uint256 amount) public {\r\n    votes[voter] = amount;\r\n  }\r\n\r\n  function transferOwnership (address a) public {\r\n    CallData storage methodState = method[\"transferOwnership\"];\r\n    methodState.firstAddress = a;\r\n    methodState.called = true;\r\n  }\r\n\r\n  function transferPrimary (address a) public {\r\n    CallData storage methodState = method[\"transferPrimary\"];\r\n    methodState.firstAddress = a;\r\n    methodState.called = true;\r\n  }\r\n}\r\n",
  "sourcePath": "D:\\tetris\\SUWiserLLC_serge\\contracts\\project\\ProjectStub.sol",
  "compiler": {
    "name": "solc",
    "version": "0.4.24+commit.e67f0147.Emscripten.clang"
  },
  "schemaVersion": "2.0.1",
  "updatedAt": "2022-02-19T19:03:58.510Z"
}