{
  "contractName": "Project",
  "abi": [
    {
      "constant": true,
      "inputs": [],
      "name": "investorTokens",
      "outputs": [
        {
          "name": "",
          "type": "uint256"
        }
      ],
      "payable": false,
      "stateMutability": "view",
      "type": "function"
    },
    {
      "constant": true,
      "inputs": [],
      "name": "active",
      "outputs": [
        {
          "name": "",
          "type": "bool"
        }
      ],
      "payable": false,
      "stateMutability": "view",
      "type": "function"
    },
    {
      "constant": true,
      "inputs": [],
      "name": "totalVotes",
      "outputs": [
        {
          "name": "",
          "type": "uint256"
        }
      ],
      "payable": false,
      "stateMutability": "view",
      "type": "function"
    },
    {
      "constant": true,
      "inputs": [],
      "name": "projectInfo",
      "outputs": [
        {
          "name": "",
          "type": "string"
        }
      ],
      "payable": false,
      "stateMutability": "view",
      "type": "function"
    },
    {
      "constant": true,
      "inputs": [],
      "name": "valuation",
      "outputs": [
        {
          "name": "",
          "type": "uint256"
        }
      ],
      "payable": false,
      "stateMutability": "view",
      "type": "function"
    },
    {
      "constant": false,
      "inputs": [
        {
          "name": "recipient",
          "type": "address"
        }
      ],
      "name": "transferPrimary",
      "outputs": [],
      "payable": false,
      "stateMutability": "nonpayable",
      "type": "function"
    },
    {
      "constant": true,
      "inputs": [],
      "name": "closingTime",
      "outputs": [
        {
          "name": "",
          "type": "uint256"
        }
      ],
      "payable": false,
      "stateMutability": "view",
      "type": "function"
    },
    {
      "constant": true,
      "inputs": [],
      "name": "developerTokens",
      "outputs": [
        {
          "name": "",
          "type": "uint256"
        }
      ],
      "payable": false,
      "stateMutability": "view",
      "type": "function"
    },
    {
      "constant": false,
      "inputs": [],
      "name": "renounceOwnership",
      "outputs": [],
      "payable": false,
      "stateMutability": "nonpayable",
      "type": "function"
    },
    {
      "constant": true,
      "inputs": [],
      "name": "owner",
      "outputs": [
        {
          "name": "",
          "type": "address"
        }
      ],
      "payable": false,
      "stateMutability": "view",
      "type": "function"
    },
    {
      "constant": true,
      "inputs": [],
      "name": "id",
      "outputs": [
        {
          "name": "",
          "type": "uint256"
        }
      ],
      "payable": false,
      "stateMutability": "view",
      "type": "function"
    },
    {
      "constant": true,
      "inputs": [],
      "name": "dividendWallet",
      "outputs": [
        {
          "name": "",
          "type": "address"
        }
      ],
      "payable": false,
      "stateMutability": "view",
      "type": "function"
    },
    {
      "constant": true,
      "inputs": [],
      "name": "_owner",
      "outputs": [
        {
          "name": "",
          "type": "address"
        }
      ],
      "payable": false,
      "stateMutability": "view",
      "type": "function"
    },
    {
      "constant": true,
      "inputs": [],
      "name": "openingTime",
      "outputs": [
        {
          "name": "",
          "type": "uint256"
        }
      ],
      "payable": false,
      "stateMutability": "view",
      "type": "function"
    },
    {
      "constant": true,
      "inputs": [],
      "name": "primary",
      "outputs": [
        {
          "name": "",
          "type": "address"
        }
      ],
      "payable": false,
      "stateMutability": "view",
      "type": "function"
    },
    {
      "constant": true,
      "inputs": [],
      "name": "developer",
      "outputs": [
        {
          "name": "",
          "type": "address"
        }
      ],
      "payable": false,
      "stateMutability": "view",
      "type": "function"
    },
    {
      "constant": true,
      "inputs": [],
      "name": "activationTime",
      "outputs": [
        {
          "name": "",
          "type": "uint256"
        }
      ],
      "payable": false,
      "stateMutability": "view",
      "type": "function"
    },
    {
      "constant": true,
      "inputs": [],
      "name": "cashFlow",
      "outputs": [
        {
          "name": "",
          "type": "string"
        }
      ],
      "payable": false,
      "stateMutability": "view",
      "type": "function"
    },
    {
      "constant": true,
      "inputs": [],
      "name": "capitalRequired",
      "outputs": [
        {
          "name": "",
          "type": "uint256"
        }
      ],
      "payable": false,
      "stateMutability": "view",
      "type": "function"
    },
    {
      "constant": false,
      "inputs": [
        {
          "name": "_newOwner",
          "type": "address"
        }
      ],
      "name": "transferOwnership",
      "outputs": [],
      "payable": false,
      "stateMutability": "nonpayable",
      "type": "function"
    },
    {
      "inputs": [
        {
          "name": "_projectInfo",
          "type": "string"
        },
        {
          "name": "_developer",
          "type": "address"
        },
        {
          "name": "_valuation",
          "type": "uint256"
        },
        {
          "name": "_capitalRequired",
          "type": "uint256"
        },
        {
          "name": "_developerTokens",
          "type": "uint256"
        },
        {
          "name": "_investorTokens",
          "type": "uint256"
        },
        {
          "name": "_cashFlow",
          "type": "string"
        },
        {
          "name": "_dividendWallet",
          "type": "address"
        }
      ],
      "payable": false,
      "stateMutability": "nonpayable",
      "type": "constructor"
    },
    {
      "payable": true,
      "stateMutability": "payable",
      "type": "fallback"
    },
    {
      "anonymous": false,
      "inputs": [
        {
          "indexed": false,
          "name": "weiAmount",
          "type": "uint256"
        },
        {
          "indexed": false,
          "name": "time",
          "type": "uint256"
        },
        {
          "indexed": false,
          "name": "projectId",
          "type": "uint256"
        }
      ],
      "name": "ReceiveCashFlow",
      "type": "event"
    },
    {
      "anonymous": false,
      "inputs": [
        {
          "indexed": false,
          "name": "recipient",
          "type": "address"
        }
      ],
      "name": "PrimaryTransferred",
      "type": "event"
    },
    {
      "anonymous": false,
      "inputs": [
        {
          "indexed": true,
          "name": "previousOwner",
          "type": "address"
        }
      ],
      "name": "OwnershipRenounced",
      "type": "event"
    },
    {
      "anonymous": false,
      "inputs": [
        {
          "indexed": true,
          "name": "previousOwner",
          "type": "address"
        },
        {
          "indexed": true,
          "name": "newOwner",
          "type": "address"
        }
      ],
      "name": "OwnershipTransferred",
      "type": "event"
    },
    {
      "constant": false,
      "inputs": [
        {
          "name": "_id",
          "type": "uint256"
        }
      ],
      "name": "setId",
      "outputs": [],
      "payable": false,
      "stateMutability": "nonpayable",
      "type": "function"
    },
    {
      "constant": true,
      "inputs": [],
      "name": "getData",
      "outputs": [
        {
          "name": "",
          "type": "address"
        },
        {
          "name": "",
          "type": "string"
        },
        {
          "name": "",
          "type": "uint256"
        },
        {
          "name": "",
          "type": "uint256"
        },
        {
          "name": "",
          "type": "string"
        }
      ],
      "payable": false,
      "stateMutability": "view",
      "type": "function"
    },
    {
      "constant": true,
      "inputs": [
        {
          "name": "voter",
          "type": "address"
        }
      ],
      "name": "votesOf",
      "outputs": [
        {
          "name": "",
          "type": "uint256"
        }
      ],
      "payable": false,
      "stateMutability": "view",
      "type": "function"
    },
    {
      "constant": true,
      "inputs": [],
      "name": "open",
      "outputs": [
        {
          "name": "",
          "type": "bool"
        }
      ],
      "payable": false,
      "stateMutability": "view",
      "type": "function"
    },
    {
      "constant": false,
      "inputs": [],
      "name": "deposit",
      "outputs": [],
      "payable": true,
      "stateMutability": "payable",
      "type": "function"
    },
    {
      "constant": false,
      "inputs": [
        {
          "name": "manager",
          "type": "address"
        }
      ],
      "name": "addManager",
      "outputs": [],
      "payable": false,
      "stateMutability": "nonpayable",
      "type": "function"
    },
    {
      "constant": false,
      "inputs": [
        {
          "name": "wallet",
          "type": "address"
        }
      ],
      "name": "setDividendWallet",
      "outputs": [],
      "payable": false,
      "stateMutability": "nonpayable",
      "type": "function"
    },
    {
      "constant": false,
      "inputs": [
        {
          "name": "voter",
          "type": "address"
        },
        {
          "name": "voteAmount",
          "type": "uint256"
        }
      ],
      "name": "vote",
      "outputs": [],
      "payable": false,
      "stateMutability": "nonpayable",
      "type": "function"
    },
    {
      "constant": false,
      "inputs": [
        {
          "name": "voter",
          "type": "address"
        },
        {
          "name": "voteAmount",
          "type": "uint256"
        }
      ],
      "name": "voteAgainst",
      "outputs": [],
      "payable": false,
      "stateMutability": "nonpayable",
      "type": "function"
    },
    {
      "constant": false,
      "inputs": [
        {
          "name": "voter",
          "type": "address"
        },
        {
          "name": "voteAmount",
          "type": "uint256"
        }
      ],
      "name": "removeVotes",
      "outputs": [],
      "payable": false,
      "stateMutability": "nonpayable",
      "type": "function"
    },
    {
      "constant": false,
      "inputs": [],
      "name": "activate",
      "outputs": [
        {
          "name": "",
          "type": "uint256"
        }
      ],
      "payable": false,
      "stateMutability": "nonpayable",
      "type": "function"
    }
  ],
  "bytecode": "0x60806040523480156200001157600080fd5b5060405162001d3938038062001d398339810180604052810190808051820192919060200180519060200190929190805190602001909291908051906020019092919080519060200190929190805190602001909291908051820192919060200180519060200190929190505050336000806101000a81548173ffffffffffffffffffffffffffffffffffffffff021916908373ffffffffffffffffffffffffffffffffffffffff16021790555033600260006101000a81548173ffffffffffffffffffffffffffffffffffffffff021916908373ffffffffffffffffffffffffffffffffffffffff1602179055507f4101e71e974f68df5e9730cc223280b41654676bbb052cdcc735c3337e64d2d9600260009054906101000a900473ffffffffffffffffffffffffffffffffffffffff16604051808273ffffffffffffffffffffffffffffffffffffffff1673ffffffffffffffffffffffffffffffffffffffff16815260200191505060405180910390a187600490805190602001906200019d9291906200029a565b5086600560006101000a81548173ffffffffffffffffffffffffffffffffffffffff021916908373ffffffffffffffffffffffffffffffffffffffff1602179055508560098190555084600a8190555083600b8190555082600c8190555081600d9080519060200190620002139291906200029a565b506000600e819055506000600f60006101000a81548160ff0219169083151502179055504260078190555063013d2380420160088190555080600660006101000a81548173ffffffffffffffffffffffffffffffffffffffff021916908373ffffffffffffffffffffffffffffffffffffffff160217905550505050505050505062000349565b828054600181600116156101000203166002900490600052602060002090601f016020900481019282601f10620002dd57805160ff19168380011785556200030e565b828001600101855582156200030e579182015b828111156200030d578251825591602001919060010190620002f0565b5b5090506200031d919062000321565b5090565b6200034691905b808211156200034257600081600090555060010162000328565b5090565b90565b6119e080620003596000396000f30060806040526004361061018a576000357c0100000000000000000000000000000000000000000000000000000000900463ffffffff1680624dcde51461018c57806302fb0c5e146101b75780630d15fd77146101e65780630f15f4c014610211578063185b69101461023c57806321a7cfe4146102cc57806321fa7025146102f75780632348238c146103445780632d06177a146103875780633bc5de30146103ca5780634b6753bc146105075780635b184f88146105325780635f74bbde146105755780636417d7b0146105c2578063715018a6146105ed57806379ec5d3a146106045780638da5cb5b1461065b578063af640d0f146106b2578063b0e01164146106dd578063b2bdfa7b14610734578063b7a8807c1461078b578063c6dbdf61146107b6578063ca4b208b1461080d578063ce6a088014610864578063d0e0ba95146108b1578063d0e30db0146108de578063da4493f6146108e8578063e23b5bec14610913578063ec61b086146109a3578063f2fde38b146109ce578063fcfff16f14610a11575b005b34801561019857600080fd5b506101a1610a40565b6040518082815260200191505060405180910390f35b3480156101c357600080fd5b506101cc610a46565b604051808215151515815260200191505060405180910390f35b3480156101f257600080fd5b506101fb610a59565b6040518082815260200191505060405180910390f35b34801561021d57600080fd5b50610226610a5f565b6040518082815260200191505060405180910390f35b34801561024857600080fd5b50610251610ae7565b6040518080602001828103825283818151815260200191508051906020019080838360005b83811015610291578082015181840152602081019050610276565b50505050905090810190601f1680156102be5780820380516001836020036101000a031916815260200191505b509250505060405180910390f35b3480156102d857600080fd5b506102e1610b85565b6040518082815260200191505060405180910390f35b34801561030357600080fd5b50610342600480360381019080803573ffffffffffffffffffffffffffffffffffffffff16906020019092919080359060200190929190505050610b8b565b005b34801561035057600080fd5b50610385600480360381019080803573ffffffffffffffffffffffffffffffffffffffff169060200190929190505050610c07565b005b34801561039357600080fd5b506103c8600480360381019080803573ffffffffffffffffffffffffffffffffffffffff169060200190929190505050610d68565b005b3480156103d657600080fd5b506103df610e7a565b604051808673ffffffffffffffffffffffffffffffffffffffff1673ffffffffffffffffffffffffffffffffffffffff1681526020018060200185815260200184815260200180602001838103835287818151815260200191508051906020019080838360005b83811015610461578082015181840152602081019050610446565b50505050905090810190601f16801561048e5780820380516001836020036101000a031916815260200191505b50838103825284818151815260200191508051906020019080838360005b838110156104c75780820151818401526020810190506104ac565b50505050905090810190601f1680156104f45780820380516001836020036101000a031916815260200191505b5097505050505050505060405180910390f35b34801561051357600080fd5b5061051c610fd7565b6040518082815260200191505060405180910390f35b34801561053e57600080fd5b50610573600480360381019080803573ffffffffffffffffffffffffffffffffffffffff169060200190929190505050610fdd565b005b34801561058157600080fd5b506105c0600480360381019080803573ffffffffffffffffffffffffffffffffffffffff169060200190929190803590602001909291905050506110d8565b005b3480156105ce57600080fd5b506105d7611217565b6040518082815260200191505060405180910390f35b3480156105f957600080fd5b5061060261121d565b005b34801561061057600080fd5b50610645600480360381019080803573ffffffffffffffffffffffffffffffffffffffff16906020019092919050505061131f565b6040518082815260200191505060405180910390f35b34801561066757600080fd5b50610670611368565b604051808273ffffffffffffffffffffffffffffffffffffffff1673ffffffffffffffffffffffffffffffffffffffff16815260200191505060405180910390f35b3480156106be57600080fd5b506106c761138d565b6040518082815260200191505060405180910390f35b3480156106e957600080fd5b506106f2611393565b604051808273ffffffffffffffffffffffffffffffffffffffff1673ffffffffffffffffffffffffffffffffffffffff16815260200191505060405180910390f35b34801561074057600080fd5b506107496113b9565b604051808273ffffffffffffffffffffffffffffffffffffffff1673ffffffffffffffffffffffffffffffffffffffff16815260200191505060405180910390f35b34801561079757600080fd5b506107a06113e2565b6040518082815260200191505060405180910390f35b3480156107c257600080fd5b506107cb6113e8565b604051808273ffffffffffffffffffffffffffffffffffffffff1673ffffffffffffffffffffffffffffffffffffffff16815260200191505060405180910390f35b34801561081957600080fd5b50610822611412565b604051808273ffffffffffffffffffffffffffffffffffffffff1673ffffffffffffffffffffffffffffffffffffffff16815260200191505060405180910390f35b34801561087057600080fd5b506108af600480360381019080803573ffffffffffffffffffffffffffffffffffffffff16906020019092919080359060200190929190505050611438565b005b3480156108bd57600080fd5b506108dc600480360381019080803590602001909291905050506114cc565b005b6108e6611531565b005b3480156108f457600080fd5b506108fd611630565b6040518082815260200191505060405180910390f35b34801561091f57600080fd5b50610928611636565b6040518080602001828103825283818151815260200191508051906020019080838360005b8381101561096857808201518184015260208101905061094d565b50505050905090810190601f1680156109955780820380516001836020036101000a031916815260200191505b509250505060405180910390f35b3480156109af57600080fd5b506109b86116d4565b6040518082815260200191505060405180910390f35b3480156109da57600080fd5b50610a0f600480360381019080803573ffffffffffffffffffffffffffffffffffffffff1690602001909291905050506116da565b005b348015610a1d57600080fd5b50610a26611749565b604051808215151515815260200191505060405180910390f35b600c5481565b600f60009054906101000a900460ff1681565b600e5481565b6000600260009054906101000a900473ffffffffffffffffffffffffffffffffffffffff1673ffffffffffffffffffffffffffffffffffffffff163373ffffffffffffffffffffffffffffffffffffffff16141515610abd57600080fd5b6001600f60006101000a81548160ff02191690831515021790555043601081905550601054905090565b60048054600181600116156101000203166002900480601f016020809104026020016040519081016040528092919081815260200182805460018160011615610100020316600290048015610b7d5780601f10610b5257610100808354040283529160200191610b7d565b820191906000526020600020905b815481529060010190602001808311610b6057829003601f168201915b505050505081565b60095481565b6000809054906101000a900473ffffffffffffffffffffffffffffffffffffffff1673ffffffffffffffffffffffffffffffffffffffff163373ffffffffffffffffffffffffffffffffffffffff16141515610be657600080fd5b610bee611749565b1515610bf957600080fd5b610c038282611755565b5050565b600260009054906101000a900473ffffffffffffffffffffffffffffffffffffffff1673ffffffffffffffffffffffffffffffffffffffff163373ffffffffffffffffffffffffffffffffffffffff16141515610c6357600080fd5b600073ffffffffffffffffffffffffffffffffffffffff168173ffffffffffffffffffffffffffffffffffffffff1614151515610c9f57600080fd5b80600260006101000a81548173ffffffffffffffffffffffffffffffffffffffff021916908373ffffffffffffffffffffffffffffffffffffffff1602179055507f4101e71e974f68df5e9730cc223280b41654676bbb052cdcc735c3337e64d2d9600260009054906101000a900473ffffffffffffffffffffffffffffffffffffffff16604051808273ffffffffffffffffffffffffffffffffffffffff1673ffffffffffffffffffffffffffffffffffffffff16815260200191505060405180910390a150565b60011515601260003373ffffffffffffffffffffffffffffffffffffffff1673ffffffffffffffffffffffffffffffffffffffff16815260200190815260200160002060009054906101000a900460ff1615151480610e145750600560009054906101000a900473ffffffffffffffffffffffffffffffffffffffff1673ffffffffffffffffffffffffffffffffffffffff163373ffffffffffffffffffffffffffffffffffffffff16145b1515610e1f57600080fd5b6001601260008373ffffffffffffffffffffffffffffffffffffffff1673ffffffffffffffffffffffffffffffffffffffff16815260200190815260200160002060006101000a81548160ff02191690831515021790555050565b600060606000806060306004600a54600954600d838054600181600116156101000203166002900480601f016020809104026020016040519081016040528092919081815260200182805460018160011615610100020316600290048015610f235780601f10610ef857610100808354040283529160200191610f23565b820191906000526020600020905b815481529060010190602001808311610f0657829003601f168201915b50505050509350808054600181600116156101000203166002900480601f016020809104026020016040519081016040528092919081815260200182805460018160011615610100020316600290048015610fbf5780601f10610f9457610100808354040283529160200191610fbf565b820191906000526020600020905b815481529060010190602001808311610fa257829003601f168201915b50505050509050945094509450945094509091929394565b60085481565b60011515601260003373ffffffffffffffffffffffffffffffffffffffff1673ffffffffffffffffffffffffffffffffffffffff16815260200190815260200160002060009054906101000a900460ff16151514806110895750600560009054906101000a900473ffffffffffffffffffffffffffffffffffffffff1673ffffffffffffffffffffffffffffffffffffffff163373ffffffffffffffffffffffffffffffffffffffff16145b151561109457600080fd5b80600660006101000a81548173ffffffffffffffffffffffffffffffffffffffff021916908373ffffffffffffffffffffffffffffffffffffffff16021790555050565b6000809054906101000a900473ffffffffffffffffffffffffffffffffffffffff1673ffffffffffffffffffffffffffffffffffffffff163373ffffffffffffffffffffffffffffffffffffffff1614151561113357600080fd5b61113b611749565b151561114657600080fd5b61119881601160008573ffffffffffffffffffffffffffffffffffffffff1673ffffffffffffffffffffffffffffffffffffffff1681526020019081526020016000205461188590919063ffffffff16565b601160008473ffffffffffffffffffffffffffffffffffffffff1673ffffffffffffffffffffffffffffffffffffffff168152602001908152602001600020819055506111f081600e5461188590919063ffffffff16565b600e8190555061120d61a8c060085461188590919063ffffffff16565b6008819055505050565b600b5481565b6000809054906101000a900473ffffffffffffffffffffffffffffffffffffffff1673ffffffffffffffffffffffffffffffffffffffff163373ffffffffffffffffffffffffffffffffffffffff1614151561127857600080fd5b6000809054906101000a900473ffffffffffffffffffffffffffffffffffffffff1673ffffffffffffffffffffffffffffffffffffffff167ff8df31144d9c2f0f6b59d69b8b98abd5459d07f2742c4df920b25aae33c6482060405160405180910390a260008060006101000a81548173ffffffffffffffffffffffffffffffffffffffff021916908373ffffffffffffffffffffffffffffffffffffffff160217905550565b6000601160008373ffffffffffffffffffffffffffffffffffffffff1673ffffffffffffffffffffffffffffffffffffffff168152602001908152602001600020549050919050565b6000809054906101000a900473ffffffffffffffffffffffffffffffffffffffff1681565b60035481565b600660009054906101000a900473ffffffffffffffffffffffffffffffffffffffff1681565b60008060009054906101000a900473ffffffffffffffffffffffffffffffffffffffff16905090565b60075481565b6000600260009054906101000a900473ffffffffffffffffffffffffffffffffffffffff16905090565b600560009054906101000a900473ffffffffffffffffffffffffffffffffffffffff1681565b6000809054906101000a900473ffffffffffffffffffffffffffffffffffffffff1673ffffffffffffffffffffffffffffffffffffffff163373ffffffffffffffffffffffffffffffffffffffff1614151561149357600080fd5b61149b611749565b15806114b35750600f60009054906101000a900460ff165b15156114be57600080fd5b6114c88282611755565b5050565b6000809054906101000a900473ffffffffffffffffffffffffffffffffffffffff1673ffffffffffffffffffffffffffffffffffffffff163373ffffffffffffffffffffffffffffffffffffffff1614151561152757600080fd5b8060038190555050565b600080341415151561154257600080fd5b3490507f4ca4c4557746646003ffe00cc5d5e72187ecb79a775e987dee0daed551f31bc6344260035460405180848152602001838152602001828152602001935050505060405180910390a1600660009054906101000a900473ffffffffffffffffffffffffffffffffffffffff1673ffffffffffffffffffffffffffffffffffffffff166379fc4687826040518263ffffffff167c01000000000000000000000000000000000000000000000000000000000281526004016000604051808303818588803b15801561161457600080fd5b505af1158015611628573d6000803e3d6000fd5b505050505050565b60105481565b600d8054600181600116156101000203166002900480601f0160208091040260200160405190810160405280929190818152602001828054600181600116156101000203166002900480156116cc5780601f106116a1576101008083540402835291602001916116cc565b820191906000526020600020905b8154815290600101906020018083116116af57829003601f168201915b505050505081565b600a5481565b6000809054906101000a900473ffffffffffffffffffffffffffffffffffffffff1673ffffffffffffffffffffffffffffffffffffffff163373ffffffffffffffffffffffffffffffffffffffff1614151561173557600080fd5b6005600181905550611746816118a1565b50565b60004260085411905090565b600e54811115151561176657600080fd5b601160008373ffffffffffffffffffffffffffffffffffffffff1673ffffffffffffffffffffffffffffffffffffffff1681526020019081526020016000205481111515156117b457600080fd5b61180681601160008573ffffffffffffffffffffffffffffffffffffffff1673ffffffffffffffffffffffffffffffffffffffff1681526020019081526020016000205461199b90919063ffffffff16565b601160008473ffffffffffffffffffffffffffffffffffffffff1673ffffffffffffffffffffffffffffffffffffffff1681526020019081526020016000208190555061185e81600e5461199b90919063ffffffff16565b600e8190555061187b61a8c060085461199b90919063ffffffff16565b6008819055505050565b6000818301905082811015151561189857fe5b80905092915050565b600073ffffffffffffffffffffffffffffffffffffffff168173ffffffffffffffffffffffffffffffffffffffff16141515156118dd57600080fd5b8073ffffffffffffffffffffffffffffffffffffffff166000809054906101000a900473ffffffffffffffffffffffffffffffffffffffff1673ffffffffffffffffffffffffffffffffffffffff167f8be0079c531659141344cd1fd0a4f28419497f9722a3daafe3b4186f6b6457e060405160405180910390a3806000806101000a81548173ffffffffffffffffffffffffffffffffffffffff021916908373ffffffffffffffffffffffffffffffffffffffff16021790555050565b60008282111515156119a957fe5b8183039050929150505600a165627a7a72305820ce306d883b230771491fede2f529b3020e28a68b42a57f6a92e6ba9b6ae4c9a60029",
  "source": "pragma solidity >=0.4.22 <0.6.0;\r\nimport '../utility/SafeMath.sol';\r\nimport '../utility/Ownable.sol';\r\nimport '../utility/Secondary.sol';\r\nimport '../dividends/Dividends.sol';\r\nimport '../projectFactory/ProjectFactory.sol';\r\n/* import './ECRecovery.sol'; */\r\n\r\ncontract Project is Ownable, Secondary {\r\n  using SafeMath for uint256;\r\n  uint256 public id;\r\n  string public projectInfo;\r\n  address public developer;\r\n  address public dividendWallet;\r\n  uint256 public openingTime;\r\n  uint256 public closingTime;\r\n  uint256 public valuation;\r\n  uint256 public capitalRequired;\r\n  uint256 public developerTokens;\r\n  uint256 public investorTokens;\r\n  string public cashFlow;\r\n  uint256 public totalVotes;\r\n  bool public active;\r\n  uint256 public activationTime;\r\n  constructor (\r\n    string memory _projectInfo,\r\n    address _developer,\r\n    uint256 _valuation,\r\n    uint256 _capitalRequired,\r\n    uint256 _developerTokens,\r\n    uint256 _investorTokens,\r\n    string _cashFlow,\r\n    address _dividendWallet\r\n    ) public\r\n    {\r\n      projectInfo = _projectInfo;\r\n      developer = _developer;\r\n      valuation = _valuation;\r\n      capitalRequired = _capitalRequired;\r\n      developerTokens = _developerTokens;\r\n      investorTokens = _investorTokens;\r\n      cashFlow = _cashFlow;\r\n      totalVotes = 0;\r\n      active = false;\r\n      openingTime = now;\r\n      closingTime = now + 86600 * 240;\r\n      dividendWallet = _dividendWallet;\r\n  }\r\n\r\n  mapping(address => uint256) internal votes;\r\n\r\n  event ReceiveCashFlow (uint256 weiAmount, uint256 time, uint256 projectId);\r\n\r\n  function setId (uint256 _id) onlyOwner {\r\n    id = _id;\r\n  }\r\n\r\n  function getData() public view returns (\r\n    address,\r\n    string,\r\n    uint256,\r\n    uint256,\r\n    string\r\n    ) {\r\n      return (\r\n        address(this),\r\n        projectInfo,\r\n        capitalRequired,\r\n        valuation,\r\n        cashFlow\r\n        );\r\n    }\r\n\r\n  function votesOf(address voter) public view returns (uint256) {\r\n    return votes[voter];\r\n  }\r\n\r\n  function open () public view returns (bool) {\r\n    return closingTime > now;\r\n  }\r\n\r\n  mapping(address => bool) internal managers;\r\n\r\n  function () external payable {}\r\n\r\n  modifier authorize () {\r\n    require(managers[msg.sender] == true || msg.sender == developer);\r\n    _;\r\n  }\r\n\r\n  function deposit () public payable {\r\n    require(msg.value != 0);\r\n    uint256 weiAmount = msg.value;\r\n    emit ReceiveCashFlow(msg.value, now, id);\r\n    Dividends(dividendWallet).receiveDividends.value(weiAmount)();\r\n  }\r\n\r\n  function addManager (address manager) public authorize {\r\n    managers[manager] = true;\r\n  }\r\n\r\n  function setDividendWallet (address wallet) public authorize {\r\n    dividendWallet = wallet;\r\n  }\r\n\r\n  function vote (address voter, uint256 voteAmount) external onlyOwner {\r\n    require(open());\r\n    votes[voter] = votes[voter].add(voteAmount);\r\n    totalVotes = totalVotes.add(voteAmount);\r\n    closingTime = closingTime.add(43200);\r\n  }\r\n\r\n  function voteAgainst (address voter, uint256 voteAmount) external onlyOwner {\r\n    require(open());\r\n    removeVotes_(voter, voteAmount);\r\n  }\r\n\r\n  function removeVotes (address voter, uint256 voteAmount) external onlyOwner {\r\n    require(!open() || active);\r\n    removeVotes_(voter, voteAmount);\r\n  }\r\n\r\n  function removeVotes_ (address voter, uint256 voteAmount) internal {\r\n    require(voteAmount <= totalVotes);\r\n    require(voteAmount <= votes[voter]);\r\n\r\n    votes[voter] = votes[voter].sub(voteAmount);\r\n    totalVotes = totalVotes.sub(voteAmount);\r\n    closingTime = closingTime.sub(43200);\r\n  }\r\n\r\n  function activate () external onlyPrimary returns(uint256) {\r\n    active = true;\r\n    activationTime = block.number;\r\n    return activationTime;\r\n  }\r\n}\r\n",
  "sourcePath": "D:\\tetris\\SUWiserLLC_serge\\contracts\\project\\Project.sol",
  "compiler": {
    "name": "solc",
    "version": "0.4.24+commit.e67f0147.Emscripten.clang"
  },
  "schemaVersion": "2.0.1",
  "updatedAt": "2022-02-19T19:23:25.079Z"
}