{
  "contractName": "ProjectLeaderTracker",
  "abi": [
    {
      "constant": true,
      "inputs": [],
      "name": "tentativeLeaderAddr",
      "outputs": [
        {
          "name": "",
          "type": "address"
        }
      ],
      "payable": false,
      "stateMutability": "view",
      "type": "function"
    },
    {
      "constant": true,
      "inputs": [],
      "name": "activation",
      "outputs": [
        {
          "name": "",
          "type": "address"
        }
      ],
      "payable": false,
      "stateMutability": "view",
      "type": "function"
    },
    {
      "constant": false,
      "inputs": [
        {
          "name": "recipient",
          "type": "address"
        }
      ],
      "name": "transferProjectFactoryKey",
      "outputs": [],
      "payable": false,
      "stateMutability": "nonpayable",
      "type": "function"
    },
    {
      "constant": true,
      "inputs": [],
      "name": "startTime",
      "outputs": [
        {
          "name": "",
          "type": "uint256"
        }
      ],
      "payable": false,
      "stateMutability": "view",
      "type": "function"
    },
    {
      "constant": true,
      "inputs": [],
      "name": "projectFactory",
      "outputs": [
        {
          "name": "",
          "type": "address"
        }
      ],
      "payable": false,
      "stateMutability": "view",
      "type": "function"
    },
    {
      "constant": true,
      "inputs": [],
      "name": "crowdsale",
      "outputs": [
        {
          "name": "",
          "type": "address"
        }
      ],
      "payable": false,
      "stateMutability": "view",
      "type": "function"
    },
    {
      "constant": true,
      "inputs": [],
      "name": "leadingVoteCount",
      "outputs": [
        {
          "name": "",
          "type": "uint256"
        }
      ],
      "payable": false,
      "stateMutability": "view",
      "type": "function"
    },
    {
      "constant": true,
      "inputs": [],
      "name": "candidateCount",
      "outputs": [
        {
          "name": "",
          "type": "uint256"
        }
      ],
      "payable": false,
      "stateMutability": "view",
      "type": "function"
    },
    {
      "constant": false,
      "inputs": [
        {
          "name": "recipient",
          "type": "address"
        }
      ],
      "name": "transferCrowdsaleKey",
      "outputs": [],
      "payable": false,
      "stateMutability": "nonpayable",
      "type": "function"
    },
    {
      "constant": false,
      "inputs": [
        {
          "name": "recipient",
          "type": "address"
        }
      ],
      "name": "transferActivationKey",
      "outputs": [],
      "payable": false,
      "stateMutability": "nonpayable",
      "type": "function"
    },
    {
      "anonymous": false,
      "inputs": [
        {
          "indexed": false,
          "name": "recipient",
          "type": "address"
        }
      ],
      "name": "ProjectFactoryTransferred",
      "type": "event"
    },
    {
      "anonymous": false,
      "inputs": [
        {
          "indexed": false,
          "name": "recipient",
          "type": "address"
        }
      ],
      "name": "ActivationTransferred",
      "type": "event"
    },
    {
      "anonymous": false,
      "inputs": [
        {
          "indexed": false,
          "name": "recipient",
          "type": "address"
        }
      ],
      "name": "CrowdsaleTransferred",
      "type": "event"
    },
    {
      "constant": true,
      "inputs": [],
      "name": "tentativeLeader",
      "outputs": [
        {
          "name": "",
          "type": "address"
        },
        {
          "name": "",
          "type": "bool"
        }
      ],
      "payable": false,
      "stateMutability": "view",
      "type": "function"
    },
    {
      "constant": false,
      "inputs": [],
      "name": "reset",
      "outputs": [],
      "payable": false,
      "stateMutability": "nonpayable",
      "type": "function"
    },
    {
      "constant": false,
      "inputs": [],
      "name": "handleProjectActivation",
      "outputs": [],
      "payable": false,
      "stateMutability": "nonpayable",
      "type": "function"
    },
    {
      "constant": false,
      "inputs": [],
      "name": "handleProjectPitch",
      "outputs": [],
      "payable": false,
      "stateMutability": "nonpayable",
      "type": "function"
    },
    {
      "constant": false,
      "inputs": [
        {
          "name": "projectAddr",
          "type": "address"
        }
      ],
      "name": "trackProject",
      "outputs": [],
      "payable": false,
      "stateMutability": "nonpayable",
      "type": "function"
    },
    {
      "constant": true,
      "inputs": [],
      "name": "totalChecked",
      "outputs": [
        {
          "name": "",
          "type": "uint256"
        }
      ],
      "payable": false,
      "stateMutability": "view",
      "type": "function"
    }
  ],
  "bytecode": "0x6080604052336000806101000a81548173ffffffffffffffffffffffffffffffffffffffff021916908373ffffffffffffffffffffffffffffffffffffffff1602179055507fc14b2e8c3b0fecd3b6226c637c343009dca5171a0a6874475330c5c204a29c6c6000809054906101000a900473ffffffffffffffffffffffffffffffffffffffff16604051808273ffffffffffffffffffffffffffffffffffffffff1673ffffffffffffffffffffffffffffffffffffffff16815260200191505060405180910390a133600160006101000a81548173ffffffffffffffffffffffffffffffffffffffff021916908373ffffffffffffffffffffffffffffffffffffffff1602179055507fcdb1fdb4703f653ea6f6ba7e018bf8508c4e61cac3bb0187c419e5dd863bec50600160009054906101000a900473ffffffffffffffffffffffffffffffffffffffff16604051808273ffffffffffffffffffffffffffffffffffffffff1673ffffffffffffffffffffffffffffffffffffffff16815260200191505060405180910390a133600260006101000a81548173ffffffffffffffffffffffffffffffffffffffff021916908373ffffffffffffffffffffffffffffffffffffffff1602179055507f9ac4999de6ca856e4619ce9f48d109e992281866886cd2ca7ca92c8f45f3e5c4600260009054906101000a900473ffffffffffffffffffffffffffffffffffffffff16604051808273ffffffffffffffffffffffffffffffffffffffff1673ffffffffffffffffffffffffffffffffffffffff16815260200191505060405180910390a16113e8806102636000396000f3006080604052600436106100e6576000357c0100000000000000000000000000000000000000000000000000000000900463ffffffff16806303a46aa9146100eb5780633629c8de14610142578063522831301461019957806378e97925146101dc5780637fb3f9771461020757806397f51974146102325780639c1e03a014610289578063a14d50f7146102e0578063a9a981a31461030b578063af29f2f414610336578063b1a1f24714610398578063b1ccf10a146103af578063be0d2459146103f2578063d826f88f14610435578063e33169151461044c578063e53b61c91461048f575b600080fd5b3480156100f757600080fd5b506101006104a6565b604051808273ffffffffffffffffffffffffffffffffffffffff1673ffffffffffffffffffffffffffffffffffffffff16815260200191505060405180910390f35b34801561014e57600080fd5b506101576104cc565b604051808273ffffffffffffffffffffffffffffffffffffffff1673ffffffffffffffffffffffffffffffffffffffff16815260200191505060405180910390f35b3480156101a557600080fd5b506101da600480360381019080803573ffffffffffffffffffffffffffffffffffffffff1690602001909291905050506104f6565b005b3480156101e857600080fd5b506101f1610657565b6040518082815260200191505060405180910390f35b34801561021357600080fd5b5061021c61065d565b6040518082815260200191505060405180910390f35b34801561023e57600080fd5b5061024761067d565b604051808273ffffffffffffffffffffffffffffffffffffffff1673ffffffffffffffffffffffffffffffffffffffff16815260200191505060405180910390f35b34801561029557600080fd5b5061029e6106a7565b604051808273ffffffffffffffffffffffffffffffffffffffff1673ffffffffffffffffffffffffffffffffffffffff16815260200191505060405180910390f35b3480156102ec57600080fd5b506102f56106d0565b6040518082815260200191505060405180910390f35b34801561031757600080fd5b506103206106d6565b6040518082815260200191505060405180910390f35b34801561034257600080fd5b5061034b6106dc565b604051808373ffffffffffffffffffffffffffffffffffffffff1673ffffffffffffffffffffffffffffffffffffffff168152602001821515151581526020019250505060405180910390f35b3480156103a457600080fd5b506103ad610712565b005b3480156103bb57600080fd5b506103f0600480360381019080803573ffffffffffffffffffffffffffffffffffffffff16906020019092919050505061078c565b005b3480156103fe57600080fd5b50610433600480360381019080803573ffffffffffffffffffffffffffffffffffffffff1690602001909291905050506109d8565b005b34801561044157600080fd5b5061044a610b36565b005b34801561045857600080fd5b5061048d600480360381019080803573ffffffffffffffffffffffffffffffffffffffff169060200190929190505050610bb4565b005b34801561049b57600080fd5b506104a4610d15565b005b600460009054906101000a900473ffffffffffffffffffffffffffffffffffffffff1681565b6000600160009054906101000a900473ffffffffffffffffffffffffffffffffffffffff16905090565b600260009054906101000a900473ffffffffffffffffffffffffffffffffffffffff1673ffffffffffffffffffffffffffffffffffffffff163373ffffffffffffffffffffffffffffffffffffffff1614151561055257600080fd5b600073ffffffffffffffffffffffffffffffffffffffff168173ffffffffffffffffffffffffffffffffffffffff161415151561058e57600080fd5b80600260006101000a81548173ffffffffffffffffffffffffffffffffffffffff021916908373ffffffffffffffffffffffffffffffffffffffff1602179055507f9ac4999de6ca856e4619ce9f48d109e992281866886cd2ca7ca92c8f45f3e5c4600260009054906101000a900473ffffffffffffffffffffffffffffffffffffffff16604051808273ffffffffffffffffffffffffffffffffffffffff1673ffffffffffffffffffffffffffffffffffffffff16815260200191505060405180910390a150565b60065481565b600060086000600754815260200190815260200160002060010154905090565b6000600260009054906101000a900473ffffffffffffffffffffffffffffffffffffffff16905090565b60008060009054906101000a900473ffffffffffffffffffffffffffffffffffffffff16905090565b60055481565b60035481565b600080600460009054906101000a900473ffffffffffffffffffffffffffffffffffffffff1661070a610d8d565b915091509091565b600260009054906101000a900473ffffffffffffffffffffffffffffffffffffffff1673ffffffffffffffffffffffffffffffffffffffff163373ffffffffffffffffffffffffffffffffffffffff1614151561076e57600080fd5b6107846001600354610da090919063ffffffff16565b600381905550565b600073ffffffffffffffffffffffffffffffffffffffff168173ffffffffffffffffffffffffffffffffffffffff161415801561086557508073ffffffffffffffffffffffffffffffffffffffff166302fb0c5e6040518163ffffffff167c0100000000000000000000000000000000000000000000000000000000028152600401602060405180830381600087803b15801561082857600080fd5b505af115801561083c573d6000803e3d6000fd5b505050506040513d602081101561085257600080fd5b8101908080519060200190929190505050155b151561087057600080fd5b8073ffffffffffffffffffffffffffffffffffffffff16634b6753bc6040518163ffffffff167c0100000000000000000000000000000000000000000000000000000000028152600401602060405180830381600087803b1580156108d457600080fd5b505af11580156108e8573d6000803e3d6000fd5b505050506040513d60208110156108fe57600080fd5b810190808051906020019092919050505060065410151561091e57600080fd5b8073ffffffffffffffffffffffffffffffffffffffff1663fcfff16f6040518163ffffffff167c0100000000000000000000000000000000000000000000000000000000028152600401602060405180830381600087803b15801561098257600080fd5b505af1158015610996573d6000803e3d6000fd5b505050506040513d60208110156109ac57600080fd5b8101908080519060200190929190505050156109cc576109cb81610dbc565b5b6109d581610e50565b50565b6000809054906101000a900473ffffffffffffffffffffffffffffffffffffffff1673ffffffffffffffffffffffffffffffffffffffff163373ffffffffffffffffffffffffffffffffffffffff16141515610a3357600080fd5b600073ffffffffffffffffffffffffffffffffffffffff168173ffffffffffffffffffffffffffffffffffffffff1614151515610a6f57600080fd5b806000806101000a81548173ffffffffffffffffffffffffffffffffffffffff021916908373ffffffffffffffffffffffffffffffffffffffff1602179055507fc14b2e8c3b0fecd3b6226c637c343009dca5171a0a6874475330c5c204a29c6c6000809054906101000a900473ffffffffffffffffffffffffffffffffffffffff16604051808273ffffffffffffffffffffffffffffffffffffffff1673ffffffffffffffffffffffffffffffffffffffff16815260200191505060405180910390a150565b6000809054906101000a900473ffffffffffffffffffffffffffffffffffffffff1673ffffffffffffffffffffffffffffffffffffffff163373ffffffffffffffffffffffffffffffffffffffff16141515610b9157600080fd5b610b99610f19565b610ba36000610f63565b600060038190555042600681905550565b600160009054906101000a900473ffffffffffffffffffffffffffffffffffffffff1673ffffffffffffffffffffffffffffffffffffffff163373ffffffffffffffffffffffffffffffffffffffff16141515610c1057600080fd5b600073ffffffffffffffffffffffffffffffffffffffff168173ffffffffffffffffffffffffffffffffffffffff1614151515610c4c57600080fd5b80600160006101000a81548173ffffffffffffffffffffffffffffffffffffffff021916908373ffffffffffffffffffffffffffffffffffffffff1602179055507fcdb1fdb4703f653ea6f6ba7e018bf8508c4e61cac3bb0187c419e5dd863bec50600160009054906101000a900473ffffffffffffffffffffffffffffffffffffffff16604051808273ffffffffffffffffffffffffffffffffffffffff1673ffffffffffffffffffffffffffffffffffffffff16815260200191505060405180910390a150565b600160009054906101000a900473ffffffffffffffffffffffffffffffffffffffff1673ffffffffffffffffffffffffffffffffffffffff163373ffffffffffffffffffffffffffffffffffffffff16141515610d7157600080fd5b610d79610f19565b610d836000610f63565b610d8b610faf565b565b6000600354610d9a61065d565b14905090565b60008183019050828110151515610db357fe5b80905092915050565b600080600080610dca610fcd565b93508315610e1457610ddb85611026565b9250610de5611080565b9150610df085611149565b90508180610e055750828015610e04575080155b5b15610e1357610e12610f19565b5b5b831580610e1e5750815b80610e265750805b15610e3957610e3485610f63565b610e49565b8215610e4857610e476111f5565b5b5b5050505050565b610e5981611323565b1515610f1657610e8b600160086000600754815260200190815260200160002060010154610da090919063ffffffff16565b60086000600754815260200190815260200160002060010181905550600160086000600754815260200190815260200160002060000160008373ffffffffffffffffffffffffffffffffffffffff1673ffffffffffffffffffffffffffffffffffffffff16815260200190815260200160002060006101000a81548160ff0219169083151502179055505b50565b610f216113a8565b610f376001600754610da090919063ffffffff16565b600781905550806008600060075481526020019081526020016000206000820151816001015590505050565b80600460006101000a81548173ffffffffffffffffffffffffffffffffffffffff021916908373ffffffffffffffffffffffffffffffffffffffff160217905550610fac6111f5565b50565b610fc5600160035461138f90919063ffffffff16565b600381905550565b60008073ffffffffffffffffffffffffffffffffffffffff16600460009054906101000a900473ffffffffffffffffffffffffffffffffffffffff1673ffffffffffffffffffffffffffffffffffffffff161415905090565b6000600460009054906101000a900473ffffffffffffffffffffffffffffffffffffffff1673ffffffffffffffffffffffffffffffffffffffff168273ffffffffffffffffffffffffffffffffffffffff16149050919050565b6000600460009054906101000a900473ffffffffffffffffffffffffffffffffffffffff1673ffffffffffffffffffffffffffffffffffffffff1663fcfff16f6040518163ffffffff167c0100000000000000000000000000000000000000000000000000000000028152600401602060405180830381600087803b15801561110857600080fd5b505af115801561111c573d6000803e3d6000fd5b505050506040513d602081101561113257600080fd5b810190808051906020019092919050505015905090565b60006005548273ffffffffffffffffffffffffffffffffffffffff16630d15fd776040518163ffffffff167c0100000000000000000000000000000000000000000000000000000000028152600401602060405180830381600087803b1580156111b257600080fd5b505af11580156111c6573d6000803e3d6000fd5b505050506040513d60208110156111dc57600080fd5b8101908080519060200190929190505050119050919050565b600073ffffffffffffffffffffffffffffffffffffffff16600460009054906101000a900473ffffffffffffffffffffffffffffffffffffffff1673ffffffffffffffffffffffffffffffffffffffff161415611259576000600581905550611321565b600460009054906101000a900473ffffffffffffffffffffffffffffffffffffffff1673ffffffffffffffffffffffffffffffffffffffff16630d15fd776040518163ffffffff167c0100000000000000000000000000000000000000000000000000000000028152600401602060405180830381600087803b1580156112df57600080fd5b505af11580156112f3573d6000803e3d6000fd5b505050506040513d602081101561130957600080fd5b81019080805190602001909291905050506005819055505b565b600060086000600754815260200190815260200160002060000160008373ffffffffffffffffffffffffffffffffffffffff1673ffffffffffffffffffffffffffffffffffffffff16815260200190815260200160002060009054906101000a900460ff169050919050565b600082821115151561139d57fe5b818303905092915050565b6020604051908101604052806000815250905600a165627a7a72305820673c39cbb611a0e20bfb6b75a55a0f45832d743c9a783fd60cf8b181e1479d980029",
  "source": "pragma solidity >=0.4.22 <0.6.0;\nimport '../project/Project.sol';\nimport '../utility/CrowdsaleLocked.sol';\nimport '../utility/ActivationLocked.sol';\nimport '../utility/ProjectFactoryLocked.sol';\nimport '../utility/SafeMath.sol';\nimport '../Amendment.sol';\n\n\ncontract ProjectLeaderTracker is CrowdsaleLocked, ActivationLocked, ProjectFactoryLocked {\n  using SafeMath for uint256;\n  uint256 public candidateCount;\n  address  public tentativeLeaderAddr;\n  uint256 public leadingVoteCount;\n  uint256 public startTime;\n\n  struct ProjectsChecked {\n    mapping(address => bool) isChecked;\n    uint256 totalChecked;\n  }\n\n  uint256 internal currentCheckCycle;\n  mapping(uint256 => ProjectsChecked) internal checkCycle;\n\n  function tentativeLeader () external view returns (address , bool) {\n    return (tentativeLeaderAddr, tentativeLeaderConfirmed());\n  }\n\n  function reset () onlyCrowdsale external {\n    resetProjectsChecked();\n    setTentativeLeader(address(0));\n    candidateCount = 0;\n    startTime = now;\n  }\n\n  function handleProjectActivation () onlyActivation external {\n    resetProjectsChecked();\n    setTentativeLeader(address(0));\n    decrementCandidateCount();\n  }\n\n  function handleProjectPitch () onlyProjectFactory external {\n    candidateCount = candidateCount.add(1);\n  }\n\n  function trackProject (address projectAddr) external {\n    require(projectAddr != address(0) && !Project(projectAddr).active());\n    require(startTime < Project(projectAddr).closingTime()); //ensures that this project is part of the current cycle\n\n    if(Project(projectAddr).open()) {\n      updateTentativeLeader(projectAddr);\n    }\n\n    recordCheck(projectAddr);\n  }\n\n  function recordCheck (address  projectAddr) internal {\n    if (!alreadyChecked(projectAddr)) {\n     checkCycle[currentCheckCycle].totalChecked = checkCycle[currentCheckCycle].totalChecked.add(1);\n     checkCycle[currentCheckCycle].isChecked[projectAddr] = true;\n    }\n  }\n\n  function updateTentativeLeader (address projectAddr) internal {\n    bool _leaderExists = leaderExists();\n    bool _isLeader;\n    bool _currentLeaderClosed;\n    bool _beatsLeader;\n\n    if (_leaderExists) {\n      _isLeader = isLeader(projectAddr);\n      _currentLeaderClosed = currentLeaderClosed();\n      _beatsLeader = beatsLeader(projectAddr);\n\n      if (_currentLeaderClosed || (_isLeader && !_beatsLeader)) {  //if the real leader can be a project that we have already checked\n        resetProjectsChecked();\n      }\n    }\n\n    if (!_leaderExists || _currentLeaderClosed || _beatsLeader) { //if the tentative leader cannot possibly be in the lead\n      setTentativeLeader(projectAddr);\n    } else if (_isLeader) {\n      setLeadingVoteCount();\n    }\n  }\n\n  function leaderExists () internal view returns (bool) {\n    return tentativeLeaderAddr != address(0);\n  }\n\n  function isLeader (address  projAddr) internal view returns (bool) {\n    return projAddr == tentativeLeaderAddr;\n  }\n\n  function beatsLeader (address  projAddr) internal view returns (bool) {\n    return Project(projAddr).totalVotes() > leadingVoteCount;\n  }\n\n  function resetProjectsChecked() internal {\n    ProjectsChecked memory newProjectsChecked;\n    currentCheckCycle = currentCheckCycle.add(1);\n    checkCycle[currentCheckCycle] = newProjectsChecked;\n  }\n\n  function setTentativeLeader(address  newLeaderAddr) internal {\n    tentativeLeaderAddr = newLeaderAddr;\n    setLeadingVoteCount();\n  }\n\n  function setLeadingVoteCount () internal {\n    if (tentativeLeaderAddr == address(0)) {\n      leadingVoteCount = 0;\n    } else {\n      leadingVoteCount = Project(tentativeLeaderAddr).totalVotes();\n    }\n  }\n\n  function decrementCandidateCount() internal {\n    candidateCount = candidateCount.sub(1);\n  }\n\n  function currentLeaderClosed () internal view returns (bool) {\n    return !Project(tentativeLeaderAddr).open();\n  }\n\n  function alreadyChecked (address  projectAddr) internal view returns (bool) {\n    return checkCycle[currentCheckCycle].isChecked[projectAddr];\n  }\n\n  function tentativeLeaderConfirmed () internal view returns (bool) {\n    return totalChecked() == candidateCount;\n  }\n\n  function totalChecked () public view returns (uint256) {\n    return checkCycle[currentCheckCycle].totalChecked;\n  }\n}\n\n/* function attemptProjectActivation () public {\n  if (\n    tentativeLeaderCapRequired <= weiRaised &&\n    tentativeLeaderConfirmed &&\n    Project(tentativeLeaderAddr).open()\n    ) {\n    activateProject();\n  }\n} */\n\n/* function activateProject () internal { //we need more tests for added functionality\n  Project project = Project(tentativeLeaderAddr);\n  project.activate();\n  project.log();\n  //reduce cast vote count by the number of project votes, set the number of project votes to 0.\n\n  forwardFunds(developer, tentativeLeaderCapRequired);\n  weiRaised = weiRaised.sub(tentativeLeaderCapRequired);\n  candidateCount = candidateCount.sub(1);\n  Token(token).increasePendingActivations(project.developerTokens_().add(project.investorTokens_()));\n} */\n",
  "sourcePath": "D:\\Projects\\SUWiserLLC\\serge\\contracts\\projectLeader\\ProjectLeaderTracker.sol",
  "compiler": {
    "name": "solc",
    "version": "0.4.24+commit.e67f0147.Emscripten.clang"
  },
  "schemaVersion": "2.0.1",
  "updatedAt": "2022-02-19T17:45:19.927Z"
}