{
  "contractName": "ProjectLeaderTrackerMock",
  "abi": [
    {
      "constant": true,
      "inputs": [],
      "name": "tentativeLeaderAddr",
      "outputs": [
        {
          "name": "",
          "type": "address"
        }
      ],
      "payable": false,
      "stateMutability": "view",
      "type": "function"
    },
    {
      "constant": true,
      "inputs": [],
      "name": "activation",
      "outputs": [
        {
          "name": "",
          "type": "address"
        }
      ],
      "payable": false,
      "stateMutability": "view",
      "type": "function"
    },
    {
      "constant": false,
      "inputs": [
        {
          "name": "recipient",
          "type": "address"
        }
      ],
      "name": "transferProjectFactoryKey",
      "outputs": [],
      "payable": false,
      "stateMutability": "nonpayable",
      "type": "function"
    },
    {
      "constant": true,
      "inputs": [],
      "name": "startTime",
      "outputs": [
        {
          "name": "",
          "type": "uint256"
        }
      ],
      "payable": false,
      "stateMutability": "view",
      "type": "function"
    },
    {
      "constant": true,
      "inputs": [],
      "name": "projectFactory",
      "outputs": [
        {
          "name": "",
          "type": "address"
        }
      ],
      "payable": false,
      "stateMutability": "view",
      "type": "function"
    },
    {
      "constant": true,
      "inputs": [],
      "name": "crowdsale",
      "outputs": [
        {
          "name": "",
          "type": "address"
        }
      ],
      "payable": false,
      "stateMutability": "view",
      "type": "function"
    },
    {
      "constant": true,
      "inputs": [],
      "name": "leadingVoteCount",
      "outputs": [
        {
          "name": "",
          "type": "uint256"
        }
      ],
      "payable": false,
      "stateMutability": "view",
      "type": "function"
    },
    {
      "constant": true,
      "inputs": [],
      "name": "candidateCount",
      "outputs": [
        {
          "name": "",
          "type": "uint256"
        }
      ],
      "payable": false,
      "stateMutability": "view",
      "type": "function"
    },
    {
      "constant": true,
      "inputs": [],
      "name": "tentativeLeader",
      "outputs": [
        {
          "name": "",
          "type": "address"
        },
        {
          "name": "",
          "type": "bool"
        }
      ],
      "payable": false,
      "stateMutability": "view",
      "type": "function"
    },
    {
      "constant": false,
      "inputs": [],
      "name": "handleProjectPitch",
      "outputs": [],
      "payable": false,
      "stateMutability": "nonpayable",
      "type": "function"
    },
    {
      "constant": false,
      "inputs": [
        {
          "name": "projectAddr",
          "type": "address"
        }
      ],
      "name": "trackProject",
      "outputs": [],
      "payable": false,
      "stateMutability": "nonpayable",
      "type": "function"
    },
    {
      "constant": false,
      "inputs": [
        {
          "name": "recipient",
          "type": "address"
        }
      ],
      "name": "transferCrowdsaleKey",
      "outputs": [],
      "payable": false,
      "stateMutability": "nonpayable",
      "type": "function"
    },
    {
      "constant": false,
      "inputs": [],
      "name": "reset",
      "outputs": [],
      "payable": false,
      "stateMutability": "nonpayable",
      "type": "function"
    },
    {
      "constant": false,
      "inputs": [
        {
          "name": "recipient",
          "type": "address"
        }
      ],
      "name": "transferActivationKey",
      "outputs": [],
      "payable": false,
      "stateMutability": "nonpayable",
      "type": "function"
    },
    {
      "constant": false,
      "inputs": [],
      "name": "handleProjectActivation",
      "outputs": [],
      "payable": false,
      "stateMutability": "nonpayable",
      "type": "function"
    },
    {
      "anonymous": false,
      "inputs": [
        {
          "indexed": false,
          "name": "recipient",
          "type": "address"
        }
      ],
      "name": "ProjectFactoryTransferred",
      "type": "event"
    },
    {
      "anonymous": false,
      "inputs": [
        {
          "indexed": false,
          "name": "recipient",
          "type": "address"
        }
      ],
      "name": "ActivationTransferred",
      "type": "event"
    },
    {
      "anonymous": false,
      "inputs": [
        {
          "indexed": false,
          "name": "recipient",
          "type": "address"
        }
      ],
      "name": "CrowdsaleTransferred",
      "type": "event"
    },
    {
      "constant": true,
      "inputs": [],
      "name": "totalChecked",
      "outputs": [
        {
          "name": "",
          "type": "uint256"
        }
      ],
      "payable": false,
      "stateMutability": "view",
      "type": "function"
    },
    {
      "constant": true,
      "inputs": [
        {
          "name": "projectAddr",
          "type": "address"
        }
      ],
      "name": "checkedStatusOf",
      "outputs": [
        {
          "name": "",
          "type": "bool"
        }
      ],
      "payable": false,
      "stateMutability": "view",
      "type": "function"
    },
    {
      "constant": false,
      "inputs": [
        {
          "name": "projectAddr",
          "type": "address"
        },
        {
          "name": "status",
          "type": "bool"
        }
      ],
      "name": "setMockCheckedStatus",
      "outputs": [],
      "payable": false,
      "stateMutability": "nonpayable",
      "type": "function"
    },
    {
      "constant": false,
      "inputs": [
        {
          "name": "count",
          "type": "uint256"
        }
      ],
      "name": "setStubCandidateCount",
      "outputs": [],
      "payable": false,
      "stateMutability": "nonpayable",
      "type": "function"
    },
    {
      "constant": false,
      "inputs": [
        {
          "name": "num",
          "type": "uint256"
        }
      ],
      "name": "setMockTotalChecked",
      "outputs": [],
      "payable": false,
      "stateMutability": "nonpayable",
      "type": "function"
    },
    {
      "constant": false,
      "inputs": [
        {
          "name": "mockAddr",
          "type": "address"
        }
      ],
      "name": "setMockTentativeLeader",
      "outputs": [],
      "payable": false,
      "stateMutability": "nonpayable",
      "type": "function"
    },
    {
      "constant": false,
      "inputs": [],
      "name": "resetMockTentativeProject",
      "outputs": [],
      "payable": false,
      "stateMutability": "nonpayable",
      "type": "function"
    },
    {
      "constant": true,
      "inputs": [],
      "name": "mockTentativeLeaderConfirmed",
      "outputs": [
        {
          "name": "",
          "type": "bool"
        }
      ],
      "payable": false,
      "stateMutability": "view",
      "type": "function"
    },
    {
      "constant": false,
      "inputs": [
        {
          "name": "count",
          "type": "uint256"
        }
      ],
      "name": "setMockLeadingVoteCount",
      "outputs": [],
      "payable": false,
      "stateMutability": "nonpayable",
      "type": "function"
    }
  ],
  "bytecode": "0x6080604052336000806101000a81548173ffffffffffffffffffffffffffffffffffffffff021916908373ffffffffffffffffffffffffffffffffffffffff1602179055507fc14b2e8c3b0fecd3b6226c637c343009dca5171a0a6874475330c5c204a29c6c6000809054906101000a900473ffffffffffffffffffffffffffffffffffffffff16604051808273ffffffffffffffffffffffffffffffffffffffff1673ffffffffffffffffffffffffffffffffffffffff16815260200191505060405180910390a133600160006101000a81548173ffffffffffffffffffffffffffffffffffffffff021916908373ffffffffffffffffffffffffffffffffffffffff1602179055507fcdb1fdb4703f653ea6f6ba7e018bf8508c4e61cac3bb0187c419e5dd863bec50600160009054906101000a900473ffffffffffffffffffffffffffffffffffffffff16604051808273ffffffffffffffffffffffffffffffffffffffff1673ffffffffffffffffffffffffffffffffffffffff16815260200191505060405180910390a133600260006101000a81548173ffffffffffffffffffffffffffffffffffffffff021916908373ffffffffffffffffffffffffffffffffffffffff1602179055507f9ac4999de6ca856e4619ce9f48d109e992281866886cd2ca7ca92c8f45f3e5c4600260009054906101000a900473ffffffffffffffffffffffffffffffffffffffff16604051808273ffffffffffffffffffffffffffffffffffffffff1673ffffffffffffffffffffffffffffffffffffffff16815260200191505060405180910390a16117f2806102636000396000f30060806040526004361061013e576000357c0100000000000000000000000000000000000000000000000000000000900463ffffffff16806303a46aa9146101435780630697cd461461019a5780633629c8de146101b1578063522831301461020857806378e979251461024b5780637fb3f97714610276578063837899e4146102a15780638413fad1146102d057806397f51974146102fd5780639c1e03a014610354578063a14d50f7146103ab578063a5fb62d6146103d6578063a9a981a314610403578063af29f2f41461042e578063b1a1f24714610490578063b1ccf10a146104a7578063b43e736c146104ea578063be0d24591461052d578063c224688e14610570578063c6fc265f146105cb578063d6a114631461061a578063d826f88f14610647578063e33169151461065e578063e53b61c9146106a1575b600080fd5b34801561014f57600080fd5b506101586106b8565b604051808273ffffffffffffffffffffffffffffffffffffffff1673ffffffffffffffffffffffffffffffffffffffff16815260200191505060405180910390f35b3480156101a657600080fd5b506101af6106de565b005b3480156101bd57600080fd5b506101c6610772565b604051808273ffffffffffffffffffffffffffffffffffffffff1673ffffffffffffffffffffffffffffffffffffffff16815260200191505060405180910390f35b34801561021457600080fd5b50610249600480360381019080803573ffffffffffffffffffffffffffffffffffffffff16906020019092919050505061079c565b005b34801561025757600080fd5b506102606108fd565b6040518082815260200191505060405180910390f35b34801561028257600080fd5b5061028b610903565b6040518082815260200191505060405180910390f35b3480156102ad57600080fd5b506102b6610923565b604051808215151515815260200191505060405180910390f35b3480156102dc57600080fd5b506102fb60048036038101908080359060200190929190505050610932565b005b34801561030957600080fd5b50610312610952565b604051808273ffffffffffffffffffffffffffffffffffffffff1673ffffffffffffffffffffffffffffffffffffffff16815260200191505060405180910390f35b34801561036057600080fd5b5061036961097c565b604051808273ffffffffffffffffffffffffffffffffffffffff1673ffffffffffffffffffffffffffffffffffffffff16815260200191505060405180910390f35b3480156103b757600080fd5b506103c06109a5565b6040518082815260200191505060405180910390f35b3480156103e257600080fd5b50610401600480360381019080803590602001909291905050506109ab565b005b34801561040f57600080fd5b506104186109b5565b6040518082815260200191505060405180910390f35b34801561043a57600080fd5b506104436109bb565b604051808373ffffffffffffffffffffffffffffffffffffffff1673ffffffffffffffffffffffffffffffffffffffff168152602001821515151581526020019250505060405180910390f35b34801561049c57600080fd5b506104a56109f1565b005b3480156104b357600080fd5b506104e8600480360381019080803573ffffffffffffffffffffffffffffffffffffffff169060200190929190505050610a6b565b005b3480156104f657600080fd5b5061052b600480360381019080803573ffffffffffffffffffffffffffffffffffffffff169060200190929190505050610cb7565b005b34801561053957600080fd5b5061056e600480360381019080803573ffffffffffffffffffffffffffffffffffffffff169060200190929190505050610cfb565b005b34801561057c57600080fd5b506105b1600480360381019080803573ffffffffffffffffffffffffffffffffffffffff169060200190929190505050610e59565b604051808215151515815260200191505060405180910390f35b3480156105d757600080fd5b50610618600480360381019080803573ffffffffffffffffffffffffffffffffffffffff169060200190929190803515159060200190929190505050610ec5565b005b34801561062657600080fd5b5061064560048036038101908080359060200190929190505050610f36565b005b34801561065357600080fd5b5061065c610f40565b005b34801561066a57600080fd5b5061069f600480360381019080803573ffffffffffffffffffffffffffffffffffffffff169060200190929190505050610fbe565b005b3480156106ad57600080fd5b506106b661111f565b005b600460009054906101000a900473ffffffffffffffffffffffffffffffffffffffff1681565b6106e66117b2565b6000600460006101000a81548173ffffffffffffffffffffffffffffffffffffffff021916908373ffffffffffffffffffffffffffffffffffffffff1602179055506000600581905550610746600160075461119790919063ffffffff16565b600781905550806008600060075481526020019081526020016000206000820151816001015590505050565b6000600160009054906101000a900473ffffffffffffffffffffffffffffffffffffffff16905090565b600260009054906101000a900473ffffffffffffffffffffffffffffffffffffffff1673ffffffffffffffffffffffffffffffffffffffff163373ffffffffffffffffffffffffffffffffffffffff161415156107f857600080fd5b600073ffffffffffffffffffffffffffffffffffffffff168173ffffffffffffffffffffffffffffffffffffffff161415151561083457600080fd5b80600260006101000a81548173ffffffffffffffffffffffffffffffffffffffff021916908373ffffffffffffffffffffffffffffffffffffffff1602179055507f9ac4999de6ca856e4619ce9f48d109e992281866886cd2ca7ca92c8f45f3e5c4600260009054906101000a900473ffffffffffffffffffffffffffffffffffffffff16604051808273ffffffffffffffffffffffffffffffffffffffff1673ffffffffffffffffffffffffffffffffffffffff16815260200191505060405180910390a150565b60065481565b600060086000600754815260200190815260200160002060010154905090565b600061092d6111b3565b905090565b806008600060075481526020019081526020016000206001018190555050565b6000600260009054906101000a900473ffffffffffffffffffffffffffffffffffffffff16905090565b60008060009054906101000a900473ffffffffffffffffffffffffffffffffffffffff16905090565b60055481565b8060058190555050565b60035481565b600080600460009054906101000a900473ffffffffffffffffffffffffffffffffffffffff166109e96111b3565b915091509091565b600260009054906101000a900473ffffffffffffffffffffffffffffffffffffffff1673ffffffffffffffffffffffffffffffffffffffff163373ffffffffffffffffffffffffffffffffffffffff16141515610a4d57600080fd5b610a63600160035461119790919063ffffffff16565b600381905550565b600073ffffffffffffffffffffffffffffffffffffffff168173ffffffffffffffffffffffffffffffffffffffff1614158015610b4457508073ffffffffffffffffffffffffffffffffffffffff166302fb0c5e6040518163ffffffff167c0100000000000000000000000000000000000000000000000000000000028152600401602060405180830381600087803b158015610b0757600080fd5b505af1158015610b1b573d6000803e3d6000fd5b505050506040513d6020811015610b3157600080fd5b8101908080519060200190929190505050155b1515610b4f57600080fd5b8073ffffffffffffffffffffffffffffffffffffffff16634b6753bc6040518163ffffffff167c0100000000000000000000000000000000000000000000000000000000028152600401602060405180830381600087803b158015610bb357600080fd5b505af1158015610bc7573d6000803e3d6000fd5b505050506040513d6020811015610bdd57600080fd5b8101908080519060200190929190505050600654101515610bfd57600080fd5b8073ffffffffffffffffffffffffffffffffffffffff1663fcfff16f6040518163ffffffff167c0100000000000000000000000000000000000000000000000000000000028152600401602060405180830381600087803b158015610c6157600080fd5b505af1158015610c75573d6000803e3d6000fd5b505050506040513d6020811015610c8b57600080fd5b810190808051906020019092919050505015610cab57610caa816111c6565b5b610cb48161125a565b50565b80600460006101000a81548173ffffffffffffffffffffffffffffffffffffffff021916908373ffffffffffffffffffffffffffffffffffffffff16021790555050565b6000809054906101000a900473ffffffffffffffffffffffffffffffffffffffff1673ffffffffffffffffffffffffffffffffffffffff163373ffffffffffffffffffffffffffffffffffffffff16141515610d5657600080fd5b600073ffffffffffffffffffffffffffffffffffffffff168173ffffffffffffffffffffffffffffffffffffffff1614151515610d9257600080fd5b806000806101000a81548173ffffffffffffffffffffffffffffffffffffffff021916908373ffffffffffffffffffffffffffffffffffffffff1602179055507fc14b2e8c3b0fecd3b6226c637c343009dca5171a0a6874475330c5c204a29c6c6000809054906101000a900473ffffffffffffffffffffffffffffffffffffffff16604051808273ffffffffffffffffffffffffffffffffffffffff1673ffffffffffffffffffffffffffffffffffffffff16815260200191505060405180910390a150565b600060086000600754815260200190815260200160002060000160008373ffffffffffffffffffffffffffffffffffffffff1673ffffffffffffffffffffffffffffffffffffffff16815260200190815260200160002060009054906101000a900460ff169050919050565b8060086000600754815260200190815260200160002060000160008473ffffffffffffffffffffffffffffffffffffffff1673ffffffffffffffffffffffffffffffffffffffff16815260200190815260200160002060006101000a81548160ff0219169083151502179055505050565b8060038190555050565b6000809054906101000a900473ffffffffffffffffffffffffffffffffffffffff1673ffffffffffffffffffffffffffffffffffffffff163373ffffffffffffffffffffffffffffffffffffffff16141515610f9b57600080fd5b610fa3611323565b610fad600061136d565b600060038190555042600681905550565b600160009054906101000a900473ffffffffffffffffffffffffffffffffffffffff1673ffffffffffffffffffffffffffffffffffffffff163373ffffffffffffffffffffffffffffffffffffffff1614151561101a57600080fd5b600073ffffffffffffffffffffffffffffffffffffffff168173ffffffffffffffffffffffffffffffffffffffff161415151561105657600080fd5b80600160006101000a81548173ffffffffffffffffffffffffffffffffffffffff021916908373ffffffffffffffffffffffffffffffffffffffff1602179055507fcdb1fdb4703f653ea6f6ba7e018bf8508c4e61cac3bb0187c419e5dd863bec50600160009054906101000a900473ffffffffffffffffffffffffffffffffffffffff16604051808273ffffffffffffffffffffffffffffffffffffffff1673ffffffffffffffffffffffffffffffffffffffff16815260200191505060405180910390a150565b600160009054906101000a900473ffffffffffffffffffffffffffffffffffffffff1673ffffffffffffffffffffffffffffffffffffffff163373ffffffffffffffffffffffffffffffffffffffff1614151561117b57600080fd5b611183611323565b61118d600061136d565b6111956113b9565b565b600081830190508281101515156111aa57fe5b80905092915050565b60006003546111c0610903565b14905090565b6000806000806111d46113d7565b9350831561121e576111e585611430565b92506111ef61148a565b91506111fa85611553565b9050818061120f575082801561120e575080155b5b1561121d5761121c611323565b5b5b8315806112285750815b806112305750805b156112435761123e8561136d565b611253565b8215611252576112516115ff565b5b5b5050505050565b6112638161172d565b15156113205761129560016008600060075481526020019081526020016000206001015461119790919063ffffffff16565b60086000600754815260200190815260200160002060010181905550600160086000600754815260200190815260200160002060000160008373ffffffffffffffffffffffffffffffffffffffff1673ffffffffffffffffffffffffffffffffffffffff16815260200190815260200160002060006101000a81548160ff0219169083151502179055505b50565b61132b6117b2565b611341600160075461119790919063ffffffff16565b600781905550806008600060075481526020019081526020016000206000820151816001015590505050565b80600460006101000a81548173ffffffffffffffffffffffffffffffffffffffff021916908373ffffffffffffffffffffffffffffffffffffffff1602179055506113b66115ff565b50565b6113cf600160035461179990919063ffffffff16565b600381905550565b60008073ffffffffffffffffffffffffffffffffffffffff16600460009054906101000a900473ffffffffffffffffffffffffffffffffffffffff1673ffffffffffffffffffffffffffffffffffffffff161415905090565b6000600460009054906101000a900473ffffffffffffffffffffffffffffffffffffffff1673ffffffffffffffffffffffffffffffffffffffff168273ffffffffffffffffffffffffffffffffffffffff16149050919050565b6000600460009054906101000a900473ffffffffffffffffffffffffffffffffffffffff1673ffffffffffffffffffffffffffffffffffffffff1663fcfff16f6040518163ffffffff167c0100000000000000000000000000000000000000000000000000000000028152600401602060405180830381600087803b15801561151257600080fd5b505af1158015611526573d6000803e3d6000fd5b505050506040513d602081101561153c57600080fd5b810190808051906020019092919050505015905090565b60006005548273ffffffffffffffffffffffffffffffffffffffff16630d15fd776040518163ffffffff167c0100000000000000000000000000000000000000000000000000000000028152600401602060405180830381600087803b1580156115bc57600080fd5b505af11580156115d0573d6000803e3d6000fd5b505050506040513d60208110156115e657600080fd5b8101908080519060200190929190505050119050919050565b600073ffffffffffffffffffffffffffffffffffffffff16600460009054906101000a900473ffffffffffffffffffffffffffffffffffffffff1673ffffffffffffffffffffffffffffffffffffffff16141561166357600060058190555061172b565b600460009054906101000a900473ffffffffffffffffffffffffffffffffffffffff1673ffffffffffffffffffffffffffffffffffffffff16630d15fd776040518163ffffffff167c0100000000000000000000000000000000000000000000000000000000028152600401602060405180830381600087803b1580156116e957600080fd5b505af11580156116fd573d6000803e3d6000fd5b505050506040513d602081101561171357600080fd5b81019080805190602001909291905050506005819055505b565b600060086000600754815260200190815260200160002060000160008373ffffffffffffffffffffffffffffffffffffffff1673ffffffffffffffffffffffffffffffffffffffff16815260200190815260200160002060009054906101000a900460ff169050919050565b60008282111515156117a757fe5b818303905092915050565b6020604051908101604052806000815250905600a165627a7a7230582077bc82f0aa353c09aac72942777f7322fe87434f4aec0f949b4304b8e88e7cb00029",
  "source": " pragma solidity >=0.4.22 <0.6.0;\n import './ProjectLeaderTracker.sol';\n\n contract ProjectLeaderTrackerMock is ProjectLeaderTracker {\n   function totalChecked () public view returns(uint256) {\n     return checkCycle[currentCheckCycle].totalChecked;\n   }\n\n   function checkedStatusOf(address projectAddr) public view returns (bool) {\n     return checkCycle[currentCheckCycle].isChecked[projectAddr];\n   }\n\n   function setMockCheckedStatus (address  projectAddr, bool status) public {\n     checkCycle[currentCheckCycle].isChecked[projectAddr] = status;\n   }\n\n   function setStubCandidateCount (uint256 count) public {\n     candidateCount = count;\n   }\n\n   function setMockTotalChecked(uint256 num) public {\n     checkCycle[currentCheckCycle].totalChecked = num;\n   }\n\n   function setMockTentativeLeader (address  mockAddr) public {\n     tentativeLeaderAddr = mockAddr;\n   }\n\n   function resetMockTentativeProject () public {\n     tentativeLeaderAddr = address(0);\n     leadingVoteCount = 0;\n\n     ProjectsChecked memory newProjectsChecked;\n     currentCheckCycle = currentCheckCycle.add(1);\n     checkCycle[currentCheckCycle] = newProjectsChecked;\n   }\n\n   function mockTentativeLeaderConfirmed () public view returns (bool) {\n     return tentativeLeaderConfirmed();\n   }\n\n   function setMockLeadingVoteCount (uint256 count) public {\n     leadingVoteCount = count;\n   }\n   /* function considerTentativeLeaderShip (uint256 _projectId) public {\n     CallData storage methodState = method['considerTentativeLeaderShip'];\n     methodState.firstUint = _projectId;\n   }\n\n   function considerTentativeLeaderShip_ (uint256 _projectId) public {\n     super.considerTentativeLeaderShip(_projectId);\n   } */\n\n   /* function attemptProjectActivation () public {\n     CallData storage methodState = method['attemptProjectActivation'];\n     methodState.called = true;\n   }\n\n   function attemptProjectActivation_ () public {\n     super.attemptProjectActivation(); */\n   /* } */\n }\n",
  "sourcePath": "D:\\Projects\\SUWiserLLC\\serge\\contracts\\projectLeader\\ProjectLeaderTrackerMock.sol",
  "compiler": {
    "name": "solc",
    "version": "0.4.24+commit.e67f0147.Emscripten.clang"
  },
  "schemaVersion": "2.0.1",
  "updatedAt": "2022-02-19T15:47:01.592Z"
}