{
  "contractName": "Proposals",
  "abi": [
    {
      "constant": true,
      "inputs": [],
      "name": "totalAmendmentModifications",
      "outputs": [
        {
          "name": "",
          "type": "uint256"
        }
      ],
      "payable": false,
      "stateMutability": "view",
      "type": "function"
    },
    {
      "constant": true,
      "inputs": [],
      "name": "amendmentPoll",
      "outputs": [
        {
          "name": "",
          "type": "address"
        }
      ],
      "payable": false,
      "stateMutability": "view",
      "type": "function"
    },
    {
      "constant": false,
      "inputs": [],
      "name": "renounceOwnership",
      "outputs": [],
      "payable": false,
      "stateMutability": "nonpayable",
      "type": "function"
    },
    {
      "constant": true,
      "inputs": [],
      "name": "notAcceptingNewProposals",
      "outputs": [
        {
          "name": "",
          "type": "bool"
        }
      ],
      "payable": false,
      "stateMutability": "view",
      "type": "function"
    },
    {
      "constant": true,
      "inputs": [],
      "name": "totalNewAmendments",
      "outputs": [
        {
          "name": "",
          "type": "uint256"
        }
      ],
      "payable": false,
      "stateMutability": "view",
      "type": "function"
    },
    {
      "constant": true,
      "inputs": [],
      "name": "owner",
      "outputs": [
        {
          "name": "",
          "type": "address"
        }
      ],
      "payable": false,
      "stateMutability": "view",
      "type": "function"
    },
    {
      "constant": true,
      "inputs": [],
      "name": "totalAmendmentRemovals",
      "outputs": [
        {
          "name": "",
          "type": "uint256"
        }
      ],
      "payable": false,
      "stateMutability": "view",
      "type": "function"
    },
    {
      "constant": true,
      "inputs": [],
      "name": "_owner",
      "outputs": [
        {
          "name": "",
          "type": "address"
        }
      ],
      "payable": false,
      "stateMutability": "view",
      "type": "function"
    },
    {
      "constant": true,
      "inputs": [],
      "name": "developer",
      "outputs": [
        {
          "name": "",
          "type": "address"
        }
      ],
      "payable": false,
      "stateMutability": "view",
      "type": "function"
    },
    {
      "constant": true,
      "inputs": [],
      "name": "newCooperative",
      "outputs": [
        {
          "name": "",
          "type": "address"
        }
      ],
      "payable": false,
      "stateMutability": "view",
      "type": "function"
    },
    {
      "constant": false,
      "inputs": [
        {
          "name": "_newOwner",
          "type": "address"
        }
      ],
      "name": "transferOwnership",
      "outputs": [],
      "payable": false,
      "stateMutability": "nonpayable",
      "type": "function"
    },
    {
      "inputs": [
        {
          "name": "_developer",
          "type": "address"
        },
        {
          "name": "_amendmentPoll",
          "type": "address"
        }
      ],
      "payable": false,
      "stateMutability": "nonpayable",
      "type": "constructor"
    },
    {
      "anonymous": false,
      "inputs": [
        {
          "indexed": true,
          "name": "previousOwner",
          "type": "address"
        }
      ],
      "name": "OwnershipRenounced",
      "type": "event"
    },
    {
      "anonymous": false,
      "inputs": [
        {
          "indexed": true,
          "name": "previousOwner",
          "type": "address"
        },
        {
          "indexed": true,
          "name": "newOwner",
          "type": "address"
        }
      ],
      "name": "OwnershipTransferred",
      "type": "event"
    },
    {
      "constant": false,
      "inputs": [
        {
          "name": "_newCooperative",
          "type": "address"
        }
      ],
      "name": "newCooperativeProposalExists",
      "outputs": [
        {
          "name": "",
          "type": "bool"
        }
      ],
      "payable": false,
      "stateMutability": "nonpayable",
      "type": "function"
    },
    {
      "constant": false,
      "inputs": [],
      "name": "closeAddingNewProposals",
      "outputs": [],
      "payable": false,
      "stateMutability": "nonpayable",
      "type": "function"
    },
    {
      "constant": false,
      "inputs": [
        {
          "name": "_newCooperative",
          "type": "address"
        }
      ],
      "name": "proposeNewCooperative",
      "outputs": [],
      "payable": false,
      "stateMutability": "nonpayable",
      "type": "function"
    },
    {
      "constant": false,
      "inputs": [
        {
          "name": "amendmentId",
          "type": "uint256"
        }
      ],
      "name": "proposeAmendmentModification",
      "outputs": [],
      "payable": false,
      "stateMutability": "nonpayable",
      "type": "function"
    },
    {
      "constant": false,
      "inputs": [
        {
          "name": "newAmendment",
          "type": "address"
        }
      ],
      "name": "proposeNewAmendment",
      "outputs": [],
      "payable": false,
      "stateMutability": "nonpayable",
      "type": "function"
    },
    {
      "constant": false,
      "inputs": [
        {
          "name": "amendmentId",
          "type": "uint256"
        }
      ],
      "name": "proposeAmendmentRemoval",
      "outputs": [],
      "payable": false,
      "stateMutability": "nonpayable",
      "type": "function"
    },
    {
      "constant": false,
      "inputs": [
        {
          "name": "_modificationProposal",
          "type": "address"
        }
      ],
      "name": "modificationProposalExists",
      "outputs": [
        {
          "name": "",
          "type": "bool"
        }
      ],
      "payable": false,
      "stateMutability": "nonpayable",
      "type": "function"
    },
    {
      "constant": false,
      "inputs": [
        {
          "name": "_removalProposal",
          "type": "address"
        }
      ],
      "name": "removalProposalExists",
      "outputs": [
        {
          "name": "",
          "type": "bool"
        }
      ],
      "payable": false,
      "stateMutability": "nonpayable",
      "type": "function"
    },
    {
      "constant": false,
      "inputs": [
        {
          "name": "_newProposal",
          "type": "address"
        }
      ],
      "name": "newProposalExists",
      "outputs": [
        {
          "name": "",
          "type": "bool"
        }
      ],
      "payable": false,
      "stateMutability": "nonpayable",
      "type": "function"
    },
    {
      "constant": false,
      "inputs": [],
      "name": "recordCooperativeAdoption",
      "outputs": [],
      "payable": false,
      "stateMutability": "nonpayable",
      "type": "function"
    },
    {
      "constant": false,
      "inputs": [
        {
          "name": "_modificationProposal",
          "type": "address"
        }
      ],
      "name": "recordModificationAdoption",
      "outputs": [],
      "payable": false,
      "stateMutability": "nonpayable",
      "type": "function"
    },
    {
      "constant": false,
      "inputs": [
        {
          "name": "_newProposal",
          "type": "address"
        }
      ],
      "name": "recordNewAdoption",
      "outputs": [],
      "payable": false,
      "stateMutability": "nonpayable",
      "type": "function"
    },
    {
      "constant": false,
      "inputs": [
        {
          "name": "_removalProposal",
          "type": "address"
        }
      ],
      "name": "recordRemovalAdoption",
      "outputs": [],
      "payable": false,
      "stateMutability": "nonpayable",
      "type": "function"
    }
  ],
  "bytecode": "0x608060405234801561001057600080fd5b50604051604080612b768339810180604052810190808051906020019092919080519060200190929190505050336000806101000a81548173ffffffffffffffffffffffffffffffffffffffff021916908373ffffffffffffffffffffffffffffffffffffffff16021790555081600260006101000a81548173ffffffffffffffffffffffffffffffffffffffff021916908373ffffffffffffffffffffffffffffffffffffffff16021790555080600360006101000a81548173ffffffffffffffffffffffffffffffffffffffff021916908373ffffffffffffffffffffffffffffffffffffffff1602179055505050612a66806101106000396000f30060806040526004361061013e576000357c0100000000000000000000000000000000000000000000000000000000900463ffffffff16806315e452af14610143578063216d4bcb1461019e578063259a1e7d146101f957806326acc0651461023c578063326cef6414610267578063351b8ede14610294578063356ee53c146102ef578063360520aa1461034a5780634ddeafb714610377578063715018a6146103ce5780637a7bae04146103e5578063801c087614610414578063859e9dce1461043f5780638da5cb5b1461048257806390e18336146104d95780639796a7e31461051c578063b2bdfa7b14610547578063ca4b208b1461059e578063cb0fc30a146105f5578063de1bf09b1461064c578063e491553514610663578063ee5ddc7d146106a6578063f2fde38b146106bd578063faf24ad614610700575b600080fd5b34801561014f57600080fd5b50610184600480360381019080803573ffffffffffffffffffffffffffffffffffffffff169060200190929190505050610743565b604051808215151515815260200191505060405180910390f35b3480156101aa57600080fd5b506101df600480360381019080803573ffffffffffffffffffffffffffffffffffffffff16906020019092919050505061079d565b604051808215151515815260200191505060405180910390f35b34801561020557600080fd5b5061023a600480360381019080803573ffffffffffffffffffffffffffffffffffffffff1690602001909291905050506107f3565b005b34801561024857600080fd5b506102516108a9565b6040518082815260200191505060405180910390f35b34801561027357600080fd5b50610292600480360381019080803590602001909291905050506108af565b005b3480156102a057600080fd5b506102d5600480360381019080803573ffffffffffffffffffffffffffffffffffffffff169060200190929190505050610b75565b604051808215151515815260200191505060405180910390f35b3480156102fb57600080fd5b50610330600480360381019080803573ffffffffffffffffffffffffffffffffffffffff169060200190929190505050610bcb565b604051808215151515815260200191505060405180910390f35b34801561035657600080fd5b5061037560048036038101908080359060200190929190505050610c21565b005b34801561038357600080fd5b5061038c610f11565b604051808273ffffffffffffffffffffffffffffffffffffffff1673ffffffffffffffffffffffffffffffffffffffff16815260200191505060405180910390f35b3480156103da57600080fd5b506103e3610f37565b005b3480156103f157600080fd5b506103fa611039565b604051808215151515815260200191505060405180910390f35b34801561042057600080fd5b5061042961104c565b6040518082815260200191505060405180910390f35b34801561044b57600080fd5b50610480600480360381019080803573ffffffffffffffffffffffffffffffffffffffff169060200190929190505050611052565b005b34801561048e57600080fd5b50610497611108565b604051808273ffffffffffffffffffffffffffffffffffffffff1673ffffffffffffffffffffffffffffffffffffffff16815260200191505060405180910390f35b3480156104e557600080fd5b5061051a600480360381019080803573ffffffffffffffffffffffffffffffffffffffff16906020019092919050505061112d565b005b34801561052857600080fd5b506105316111e3565b6040518082815260200191505060405180910390f35b34801561055357600080fd5b5061055c6111e9565b604051808273ffffffffffffffffffffffffffffffffffffffff1673ffffffffffffffffffffffffffffffffffffffff16815260200191505060405180910390f35b3480156105aa57600080fd5b506105b3611212565b604051808273ffffffffffffffffffffffffffffffffffffffff1673ffffffffffffffffffffffffffffffffffffffff16815260200191505060405180910390f35b34801561060157600080fd5b5061060a611238565b604051808273ffffffffffffffffffffffffffffffffffffffff1673ffffffffffffffffffffffffffffffffffffffff16815260200191505060405180910390f35b34801561065857600080fd5b5061066161125e565b005b34801561066f57600080fd5b506106a4600480360381019080803573ffffffffffffffffffffffffffffffffffffffff1690602001909291905050506112fd565b005b3480156106b257600080fd5b506106bb611416565b005b3480156106c957600080fd5b506106fe600480360381019080803573ffffffffffffffffffffffffffffffffffffffff16906020019092919050505061148e565b005b34801561070c57600080fd5b50610741600480360381019080803573ffffffffffffffffffffffffffffffffffffffff1690602001909291905050506114fd565b005b60008173ffffffffffffffffffffffffffffffffffffffff16600d60009054906101000a900473ffffffffffffffffffffffffffffffffffffffff1673ffffffffffffffffffffffffffffffffffffffff16149050919050565b6000600660008373ffffffffffffffffffffffffffffffffffffffff1673ffffffffffffffffffffffffffffffffffffffff16815260200190815260200160002060009054906101000a900460ff169050919050565b6000809054906101000a900473ffffffffffffffffffffffffffffffffffffffff1673ffffffffffffffffffffffffffffffffffffffff163373ffffffffffffffffffffffffffffffffffffffff1614151561084e57600080fd5b6000600660008373ffffffffffffffffffffffffffffffffffffffff1673ffffffffffffffffffffffffffffffffffffffff16815260200190815260200160002060006101000a81548160ff02191690831515021790555050565b60075481565b600080600260009054906101000a900473ffffffffffffffffffffffffffffffffffffffff1673ffffffffffffffffffffffffffffffffffffffff163373ffffffffffffffffffffffffffffffffffffffff1614151561090e57600080fd5b600360149054906101000a900460ff1615151561092a57600080fd5b82600360009054906101000a900473ffffffffffffffffffffffffffffffffffffffff16600260009054906101000a900473ffffffffffffffffffffffffffffffffffffffff1661097961171d565b808481526020018373ffffffffffffffffffffffffffffffffffffffff1673ffffffffffffffffffffffffffffffffffffffff1681526020018273ffffffffffffffffffffffffffffffffffffffff1673ffffffffffffffffffffffffffffffffffffffff1681526020019350505050604051809103906000f080158015610a05573d6000803e3d6000fd5b5091508190508073ffffffffffffffffffffffffffffffffffffffff1663f2fde38b610a2f6111e9565b6040518263ffffffff167c0100000000000000000000000000000000000000000000000000000000028152600401808273ffffffffffffffffffffffffffffffffffffffff1673ffffffffffffffffffffffffffffffffffffffff168152602001915050600060405180830381600087803b158015610aad57600080fd5b505af1158015610ac1573d6000803e3d6000fd5b505050506001600754016007819055508060086000600754815260200190815260200160002060006101000a81548173ffffffffffffffffffffffffffffffffffffffff021916908373ffffffffffffffffffffffffffffffffffffffff160217905550600960008373ffffffffffffffffffffffffffffffffffffffff1673ffffffffffffffffffffffffffffffffffffffff16815260200190815260200160002060009054906101000a905050505050565b6000600c60008373ffffffffffffffffffffffffffffffffffffffff1673ffffffffffffffffffffffffffffffffffffffff16815260200190815260200160002060009054906101000a900460ff169050919050565b6000600960008373ffffffffffffffffffffffffffffffffffffffff1673ffffffffffffffffffffffffffffffffffffffff16815260200190815260200160002060009054906101000a900460ff169050919050565b600080600260009054906101000a900473ffffffffffffffffffffffffffffffffffffffff1673ffffffffffffffffffffffffffffffffffffffff163373ffffffffffffffffffffffffffffffffffffffff16141515610c8057600080fd5b6000809054906101000a900473ffffffffffffffffffffffffffffffffffffffff1673ffffffffffffffffffffffffffffffffffffffff1663a5e7e675846040518263ffffffff167c010000000000000000000000000000000000000000000000000000000002815260040180828152602001915050602060405180830381600087803b158015610d1057600080fd5b505af1158015610d24573d6000803e3d6000fd5b505050506040513d6020811015610d3a57600080fd5b81019080805190602001909291905050501515610d5657600080fd5b600360149054906101000a900460ff16151515610d7257600080fd5b82610d7b61172d565b80828152602001915050604051809103906000f080158015610da1573d6000803e3d6000fd5b5091508190508073ffffffffffffffffffffffffffffffffffffffff1663f2fde38b610dcb6111e9565b6040518263ffffffff167c0100000000000000000000000000000000000000000000000000000000028152600401808273ffffffffffffffffffffffffffffffffffffffff1673ffffffffffffffffffffffffffffffffffffffff168152602001915050600060405180830381600087803b158015610e4957600080fd5b505af1158015610e5d573d6000803e3d6000fd5b505050506001600a5401600a8190555080600b6000600a54815260200190815260200160002060006101000a81548173ffffffffffffffffffffffffffffffffffffffff021916908373ffffffffffffffffffffffffffffffffffffffff160217905550600c60008373ffffffffffffffffffffffffffffffffffffffff1673ffffffffffffffffffffffffffffffffffffffff16815260200190815260200160002060009054906101000a905050505050565b600360009054906101000a900473ffffffffffffffffffffffffffffffffffffffff1681565b6000809054906101000a900473ffffffffffffffffffffffffffffffffffffffff1673ffffffffffffffffffffffffffffffffffffffff163373ffffffffffffffffffffffffffffffffffffffff16141515610f9257600080fd5b6000809054906101000a900473ffffffffffffffffffffffffffffffffffffffff1673ffffffffffffffffffffffffffffffffffffffff167ff8df31144d9c2f0f6b59d69b8b98abd5459d07f2742c4df920b25aae33c6482060405160405180910390a260008060006101000a81548173ffffffffffffffffffffffffffffffffffffffff021916908373ffffffffffffffffffffffffffffffffffffffff160217905550565b600360149054906101000a900460ff1681565b60045481565b6000809054906101000a900473ffffffffffffffffffffffffffffffffffffffff1673ffffffffffffffffffffffffffffffffffffffff163373ffffffffffffffffffffffffffffffffffffffff161415156110ad57600080fd5b6000600960008373ffffffffffffffffffffffffffffffffffffffff1673ffffffffffffffffffffffffffffffffffffffff16815260200190815260200160002060006101000a81548160ff02191690831515021790555050565b6000809054906101000a900473ffffffffffffffffffffffffffffffffffffffff1681565b6000809054906101000a900473ffffffffffffffffffffffffffffffffffffffff1673ffffffffffffffffffffffffffffffffffffffff163373ffffffffffffffffffffffffffffffffffffffff1614151561118857600080fd5b6000600c60008373ffffffffffffffffffffffffffffffffffffffff1673ffffffffffffffffffffffffffffffffffffffff16815260200190815260200160002060006101000a81548160ff02191690831515021790555050565b600a5481565b60008060009054906101000a900473ffffffffffffffffffffffffffffffffffffffff16905090565b600260009054906101000a900473ffffffffffffffffffffffffffffffffffffffff1681565b600d60009054906101000a900473ffffffffffffffffffffffffffffffffffffffff1681565b6000809054906101000a900473ffffffffffffffffffffffffffffffffffffffff1673ffffffffffffffffffffffffffffffffffffffff163373ffffffffffffffffffffffffffffffffffffffff161415156112b957600080fd5b6000600d60006101000a81548173ffffffffffffffffffffffffffffffffffffffff021916908373ffffffffffffffffffffffffffffffffffffffff160217905550565b600260009054906101000a900473ffffffffffffffffffffffffffffffffffffffff1673ffffffffffffffffffffffffffffffffffffffff163373ffffffffffffffffffffffffffffffffffffffff1614151561135957600080fd5b600073ffffffffffffffffffffffffffffffffffffffff16600d60009054906101000a900473ffffffffffffffffffffffffffffffffffffffff1673ffffffffffffffffffffffffffffffffffffffff161415156113b657600080fd5b600360149054906101000a900460ff161515156113d257600080fd5b80600d60006101000a81548173ffffffffffffffffffffffffffffffffffffffff021916908373ffffffffffffffffffffffffffffffffffffffff16021790555050565b6000809054906101000a900473ffffffffffffffffffffffffffffffffffffffff1673ffffffffffffffffffffffffffffffffffffffff163373ffffffffffffffffffffffffffffffffffffffff1614151561147157600080fd5b6001600360146101000a81548160ff021916908315150217905550565b6000809054906101000a900473ffffffffffffffffffffffffffffffffffffffff1673ffffffffffffffffffffffffffffffffffffffff163373ffffffffffffffffffffffffffffffffffffffff161415156114e957600080fd5b60056001819055506114fa81611623565b50565b600260009054906101000a900473ffffffffffffffffffffffffffffffffffffffff1673ffffffffffffffffffffffffffffffffffffffff163373ffffffffffffffffffffffffffffffffffffffff1614151561155957600080fd5b600360149054906101000a900460ff1615151561157557600080fd5b6001600454016004819055508060056000600454815260200190815260200160002060006101000a81548173ffffffffffffffffffffffffffffffffffffffff021916908373ffffffffffffffffffffffffffffffffffffffff160217905550600660008273ffffffffffffffffffffffffffffffffffffffff1673ffffffffffffffffffffffffffffffffffffffff16815260200190815260200160002060009054906101000a90505050565b600073ffffffffffffffffffffffffffffffffffffffff168173ffffffffffffffffffffffffffffffffffffffff161415151561165f57600080fd5b8073ffffffffffffffffffffffffffffffffffffffff166000809054906101000a900473ffffffffffffffffffffffffffffffffffffffff1673ffffffffffffffffffffffffffffffffffffffff167f8be0079c531659141344cd1fd0a4f28419497f9722a3daafe3b4186f6b6457e060405160405180910390a3806000806101000a81548173ffffffffffffffffffffffffffffffffffffffff021916908373ffffffffffffffffffffffffffffffffffffffff16021790555050565b604051610d518061173e83390190565b6040516105ac8061248f833901905600608060405234801561001057600080fd5b50604051606080610d51833981018060405281019080805190602001909291908051906020019092919080519060200190929190505050336000806101000a81548173ffffffffffffffffffffffffffffffffffffffff021916908373ffffffffffffffffffffffffffffffffffffffff1602179055508260028190555081600360006101000a81548173ffffffffffffffffffffffffffffffffffffffff021916908373ffffffffffffffffffffffffffffffffffffffff16021790555080600460006101000a81548173ffffffffffffffffffffffffffffffffffffffff021916908373ffffffffffffffffffffffffffffffffffffffff160217905550505050610c2f806101226000396000f3006080604052600436106100af576000357c0100000000000000000000000000000000000000000000000000000000900463ffffffff1680630cdfe338146100b457806338994969146100e15780634ddeafb71461012e57806354bca3b214610185578063679ba61c14610208578063715018a61461023357806382234add1461024a5780638da5cb5b146102755780638dcba032146102cc578063b2bdfa7b146102f7578063f2fde38b1461034e575b600080fd5b3480156100c057600080fd5b506100df60048036038101908080359060200190929190505050610391565b005b3480156100ed57600080fd5b5061012c60048036038101908080359060200190929190803573ffffffffffffffffffffffffffffffffffffffff169060200190929190505050610547565b005b34801561013a57600080fd5b50610143610856565b604051808273ffffffffffffffffffffffffffffffffffffffff1673ffffffffffffffffffffffffffffffffffffffff16815260200191505060405180910390f35b34801561019157600080fd5b506101b06004803603810190808035906020019092919050505061087c565b604051808473ffffffffffffffffffffffffffffffffffffffff1673ffffffffffffffffffffffffffffffffffffffff1681526020018315151515815260200182151515158152602001935050505060405180910390f35b34801561021457600080fd5b5061021d6108e0565b6040518082815260200191505060405180910390f35b34801561023f57600080fd5b506102486108e6565b005b34801561025657600080fd5b5061025f6109e8565b6040518082815260200191505060405180910390f35b34801561028157600080fd5b5061028a6109ee565b604051808273ffffffffffffffffffffffffffffffffffffffff1673ffffffffffffffffffffffffffffffffffffffff16815260200191505060405180910390f35b3480156102d857600080fd5b506102e1610a13565b6040518082815260200191505060405180910390f35b34801561030357600080fd5b5061030c610a19565b604051808273ffffffffffffffffffffffffffffffffffffffff1673ffffffffffffffffffffffffffffffffffffffff16815260200191505060405180910390f35b34801561035a57600080fd5b5061038f600480360381019080803573ffffffffffffffffffffffffffffffffffffffff169060200190929190505050610a42565b005b6000806007600084815260200190815260200160002060000160159054906101000a900460ff1615156103c357600080fd5b60006007600085815260200190815260200160002060000160156101000a81548160ff0219169083151502179055506104086001600654610ab190919063ffffffff16565b6006819055506007600084815260200190815260200160002060000160009054906101000a900473ffffffffffffffffffffffffffffffffffffffff1691506005546006541490506000809054906101000a900473ffffffffffffffffffffffffffffffffffffffff1673ffffffffffffffffffffffffffffffffffffffff1663546b69536002548585856040518563ffffffff167c0100000000000000000000000000000000000000000000000000000000028152600401808581526020018481526020018373ffffffffffffffffffffffffffffffffffffffff1673ffffffffffffffffffffffffffffffffffffffff16815260200182151515158152602001945050505050600060405180830381600087803b15801561052a57600080fd5b505af115801561053e573d6000803e3d6000fd5b50505050505050565b61054f610bc7565b600460009054906101000a900473ffffffffffffffffffffffffffffffffffffffff1673ffffffffffffffffffffffffffffffffffffffff163373ffffffffffffffffffffffffffffffffffffffff161415156105ab57600080fd5b6000809054906101000a900473ffffffffffffffffffffffffffffffffffffffff1673ffffffffffffffffffffffffffffffffffffffff1663a5e7e675846040518263ffffffff167c010000000000000000000000000000000000000000000000000000000002815260040180828152602001915050602060405180830381600087803b15801561063b57600080fd5b505af115801561064f573d6000803e3d6000fd5b505050506040513d602081101561066557600080fd5b8101908080519060200190929190505050151561068157600080fd5b600360009054906101000a900473ffffffffffffffffffffffffffffffffffffffff1673ffffffffffffffffffffffffffffffffffffffff1663fcfff16f6040518163ffffffff167c0100000000000000000000000000000000000000000000000000000000028152600401602060405180830381600087803b15801561070757600080fd5b505af115801561071b573d6000803e3d6000fd5b505050506040513d602081101561073157600080fd5b810190808051906020019092919050505015151561074e57600080fd5b6107646001600554610ab190919063ffffffff16565b60058190555081816000019073ffffffffffffffffffffffffffffffffffffffff16908173ffffffffffffffffffffffffffffffffffffffff16815250506001816040019015159081151581525050806007600085815260200190815260200160002060008201518160000160006101000a81548173ffffffffffffffffffffffffffffffffffffffff021916908373ffffffffffffffffffffffffffffffffffffffff16021790555060208201518160000160146101000a81548160ff02191690831515021790555060408201518160000160156101000a81548160ff021916908315150217905550905050505050565b600360009054906101000a900473ffffffffffffffffffffffffffffffffffffffff1681565b60076020528060005260406000206000915090508060000160009054906101000a900473ffffffffffffffffffffffffffffffffffffffff16908060000160149054906101000a900460ff16908060000160159054906101000a900460ff16905083565b60025481565b6000809054906101000a900473ffffffffffffffffffffffffffffffffffffffff1673ffffffffffffffffffffffffffffffffffffffff163373ffffffffffffffffffffffffffffffffffffffff1614151561094157600080fd5b6000809054906101000a900473ffffffffffffffffffffffffffffffffffffffff1673ffffffffffffffffffffffffffffffffffffffff167ff8df31144d9c2f0f6b59d69b8b98abd5459d07f2742c4df920b25aae33c6482060405160405180910390a260008060006101000a81548173ffffffffffffffffffffffffffffffffffffffff021916908373ffffffffffffffffffffffffffffffffffffffff160217905550565b60065481565b6000809054906101000a900473ffffffffffffffffffffffffffffffffffffffff1681565b60055481565b60008060009054906101000a900473ffffffffffffffffffffffffffffffffffffffff16905090565b6000809054906101000a900473ffffffffffffffffffffffffffffffffffffffff1673ffffffffffffffffffffffffffffffffffffffff163373ffffffffffffffffffffffffffffffffffffffff16141515610a9d57600080fd5b6005600181905550610aae81610acd565b50565b60008183019050828110151515610ac457fe5b80905092915050565b600073ffffffffffffffffffffffffffffffffffffffff168173ffffffffffffffffffffffffffffffffffffffff1614151515610b0957600080fd5b8073ffffffffffffffffffffffffffffffffffffffff166000809054906101000a900473ffffffffffffffffffffffffffffffffffffffff1673ffffffffffffffffffffffffffffffffffffffff167f8be0079c531659141344cd1fd0a4f28419497f9722a3daafe3b4186f6b6457e060405160405180910390a3806000806101000a81548173ffffffffffffffffffffffffffffffffffffffff021916908373ffffffffffffffffffffffffffffffffffffffff16021790555050565b606060405190810160405280600073ffffffffffffffffffffffffffffffffffffffff16815260200160001515815260200160001515815250905600a165627a7a72305820dc1b540a533bcbbcf90253d9387094d8e65cb249bfa9d680839658a20094f93d0029608060405234801561001057600080fd5b506040516020806105ac83398101806040528101908080519060200190929190505050336000806101000a81548173ffffffffffffffffffffffffffffffffffffffff021916908373ffffffffffffffffffffffffffffffffffffffff16021790555080600281905550506105228061008a6000396000f30060806040526004361061006d576000357c0100000000000000000000000000000000000000000000000000000000900463ffffffff168063715018a6146100725780638da5cb5b14610089578063b2bdfa7b146100e0578063c303e4b214610137578063f2fde38b1461014e575b600080fd5b34801561007e57600080fd5b50610087610191565b005b34801561009557600080fd5b5061009e610293565b604051808273ffffffffffffffffffffffffffffffffffffffff1673ffffffffffffffffffffffffffffffffffffffff16815260200191505060405180910390f35b3480156100ec57600080fd5b506100f56102b8565b604051808273ffffffffffffffffffffffffffffffffffffffff1673ffffffffffffffffffffffffffffffffffffffff16815260200191505060405180910390f35b34801561014357600080fd5b5061014c6102e1565b005b34801561015a57600080fd5b5061018f600480360381019080803573ffffffffffffffffffffffffffffffffffffffff16906020019092919050505061038d565b005b6000809054906101000a900473ffffffffffffffffffffffffffffffffffffffff1673ffffffffffffffffffffffffffffffffffffffff163373ffffffffffffffffffffffffffffffffffffffff161415156101ec57600080fd5b6000809054906101000a900473ffffffffffffffffffffffffffffffffffffffff1673ffffffffffffffffffffffffffffffffffffffff167ff8df31144d9c2f0f6b59d69b8b98abd5459d07f2742c4df920b25aae33c6482060405160405180910390a260008060006101000a81548173ffffffffffffffffffffffffffffffffffffffff021916908373ffffffffffffffffffffffffffffffffffffffff160217905550565b6000809054906101000a900473ffffffffffffffffffffffffffffffffffffffff1681565b60008060009054906101000a900473ffffffffffffffffffffffffffffffffffffffff16905090565b6000809054906101000a900473ffffffffffffffffffffffffffffffffffffffff1673ffffffffffffffffffffffffffffffffffffffff1663a87775426002546040518263ffffffff167c010000000000000000000000000000000000000000000000000000000002815260040180828152602001915050600060405180830381600087803b15801561037357600080fd5b505af1158015610387573d6000803e3d6000fd5b50505050565b6000809054906101000a900473ffffffffffffffffffffffffffffffffffffffff1673ffffffffffffffffffffffffffffffffffffffff163373ffffffffffffffffffffffffffffffffffffffff161415156103e857600080fd5b60056001819055506103f9816103fc565b50565b600073ffffffffffffffffffffffffffffffffffffffff168173ffffffffffffffffffffffffffffffffffffffff161415151561043857600080fd5b8073ffffffffffffffffffffffffffffffffffffffff166000809054906101000a900473ffffffffffffffffffffffffffffffffffffffff1673ffffffffffffffffffffffffffffffffffffffff167f8be0079c531659141344cd1fd0a4f28419497f9722a3daafe3b4186f6b6457e060405160405180910390a3806000806101000a81548173ffffffffffffffffffffffffffffffffffffffff021916908373ffffffffffffffffffffffffffffffffffffffff160217905550505600a165627a7a72305820b1cd6d84f189886ae4fab10678836c62390a88210ce68eb1c2d4741a611eb6460029a165627a7a72305820394a5bc4bcf874d7926f55d3a4c3611cd7d1868898152dcb62ba3b59085f5fee0029",
  "source": "pragma solidity >=0.4.22 <0.6.0;\nimport './utility/Ownable.sol';\nimport './AmendmentRemovalProposal.sol';\nimport './AmendmentModificationProposal.sol';\nimport './AmendmentPoll.sol';\nimport './Cooperative0.sol';\n\ncontract Proposals is Ownable {\n  address public developer;\n  AmendmentPoll public amendmentPoll;\n\n  constructor(address _developer, AmendmentPoll _amendmentPoll) public {\n    developer = _developer;\n    amendmentPoll = AmendmentPoll(_amendmentPoll);\n  }\n\n  bool public notAcceptingNewProposals;\n\n  uint256 public totalNewAmendments;\n  mapping(uint256 => address) internal newProposal;\n  mapping(address => bool) internal _newProposalExists;\n\n  uint256 public totalAmendmentModifications;\n  mapping(uint256 => AmendmentModificationProposal) internal modificationProposal;\n  mapping(address => bool) internal _modificationProposalExists;\n\n  uint256 public totalAmendmentRemovals;\n  mapping(uint256 => AmendmentRemovalProposal) internal removalProposal;\n  mapping(address => bool) internal _removalProposalExists;\n\n  address public newCooperative;\n\n  function newCooperativeProposalExists (address _newCooperative) public returns (bool) {\n    return newCooperative == _newCooperative;\n  }\n\n  function closeAddingNewProposals () onlyOwner external {\n    notAcceptingNewProposals = true;\n  }\n\n  function proposeNewCooperative (address _newCooperative) external {\n    require(msg.sender == developer);\n    require(newCooperative == address(0));\n    require(!notAcceptingNewProposals);\n    newCooperative = _newCooperative;\n  }\n\n  function proposeAmendmentModification (uint256 amendmentId) external {\n    require(msg.sender == developer);\n    require(!notAcceptingNewProposals);\n    address proposalAddress = new AmendmentModificationProposal(amendmentId, amendmentPoll, developer);\n    AmendmentModificationProposal _newProposal = AmendmentModificationProposal(proposalAddress);\n    _newProposal.transferOwnership(_owner());\n    totalAmendmentModifications = totalAmendmentModifications + 1;\n    modificationProposal[totalAmendmentModifications] = _newProposal;\n    _modificationProposalExists[proposalAddress];\n  }\n\n  function proposeNewAmendment (Amendment newAmendment) external {\n    require(msg.sender == developer);\n    require(!notAcceptingNewProposals);\n    totalNewAmendments = totalNewAmendments + 1;\n    newProposal[totalNewAmendments] = address(newAmendment);\n    _newProposalExists[newAmendment];\n  }\n\n  function proposeAmendmentRemoval (uint256 amendmentId) external {\n    require(msg.sender == developer);\n    require(Cooperative0(owner).canModify(amendmentId));\n    require(!notAcceptingNewProposals);\n    address proposalAddress = new AmendmentRemovalProposal(amendmentId);\n    AmendmentRemovalProposal _removalProposal = AmendmentRemovalProposal(proposalAddress);\n    _removalProposal.transferOwnership(_owner());\n    totalAmendmentRemovals = totalAmendmentRemovals + 1;\n    removalProposal[totalAmendmentRemovals] = _removalProposal;\n    _removalProposalExists[proposalAddress];\n  }\n\n  function modificationProposalExists(address _modificationProposal) external returns (bool) {\n    return _modificationProposalExists[_modificationProposal];\n  }\n\n  function removalProposalExists(address _removalProposal) external returns (bool) {\n    return _removalProposalExists[_removalProposal];\n  }\n\n  function newProposalExists(address _newProposal) external returns (bool) {\n    return _newProposalExists[_newProposal];\n  }\n\n  function recordCooperativeAdoption() external onlyOwner {\n    newCooperative = address(0);\n  }\n\n  function recordModificationAdoption(address _modificationProposal) external onlyOwner {\n    _modificationProposalExists[_modificationProposal] = false;\n  }\n\n  function recordNewAdoption(address _newProposal) external onlyOwner {\n    _newProposalExists[_newProposal] = false;\n  }\n\n  function recordRemovalAdoption(address _removalProposal) external onlyOwner {\n    _removalProposalExists[_removalProposal] = false;\n  }\n}\n",
  "sourcePath": "D:\\Projects\\SUWiserLLC\\serge\\contracts\\Proposals.sol",
  "compiler": {
    "name": "solc",
    "version": "0.4.24+commit.e67f0147.Emscripten.clang"
  },
  "schemaVersion": "2.0.1",
  "updatedAt": "2022-02-19T17:44:11.894Z"
}