{
  "contractName": "ProposalsStub",
  "abi": [
    {
      "constant": true,
      "inputs": [],
      "name": "totalAmendmentModifications",
      "outputs": [
        {
          "name": "",
          "type": "uint256"
        }
      ],
      "payable": false,
      "stateMutability": "view",
      "type": "function"
    },
    {
      "constant": false,
      "inputs": [
        {
          "name": "amendmentId",
          "type": "uint256"
        }
      ],
      "name": "proposeAmendmentModification",
      "outputs": [],
      "payable": false,
      "stateMutability": "nonpayable",
      "type": "function"
    },
    {
      "constant": false,
      "inputs": [
        {
          "name": "amendmentId",
          "type": "uint256"
        }
      ],
      "name": "proposeAmendmentRemoval",
      "outputs": [],
      "payable": false,
      "stateMutability": "nonpayable",
      "type": "function"
    },
    {
      "constant": true,
      "inputs": [],
      "name": "amendmentPoll",
      "outputs": [
        {
          "name": "",
          "type": "address"
        }
      ],
      "payable": false,
      "stateMutability": "view",
      "type": "function"
    },
    {
      "constant": false,
      "inputs": [
        {
          "name": "methodName",
          "type": "string"
        }
      ],
      "name": "addMethod",
      "outputs": [],
      "payable": false,
      "stateMutability": "nonpayable",
      "type": "function"
    },
    {
      "constant": true,
      "inputs": [
        {
          "name": "methodName",
          "type": "string"
        }
      ],
      "name": "callHistory",
      "outputs": [
        {
          "name": "",
          "type": "uint256"
        },
        {
          "name": "",
          "type": "uint256"
        },
        {
          "name": "",
          "type": "uint256"
        },
        {
          "name": "",
          "type": "string"
        },
        {
          "name": "",
          "type": "string"
        },
        {
          "name": "",
          "type": "string"
        },
        {
          "name": "",
          "type": "address"
        },
        {
          "name": "",
          "type": "address"
        },
        {
          "name": "",
          "type": "address"
        },
        {
          "name": "",
          "type": "bool"
        },
        {
          "name": "",
          "type": "bool"
        }
      ],
      "payable": false,
      "stateMutability": "view",
      "type": "function"
    },
    {
      "constant": false,
      "inputs": [],
      "name": "renounceOwnership",
      "outputs": [],
      "payable": false,
      "stateMutability": "nonpayable",
      "type": "function"
    },
    {
      "constant": true,
      "inputs": [],
      "name": "notAcceptingNewProposals",
      "outputs": [
        {
          "name": "",
          "type": "bool"
        }
      ],
      "payable": false,
      "stateMutability": "view",
      "type": "function"
    },
    {
      "constant": true,
      "inputs": [],
      "name": "totalNewAmendments",
      "outputs": [
        {
          "name": "",
          "type": "uint256"
        }
      ],
      "payable": false,
      "stateMutability": "view",
      "type": "function"
    },
    {
      "constant": true,
      "inputs": [],
      "name": "owner",
      "outputs": [
        {
          "name": "",
          "type": "address"
        }
      ],
      "payable": false,
      "stateMutability": "view",
      "type": "function"
    },
    {
      "constant": true,
      "inputs": [],
      "name": "totalAmendmentRemovals",
      "outputs": [
        {
          "name": "",
          "type": "uint256"
        }
      ],
      "payable": false,
      "stateMutability": "view",
      "type": "function"
    },
    {
      "constant": true,
      "inputs": [],
      "name": "_owner",
      "outputs": [
        {
          "name": "",
          "type": "address"
        }
      ],
      "payable": false,
      "stateMutability": "view",
      "type": "function"
    },
    {
      "constant": true,
      "inputs": [],
      "name": "developer",
      "outputs": [
        {
          "name": "",
          "type": "address"
        }
      ],
      "payable": false,
      "stateMutability": "view",
      "type": "function"
    },
    {
      "constant": true,
      "inputs": [],
      "name": "newCooperative",
      "outputs": [
        {
          "name": "",
          "type": "address"
        }
      ],
      "payable": false,
      "stateMutability": "view",
      "type": "function"
    },
    {
      "constant": false,
      "inputs": [
        {
          "name": "_newCooperative",
          "type": "address"
        }
      ],
      "name": "proposeNewCooperative",
      "outputs": [],
      "payable": false,
      "stateMutability": "nonpayable",
      "type": "function"
    },
    {
      "constant": false,
      "inputs": [
        {
          "name": "_newOwner",
          "type": "address"
        }
      ],
      "name": "transferOwnership",
      "outputs": [],
      "payable": false,
      "stateMutability": "nonpayable",
      "type": "function"
    },
    {
      "constant": false,
      "inputs": [
        {
          "name": "methodName",
          "type": "string"
        }
      ],
      "name": "resetMethod",
      "outputs": [],
      "payable": false,
      "stateMutability": "nonpayable",
      "type": "function"
    },
    {
      "constant": false,
      "inputs": [
        {
          "name": "newAmendment",
          "type": "address"
        }
      ],
      "name": "proposeNewAmendment",
      "outputs": [],
      "payable": false,
      "stateMutability": "nonpayable",
      "type": "function"
    },
    {
      "inputs": [
        {
          "name": "_developer",
          "type": "address"
        },
        {
          "name": "_amendmentPoll",
          "type": "address"
        }
      ],
      "payable": false,
      "stateMutability": "nonpayable",
      "type": "constructor"
    },
    {
      "anonymous": false,
      "inputs": [
        {
          "indexed": true,
          "name": "previousOwner",
          "type": "address"
        }
      ],
      "name": "OwnershipRenounced",
      "type": "event"
    },
    {
      "anonymous": false,
      "inputs": [
        {
          "indexed": true,
          "name": "previousOwner",
          "type": "address"
        },
        {
          "indexed": true,
          "name": "newOwner",
          "type": "address"
        }
      ],
      "name": "OwnershipTransferred",
      "type": "event"
    },
    {
      "constant": false,
      "inputs": [
        {
          "name": "n",
          "type": "uint256"
        }
      ],
      "name": "setTotalAmendmentModifications",
      "outputs": [],
      "payable": false,
      "stateMutability": "nonpayable",
      "type": "function"
    },
    {
      "constant": false,
      "inputs": [
        {
          "name": "n",
          "type": "uint256"
        }
      ],
      "name": "setTotalAmendmentRemovals",
      "outputs": [],
      "payable": false,
      "stateMutability": "nonpayable",
      "type": "function"
    },
    {
      "constant": false,
      "inputs": [
        {
          "name": "n",
          "type": "uint256"
        }
      ],
      "name": "setTotalNewAmendments",
      "outputs": [],
      "payable": false,
      "stateMutability": "nonpayable",
      "type": "function"
    },
    {
      "constant": false,
      "inputs": [],
      "name": "closeAddingNewProposals",
      "outputs": [],
      "payable": false,
      "stateMutability": "nonpayable",
      "type": "function"
    },
    {
      "constant": false,
      "inputs": [
        {
          "name": "a",
          "type": "address"
        }
      ],
      "name": "setProposalExists",
      "outputs": [],
      "payable": false,
      "stateMutability": "nonpayable",
      "type": "function"
    },
    {
      "constant": false,
      "inputs": [
        {
          "name": "a",
          "type": "address"
        }
      ],
      "name": "modificationProposalExists",
      "outputs": [
        {
          "name": "",
          "type": "bool"
        }
      ],
      "payable": false,
      "stateMutability": "nonpayable",
      "type": "function"
    },
    {
      "constant": false,
      "inputs": [
        {
          "name": "a",
          "type": "address"
        }
      ],
      "name": "newProposalExists",
      "outputs": [
        {
          "name": "",
          "type": "bool"
        }
      ],
      "payable": false,
      "stateMutability": "nonpayable",
      "type": "function"
    },
    {
      "constant": false,
      "inputs": [
        {
          "name": "a",
          "type": "address"
        }
      ],
      "name": "removalProposalExists",
      "outputs": [
        {
          "name": "",
          "type": "bool"
        }
      ],
      "payable": false,
      "stateMutability": "nonpayable",
      "type": "function"
    },
    {
      "constant": false,
      "inputs": [
        {
          "name": "a",
          "type": "address"
        }
      ],
      "name": "newCooperativeProposalExists",
      "outputs": [
        {
          "name": "",
          "type": "bool"
        }
      ],
      "payable": false,
      "stateMutability": "nonpayable",
      "type": "function"
    },
    {
      "constant": false,
      "inputs": [
        {
          "name": "adopted",
          "type": "address"
        }
      ],
      "name": "recordModificationAdoption",
      "outputs": [],
      "payable": false,
      "stateMutability": "nonpayable",
      "type": "function"
    },
    {
      "constant": false,
      "inputs": [
        {
          "name": "adopted",
          "type": "address"
        }
      ],
      "name": "recordNewAdoption",
      "outputs": [],
      "payable": false,
      "stateMutability": "nonpayable",
      "type": "function"
    },
    {
      "constant": false,
      "inputs": [
        {
          "name": "adopted",
          "type": "address"
        }
      ],
      "name": "recordRemovalAdoption",
      "outputs": [],
      "payable": false,
      "stateMutability": "nonpayable",
      "type": "function"
    },
    {
      "constant": false,
      "inputs": [],
      "name": "recordCooperativeAdoption",
      "outputs": [],
      "payable": false,
      "stateMutability": "nonpayable",
      "type": "function"
    }
  ],
  "bytecode": "0x608060405234801561001057600080fd5b50604051604080613a0b83398101806040528101908080519060200190929190805190602001909291905050508181336000806101000a81548173ffffffffffffffffffffffffffffffffffffffff021916908373ffffffffffffffffffffffffffffffffffffffff16021790555081600260006101000a81548173ffffffffffffffffffffffffffffffffffffffff021916908373ffffffffffffffffffffffffffffffffffffffff16021790555080600360006101000a81548173ffffffffffffffffffffffffffffffffffffffff021916908373ffffffffffffffffffffffffffffffffffffffff160217905550505050506138f7806101146000396000f30060806040526004361061018b576000357c0100000000000000000000000000000000000000000000000000000000900463ffffffff16806315e452af14610190578063216d4bcb146101eb578063259a1e7d1461024657806326acc0651461028957806331b911eb146102b4578063326cef64146102e157806332b3e3db1461030e578063351b8ede14610351578063356ee53c146103ac578063360520aa146104075780634ddeafb71461043457806351542e3a1461048b578063547d8020146104f4578063715018a6146107725780637a7bae0414610789578063801c0876146107b857806381909097146107e3578063859e9dce146108105780638da5cb5b1461085357806390e18336146108aa5780639796a7e3146108ed578063b2bdfa7b14610918578063bd264aef1461096f578063ca4b208b1461099c578063cb0fc30a146109f3578063de1bf09b14610a4a578063e491553514610a61578063ee5ddc7d14610aa4578063f2fde38b14610abb578063f427b13514610afe578063faf24ad614610b67575b600080fd5b34801561019c57600080fd5b506101d1600480360381019080803573ffffffffffffffffffffffffffffffffffffffff169060200190929190505050610baa565b604051808215151515815260200191505060405180910390f35b3480156101f757600080fd5b5061022c600480360381019080803573ffffffffffffffffffffffffffffffffffffffff169060200190929190505050610c04565b604051808215151515815260200191505060405180910390f35b34801561025257600080fd5b50610287600480360381019080803573ffffffffffffffffffffffffffffffffffffffff169060200190929190505050610c5e565b005b34801561029557600080fd5b5061029e610d04565b6040518082815260200191505060405180910390f35b3480156102c057600080fd5b506102df60048036038101908080359060200190929190505050610d0a565b005b3480156102ed57600080fd5b5061030c60048036038101908080359060200190929190505050610d14565b005b34801561031a57600080fd5b5061034f600480360381019080803573ffffffffffffffffffffffffffffffffffffffff169060200190929190505050610fda565b005b34801561035d57600080fd5b50610392600480360381019080803573ffffffffffffffffffffffffffffffffffffffff16906020019092919050505061101e565b604051808215151515815260200191505060405180910390f35b3480156103b857600080fd5b506103ed600480360381019080803573ffffffffffffffffffffffffffffffffffffffff169060200190929190505050611078565b604051808215151515815260200191505060405180910390f35b34801561041357600080fd5b50610432600480360381019080803590602001909291905050506110d2565b005b34801561044057600080fd5b506104496113c2565b604051808273ffffffffffffffffffffffffffffffffffffffff1673ffffffffffffffffffffffffffffffffffffffff16815260200191505060405180910390f35b34801561049757600080fd5b506104f2600480360381019080803590602001908201803590602001908080601f01602080910402602001604051908101604052809392919081815260200183838082843782019150505050505091929192905050506113e8565b005b34801561050057600080fd5b5061055b600480360381019080803590602001908201803590602001908080601f01602080910402602001604051908101604052809392919081815260200183838082843782019150505050505091929192905050506115f0565b604051808c81526020018b81526020018a81526020018060200180602001806020018973ffffffffffffffffffffffffffffffffffffffff1673ffffffffffffffffffffffffffffffffffffffff1681526020018873ffffffffffffffffffffffffffffffffffffffff1673ffffffffffffffffffffffffffffffffffffffff1681526020018773ffffffffffffffffffffffffffffffffffffffff1673ffffffffffffffffffffffffffffffffffffffff168152602001861515151581526020018515151515815260200184810384528c818151815260200191508051906020019080838360005b8381101561065f578082015181840152602081019050610644565b50505050905090810190601f16801561068c5780820380516001836020036101000a031916815260200191505b5084810383528b818151815260200191508051906020019080838360005b838110156106c55780820151818401526020810190506106aa565b50505050905090810190601f1680156106f25780820380516001836020036101000a031916815260200191505b5084810382528a818151815260200191508051906020019080838360005b8381101561072b578082015181840152602081019050610710565b50505050905090810190601f1680156107585780820380516001836020036101000a031916815260200191505b509e50505050505050505050505050505060405180910390f35b34801561077e57600080fd5b50610787611a29565b005b34801561079557600080fd5b5061079e611b2b565b604051808215151515815260200191505060405180910390f35b3480156107c457600080fd5b506107cd611b3e565b6040518082815260200191505060405180910390f35b3480156107ef57600080fd5b5061080e60048036038101908080359060200190929190505050611b44565b005b34801561081c57600080fd5b50610851600480360381019080803573ffffffffffffffffffffffffffffffffffffffff169060200190929190505050611b4e565b005b34801561085f57600080fd5b50610868611bf4565b604051808273ffffffffffffffffffffffffffffffffffffffff1673ffffffffffffffffffffffffffffffffffffffff16815260200191505060405180910390f35b3480156108b657600080fd5b506108eb600480360381019080803573ffffffffffffffffffffffffffffffffffffffff169060200190929190505050611c19565b005b3480156108f957600080fd5b50610902611cbf565b6040518082815260200191505060405180910390f35b34801561092457600080fd5b5061092d611cc5565b604051808273ffffffffffffffffffffffffffffffffffffffff1673ffffffffffffffffffffffffffffffffffffffff16815260200191505060405180910390f35b34801561097b57600080fd5b5061099a60048036038101908080359060200190929190505050611cee565b005b3480156109a857600080fd5b506109b1611cf8565b604051808273ffffffffffffffffffffffffffffffffffffffff1673ffffffffffffffffffffffffffffffffffffffff16815260200191505060405180910390f35b3480156109ff57600080fd5b50610a08611d1e565b604051808273ffffffffffffffffffffffffffffffffffffffff1673ffffffffffffffffffffffffffffffffffffffff16815260200191505060405180910390f35b348015610a5657600080fd5b50610a5f611d44565b005b348015610a6d57600080fd5b50610aa2600480360381019080803573ffffffffffffffffffffffffffffffffffffffff169060200190929190505050611da6565b005b348015610ab057600080fd5b50610ab9611ebf565b005b348015610ac757600080fd5b50610afc600480360381019080803573ffffffffffffffffffffffffffffffffffffffff169060200190929190505050611f47565b005b348015610b0a57600080fd5b50610b65600480360381019080803590602001908201803590602001908080601f0160208091040260200160405190810160405280939291908181526020018383808284378201915050505050509192919290505050611fb6565b005b348015610b7357600080fd5b50610ba8600480360381019080803573ffffffffffffffffffffffffffffffffffffffff1690602001909291905050506121c8565b005b6000600f60009054906101000a900473ffffffffffffffffffffffffffffffffffffffff1673ffffffffffffffffffffffffffffffffffffffff168273ffffffffffffffffffffffffffffffffffffffff16149050919050565b6000600f60009054906101000a900473ffffffffffffffffffffffffffffffffffffffff1673ffffffffffffffffffffffffffffffffffffffff168273ffffffffffffffffffffffffffffffffffffffff16149050919050565b6000600e60405180807f7265636f72644e657741646f7074696f6e000000000000000000000000000000815250601101905090815260200160405180910390209050818160060160006101000a81548173ffffffffffffffffffffffffffffffffffffffff021916908373ffffffffffffffffffffffffffffffffffffffff16021790555060018160080160146101000a81548160ff0219169083151502179055505050565b60075481565b8060078190555050565b600080600260009054906101000a900473ffffffffffffffffffffffffffffffffffffffff1673ffffffffffffffffffffffffffffffffffffffff163373ffffffffffffffffffffffffffffffffffffffff16141515610d7357600080fd5b600360149054906101000a900460ff16151515610d8f57600080fd5b82600360009054906101000a900473ffffffffffffffffffffffffffffffffffffffff16600260009054906101000a900473ffffffffffffffffffffffffffffffffffffffff16610dde6123e8565b808481526020018373ffffffffffffffffffffffffffffffffffffffff1673ffffffffffffffffffffffffffffffffffffffff1681526020018273ffffffffffffffffffffffffffffffffffffffff1673ffffffffffffffffffffffffffffffffffffffff1681526020019350505050604051809103906000f080158015610e6a573d6000803e3d6000fd5b5091508190508073ffffffffffffffffffffffffffffffffffffffff1663f2fde38b610e94611cc5565b6040518263ffffffff167c0100000000000000000000000000000000000000000000000000000000028152600401808273ffffffffffffffffffffffffffffffffffffffff1673ffffffffffffffffffffffffffffffffffffffff168152602001915050600060405180830381600087803b158015610f1257600080fd5b505af1158015610f26573d6000803e3d6000fd5b505050506001600754016007819055508060086000600754815260200190815260200160002060006101000a81548173ffffffffffffffffffffffffffffffffffffffff021916908373ffffffffffffffffffffffffffffffffffffffff160217905550600960008373ffffffffffffffffffffffffffffffffffffffff1673ffffffffffffffffffffffffffffffffffffffff16815260200190815260200160002060009054906101000a905050505050565b80600f60006101000a81548173ffffffffffffffffffffffffffffffffffffffff021916908373ffffffffffffffffffffffffffffffffffffffff16021790555050565b6000600f60009054906101000a900473ffffffffffffffffffffffffffffffffffffffff1673ffffffffffffffffffffffffffffffffffffffff168273ffffffffffffffffffffffffffffffffffffffff16149050919050565b6000600f60009054906101000a900473ffffffffffffffffffffffffffffffffffffffff1673ffffffffffffffffffffffffffffffffffffffff168273ffffffffffffffffffffffffffffffffffffffff16149050919050565b600080600260009054906101000a900473ffffffffffffffffffffffffffffffffffffffff1673ffffffffffffffffffffffffffffffffffffffff163373ffffffffffffffffffffffffffffffffffffffff1614151561113157600080fd5b6000809054906101000a900473ffffffffffffffffffffffffffffffffffffffff1673ffffffffffffffffffffffffffffffffffffffff1663a5e7e675846040518263ffffffff167c010000000000000000000000000000000000000000000000000000000002815260040180828152602001915050602060405180830381600087803b1580156111c157600080fd5b505af11580156111d5573d6000803e3d6000fd5b505050506040513d60208110156111eb57600080fd5b8101908080519060200190929190505050151561120757600080fd5b600360149054906101000a900460ff1615151561122357600080fd5b8261122c6123f8565b80828152602001915050604051809103906000f080158015611252573d6000803e3d6000fd5b5091508190508073ffffffffffffffffffffffffffffffffffffffff1663f2fde38b61127c611cc5565b6040518263ffffffff167c0100000000000000000000000000000000000000000000000000000000028152600401808273ffffffffffffffffffffffffffffffffffffffff1673ffffffffffffffffffffffffffffffffffffffff168152602001915050600060405180830381600087803b1580156112fa57600080fd5b505af115801561130e573d6000803e3d6000fd5b505050506001600a5401600a8190555080600b6000600a54815260200190815260200160002060006101000a81548173ffffffffffffffffffffffffffffffffffffffff021916908373ffffffffffffffffffffffffffffffffffffffff160217905550600c60008373ffffffffffffffffffffffffffffffffffffffff1673ffffffffffffffffffffffffffffffffffffffff16815260200190815260200160002060009054906101000a905050505050565b600360009054906101000a900473ffffffffffffffffffffffffffffffffffffffff1681565b6113f0612408565b80600e836040518082805190602001908083835b6020831015156114295780518252602082019150602081019050602083039250611404565b6001836020036101000a038019825116818451168082178552505050505050905001915050908152602001604051809103902060008201518160000155602082015181600101556040820151816002015560608201518160030190805190602001906114969291906124a9565b5060808201518160040190805190602001906114b39291906124a9565b5060a08201518160050190805190602001906114d09291906124a9565b5060c08201518160060160006101000a81548173ffffffffffffffffffffffffffffffffffffffff021916908373ffffffffffffffffffffffffffffffffffffffff16021790555060e08201518160070160006101000a81548173ffffffffffffffffffffffffffffffffffffffff021916908373ffffffffffffffffffffffffffffffffffffffff1602179055506101008201518160080160006101000a81548173ffffffffffffffffffffffffffffffffffffffff021916908373ffffffffffffffffffffffffffffffffffffffff1602179055506101208201518160080160146101000a81548160ff0219169083151502179055506101408201518160080160156101000a81548160ff0219169083151502179055509050505050565b60008060006060806060600080600080600061160a612408565b600e8d6040518082805190602001908083835b602083101515611642578051825260208201915060208101905060208303925061161d565b6001836020036101000a03801982511681845116808217855250505050505090500191505090815260200160405180910390206101606040519081016040529081600082015481526020016001820154815260200160028201548152602001600382018054600181600116156101000203166002900480601f0160208091040260200160405190810160405280929190818152602001828054600181600116156101000203166002900480156117395780601f1061170e57610100808354040283529160200191611739565b820191906000526020600020905b81548152906001019060200180831161171c57829003601f168201915b50505050508152602001600482018054600181600116156101000203166002900480601f0160208091040260200160405190810160405280929190818152602001828054600181600116156101000203166002900480156117db5780601f106117b0576101008083540402835291602001916117db565b820191906000526020600020905b8154815290600101906020018083116117be57829003601f168201915b50505050508152602001600582018054600181600116156101000203166002900480601f01602080910402602001604051908101604052809291908181526020018280546001816001161561010002031660029004801561187d5780601f106118525761010080835404028352916020019161187d565b820191906000526020600020905b81548152906001019060200180831161186057829003601f168201915b505050505081526020016006820160009054906101000a900473ffffffffffffffffffffffffffffffffffffffff1673ffffffffffffffffffffffffffffffffffffffff1673ffffffffffffffffffffffffffffffffffffffff1681526020016007820160009054906101000a900473ffffffffffffffffffffffffffffffffffffffff1673ffffffffffffffffffffffffffffffffffffffff1673ffffffffffffffffffffffffffffffffffffffff1681526020016008820160009054906101000a900473ffffffffffffffffffffffffffffffffffffffff1673ffffffffffffffffffffffffffffffffffffffff1673ffffffffffffffffffffffffffffffffffffffff1681526020016008820160149054906101000a900460ff161515151581526020016008820160159054906101000a900460ff1615151515815250509050806000015181602001518260400151836060015184608001518560a001518660c001518760e001518861010001518961012001518a61014001518797508696508595509b509b509b509b509b509b509b509b509b509b509b505091939597999b90929496989a50565b6000809054906101000a900473ffffffffffffffffffffffffffffffffffffffff1673ffffffffffffffffffffffffffffffffffffffff163373ffffffffffffffffffffffffffffffffffffffff16141515611a8457600080fd5b6000809054906101000a900473ffffffffffffffffffffffffffffffffffffffff1673ffffffffffffffffffffffffffffffffffffffff167ff8df31144d9c2f0f6b59d69b8b98abd5459d07f2742c4df920b25aae33c6482060405160405180910390a260008060006101000a81548173ffffffffffffffffffffffffffffffffffffffff021916908373ffffffffffffffffffffffffffffffffffffffff160217905550565b600360149054906101000a900460ff1681565b60045481565b8060048190555050565b6000600e60405180807f7265636f72644d6f64696669636174696f6e41646f7074696f6e000000000000815250601a01905090815260200160405180910390209050818160060160006101000a81548173ffffffffffffffffffffffffffffffffffffffff021916908373ffffffffffffffffffffffffffffffffffffffff16021790555060018160080160146101000a81548160ff0219169083151502179055505050565b6000809054906101000a900473ffffffffffffffffffffffffffffffffffffffff1681565b6000600e60405180807f7265636f726452656d6f76616c41646f7074696f6e0000000000000000000000815250601501905090815260200160405180910390209050818160060160006101000a81548173ffffffffffffffffffffffffffffffffffffffff021916908373ffffffffffffffffffffffffffffffffffffffff16021790555060018160080160146101000a81548160ff0219169083151502179055505050565b600a5481565b60008060009054906101000a900473ffffffffffffffffffffffffffffffffffffffff16905090565b80600a8190555050565b600260009054906101000a900473ffffffffffffffffffffffffffffffffffffffff1681565b600d60009054906101000a900473ffffffffffffffffffffffffffffffffffffffff1681565b6000600e60405180807f7265636f7264436f6f706572617469766541646f7074696f6e0000000000000081525060190190509081526020016040518091039020905060018160080160146101000a81548160ff02191690831515021790555050565b600260009054906101000a900473ffffffffffffffffffffffffffffffffffffffff1673ffffffffffffffffffffffffffffffffffffffff163373ffffffffffffffffffffffffffffffffffffffff16141515611e0257600080fd5b600073ffffffffffffffffffffffffffffffffffffffff16600d60009054906101000a900473ffffffffffffffffffffffffffffffffffffffff1673ffffffffffffffffffffffffffffffffffffffff16141515611e5f57600080fd5b600360149054906101000a900460ff16151515611e7b57600080fd5b80600d60006101000a81548173ffffffffffffffffffffffffffffffffffffffff021916908373ffffffffffffffffffffffffffffffffffffffff16021790555050565b6000600e60405180807f636c6f7365416464696e674e657750726f706f73616c73000000000000000000815250601701905090815260200160405180910390209050338160060160006101000a81548173ffffffffffffffffffffffffffffffffffffffff021916908373ffffffffffffffffffffffffffffffffffffffff16021790555050565b6000809054906101000a900473ffffffffffffffffffffffffffffffffffffffff1673ffffffffffffffffffffffffffffffffffffffff163373ffffffffffffffffffffffffffffffffffffffff16141515611fa257600080fd5b6005600181905550611fb3816122ee565b50565b6000600e826040518082805190602001908083835b602083101515611ff05780518252602082019150602081019050602083039250611fcb565b6001836020036101000a03801982511681845116808217855250505050505090500191505090815260200160405180910390209050600081600001819055506000816001018190555060008160020181905550602060405190810160405280600081525081600301908051906020019061206b929190612529565b506020604051908101604052806000815250816004019080519060200190612094929190612529565b5060206040519081016040528060008152508160050190805190602001906120bd929190612529565b5060008160060160006101000a81548173ffffffffffffffffffffffffffffffffffffffff021916908373ffffffffffffffffffffffffffffffffffffffff16021790555060008160070160006101000a81548173ffffffffffffffffffffffffffffffffffffffff021916908373ffffffffffffffffffffffffffffffffffffffff16021790555060008160080160006101000a81548173ffffffffffffffffffffffffffffffffffffffff021916908373ffffffffffffffffffffffffffffffffffffffff16021790555060008160080160146101000a81548160ff02191690831515021790555060008160080160156101000a81548160ff0219169083151502179055505050565b600260009054906101000a900473ffffffffffffffffffffffffffffffffffffffff1673ffffffffffffffffffffffffffffffffffffffff163373ffffffffffffffffffffffffffffffffffffffff1614151561222457600080fd5b600360149054906101000a900460ff1615151561224057600080fd5b6001600454016004819055508060056000600454815260200190815260200160002060006101000a81548173ffffffffffffffffffffffffffffffffffffffff021916908373ffffffffffffffffffffffffffffffffffffffff160217905550600660008273ffffffffffffffffffffffffffffffffffffffff1673ffffffffffffffffffffffffffffffffffffffff16815260200190815260200160002060009054906101000a90505050565b600073ffffffffffffffffffffffffffffffffffffffff168173ffffffffffffffffffffffffffffffffffffffff161415151561232a57600080fd5b8073ffffffffffffffffffffffffffffffffffffffff166000809054906101000a900473ffffffffffffffffffffffffffffffffffffffff1673ffffffffffffffffffffffffffffffffffffffff167f8be0079c531659141344cd1fd0a4f28419497f9722a3daafe3b4186f6b6457e060405160405180910390a3806000806101000a81548173ffffffffffffffffffffffffffffffffffffffff021916908373ffffffffffffffffffffffffffffffffffffffff16021790555050565b604051610d51806125cf83390190565b6040516105ac8061332083390190565b61016060405190810160405280600081526020016000815260200160008152602001606081526020016060815260200160608152602001600073ffffffffffffffffffffffffffffffffffffffff168152602001600073ffffffffffffffffffffffffffffffffffffffff168152602001600073ffffffffffffffffffffffffffffffffffffffff1681526020016000151581526020016000151581525090565b828054600181600116156101000203166002900490600052602060002090601f016020900481019282601f106124ea57805160ff1916838001178555612518565b82800160010185558215612518579182015b828111156125175782518255916020019190600101906124fc565b5b50905061252591906125a9565b5090565b828054600181600116156101000203166002900490600052602060002090601f016020900481019282601f1061256a57805160ff1916838001178555612598565b82800160010185558215612598579182015b8281111561259757825182559160200191906001019061257c565b5b5090506125a591906125a9565b5090565b6125cb91905b808211156125c75760008160009055506001016125af565b5090565b905600608060405234801561001057600080fd5b50604051606080610d51833981018060405281019080805190602001909291908051906020019092919080519060200190929190505050336000806101000a81548173ffffffffffffffffffffffffffffffffffffffff021916908373ffffffffffffffffffffffffffffffffffffffff1602179055508260028190555081600360006101000a81548173ffffffffffffffffffffffffffffffffffffffff021916908373ffffffffffffffffffffffffffffffffffffffff16021790555080600460006101000a81548173ffffffffffffffffffffffffffffffffffffffff021916908373ffffffffffffffffffffffffffffffffffffffff160217905550505050610c2f806101226000396000f3006080604052600436106100af576000357c0100000000000000000000000000000000000000000000000000000000900463ffffffff1680630cdfe338146100b457806338994969146100e15780634ddeafb71461012e57806354bca3b214610185578063679ba61c14610208578063715018a61461023357806382234add1461024a5780638da5cb5b146102755780638dcba032146102cc578063b2bdfa7b146102f7578063f2fde38b1461034e575b600080fd5b3480156100c057600080fd5b506100df60048036038101908080359060200190929190505050610391565b005b3480156100ed57600080fd5b5061012c60048036038101908080359060200190929190803573ffffffffffffffffffffffffffffffffffffffff169060200190929190505050610547565b005b34801561013a57600080fd5b50610143610856565b604051808273ffffffffffffffffffffffffffffffffffffffff1673ffffffffffffffffffffffffffffffffffffffff16815260200191505060405180910390f35b34801561019157600080fd5b506101b06004803603810190808035906020019092919050505061087c565b604051808473ffffffffffffffffffffffffffffffffffffffff1673ffffffffffffffffffffffffffffffffffffffff1681526020018315151515815260200182151515158152602001935050505060405180910390f35b34801561021457600080fd5b5061021d6108e0565b6040518082815260200191505060405180910390f35b34801561023f57600080fd5b506102486108e6565b005b34801561025657600080fd5b5061025f6109e8565b6040518082815260200191505060405180910390f35b34801561028157600080fd5b5061028a6109ee565b604051808273ffffffffffffffffffffffffffffffffffffffff1673ffffffffffffffffffffffffffffffffffffffff16815260200191505060405180910390f35b3480156102d857600080fd5b506102e1610a13565b6040518082815260200191505060405180910390f35b34801561030357600080fd5b5061030c610a19565b604051808273ffffffffffffffffffffffffffffffffffffffff1673ffffffffffffffffffffffffffffffffffffffff16815260200191505060405180910390f35b34801561035a57600080fd5b5061038f600480360381019080803573ffffffffffffffffffffffffffffffffffffffff169060200190929190505050610a42565b005b6000806007600084815260200190815260200160002060000160159054906101000a900460ff1615156103c357600080fd5b60006007600085815260200190815260200160002060000160156101000a81548160ff0219169083151502179055506104086001600654610ab190919063ffffffff16565b6006819055506007600084815260200190815260200160002060000160009054906101000a900473ffffffffffffffffffffffffffffffffffffffff1691506005546006541490506000809054906101000a900473ffffffffffffffffffffffffffffffffffffffff1673ffffffffffffffffffffffffffffffffffffffff1663546b69536002548585856040518563ffffffff167c0100000000000000000000000000000000000000000000000000000000028152600401808581526020018481526020018373ffffffffffffffffffffffffffffffffffffffff1673ffffffffffffffffffffffffffffffffffffffff16815260200182151515158152602001945050505050600060405180830381600087803b15801561052a57600080fd5b505af115801561053e573d6000803e3d6000fd5b50505050505050565b61054f610bc7565b600460009054906101000a900473ffffffffffffffffffffffffffffffffffffffff1673ffffffffffffffffffffffffffffffffffffffff163373ffffffffffffffffffffffffffffffffffffffff161415156105ab57600080fd5b6000809054906101000a900473ffffffffffffffffffffffffffffffffffffffff1673ffffffffffffffffffffffffffffffffffffffff1663a5e7e675846040518263ffffffff167c010000000000000000000000000000000000000000000000000000000002815260040180828152602001915050602060405180830381600087803b15801561063b57600080fd5b505af115801561064f573d6000803e3d6000fd5b505050506040513d602081101561066557600080fd5b8101908080519060200190929190505050151561068157600080fd5b600360009054906101000a900473ffffffffffffffffffffffffffffffffffffffff1673ffffffffffffffffffffffffffffffffffffffff1663fcfff16f6040518163ffffffff167c0100000000000000000000000000000000000000000000000000000000028152600401602060405180830381600087803b15801561070757600080fd5b505af115801561071b573d6000803e3d6000fd5b505050506040513d602081101561073157600080fd5b810190808051906020019092919050505015151561074e57600080fd5b6107646001600554610ab190919063ffffffff16565b60058190555081816000019073ffffffffffffffffffffffffffffffffffffffff16908173ffffffffffffffffffffffffffffffffffffffff16815250506001816040019015159081151581525050806007600085815260200190815260200160002060008201518160000160006101000a81548173ffffffffffffffffffffffffffffffffffffffff021916908373ffffffffffffffffffffffffffffffffffffffff16021790555060208201518160000160146101000a81548160ff02191690831515021790555060408201518160000160156101000a81548160ff021916908315150217905550905050505050565b600360009054906101000a900473ffffffffffffffffffffffffffffffffffffffff1681565b60076020528060005260406000206000915090508060000160009054906101000a900473ffffffffffffffffffffffffffffffffffffffff16908060000160149054906101000a900460ff16908060000160159054906101000a900460ff16905083565b60025481565b6000809054906101000a900473ffffffffffffffffffffffffffffffffffffffff1673ffffffffffffffffffffffffffffffffffffffff163373ffffffffffffffffffffffffffffffffffffffff1614151561094157600080fd5b6000809054906101000a900473ffffffffffffffffffffffffffffffffffffffff1673ffffffffffffffffffffffffffffffffffffffff167ff8df31144d9c2f0f6b59d69b8b98abd5459d07f2742c4df920b25aae33c6482060405160405180910390a260008060006101000a81548173ffffffffffffffffffffffffffffffffffffffff021916908373ffffffffffffffffffffffffffffffffffffffff160217905550565b60065481565b6000809054906101000a900473ffffffffffffffffffffffffffffffffffffffff1681565b60055481565b60008060009054906101000a900473ffffffffffffffffffffffffffffffffffffffff16905090565b6000809054906101000a900473ffffffffffffffffffffffffffffffffffffffff1673ffffffffffffffffffffffffffffffffffffffff163373ffffffffffffffffffffffffffffffffffffffff16141515610a9d57600080fd5b6005600181905550610aae81610acd565b50565b60008183019050828110151515610ac457fe5b80905092915050565b600073ffffffffffffffffffffffffffffffffffffffff168173ffffffffffffffffffffffffffffffffffffffff1614151515610b0957600080fd5b8073ffffffffffffffffffffffffffffffffffffffff166000809054906101000a900473ffffffffffffffffffffffffffffffffffffffff1673ffffffffffffffffffffffffffffffffffffffff167f8be0079c531659141344cd1fd0a4f28419497f9722a3daafe3b4186f6b6457e060405160405180910390a3806000806101000a81548173ffffffffffffffffffffffffffffffffffffffff021916908373ffffffffffffffffffffffffffffffffffffffff16021790555050565b606060405190810160405280600073ffffffffffffffffffffffffffffffffffffffff16815260200160001515815260200160001515815250905600a165627a7a7230582062a8ba38077f3b3c391b133b592aa557a2b3aa9813fda3d4979800d6ded9c1210029608060405234801561001057600080fd5b506040516020806105ac83398101806040528101908080519060200190929190505050336000806101000a81548173ffffffffffffffffffffffffffffffffffffffff021916908373ffffffffffffffffffffffffffffffffffffffff16021790555080600281905550506105228061008a6000396000f30060806040526004361061006d576000357c0100000000000000000000000000000000000000000000000000000000900463ffffffff168063715018a6146100725780638da5cb5b14610089578063b2bdfa7b146100e0578063c303e4b214610137578063f2fde38b1461014e575b600080fd5b34801561007e57600080fd5b50610087610191565b005b34801561009557600080fd5b5061009e610293565b604051808273ffffffffffffffffffffffffffffffffffffffff1673ffffffffffffffffffffffffffffffffffffffff16815260200191505060405180910390f35b3480156100ec57600080fd5b506100f56102b8565b604051808273ffffffffffffffffffffffffffffffffffffffff1673ffffffffffffffffffffffffffffffffffffffff16815260200191505060405180910390f35b34801561014357600080fd5b5061014c6102e1565b005b34801561015a57600080fd5b5061018f600480360381019080803573ffffffffffffffffffffffffffffffffffffffff16906020019092919050505061038d565b005b6000809054906101000a900473ffffffffffffffffffffffffffffffffffffffff1673ffffffffffffffffffffffffffffffffffffffff163373ffffffffffffffffffffffffffffffffffffffff161415156101ec57600080fd5b6000809054906101000a900473ffffffffffffffffffffffffffffffffffffffff1673ffffffffffffffffffffffffffffffffffffffff167ff8df31144d9c2f0f6b59d69b8b98abd5459d07f2742c4df920b25aae33c6482060405160405180910390a260008060006101000a81548173ffffffffffffffffffffffffffffffffffffffff021916908373ffffffffffffffffffffffffffffffffffffffff160217905550565b6000809054906101000a900473ffffffffffffffffffffffffffffffffffffffff1681565b60008060009054906101000a900473ffffffffffffffffffffffffffffffffffffffff16905090565b6000809054906101000a900473ffffffffffffffffffffffffffffffffffffffff1673ffffffffffffffffffffffffffffffffffffffff1663a87775426002546040518263ffffffff167c010000000000000000000000000000000000000000000000000000000002815260040180828152602001915050600060405180830381600087803b15801561037357600080fd5b505af1158015610387573d6000803e3d6000fd5b50505050565b6000809054906101000a900473ffffffffffffffffffffffffffffffffffffffff1673ffffffffffffffffffffffffffffffffffffffff163373ffffffffffffffffffffffffffffffffffffffff161415156103e857600080fd5b60056001819055506103f9816103fc565b50565b600073ffffffffffffffffffffffffffffffffffffffff168173ffffffffffffffffffffffffffffffffffffffff161415151561043857600080fd5b8073ffffffffffffffffffffffffffffffffffffffff166000809054906101000a900473ffffffffffffffffffffffffffffffffffffffff1673ffffffffffffffffffffffffffffffffffffffff167f8be0079c531659141344cd1fd0a4f28419497f9722a3daafe3b4186f6b6457e060405160405180910390a3806000806101000a81548173ffffffffffffffffffffffffffffffffffffffff021916908373ffffffffffffffffffffffffffffffffffffffff160217905550505600a165627a7a72305820f78f184bfa5ca261d841923b0b95cccc8630d03c8a08d5dd3924867218fa76450029a165627a7a7230582072b3ede625efd9f1bd0d4ae1c995b6abdb32e28de6d73f87afa40d4429ecd40e0029",
  "source": "pragma solidity >=0.4.22 <0.6.0;\r\nimport './utility/Ownable.sol';\r\nimport './AmendmentRemovalProposal.sol';\r\nimport './AmendmentModificationProposal.sol';\r\nimport './Proposals.sol';\r\nimport './ContractStub.sol';\r\n\r\ncontract ProposalsStub is Proposals, ContractStub {\r\n  constructor(address _developer, AmendmentPoll _amendmentPoll) public\r\n  Proposals(_developer, _amendmentPoll) {}\r\n\r\n\r\n  function setTotalAmendmentModifications (uint256 n) public {\r\n    totalAmendmentModifications = n;\r\n  }\r\n\r\n  function setTotalAmendmentRemovals (uint256 n) public {\r\n    totalAmendmentRemovals = n;\r\n  }\r\n\r\n  function setTotalNewAmendments (uint256 n) public {\r\n    totalNewAmendments = n;\r\n  }\r\n\r\n  function closeAddingNewProposals () external {\r\n    CallData storage methodState = method['closeAddingNewProposals'];\r\n    methodState.firstAddress = msg.sender;\r\n  }\r\n\r\n\r\n  address internal proposal;\r\n\r\n  function setProposalExists (address a) public {\r\n    proposal = a;\r\n  }\r\n\r\n  function modificationProposalExists (address a) external returns (bool) {\r\n    return a == proposal;\r\n  }\r\n\r\n  function newProposalExists (address a) external returns (bool) {\r\n    return a == proposal;\r\n  }\r\n\r\n  function removalProposalExists (address a) external returns (bool) {\r\n    return a == proposal;\r\n  }\r\n\r\n  function newCooperativeProposalExists (address a) public returns (bool) {\r\n    return a == proposal;\r\n  }\r\n\r\n  function recordModificationAdoption (address adopted) external {\r\n    CallData storage methodState = method['recordModificationAdoption'];\r\n    methodState.firstAddress = adopted;\r\n    methodState.called = true;\r\n  }\r\n\r\n  function recordNewAdoption (address adopted) external {\r\n    CallData storage methodState = method['recordNewAdoption'];\r\n    methodState.firstAddress = adopted;\r\n    methodState.called = true;\r\n  }\r\n\r\n  function recordRemovalAdoption (address adopted) external {\r\n    CallData storage methodState = method['recordRemovalAdoption'];\r\n    methodState.firstAddress = adopted;\r\n    methodState.called = true;\r\n  }\r\n\r\n  function recordCooperativeAdoption () external {\r\n    CallData storage methodState = method['recordCooperativeAdoption'];\r\n    methodState.called = true;\r\n  }\r\n}\r\n",
  "sourcePath": "D:\\Projects\\SUWiserLLC\\truffle\\contracts\\ProposalsStub.sol",
  "compiler": {
    "name": "solc",
    "version": "0.4.24+commit.e67f0147.Emscripten.clang"
  },
  "schemaVersion": "2.0.1",
  "updatedAt": "2022-03-02T14:36:03.210Z"
}