{
  "contractName": "Reimbursements",
  "abi": [
    {
      "constant": true,
      "inputs": [],
      "name": "weiToReimburse",
      "outputs": [
        {
          "name": "",
          "type": "uint256"
        }
      ],
      "payable": false,
      "stateMutability": "view",
      "type": "function"
    },
    {
      "constant": true,
      "inputs": [],
      "name": "inactiveTokensAtClosing",
      "outputs": [
        {
          "name": "",
          "type": "uint256"
        }
      ],
      "payable": false,
      "stateMutability": "view",
      "type": "function"
    },
    {
      "constant": true,
      "inputs": [],
      "name": "crowdsale",
      "outputs": [
        {
          "name": "",
          "type": "address"
        }
      ],
      "payable": false,
      "stateMutability": "view",
      "type": "function"
    },
    {
      "constant": false,
      "inputs": [
        {
          "name": "recipient",
          "type": "address"
        }
      ],
      "name": "transferCrowdsaleKey",
      "outputs": [],
      "payable": false,
      "stateMutability": "nonpayable",
      "type": "function"
    },
    {
      "constant": true,
      "inputs": [],
      "name": "token",
      "outputs": [
        {
          "name": "",
          "type": "address"
        }
      ],
      "payable": false,
      "stateMutability": "view",
      "type": "function"
    },
    {
      "inputs": [
        {
          "name": "_token",
          "type": "address"
        }
      ],
      "payable": true,
      "stateMutability": "payable",
      "type": "constructor"
    },
    {
      "payable": true,
      "stateMutability": "payable",
      "type": "fallback"
    },
    {
      "anonymous": false,
      "inputs": [
        {
          "indexed": false,
          "name": "recipient",
          "type": "address"
        }
      ],
      "name": "CrowdsaleTransferred",
      "type": "event"
    },
    {
      "constant": false,
      "inputs": [],
      "name": "recordReimbursement",
      "outputs": [],
      "payable": true,
      "stateMutability": "payable",
      "type": "function"
    },
    {
      "constant": false,
      "inputs": [
        {
          "name": "account",
          "type": "address"
        }
      ],
      "name": "claimReimbursement",
      "outputs": [],
      "payable": false,
      "stateMutability": "nonpayable",
      "type": "function"
    }
  ],
  "bytecode": "0x6080604052604051602080610b0783398101806040528101908080519060200190929190505050336000806101000a81548173ffffffffffffffffffffffffffffffffffffffff021916908373ffffffffffffffffffffffffffffffffffffffff1602179055507fc14b2e8c3b0fecd3b6226c637c343009dca5171a0a6874475330c5c204a29c6c6000809054906101000a900473ffffffffffffffffffffffffffffffffffffffff16604051808273ffffffffffffffffffffffffffffffffffffffff1673ffffffffffffffffffffffffffffffffffffffff16815260200191505060405180910390a180600360006101000a81548173ffffffffffffffffffffffffffffffffffffffff021916908373ffffffffffffffffffffffffffffffffffffffff160217905550506109cc8061013b6000396000f300608060405260043610610083576000357c0100000000000000000000000000000000000000000000000000000000900463ffffffff168063169961a514610085578063346f5e61146100b057806349dd12dd146100f35780637f8c5e98146100fd5780639c1e03a014610128578063be0d24591461017f578063fc0c546a146101c2575b005b34801561009157600080fd5b5061009a610219565b6040518082815260200191505060405180910390f35b3480156100bc57600080fd5b506100f1600480360381019080803573ffffffffffffffffffffffffffffffffffffffff16906020019092919050505061021f565b005b6100fb610589565b005b34801561010957600080fd5b50610112610786565b6040518082815260200191505060405180910390f35b34801561013457600080fd5b5061013d61078c565b604051808273ffffffffffffffffffffffffffffffffffffffff1673ffffffffffffffffffffffffffffffffffffffff16815260200191505060405180910390f35b34801561018b57600080fd5b506101c0600480360381019080803573ffffffffffffffffffffffffffffffffffffffff1690602001909291905050506107b5565b005b3480156101ce57600080fd5b506101d7610913565b604051808273ffffffffffffffffffffffffffffffffffffffff1673ffffffffffffffffffffffffffffffffffffffff16815260200191505060405180910390f35b60025481565b600080600080600060025414158015610250575060003073ffffffffffffffffffffffffffffffffffffffff163114155b151561025b57600080fd5b600360009054906101000a900473ffffffffffffffffffffffffffffffffffffffff1673ffffffffffffffffffffffffffffffffffffffff166370a08231866040518263ffffffff167c0100000000000000000000000000000000000000000000000000000000028152600401808273ffffffffffffffffffffffffffffffffffffffff1673ffffffffffffffffffffffffffffffffffffffff168152602001915050602060405180830381600087803b15801561031857600080fd5b505af115801561032c573d6000803e3d6000fd5b505050506040513d602081101561034257600080fd5b81019080805190602001909291905050509350600360009054906101000a900473ffffffffffffffffffffffffffffffffffffffff1673ffffffffffffffffffffffffffffffffffffffff1663170ca9f3866040518263ffffffff167c0100000000000000000000000000000000000000000000000000000000028152600401808273ffffffffffffffffffffffffffffffffffffffff1673ffffffffffffffffffffffffffffffffffffffff168152602001915050602060405180830381600087803b15801561041257600080fd5b505af1158015610426573d6000803e3d6000fd5b505050506040513d602081101561043c57600080fd5b81019080805190602001909291905050509250610462838561093990919063ffffffff16565b915061048d60015461047f8460025461095290919063ffffffff16565b61098a90919063ffffffff16565b90508473ffffffffffffffffffffffffffffffffffffffff166108fc829081150290604051600060405180830381858888f193505050501580156104d5573d6000803e3d6000fd5b5060003073ffffffffffffffffffffffffffffffffffffffff1631141561058257600060028190555061050661078c565b73ffffffffffffffffffffffffffffffffffffffff1663bb9c04906040518163ffffffff167c0100000000000000000000000000000000000000000000000000000000028152600401600060405180830381600087803b15801561056957600080fd5b505af115801561057d573d6000803e3d6000fd5b505050505b5050505050565b6000809054906101000a900473ffffffffffffffffffffffffffffffffffffffff1673ffffffffffffffffffffffffffffffffffffffff163373ffffffffffffffffffffffffffffffffffffffff161415156105e457600080fd5b610777600360009054906101000a900473ffffffffffffffffffffffffffffffffffffffff1673ffffffffffffffffffffffffffffffffffffffff1663519d1b456040518163ffffffff167c0100000000000000000000000000000000000000000000000000000000028152600401602060405180830381600087803b15801561066d57600080fd5b505af1158015610681573d6000803e3d6000fd5b505050506040513d602081101561069757600080fd5b8101908080519060200190929190505050600360009054906101000a900473ffffffffffffffffffffffffffffffffffffffff1673ffffffffffffffffffffffffffffffffffffffff166318160ddd6040518163ffffffff167c0100000000000000000000000000000000000000000000000000000000028152600401602060405180830381600087803b15801561072e57600080fd5b505af1158015610742573d6000803e3d6000fd5b505050506040513d602081101561075857600080fd5b810190808051906020019092919050505061093990919063ffffffff16565b60018190555034600281905550565b60015481565b60008060009054906101000a900473ffffffffffffffffffffffffffffffffffffffff16905090565b6000809054906101000a900473ffffffffffffffffffffffffffffffffffffffff1673ffffffffffffffffffffffffffffffffffffffff163373ffffffffffffffffffffffffffffffffffffffff1614151561081057600080fd5b600073ffffffffffffffffffffffffffffffffffffffff168173ffffffffffffffffffffffffffffffffffffffff161415151561084c57600080fd5b806000806101000a81548173ffffffffffffffffffffffffffffffffffffffff021916908373ffffffffffffffffffffffffffffffffffffffff1602179055507fc14b2e8c3b0fecd3b6226c637c343009dca5171a0a6874475330c5c204a29c6c6000809054906101000a900473ffffffffffffffffffffffffffffffffffffffff16604051808273ffffffffffffffffffffffffffffffffffffffff1673ffffffffffffffffffffffffffffffffffffffff16815260200191505060405180910390a150565b600360009054906101000a900473ffffffffffffffffffffffffffffffffffffffff1681565b600082821115151561094757fe5b818303905092915050565b6000808314156109655760009050610984565b818302905081838281151561097657fe5b0414151561098057fe5b8090505b92915050565b6000818381151561099757fe5b049050929150505600a165627a7a72305820705f725b2438d19a87dba2abb0ef51d30062176738ec6d54c2efd5c52a0abcff0029",
  "source": "pragma solidity >=0.4.22 <0.6.0;\r\n\r\nimport '../token/InactiveToken.sol';\r\nimport '../utility/SafeMath.sol';\r\nimport '../utility/CrowdsaleLocked.sol';\r\nimport '../crowdsale/GNITokenCrowdsale.sol';\r\n\r\ncontract Reimbursements is CrowdsaleLocked {\r\n  using SafeMath for uint256;\r\n  uint256 public inactiveTokensAtClosing;\r\n  uint256 public weiToReimburse;\r\n  InactiveToken public token;\r\n\r\n  constructor (InactiveToken _token) public payable {\r\n    token = _token;\r\n  }\r\n\r\n  function () external payable {}\r\n  function recordReimbursement () public payable onlyCrowdsale {\r\n    inactiveTokensAtClosing = InactiveToken(token).totalSupply().sub(InactiveToken(token).totalPendingActivations());\r\n    weiToReimburse = msg.value;\r\n  }\r\n\r\n  function claimReimbursement (address account) public {\r\n    require(weiToReimburse != 0 && address(this).balance != 0);\r\n    uint256 inactiveTokens = InactiveToken(token).balanceOf(account);\r\n    uint256 pendingActivations = InactiveToken(token).pendingActivations(account);\r\n    uint256 accountTokens = inactiveTokens.sub(pendingActivations);\r\n    uint256 reimbursement = weiToReimburse.mul(accountTokens).div(inactiveTokensAtClosing);\r\n    account.transfer(reimbursement);\r\n\r\n    if (address(this).balance == 0) {\r\n      weiToReimburse = 0;\r\n      GNITokenCrowdsale(crowdsale()).allowReOpening();\r\n    }\r\n  }\r\n}\r\n",
  "sourcePath": "D:\\Projects\\SUWiserLLC\\truffle\\contracts\\reimbursements\\Reimbursements.sol",
  "compiler": {
    "name": "solc",
    "version": "0.4.24+commit.e67f0147.Emscripten.clang"
  },
  "schemaVersion": "2.0.1",
  "updatedAt": "2022-02-25T04:16:47.636Z"
}