{
  "contractName": "ReimbursementsStub",
  "abi": [
    {
      "constant": true,
      "inputs": [],
      "name": "weiToReimburse",
      "outputs": [
        {
          "name": "",
          "type": "uint256"
        }
      ],
      "payable": false,
      "stateMutability": "view",
      "type": "function"
    },
    {
      "constant": false,
      "inputs": [
        {
          "name": "account",
          "type": "address"
        }
      ],
      "name": "claimReimbursement",
      "outputs": [],
      "payable": false,
      "stateMutability": "nonpayable",
      "type": "function"
    },
    {
      "constant": false,
      "inputs": [
        {
          "name": "methodName",
          "type": "string"
        }
      ],
      "name": "addMethod",
      "outputs": [],
      "payable": false,
      "stateMutability": "nonpayable",
      "type": "function"
    },
    {
      "constant": true,
      "inputs": [
        {
          "name": "methodName",
          "type": "string"
        }
      ],
      "name": "callHistory",
      "outputs": [
        {
          "name": "",
          "type": "uint256"
        },
        {
          "name": "",
          "type": "uint256"
        },
        {
          "name": "",
          "type": "uint256"
        },
        {
          "name": "",
          "type": "string"
        },
        {
          "name": "",
          "type": "string"
        },
        {
          "name": "",
          "type": "string"
        },
        {
          "name": "",
          "type": "address"
        },
        {
          "name": "",
          "type": "address"
        },
        {
          "name": "",
          "type": "address"
        },
        {
          "name": "",
          "type": "bool"
        },
        {
          "name": "",
          "type": "bool"
        }
      ],
      "payable": false,
      "stateMutability": "view",
      "type": "function"
    },
    {
      "constant": true,
      "inputs": [],
      "name": "inactiveTokensAtClosing",
      "outputs": [
        {
          "name": "",
          "type": "uint256"
        }
      ],
      "payable": false,
      "stateMutability": "view",
      "type": "function"
    },
    {
      "constant": true,
      "inputs": [],
      "name": "crowdsale",
      "outputs": [
        {
          "name": "",
          "type": "address"
        }
      ],
      "payable": false,
      "stateMutability": "view",
      "type": "function"
    },
    {
      "constant": false,
      "inputs": [
        {
          "name": "recipient",
          "type": "address"
        }
      ],
      "name": "transferCrowdsaleKey",
      "outputs": [],
      "payable": false,
      "stateMutability": "nonpayable",
      "type": "function"
    },
    {
      "constant": false,
      "inputs": [
        {
          "name": "methodName",
          "type": "string"
        }
      ],
      "name": "resetMethod",
      "outputs": [],
      "payable": false,
      "stateMutability": "nonpayable",
      "type": "function"
    },
    {
      "constant": true,
      "inputs": [],
      "name": "token",
      "outputs": [
        {
          "name": "",
          "type": "address"
        }
      ],
      "payable": false,
      "stateMutability": "view",
      "type": "function"
    },
    {
      "inputs": [
        {
          "name": "_token",
          "type": "address"
        }
      ],
      "payable": true,
      "stateMutability": "payable",
      "type": "constructor"
    },
    {
      "payable": true,
      "stateMutability": "payable",
      "type": "fallback"
    },
    {
      "anonymous": false,
      "inputs": [
        {
          "indexed": false,
          "name": "recipient",
          "type": "address"
        }
      ],
      "name": "CrowdsaleTransferred",
      "type": "event"
    },
    {
      "constant": false,
      "inputs": [],
      "name": "recordReimbursement",
      "outputs": [],
      "payable": true,
      "stateMutability": "payable",
      "type": "function"
    }
  ],
  "bytecode": "0x60806040526040516020806117018339810180604052810190808051906020019092919050505080336000806101000a81548173ffffffffffffffffffffffffffffffffffffffff021916908373ffffffffffffffffffffffffffffffffffffffff1602179055507fc14b2e8c3b0fecd3b6226c637c343009dca5171a0a6874475330c5c204a29c6c6000809054906101000a900473ffffffffffffffffffffffffffffffffffffffff16604051808273ffffffffffffffffffffffffffffffffffffffff1673ffffffffffffffffffffffffffffffffffffffff16815260200191505060405180910390a180600360006101000a81548173ffffffffffffffffffffffffffffffffffffffff021916908373ffffffffffffffffffffffffffffffffffffffff16021790555050506115c48061013d6000396000f3006080604052600436106100a4576000357c0100000000000000000000000000000000000000000000000000000000900463ffffffff168063169961a5146100a6578063346f5e61146100d157806349dd12dd1461011457806351542e3a1461011e578063547d8020146101875780637f8c5e98146104055780639c1e03a014610430578063be0d245914610487578063f427b135146104ca578063fc0c546a14610533575b005b3480156100b257600080fd5b506100bb61058a565b6040518082815260200191505060405180910390f35b3480156100dd57600080fd5b50610112600480360381019080803573ffffffffffffffffffffffffffffffffffffffff169060200190929190505050610590565b005b61011c6108fa565b005b34801561012a57600080fd5b50610185600480360381019080803590602001908201803590602001908080601f0160208091040260200160405190810160405280939291908181526020018383808284378201915050505050509192919290505050610965565b005b34801561019357600080fd5b506101ee600480360381019080803590602001908201803590602001908080601f0160208091040260200160405190810160405280939291908181526020018383808284378201915050505050509192919290505050610b6d565b604051808c81526020018b81526020018a81526020018060200180602001806020018973ffffffffffffffffffffffffffffffffffffffff1673ffffffffffffffffffffffffffffffffffffffff1681526020018873ffffffffffffffffffffffffffffffffffffffff1673ffffffffffffffffffffffffffffffffffffffff1681526020018773ffffffffffffffffffffffffffffffffffffffff1673ffffffffffffffffffffffffffffffffffffffff168152602001861515151581526020018515151515815260200184810384528c818151815260200191508051906020019080838360005b838110156102f25780820151818401526020810190506102d7565b50505050905090810190601f16801561031f5780820380516001836020036101000a031916815260200191505b5084810383528b818151815260200191508051906020019080838360005b8381101561035857808201518184015260208101905061033d565b50505050905090810190601f1680156103855780820380516001836020036101000a031916815260200191505b5084810382528a818151815260200191508051906020019080838360005b838110156103be5780820151818401526020810190506103a3565b50505050905090810190601f1680156103eb5780820380516001836020036101000a031916815260200191505b509e50505050505050505050505050505060405180910390f35b34801561041157600080fd5b5061041a610fa6565b6040518082815260200191505060405180910390f35b34801561043c57600080fd5b50610445610fac565b604051808273ffffffffffffffffffffffffffffffffffffffff1673ffffffffffffffffffffffffffffffffffffffff16815260200191505060405180910390f35b34801561049357600080fd5b506104c8600480360381019080803573ffffffffffffffffffffffffffffffffffffffff169060200190929190505050610fd5565b005b3480156104d657600080fd5b50610531600480360381019080803590602001908201803590602001908080601f0160208091040260200160405190810160405280939291908181526020018383808284378201915050505050509192919290505050611133565b005b34801561053f57600080fd5b50610548611345565b604051808273ffffffffffffffffffffffffffffffffffffffff1673ffffffffffffffffffffffffffffffffffffffff16815260200191505060405180910390f35b60025481565b6000806000806000600254141580156105c1575060003073ffffffffffffffffffffffffffffffffffffffff163114155b15156105cc57600080fd5b600360009054906101000a900473ffffffffffffffffffffffffffffffffffffffff1673ffffffffffffffffffffffffffffffffffffffff166370a08231866040518263ffffffff167c0100000000000000000000000000000000000000000000000000000000028152600401808273ffffffffffffffffffffffffffffffffffffffff1673ffffffffffffffffffffffffffffffffffffffff168152602001915050602060405180830381600087803b15801561068957600080fd5b505af115801561069d573d6000803e3d6000fd5b505050506040513d60208110156106b357600080fd5b81019080805190602001909291905050509350600360009054906101000a900473ffffffffffffffffffffffffffffffffffffffff1673ffffffffffffffffffffffffffffffffffffffff1663170ca9f3866040518263ffffffff167c0100000000000000000000000000000000000000000000000000000000028152600401808273ffffffffffffffffffffffffffffffffffffffff1673ffffffffffffffffffffffffffffffffffffffff168152602001915050602060405180830381600087803b15801561078357600080fd5b505af1158015610797573d6000803e3d6000fd5b505050506040513d60208110156107ad57600080fd5b810190808051906020019092919050505092506107d3838561136b90919063ffffffff16565b91506107fe6001546107f08460025461138490919063ffffffff16565b6113bc90919063ffffffff16565b90508473ffffffffffffffffffffffffffffffffffffffff166108fc829081150290604051600060405180830381858888f19350505050158015610846573d6000803e3d6000fd5b5060003073ffffffffffffffffffffffffffffffffffffffff163114156108f3576000600281905550610877610fac565b73ffffffffffffffffffffffffffffffffffffffff1663bb9c04906040518163ffffffff167c0100000000000000000000000000000000000000000000000000000000028152600401600060405180830381600087803b1580156108da57600080fd5b505af11580156108ee573d6000803e3d6000fd5b505050505b5050505050565b6000600460405180807f7265636f72645265696d62757273656d656e740000000000000000000000000081525060130190509081526020016040518091039020905060018160080160146101000a81548160ff02191690831515021790555034816000018190555050565b61096d6113d2565b806004836040518082805190602001908083835b6020831015156109a65780518252602082019150602081019050602083039250610981565b6001836020036101000a03801982511681845116808217855250505050505090500191505090815260200160405180910390206000820151816000015560208201518160010155604082015181600201556060820151816003019080519060200190610a13929190611473565b506080820151816004019080519060200190610a30929190611473565b5060a0820151816005019080519060200190610a4d929190611473565b5060c08201518160060160006101000a81548173ffffffffffffffffffffffffffffffffffffffff021916908373ffffffffffffffffffffffffffffffffffffffff16021790555060e08201518160070160006101000a81548173ffffffffffffffffffffffffffffffffffffffff021916908373ffffffffffffffffffffffffffffffffffffffff1602179055506101008201518160080160006101000a81548173ffffffffffffffffffffffffffffffffffffffff021916908373ffffffffffffffffffffffffffffffffffffffff1602179055506101208201518160080160146101000a81548160ff0219169083151502179055506101408201518160080160156101000a81548160ff0219169083151502179055509050505050565b600080600060608060606000806000806000610b876113d2565b60048d6040518082805190602001908083835b602083101515610bbf5780518252602082019150602081019050602083039250610b9a565b6001836020036101000a03801982511681845116808217855250505050505090500191505090815260200160405180910390206101606040519081016040529081600082015481526020016001820154815260200160028201548152602001600382018054600181600116156101000203166002900480601f016020809104026020016040519081016040528092919081815260200182805460018160011615610100020316600290048015610cb65780601f10610c8b57610100808354040283529160200191610cb6565b820191906000526020600020905b815481529060010190602001808311610c9957829003601f168201915b50505050508152602001600482018054600181600116156101000203166002900480601f016020809104026020016040519081016040528092919081815260200182805460018160011615610100020316600290048015610d585780601f10610d2d57610100808354040283529160200191610d58565b820191906000526020600020905b815481529060010190602001808311610d3b57829003601f168201915b50505050508152602001600582018054600181600116156101000203166002900480601f016020809104026020016040519081016040528092919081815260200182805460018160011615610100020316600290048015610dfa5780601f10610dcf57610100808354040283529160200191610dfa565b820191906000526020600020905b815481529060010190602001808311610ddd57829003601f168201915b505050505081526020016006820160009054906101000a900473ffffffffffffffffffffffffffffffffffffffff1673ffffffffffffffffffffffffffffffffffffffff1673ffffffffffffffffffffffffffffffffffffffff1681526020016007820160009054906101000a900473ffffffffffffffffffffffffffffffffffffffff1673ffffffffffffffffffffffffffffffffffffffff1673ffffffffffffffffffffffffffffffffffffffff1681526020016008820160009054906101000a900473ffffffffffffffffffffffffffffffffffffffff1673ffffffffffffffffffffffffffffffffffffffff1673ffffffffffffffffffffffffffffffffffffffff1681526020016008820160149054906101000a900460ff161515151581526020016008820160159054906101000a900460ff1615151515815250509050806000015181602001518260400151836060015184608001518560a001518660c001518760e001518861010001518961012001518a61014001518797508696508595509b509b509b509b509b509b509b509b509b509b509b505091939597999b90929496989a50565b60015481565b60008060009054906101000a900473ffffffffffffffffffffffffffffffffffffffff16905090565b6000809054906101000a900473ffffffffffffffffffffffffffffffffffffffff1673ffffffffffffffffffffffffffffffffffffffff163373ffffffffffffffffffffffffffffffffffffffff1614151561103057600080fd5b600073ffffffffffffffffffffffffffffffffffffffff168173ffffffffffffffffffffffffffffffffffffffff161415151561106c57600080fd5b806000806101000a81548173ffffffffffffffffffffffffffffffffffffffff021916908373ffffffffffffffffffffffffffffffffffffffff1602179055507fc14b2e8c3b0fecd3b6226c637c343009dca5171a0a6874475330c5c204a29c6c6000809054906101000a900473ffffffffffffffffffffffffffffffffffffffff16604051808273ffffffffffffffffffffffffffffffffffffffff1673ffffffffffffffffffffffffffffffffffffffff16815260200191505060405180910390a150565b60006004826040518082805190602001908083835b60208310151561116d5780518252602082019150602081019050602083039250611148565b6001836020036101000a0380198251168184511680821785525050505050509050019150509081526020016040518091039020905060008160000181905550600081600101819055506000816002018190555060206040519081016040528060008152508160030190805190602001906111e89291906114f3565b5060206040519081016040528060008152508160040190805190602001906112119291906114f3565b50602060405190810160405280600081525081600501908051906020019061123a9291906114f3565b5060008160060160006101000a81548173ffffffffffffffffffffffffffffffffffffffff021916908373ffffffffffffffffffffffffffffffffffffffff16021790555060008160070160006101000a81548173ffffffffffffffffffffffffffffffffffffffff021916908373ffffffffffffffffffffffffffffffffffffffff16021790555060008160080160006101000a81548173ffffffffffffffffffffffffffffffffffffffff021916908373ffffffffffffffffffffffffffffffffffffffff16021790555060008160080160146101000a81548160ff02191690831515021790555060008160080160156101000a81548160ff0219169083151502179055505050565b600360009054906101000a900473ffffffffffffffffffffffffffffffffffffffff1681565b600082821115151561137957fe5b818303905092915050565b60008083141561139757600090506113b6565b81830290508183828115156113a857fe5b041415156113b257fe5b8090505b92915050565b600081838115156113c957fe5b04905092915050565b61016060405190810160405280600081526020016000815260200160008152602001606081526020016060815260200160608152602001600073ffffffffffffffffffffffffffffffffffffffff168152602001600073ffffffffffffffffffffffffffffffffffffffff168152602001600073ffffffffffffffffffffffffffffffffffffffff1681526020016000151581526020016000151581525090565b828054600181600116156101000203166002900490600052602060002090601f016020900481019282601f106114b457805160ff19168380011785556114e2565b828001600101855582156114e2579182015b828111156114e15782518255916020019190600101906114c6565b5b5090506114ef9190611573565b5090565b828054600181600116156101000203166002900490600052602060002090601f016020900481019282601f1061153457805160ff1916838001178555611562565b82800160010185558215611562579182015b82811115611561578251825591602001919060010190611546565b5b50905061156f9190611573565b5090565b61159591905b80821115611591576000816000905550600101611579565b5090565b905600a165627a7a72305820f56d29a1f30e5a87e5cd5fffd0ad08a5aba8efe3a205f9a6f37d28cdbb3ba6470029",
  "source": "pragma solidity >=0.4.22 <0.6.0;\r\nimport '../reimbursements/Reimbursements.sol';\r\nimport '../utility/SafeMath.sol';\r\nimport '../ContractStub.sol';\r\nimport '../token/InactiveToken.sol';\r\n\r\ncontract ReimbursementsStub is Reimbursements, ContractStub {\r\n  using SafeMath for uint256;\r\n\r\n  constructor (InactiveToken _token) public Reimbursements(_token) payable {}\r\n\r\n  modifier onlyOwner {\r\n    _;\r\n  }\r\n\r\n  function () external payable {}\r\n\r\n  function recordReimbursement () public payable onlyOwner {\r\n    CallData storage methodState = method['recordReimbursement'];\r\n    methodState.called = true;\r\n    methodState.firstUint = msg.value;\r\n  }\r\n\r\n  /* function claimReimbursement (address account) public {\r\n    CallData storage methodState = method['claimReimbursement'];\r\n    methodState.called = true;\r\n    methodState.firstAddress = account;\r\n  } */\r\n}\r\n",
  "sourcePath": "D:\\Projects\\SUWiserLLC\\truffle\\contracts\\reimbursements\\ReimbursementsStub.sol",
  "compiler": {
    "name": "solc",
    "version": "0.4.24+commit.e67f0147.Emscripten.clang"
  },
  "schemaVersion": "2.0.1",
  "updatedAt": "2022-03-02T14:36:03.244Z"
}