{
  "contractName": "VotingTokenStub",
  "abi": [
    {
      "constant": false,
      "inputs": [
        {
          "name": "_inactiveToken",
          "type": "address"
        }
      ],
      "name": "setInactiveToken",
      "outputs": [],
      "payable": false,
      "stateMutability": "nonpayable",
      "type": "function"
    },
    {
      "constant": true,
      "inputs": [
        {
          "name": "_who",
          "type": "address"
        }
      ],
      "name": "assignedBalanceOf",
      "outputs": [
        {
          "name": "",
          "type": "uint256"
        }
      ],
      "payable": false,
      "stateMutability": "view",
      "type": "function"
    },
    {
      "constant": true,
      "inputs": [],
      "name": "mockFreedUpBalance",
      "outputs": [
        {
          "name": "",
          "type": "uint256"
        }
      ],
      "payable": false,
      "stateMutability": "view",
      "type": "function"
    },
    {
      "constant": false,
      "inputs": [
        {
          "name": "methodName",
          "type": "string"
        }
      ],
      "name": "addMethod",
      "outputs": [],
      "payable": false,
      "stateMutability": "nonpayable",
      "type": "function"
    },
    {
      "constant": true,
      "inputs": [
        {
          "name": "methodName",
          "type": "string"
        }
      ],
      "name": "callHistory",
      "outputs": [
        {
          "name": "",
          "type": "uint256"
        },
        {
          "name": "",
          "type": "uint256"
        },
        {
          "name": "",
          "type": "uint256"
        },
        {
          "name": "",
          "type": "string"
        },
        {
          "name": "",
          "type": "string"
        },
        {
          "name": "",
          "type": "string"
        },
        {
          "name": "",
          "type": "address"
        },
        {
          "name": "",
          "type": "address"
        },
        {
          "name": "",
          "type": "address"
        },
        {
          "name": "",
          "type": "bool"
        },
        {
          "name": "",
          "type": "bool"
        }
      ],
      "payable": false,
      "stateMutability": "view",
      "type": "function"
    },
    {
      "constant": false,
      "inputs": [
        {
          "name": "_who",
          "type": "address"
        }
      ],
      "name": "balanceOf",
      "outputs": [
        {
          "name": "",
          "type": "uint256"
        }
      ],
      "payable": false,
      "stateMutability": "nonpayable",
      "type": "function"
    },
    {
      "constant": false,
      "inputs": [],
      "name": "renounceOwnership",
      "outputs": [],
      "payable": false,
      "stateMutability": "nonpayable",
      "type": "function"
    },
    {
      "constant": true,
      "inputs": [],
      "name": "activeToken",
      "outputs": [
        {
          "name": "",
          "type": "address"
        }
      ],
      "payable": false,
      "stateMutability": "view",
      "type": "function"
    },
    {
      "constant": true,
      "inputs": [],
      "name": "owner",
      "outputs": [
        {
          "name": "",
          "type": "address"
        }
      ],
      "payable": false,
      "stateMutability": "view",
      "type": "function"
    },
    {
      "constant": true,
      "inputs": [],
      "name": "inactiveToken",
      "outputs": [
        {
          "name": "",
          "type": "address"
        }
      ],
      "payable": false,
      "stateMutability": "view",
      "type": "function"
    },
    {
      "constant": true,
      "inputs": [],
      "name": "_owner",
      "outputs": [
        {
          "name": "",
          "type": "address"
        }
      ],
      "payable": false,
      "stateMutability": "view",
      "type": "function"
    },
    {
      "constant": false,
      "inputs": [
        {
          "name": "_activeToken",
          "type": "address"
        }
      ],
      "name": "setActiveToken",
      "outputs": [],
      "payable": false,
      "stateMutability": "nonpayable",
      "type": "function"
    },
    {
      "constant": false,
      "inputs": [
        {
          "name": "recipient",
          "type": "address"
        }
      ],
      "name": "transferVotingKey",
      "outputs": [],
      "payable": false,
      "stateMutability": "nonpayable",
      "type": "function"
    },
    {
      "constant": false,
      "inputs": [
        {
          "name": "_newOwner",
          "type": "address"
        }
      ],
      "name": "transferOwnership",
      "outputs": [],
      "payable": false,
      "stateMutability": "nonpayable",
      "type": "function"
    },
    {
      "constant": false,
      "inputs": [
        {
          "name": "methodName",
          "type": "string"
        }
      ],
      "name": "resetMethod",
      "outputs": [],
      "payable": false,
      "stateMutability": "nonpayable",
      "type": "function"
    },
    {
      "constant": true,
      "inputs": [],
      "name": "voting",
      "outputs": [
        {
          "name": "",
          "type": "address"
        }
      ],
      "payable": false,
      "stateMutability": "view",
      "type": "function"
    },
    {
      "anonymous": false,
      "inputs": [
        {
          "indexed": true,
          "name": "previousOwner",
          "type": "address"
        }
      ],
      "name": "OwnershipRenounced",
      "type": "event"
    },
    {
      "anonymous": false,
      "inputs": [
        {
          "indexed": true,
          "name": "previousOwner",
          "type": "address"
        },
        {
          "indexed": true,
          "name": "newOwner",
          "type": "address"
        }
      ],
      "name": "OwnershipTransferred",
      "type": "event"
    },
    {
      "anonymous": false,
      "inputs": [
        {
          "indexed": false,
          "name": "recipient",
          "type": "address"
        }
      ],
      "name": "VotingTransferred",
      "type": "event"
    },
    {
      "constant": false,
      "inputs": [
        {
          "name": "n",
          "type": "uint256"
        }
      ],
      "name": "setFreedUpBalance",
      "outputs": [],
      "payable": false,
      "stateMutability": "nonpayable",
      "type": "function"
    },
    {
      "constant": true,
      "inputs": [
        {
          "name": "a",
          "type": "address"
        }
      ],
      "name": "freedUpBalanceOf",
      "outputs": [
        {
          "name": "",
          "type": "uint256"
        }
      ],
      "payable": false,
      "stateMutability": "view",
      "type": "function"
    },
    {
      "constant": false,
      "inputs": [
        {
          "name": "voter",
          "type": "address"
        },
        {
          "name": "voteAmount",
          "type": "uint256"
        }
      ],
      "name": "assign",
      "outputs": [],
      "payable": false,
      "stateMutability": "nonpayable",
      "type": "function"
    },
    {
      "constant": false,
      "inputs": [
        {
          "name": "voter",
          "type": "address"
        },
        {
          "name": "voteAmount",
          "type": "uint256"
        }
      ],
      "name": "freeUp",
      "outputs": [],
      "payable": false,
      "stateMutability": "nonpayable",
      "type": "function"
    }
  ],
  "bytecode": "0x6080604052336000806101000a81548173ffffffffffffffffffffffffffffffffffffffff021916908373ffffffffffffffffffffffffffffffffffffffff1602179055507fc2d62e13d268888c08a92c0d176917add9692fa0520b515db33e63138763ad916000809054906101000a900473ffffffffffffffffffffffffffffffffffffffff16604051808273ffffffffffffffffffffffffffffffffffffffff1673ffffffffffffffffffffffffffffffffffffffff16815260200191505060405180910390a133600160006101000a81548173ffffffffffffffffffffffffffffffffffffffff021916908373ffffffffffffffffffffffffffffffffffffffff160217905550611e05806101186000396000f300608060405260043610610112576000357c0100000000000000000000000000000000000000000000000000000000900463ffffffff168063078ebc75146101175780630cadffb71461015a5780631a8da495146101b15780631ffeafa3146101fe57806351542e3a14610229578063547d80201461029257806370a0823114610510578063715018a614610567578063741b53cd1461057e5780638796d43d146105d55780638da5cb5b1461062c578063a431614a14610683578063b2bdfa7b146106da578063bcbb951414610731578063be7604881461075e578063d851aebf146107ab578063ed0b2e4f146107ee578063f2fde38b14610831578063f427b13514610874578063fce1ccca146108dd575b600080fd5b34801561012357600080fd5b50610158600480360381019080803573ffffffffffffffffffffffffffffffffffffffff169060200190929190505050610934565b005b34801561016657600080fd5b5061019b600480360381019080803573ffffffffffffffffffffffffffffffffffffffff1690602001909291905050506109d4565b6040518082815260200191505060405180910390f35b3480156101bd57600080fd5b506101fc600480360381019080803573ffffffffffffffffffffffffffffffffffffffff16906020019092919080359060200190929190505050610b24565b005b34801561020a57600080fd5b50610213610bb7565b6040518082815260200191505060405180910390f35b34801561023557600080fd5b50610290600480360381019080803590602001908201803590602001908080601f0160208091040260200160405190810160405280939291908181526020018383808284378201915050505050509192919290505050610bbd565b005b34801561029e57600080fd5b506102f9600480360381019080803590602001908201803590602001908080601f0160208091040260200160405190810160405280939291908181526020018383808284378201915050505050509192919290505050610dc5565b604051808c81526020018b81526020018a81526020018060200180602001806020018973ffffffffffffffffffffffffffffffffffffffff1673ffffffffffffffffffffffffffffffffffffffff1681526020018873ffffffffffffffffffffffffffffffffffffffff1673ffffffffffffffffffffffffffffffffffffffff1681526020018773ffffffffffffffffffffffffffffffffffffffff1673ffffffffffffffffffffffffffffffffffffffff168152602001861515151581526020018515151515815260200184810384528c818151815260200191508051906020019080838360005b838110156103fd5780820151818401526020810190506103e2565b50505050905090810190601f16801561042a5780820380516001836020036101000a031916815260200191505b5084810383528b818151815260200191508051906020019080838360005b83811015610463578082015181840152602081019050610448565b50505050905090810190601f1680156104905780820380516001836020036101000a031916815260200191505b5084810382528a818151815260200191508051906020019080838360005b838110156104c95780820151818401526020810190506104ae565b50505050905090810190601f1680156104f65780820380516001836020036101000a031916815260200191505b509e50505050505050505050505050505060405180910390f35b34801561051c57600080fd5b50610551600480360381019080803573ffffffffffffffffffffffffffffffffffffffff1690602001909291905050506111fe565b6040518082815260200191505060405180910390f35b34801561057357600080fd5b5061057c611408565b005b34801561058a57600080fd5b506105bf600480360381019080803573ffffffffffffffffffffffffffffffffffffffff16906020019092919050505061150d565b6040518082815260200191505060405180910390f35b3480156105e157600080fd5b506105ea611519565b604051808273ffffffffffffffffffffffffffffffffffffffff1673ffffffffffffffffffffffffffffffffffffffff16815260200191505060405180910390f35b34801561063857600080fd5b5061064161153f565b604051808273ffffffffffffffffffffffffffffffffffffffff1673ffffffffffffffffffffffffffffffffffffffff16815260200191505060405180910390f35b34801561068f57600080fd5b50610698611565565b604051808273ffffffffffffffffffffffffffffffffffffffff1673ffffffffffffffffffffffffffffffffffffffff16815260200191505060405180910390f35b3480156106e657600080fd5b506106ef61158b565b604051808273ffffffffffffffffffffffffffffffffffffffff1673ffffffffffffffffffffffffffffffffffffffff16815260200191505060405180910390f35b34801561073d57600080fd5b5061075c600480360381019080803590602001909291905050506115b5565b005b34801561076a57600080fd5b506107a9600480360381019080803573ffffffffffffffffffffffffffffffffffffffff169060200190929190803590602001909291905050506115bf565b005b3480156107b757600080fd5b506107ec600480360381019080803573ffffffffffffffffffffffffffffffffffffffff169060200190929190505050611652565b005b3480156107fa57600080fd5b5061082f600480360381019080803573ffffffffffffffffffffffffffffffffffffffff1690602001909291905050506116f2565b005b34801561083d57600080fd5b50610872600480360381019080803573ffffffffffffffffffffffffffffffffffffffff169060200190929190505050611850565b005b34801561088057600080fd5b506108db600480360381019080803590602001908201803590602001908080601f01602080910402602001604051908101604052809392919081815260200183838082843782019150505050505091929192905050506118c0565b005b3480156108e957600080fd5b506108f2611ad2565b604051808273ffffffffffffffffffffffffffffffffffffffff1673ffffffffffffffffffffffffffffffffffffffff16815260200191505060405180910390f35b600160009054906101000a900473ffffffffffffffffffffffffffffffffffffffff1673ffffffffffffffffffffffffffffffffffffffff163373ffffffffffffffffffffffffffffffffffffffff1614151561099057600080fd5b80600460006101000a81548173ffffffffffffffffffffffffffffffffffffffff021916908373ffffffffffffffffffffffffffffffffffffffff16021790555050565b6000600460009054906101000a900473ffffffffffffffffffffffffffffffffffffffff1673ffffffffffffffffffffffffffffffffffffffff1663613e9ca4836040518263ffffffff167c0100000000000000000000000000000000000000000000000000000000028152600401808273ffffffffffffffffffffffffffffffffffffffff1673ffffffffffffffffffffffffffffffffffffffff168152602001915050602060405180830381600087803b158015610a9357600080fd5b505af1158015610aa7573d6000803e3d6000fd5b505050506040513d6020811015610abd57600080fd5b810190808051906020019092919050505015610b1a57600560008373ffffffffffffffffffffffffffffffffffffffff1673ffffffffffffffffffffffffffffffffffffffff168152602001908152602001600020549050610b1f565b600090505b919050565b6000600660405180807f6672656555700000000000000000000000000000000000000000000000000000815250600601905090815260200160405180910390209050828160060160006101000a81548173ffffffffffffffffffffffffffffffffffffffff021916908373ffffffffffffffffffffffffffffffffffffffff160217905550818160000181905550505050565b60075481565b610bc5611c13565b806006836040518082805190602001908083835b602083101515610bfe5780518252602082019150602081019050602083039250610bd9565b6001836020036101000a03801982511681845116808217855250505050505090500191505090815260200160405180910390206000820151816000015560208201518160010155604082015181600201556060820151816003019080519060200190610c6b929190611cb4565b506080820151816004019080519060200190610c88929190611cb4565b5060a0820151816005019080519060200190610ca5929190611cb4565b5060c08201518160060160006101000a81548173ffffffffffffffffffffffffffffffffffffffff021916908373ffffffffffffffffffffffffffffffffffffffff16021790555060e08201518160070160006101000a81548173ffffffffffffffffffffffffffffffffffffffff021916908373ffffffffffffffffffffffffffffffffffffffff1602179055506101008201518160080160006101000a81548173ffffffffffffffffffffffffffffffffffffffff021916908373ffffffffffffffffffffffffffffffffffffffff1602179055506101208201518160080160146101000a81548160ff0219169083151502179055506101408201518160080160156101000a81548160ff0219169083151502179055509050505050565b600080600060608060606000806000806000610ddf611c13565b60068d6040518082805190602001908083835b602083101515610e175780518252602082019150602081019050602083039250610df2565b6001836020036101000a03801982511681845116808217855250505050505090500191505090815260200160405180910390206101606040519081016040529081600082015481526020016001820154815260200160028201548152602001600382018054600181600116156101000203166002900480601f016020809104026020016040519081016040528092919081815260200182805460018160011615610100020316600290048015610f0e5780601f10610ee357610100808354040283529160200191610f0e565b820191906000526020600020905b815481529060010190602001808311610ef157829003601f168201915b50505050508152602001600482018054600181600116156101000203166002900480601f016020809104026020016040519081016040528092919081815260200182805460018160011615610100020316600290048015610fb05780601f10610f8557610100808354040283529160200191610fb0565b820191906000526020600020905b815481529060010190602001808311610f9357829003601f168201915b50505050508152602001600582018054600181600116156101000203166002900480601f0160208091040260200160405190810160405280929190818152602001828054600181600116156101000203166002900480156110525780601f1061102757610100808354040283529160200191611052565b820191906000526020600020905b81548152906001019060200180831161103557829003601f168201915b505050505081526020016006820160009054906101000a900473ffffffffffffffffffffffffffffffffffffffff1673ffffffffffffffffffffffffffffffffffffffff1673ffffffffffffffffffffffffffffffffffffffff1681526020016007820160009054906101000a900473ffffffffffffffffffffffffffffffffffffffff1673ffffffffffffffffffffffffffffffffffffffff1673ffffffffffffffffffffffffffffffffffffffff1681526020016008820160009054906101000a900473ffffffffffffffffffffffffffffffffffffffff1673ffffffffffffffffffffffffffffffffffffffff1673ffffffffffffffffffffffffffffffffffffffff1681526020016008820160149054906101000a900460ff161515151581526020016008820160159054906101000a900460ff1615151515815250509050806000015181602001518260400151836060015184608001518560a001518660c001518760e001518861010001518961012001518a61014001518797508696508595509b509b509b509b509b509b509b509b509b509b509b505091939597999b90929496989a50565b6000611401600360009054906101000a900473ffffffffffffffffffffffffffffffffffffffff1673ffffffffffffffffffffffffffffffffffffffff166370a08231846040518263ffffffff167c0100000000000000000000000000000000000000000000000000000000028152600401808273ffffffffffffffffffffffffffffffffffffffff1673ffffffffffffffffffffffffffffffffffffffff168152602001915050602060405180830381600087803b1580156112c057600080fd5b505af11580156112d4573d6000803e3d6000fd5b505050506040513d60208110156112ea57600080fd5b8101908080519060200190929190505050600460009054906101000a900473ffffffffffffffffffffffffffffffffffffffff1673ffffffffffffffffffffffffffffffffffffffff166370a08231856040518263ffffffff167c0100000000000000000000000000000000000000000000000000000000028152600401808273ffffffffffffffffffffffffffffffffffffffff1673ffffffffffffffffffffffffffffffffffffffff168152602001915050602060405180830381600087803b1580156113b857600080fd5b505af11580156113cc573d6000803e3d6000fd5b505050506040513d60208110156113e257600080fd5b8101908080519060200190929190505050611afb90919063ffffffff16565b9050919050565b600160009054906101000a900473ffffffffffffffffffffffffffffffffffffffff1673ffffffffffffffffffffffffffffffffffffffff163373ffffffffffffffffffffffffffffffffffffffff1614151561146457600080fd5b600160009054906101000a900473ffffffffffffffffffffffffffffffffffffffff1673ffffffffffffffffffffffffffffffffffffffff167ff8df31144d9c2f0f6b59d69b8b98abd5459d07f2742c4df920b25aae33c6482060405160405180910390a26000600160006101000a81548173ffffffffffffffffffffffffffffffffffffffff021916908373ffffffffffffffffffffffffffffffffffffffff160217905550565b60006007549050919050565b600360009054906101000a900473ffffffffffffffffffffffffffffffffffffffff1681565b600160009054906101000a900473ffffffffffffffffffffffffffffffffffffffff1681565b600460009054906101000a900473ffffffffffffffffffffffffffffffffffffffff1681565b6000600160009054906101000a900473ffffffffffffffffffffffffffffffffffffffff16905090565b8060078190555050565b6000600660405180807f61737369676e0000000000000000000000000000000000000000000000000000815250600601905090815260200160405180910390209050828160060160006101000a81548173ffffffffffffffffffffffffffffffffffffffff021916908373ffffffffffffffffffffffffffffffffffffffff160217905550818160000181905550505050565b600160009054906101000a900473ffffffffffffffffffffffffffffffffffffffff1673ffffffffffffffffffffffffffffffffffffffff163373ffffffffffffffffffffffffffffffffffffffff161415156116ae57600080fd5b80600360006101000a81548173ffffffffffffffffffffffffffffffffffffffff021916908373ffffffffffffffffffffffffffffffffffffffff16021790555050565b6000809054906101000a900473ffffffffffffffffffffffffffffffffffffffff1673ffffffffffffffffffffffffffffffffffffffff163373ffffffffffffffffffffffffffffffffffffffff1614151561174d57600080fd5b600073ffffffffffffffffffffffffffffffffffffffff168173ffffffffffffffffffffffffffffffffffffffff161415151561178957600080fd5b806000806101000a81548173ffffffffffffffffffffffffffffffffffffffff021916908373ffffffffffffffffffffffffffffffffffffffff1602179055507fc2d62e13d268888c08a92c0d176917add9692fa0520b515db33e63138763ad916000809054906101000a900473ffffffffffffffffffffffffffffffffffffffff16604051808273ffffffffffffffffffffffffffffffffffffffff1673ffffffffffffffffffffffffffffffffffffffff16815260200191505060405180910390a150565b600160009054906101000a900473ffffffffffffffffffffffffffffffffffffffff1673ffffffffffffffffffffffffffffffffffffffff163373ffffffffffffffffffffffffffffffffffffffff161415156118ac57600080fd5b60056002819055506118bd81611b17565b50565b60006006826040518082805190602001908083835b6020831015156118fa57805182526020820191506020810190506020830392506118d5565b6001836020036101000a038019825116818451168082178552505050505050905001915050908152602001604051809103902090506000816000018190555060008160010181905550600081600201819055506020604051908101604052806000815250816003019080519060200190611975929190611d34565b50602060405190810160405280600081525081600401908051906020019061199e929190611d34565b5060206040519081016040528060008152508160050190805190602001906119c7929190611d34565b5060008160060160006101000a81548173ffffffffffffffffffffffffffffffffffffffff021916908373ffffffffffffffffffffffffffffffffffffffff16021790555060008160070160006101000a81548173ffffffffffffffffffffffffffffffffffffffff021916908373ffffffffffffffffffffffffffffffffffffffff16021790555060008160080160006101000a81548173ffffffffffffffffffffffffffffffffffffffff021916908373ffffffffffffffffffffffffffffffffffffffff16021790555060008160080160146101000a81548160ff02191690831515021790555060008160080160156101000a81548160ff0219169083151502179055505050565b60008060009054906101000a900473ffffffffffffffffffffffffffffffffffffffff16905090565b60008183019050828110151515611b0e57fe5b80905092915050565b600073ffffffffffffffffffffffffffffffffffffffff168173ffffffffffffffffffffffffffffffffffffffff1614151515611b5357600080fd5b8073ffffffffffffffffffffffffffffffffffffffff16600160009054906101000a900473ffffffffffffffffffffffffffffffffffffffff1673ffffffffffffffffffffffffffffffffffffffff167f8be0079c531659141344cd1fd0a4f28419497f9722a3daafe3b4186f6b6457e060405160405180910390a380600160006101000a81548173ffffffffffffffffffffffffffffffffffffffff021916908373ffffffffffffffffffffffffffffffffffffffff16021790555050565b61016060405190810160405280600081526020016000815260200160008152602001606081526020016060815260200160608152602001600073ffffffffffffffffffffffffffffffffffffffff168152602001600073ffffffffffffffffffffffffffffffffffffffff168152602001600073ffffffffffffffffffffffffffffffffffffffff1681526020016000151581526020016000151581525090565b828054600181600116156101000203166002900490600052602060002090601f016020900481019282601f10611cf557805160ff1916838001178555611d23565b82800160010185558215611d23579182015b82811115611d22578251825591602001919060010190611d07565b5b509050611d309190611db4565b5090565b828054600181600116156101000203166002900490600052602060002090601f016020900481019282601f10611d7557805160ff1916838001178555611da3565b82800160010185558215611da3579182015b82811115611da2578251825591602001919060010190611d87565b5b509050611db09190611db4565b5090565b611dd691905b80821115611dd2576000816000905550600101611dba565b5090565b905600a165627a7a72305820185ddde0767e6920ac8188d3709edc4933bf4bcbaac87377ec2427dea29fda960029",
  "source": "pragma solidity >=0.4.22 <0.6.0;\r\nimport '../utility/VotingLocked.sol';\r\nimport '../utility/Ownable.sol';\r\nimport '../utility/SafeMath.sol';\r\nimport './InactiveToken.sol';\r\nimport './ActiveToken.sol';\r\nimport './VotingToken.sol';\r\nimport '../ContractStub.sol';\r\n\r\ncontract VotingTokenStub is VotingToken, ContractStub {\r\n  uint256 public mockFreedUpBalance;\r\n\r\n  function setFreedUpBalance (uint256 n) public {\r\n    mockFreedUpBalance = n;\r\n  }\r\n\r\n  function freedUpBalanceOf (address a) public view returns (uint256) {\r\n    return mockFreedUpBalance;\r\n  }\r\n\r\n  function assign (address voter, uint256 voteAmount) public {\r\n    CallData storage methodState = method['assign'];\r\n    methodState.firstAddress = voter;\r\n    methodState.firstUint = voteAmount;\r\n  }\r\n\r\n  function freeUp (address voter, uint256 voteAmount) public {\r\n    CallData storage methodState = method['freeUp'];\r\n    methodState.firstAddress = voter;\r\n    methodState.firstUint = voteAmount;\r\n  }\r\n}\r\n",
  "sourcePath": "D:\\Projects\\SUWiserLLC\\truffle\\contracts\\token\\VotingTokenStub.sol",
  "compiler": {
    "name": "solc",
    "version": "0.4.24+commit.e67f0147.Emscripten.clang"
  },
  "schemaVersion": "2.0.1",
  "updatedAt": "2022-02-24T15:34:39.605Z"
}